:020000040800F2
:100000004048002005020008093D00081D3C00088A
:10001000913C0008991500086140000800000000AC
:10002000000000000000000000000000313E000859
:100030009D150008000000000D3D0008F93E000875
:100040001F0200081F0200081F0200081F0200080C
:100050001F0200081F020008A11500081F02000867
:100060001F0200081F0200081F0200081F020008EC
:100070001F0200081F0200081F0200081F020008DC
:100080001F0200081F0200081F0200081F020008CC
:100090001F0200081F0200081F020008A91500081F
:1000A0001F0200081F0200081F0200081F020008AC
:1000B0001F0200081F0200081F0200081F0200089C
:1000C0001F0200081F0200081F0200081F0200088C
:1000D0001F0200081F0200081F0200085540000808
:1000E0001F0200081F0200081F02000800F002F8AB
:1000F00000F078F814A696E8000CB244B344DA4550
:1001000001D100F06FF8BAE80F000FA696E83000B2
:10011000A5EB040504EB0607AAEB0704A7F101070A
:100120004FEA15154FEA3414A4F10104AC4201D38F
:1001300000F058F813F0010F18BFFB1A43F0010349
:1001400000F001F8DBE718477062000090620000E1
:10015000103A24BF78C878C1FAD8520724BF30C8F3
:1001600030C144BF04680C60704700007047000055
:100170000023002400250026103A28BF78C1FBD8B0
:10018000520728BF30C148BF0B607047692900F093
:10019000CF80642900F0CC80752900F0C9806F29D8
:1001A00000F06081782900F087810368DB0928BFAF
:1001B00041F08001632900F08C83732900F0918362
:1001C000E32900F09C83002070471FB500F07AFC03
:1001D00004000020002105F035FA401C60601FBDBE
:1001E00010B510BD00F048FC1146FFF7EEFF04F01B
:1001F00069F800F06BFC03B4FFF7F2FF03BC00F0FA
:10020000AFFC00000948804709480047FEE7FEE7C9
:10021000FEE7FEE7FEE7FEE7FEE7FEE7FEE7FEE7B6
:1002200004480549054A064B70470000FD3E00089A
:10023000ED000008404200204048002040440020DB
:10024000404400200FB41CB5074B06AA7B44694606
:100250000090059800F01BFB0020694600F02AFB87
:100260001CBC5DF814FB00006506000070B5044678
:1002700085690068C10601D5302600E02026C00748
:1002800007D070BDD4E9012130469047206A401C58
:1002900020626D1EF6D570BD70B504468569007884
:1002A000C00707D170BDD4E9012120209047206A02
:1002B000401C20626D1EF6D570BD09684A0501D547
:1002C00040B27047C905FCD500B2704709684A05BD
:1002D00001D5C0B27047C905FCD580B2704770B572
:1002E0000C460546012A05D02878800600D5EA6923
:1002F000002302E0012305E05B1C934202D2E05C94
:100300000028F9D1A869E618C01AA861286A18441B
:1003100028622846FFF7AAFF04E0D5E9012114F876
:10032000010B9047B442F8D32846FFF7B5FF70BDE4
:100330002DE9F0410646002410687529314616A5BE
:1003400010D0FFF7BAFF002802DA404213A507E0F9
:1003500031688A0701D512A502E0490704D511A525
:10036000012401E0FFF7B2FF00210A2206F1240771
:1003700009E0B0FBF2FCB0FBF2F302FB1C003030F2
:1003800078541846491C0028F3D123462A463046A3
:10039000BDE8F04100F01DBA000000002D00000093
:1003A0002B000000200000002DE9FF5F15468A4663
:1003B0000446DFF8AC80F8440027D8E900103E4638
:1003C000CDE9001010E03AF816106A4602A800F0D5
:1003D000A2FA411C07D02178890603D5E2693918B1
:1003E00091420DD80744761C2078800602D5E0693A
:1003F000B84205DDAE42E6DB3AF816000028E2D14D
:10040000A069C01BA0612046FFF730FFD8E90010AB
:10041000CDE90010002017E03AF818106A4602A84B
:1004200000F079FAB0F1FF3F81460BD000250DF1C5
:10043000080B05E0D4E901211BF8050090476D1C6D
:100440004D45F7D308F10100B0428046E4DB206A55
:10045000384420622046FFF71FFFBDE8FF9F0000E1
:100460004E5F000070B5044621461068FFF72EFF6E
:10047000002104F1240505E000F007023032C00835
:100480006A54491C0028F7D12068002308A20507F8
:1004900008D500F02000084304D0E069012305A23C
:1004A000401EE0612046BDE8704000F092B90000B7
:1004B000000000003000000070B504460D462146E3
:1004C0001068FFF703FF2188090502D50F4A7A4417
:1004D00002E00E4A7A440E32002104F1240305E0C2
:1004E00000F00F060009965D5E54491C0028F7D104
:1004F00020780023000704D5702D02D009B1022313
:1005000011322046BDE8704000F063B93E5E000045
:100510002DE9F05F894604464FF0000ADFF874B118
:10052000FB44C0F820A02046E1688847002874D02A
:10053000252806D0D4E901219047206A401C20627A
:10054000F1E700265F462046E168884720280546F7
:1005500007DB312D05D2781910F8200C08B10643BD
:10056000F1E7B00701D526F00406C4F81CA0002767
:10057000C4F818A02A2D09D0284605F035F838B35C
:1005800004EB8708303DC8F8185019E059F8041BEF
:10059000204604EB87029161E1688847012F0546F8
:1005A00018D1E069002820DA26F020061DE0D8F8EE
:1005B000180000EB800005EB40003038C8F8180048
:1005C0002046E1688847054605F00EF80028EED180
:1005D000012F0AD02E2D08D12046E16888477F1CC4
:1005E0000546022F46F02006C4DBA069002803DA86
:1005F000404246F00106A061F00701D026F0100647
:100600006C2D0BD0682D09D04C2D39D06A2D35D0EA
:10061000742D35D07A2D33D016E038E0E1682F46BE
:1006200020468847B842054609D16C2F26D04FF4A2
:100630008060E168064320468847054604E06C2F49
:100640001AD04FF4807006430DB3A5F1410019286C
:1006500002D8203546F400664A46294620462660E0
:100660004E46FFF793FD80B101280BD0F61D26F012
:10067000070000F1080956E74020E4E78020D8E7AA
:100680000020D6E706F104094DE7284652E7206A24
:10069000BDE8F09F145E000010B5431C02E010F8A6
:1006A000011B71B18107FAD14FF0013202C88C1AD7
:1006B0008C4314EAC211F9D0C01A0A0603D0C01E36
:1006C00010BDC01A10BD0A0401D0801E10BD090261
:1006D000FCD0401E10BD032A40F2308010F0030C05
:1006E00000F0158011F8013BBCF1020F624498BF85
:1006F00011F801CB00F8013B38BF11F8013BA2F122
:10070000040298BF00F801CB38BF00F8013B11F09C
:10071000030300F02481083AC0F0088051F8043B3C
:10072000083A51F804CBA0E80810F5E7121D5CBFA9
:1007300051F8043B40F8043BAFF30080D20724BFDC
:1007400011F8013B11F801CB48BF11F8012B24BF70
:1007500000F8013B00F801CB48BF00F8012B7047BF
:1007600010B5044610F0030F08BF11F0030F40F05E
:1007700015804FF0013E121FC0F20E8051F8043B6D
:10078000A3EB0E0C2CEA030C1CEACE1C08BF40F8AD
:10079000043BF0D0A1F1040102F10402521E08DB77
:1007A00011F8013B00F8013B002BF7D1114600F096
:1007B00008F9204610BD70477047704710B500F02B
:1007C0002BF9006810BD10B5044600F025F904604F
:1007D00010BD2DE9F0470D4699469246044600F1BA
:1007E00024080168880604D5E06921F01001216021
:1007F00000E00120A84201DD471B00E00027A169BD
:100800007A1902EB0900081AA0612078C00602D408
:100810002046FFF72BFD002608E0D4E901211AF855
:1008200006009047206A401C761C20624E45F4DB8F
:100830002078C0060AD52046FFF718FD06E0D4E967
:10084000012130209047206A401C2062381EA7F109
:100850000107F4DC07E0D4E9012118F8050090470E
:10086000206A401C2062281EA5F10105F3DC204609
:10087000FFF712FD2078000602D50220BDE8F087C0
:100880000120FBE701694A1C02610878704700B546
:100890008FB0CDE901310021059105497944CDE9B9
:1008A000031011466846FFF733FE0FB000BD00008D
:1008B000E5FFFFFF0A6802F8010B0A60704710B5F8
:1008C000436913B1AFF3008001E0FFF708FD012099
:1008D00010BD127800F124010A7000224A70012232
:1008E000EDE711684FF0FF32E9E710B5436913B146
:1008F000AFF3008001E0FFF757FD012010BD128823
:1009000000F1240182840022C2840122EDE71168F3
:100910004FF0FF32E9E72DE9F04116460C46054657
:1009200000F072F8036893F80101012807D0FF2C4A
:1009300012D8185D80B101202C70BDE8F081D3F889
:1009400007013246214603F20713C7182846BC4662
:10095000BDE8F041002360474FF0FF30EDE710B5F0
:10096000203AC0F00B80B1E81850A0E81850B1E868
:100970001850A0E81850203ABFF4F5AF5FEA027CA7
:1009800024BFB1E81850A0E8185044BF18C918C0D7
:10099000BDE810405FEA827C24BF51F8043B40F878
:1009A000043B08BF7047D20728BF31F8023B48BF5D
:1009B00011F8012B28BF20F8023B48BF00F8012B9B
:1009C00070474FF000020429C0F0128010F0030CB1
:1009D00000F02880CCF1040CBCF1020F18BF00F825
:1009E000012BA8BF20F8022BA1EB0C0100F01AB8D4
:1009F0005FEAC17C24BF00F8012B00F8012B48BF3F
:100A000000F8012B7047000010B500F05BF8001DE6
:100A100010BD00BF314C0000004870471800002096
:100A20004FF0000200B5134694469646203922BF87
:100A3000A0E80C50A0E80C50B1F12001BFF4F7AFD2
:100A4000090728BFA0E80C5048BF0CC05DF804EBB4
:100A5000890028BF40F8042B08BF704748BF20F822
:100A6000022B11F0804F18BF00F8012B70470000D7
:100A700000487047180000207546FFF7F9FFAE46A2
:100A800005006946534620F00700854618B020B59A
:100A9000FFF7C6FBBDE820404FF000064FF000070F
:100AA0004FF000084FF0000BAC46ACE8C009ACE8D2
:100AB000C009ACE8C009ACE8C00921F007018D46C7
:100AC00070470000004870473800002010B5044609
:100AD000AFF300802046BDE81040FFF78CBB00005C
:100AE0004FF0013C50F8042B51F8043B9A4221D1BD
:100AF000A2EB0C03934313EACC1317D150F8042B49
:100B000051F8043B9A4215D1A2EB0C03934313EA2C
:100B1000CC130BD150F8042B51F8043B9A4209D165
:100B2000A2EB0C03934313EACC13DBD04FF000008D
:100B3000704700BFD01A01BAB1FA81F101F0180173
:100B400022FA01F0CB40DBB2C0B2C01AC1F12001E1
:100B50002CFA01F3D11A914311EAC311E6D170477F
:100B600001491820ABBEFEE72600020070470000D6
:100B700044F22420C2F200000068704744F22420AE
:100B8000C2F20000808870472DE9F04F91B04EF21C
:100B9000000BC0F27F0B05A95846102203F062FA41
:100BA0000BF5805801A94046102203F05BFA9DF82E
:100BB00014109DF815209DF816309DF817701144FB
:100BC00019449DF8182039449DF8193011449DF8B6
:100BD0001A2019449DF81B3011449DF81C2019441B
:100BE0009DF81D3011449DF81E2019449DF81F30BA
:100BF000089811441944884208D10598584505D8E9
:100C00006FF31F3010B9079802E000BF4FF0FF30BC
:100C10009DF804209DF805309DF806709DF807604A
:100C20001A443A449DF8083032449DF809701A4439
:100C30009DF80A303A449DF80B701A449DF80C3028
:100C40003A449DF80D701A449DF80E303A449DF8D0
:100C50000F7004991A443A4491420BD101995945B5
:100C600008D86FF31F3129B90399B0F1FF3F06DDB2
:100C700046E000BF4FF0FF31B0F1FF3F40DC0029FC
:100C80003ED544F22429C2F20009002701200DF1CB
:100C900042040DF1400A0DF126060025C9F8007046
:100CA000A9F8040003E000BF07445F4536D2384688
:100CB0002146022203F0D6F99DF842009DF8431028
:100CC000FF2808BFFF2929D0AA284FF4805008BF69
:100CD0005529E9D147F002005146022203F0C2F93A
:100CE000BDF84000ADB2A84288BF0546384631463F
:100CF0001A2203F0B7F9304600F0B8FB0003D3E73F
:100D000088423DDC81423BDD44F22420C2F20000F7
:100D100001AF8ECF8EC011B0BDE8F08F0122C9F8AF
:100D20000820FAB2C7F3072302EB1762681CC7F367
:100D300007461A4481B2A9F80400C0B2324499F8B7
:100D40000650104499F8074000EB11202844204435
:100D50000130C9F80C005846C9F8007003F0B6F924
:100D600058464946102203F037FA404603F0AEF9E0
:100D700040464946102203F02FFA11B0BDE8F08F2B
:100D800044F22420C2F2000005AF8ECF8EC011B015
:100D9000BDE8F08F2DE9F04744F22424C2F20004AC
:100DA000A268C3B20132D6B2A260C2F30727C2F36F
:100DB000074506EB12621A443A44C0F3072A2A4454
:100DC000C0F3074C5244624420605FFA81FE02EB9C
:100DD000106094F80680704494F8079000EB11209E
:100DE00040444EF200054844C0F27F05E0602846CA
:100DF000A18003F06BF928462146102203F0ECF99C
:100E000005F58055284603F061F928462146102251
:100E1000BDE8F04703F0E0B92DE9F04F91B0FFF7DE
:100E2000A7FE002800F0B48004460AA843F2242557
:100E300000F1040901264FF0000A0DF14207C2F249
:100E400000054FF0000B019405E000BF0AF5805A41
:100E5000A24580F0A08050463946022203F002F9F4
:100E60009DF84200AA28F1D19DF843005528EDD104
:100E700050460AA91A2203F0F5F8BDF83C0041F2E9
:100E8000190101EB001499E88F000DF1100CBDF869
:100E900028808CE88F00B9F81400DA45ADF82400FA
:100EA000CDE9024622D1BDF82A00B1B288425ED017
:100EB000504629464FF4805203F0D4F8039804AF0B
:100EC00068808FCF05F1040C8CE80F00BDF824007A
:100ED000A5F80080288350466F6103F0F7F850466C
:100EE00029464FF4805203F077F940E050462946F6
:100EF0004FF48052240B03F0B5F804AF8FCF05F107
:100F0000040C8CE80F00BDF82400A5F800802883AD
:100F100058466E806F6103F0D9F8584629464FF461
:100F2000805203F059F9504603F0D0F8012C1ED03E
:100F300020460AF580540BF5805647422046294644
:100F40004FF4805203F08EF8304603F0BFF830467D
:100F500029464FF4805203F03FF9204603F0B6F8DB
:100F6000013704F58054781C06F58056E6D14FF21F
:100F700000000299C0F21F00039E0840019C8244B9
:100F8000834401360DF14207A245FFF464AF02E04D
:100F90004FF0000B0126B1B25846FFF7FBFE11B02F
:100FA000BDE8F08F2DE9F04788B00546FFF7E0FD7A
:100FB00078B34FF2000A064600240DF11E070DF12A
:100FC000040841F21909C0F21F0A03E004F5805435
:100FD000B4421ED220463946022203F043F89DF85F
:100FE0001E00AA28F2D19DF81F005528EED12046F8
:100FF00041461A2203F036F8BDF80600A8420DD08B
:10100000BDF8180009EB001000EA0A000444B442DD
:10101000E0D3002008B0BDE8F08700BF01A920465A
:101020001A2203F01FF8BDF8180041F2190101EB74
:101030000010050B204603F049F8013D04F58054EB
:10104000F8D1FFF7E9FE012008B0BDE8F087000005
:101050002DE9F04F87B088460546FFF789FD70B34C
:101060004FF2000B064600270DF11A04E94641F243
:10107000190AC0F21F0B03E007F58057B7421ED2D2
:1010800038462146022202F0EDFF9DF81A00AA28F8
:10109000F2D19DF81B005528EED1384649461A2258
:1010A00002F0E0FFBDF80200A8420DD0BDF8140028
:1010B0000AEB001000EA0B000744B742E0D300201F
:1010C00007B0BDE8F08F00BFC8F80070012007B07E
:1010D000BDE8F08F80B5FFF757FD40F27800C2F20F
:1010E00000000021416080BD40F27800C2F20000A3
:1010F000406870472DE9F04FA3B0FFF739FD044673
:1011000013AD47A128462246FFF79CF8284602F077
:10111000F7FE002C6ED04FF2000B0026C0F21F0B22
:1011200008ADE84641F21909002702E00744A7424A
:101130001CD238462946022202F094FF9DF8200076
:10114000AA284FF48050F1D19DF821105529EDD1F6
:10115000384641461A22013602F084FFBDF81400D9
:1011600009EB001000EA0B00E0E700BFB2B246F264
:10117000A7310FAEC0F600013046FFF763F83046E6
:1011800002F0BEFE002C41D005F1040800270DF14D
:101190003A0A6E4641F2190903E000BF0744A7422C
:1011A00034D238465146022202F05CFF9DF83A00E4
:1011B000AA284FF48050F1D19DF83B105529EDD16C
:1011C000384629461A2202F04DFFBDF8222046F289
:1011D0009E313046C0F600014346FFF733F83046F3
:1011E00002F08EFEBDF8340009EB001000EA0B009F
:1011F000D4E700BF46F2A7310FACC0F6000120468D
:101200000022FFF71FF8204602F07AFE46F29C30DB
:10121000C0F6000002F074FE23B0BDE8F08F00BFFE
:101220007461696C203D203078253038580A000000
:101230002DE9F04F93B0FFF79BFC002870D04FF2E0
:10124000000B04460026C0F21F0B08ADE84641F231
:101250001909002703E000BF0744A7421CD2384603
:101260002946022202F0FEFE9DF82000AA284FF433
:101270008050F1D19DF821105529EDD138464146D5
:101280001A22013602F0EEFEBDF8140009EB001040
:1012900000EA0B00E0E700BFB2B246F2AF310FAE9A
:1012A000C0F600013046FEF7CDFF304602F028FEC2
:1012B000002C41D005F1040800270DF13A0A6E46D2
:1012C00041F2190903E000BF0744A74234D238466F
:1012D0005146022202F0C6FE9DF83A00AA284FF4B9
:1012E0008050F1D19DF83B105529EDD13846294663
:1012F0001A2202F0B7FEBDF8222046F29E31304697
:10130000C0F600014346FEF79DFF304602F0F8FDAF
:10131000BDF8340009EB001000EA0B00D4E700BF71
:1013200046F2AF310FACC0F6000120460022FEF7B6
:1013300089FF204602F0E4FD46F29C30C0F6000032
:1013400002F0DEFD13B0BDE8F08F00002DE9F04F94
:1013500089B040F2A819C2F20009884649461A220B
:10136000064602F07FFE99F80000AA2842D199F8BB
:10137000010055283ED105AD284603F09FFD2846C3
:1013800002F088FCB9F81400A0B31A3600270FF257
:101390006C0A06E0B9F814000137874206F110061E
:1013A00028D200F079FB8346304601A9102202F0D2
:1013B00059FEBDF90800BDF91240BDF90A10BDF98A
:1013C0000C20BDF90E30BDF9105088E82F004046C2
:1013D000C8F8144002F02EFD504602F091FD00F0D6
:1013E0005BFB0199A0EB0B008142D3D9081A00F0F6
:1013F000F5F9CFE709B0BDE8F08F00BF310000007C
:101400002DE9F04140F27804C2F20004616800293D
:1014100008BFBDE8F081618840F2EE22914203D31B
:10142000BDE8F04100F06AB8618840F24038C2F28D
:10143000000808EB01120E0190E8AA00D380918009
:10144000D0E90410158157819181D08100F024FBEF
:1014500021692061411A48F80610608801306080D7
:10146000A0680844A060BDE8F0810000808A41F2D5
:10147000190101EB0010000B70470000F0B581B0BE
:1014800040F27805C2F200056A681AB14FF0FF30E9
:1014900001B0F0BD41F6FF7704460E46CFF68077E7
:1014A000FFF766FBC11901F54051B94208D2FFF7B9
:1014B000B3FCFFF75DFB391801F54051B942E5D3A4
:1014C000E860FFF75BFB28800027284640F8147F80
:1014D00032462146C5E906772F620F2E28BF0F221C
:1014E000FFF7F9F86F80AF6000F0D6FA0146296186
:1014F00001210020696001B0F0BD00002DE9F0413C
:1015000088B040F27806C2F200067068002840D029
:1015100000257560748841F219004FF2000100EB5C
:101520000410C0F21F014FEA041800EA010700BFCF
:10153000F068284402F0CAFD05F58055AF42F7D1A6
:10154000318845F2AA500DF10605ADF80600ADF858
:101550000810281D06F114011022FFF701F9ADF85B
:101560001A40B168F068079129461A2202F034FE49
:1015700044B1F06840F240311A30C2F200014246F4
:1015800002F02AFE3188F0680131384489B2FFF751
:1015900001FC08B0BDE8F081FEE7000070470000E4
:1015A000012000F059B900004FF4807000F054B9E8
:1015B0002DE9F04140F6000440F29C06C4F201041B
:1015C000C2F20006002041F204057070307020461F
:1015D00004210022CEF2000500F058FA40F208077C
:1015E000C2F20007286839684DF68368C4F21B38D8
:1015F000A1FB08126FF0010101EA52412A68121A98
:101600008A420BD22A68121A8A4207D22A68121A10
:101610008A4203D22A68121A8A42EFD32046042152
:10162000012200F033FA28683968A1FB0812910CF6
:1016300001EB8101490000BF2A68121A8A420BD2CD
:101640002A68121A8A4207D22A68121A8A4203D2D8
:101650002A68121A8A42EFD320460421002200F0A1
:1016600015FA296838684CF6CD42CCF6CC42A0FB7E
:10167000022301EB13117278F2B92A68521AB2F1FF
:10168000FF3F14DC7278BAB92A68521AB2F1FF3FF0
:101690000DDC727882B92A68521AB2F1FF3F06DC7B
:1016A00072784AB92A68521AB2F1FF3FE3DD4FF06F
:1016B000FF30BDE8F08100BFB1687268A0FB08038D
:1016C000881A990CB0FBF1F04CF60931C8F63D517F
:1016D000A0FB01014809BDE8F0810000014690F837
:1016E0002100022816D10868D1E90FC3026822F050
:1016F0000E020260026822F001020260012000FA7C
:1017000003F2CCF8042081F821000020002281F8A7
:1017100020207047042088630120002281F82020C7
:101720007047000090F82110022923D1026840F28E
:10173000040C1168C4F2020C21F00E011160136850
:101740002F21C4F202018A4223F00103136015DD48
:101750003023C4F202039A421CD04423C4F2020391
:101760009A421BD05823C4F202039A421CD14FF470
:10177000803321E004218163012070470823C4F2F3
:1017800002039A420ED01C23C4F202039A420BD1E8
:10179000102311E04FF480730EE000BF4FF480532C
:1017A0000AE000BF012307E00CF168014FF08073ED
:1017B0008A4208BF4FF480130121CCF8003080F832
:1017C0002110416B0022002980F8202004BF002056
:1017D000704780B58847002080BD0000B0B5044642
:1017E00000F05AF9054640F20000C2F2000000780D
:1017F000611C18BF044400BF00F04EF9401BA0421A
:10180000FAD3B0BD012818BF704780B540F600403C
:10181000C4F20100012100F033F9012840F29C00DC
:10182000C2F2000008D141F20401CEF200010968C1
:10183000416001210BE000BF017849B141F2040190
:10184000CEF2000109688160012141700021017020
:10185000BDE880407047000040F21441C4F201012D
:101860000A68024214BF08607047FFF7CBBF000050
:101870002DE9F04F82B00E68002E00F0FD8041F29D
:101880000042C4F20102042340F2004E904208BF1D
:1018900003234FF6FF7CC4F2010E009300240123C2
:1018A000C1F2100C4FF0000A4FF000094BE000BFEE
:1018B00041F20002C4F20102009F904208BF0227D9
:1018C00004F00C030F229A402BEA020207FA03F3FA
:1018D0004FEA9A051A4346F825204E6840F20C4517
:1018E000F202DEF8082054BF22EA080242EA0802A7
:1018F000C4F20105CEF808202A68B30254BF22EAD8
:10190000080242EA08022A60B303DEF8042054BF4A
:1019100022EA080242EA0802F303CEF80420DEF8C5
:1019200000204FF0010354BF22EA080242EA0802F5
:10193000CEF800200E680AF1010A36FA0AF204F124
:10194000040400F0998003FA0AFB16EA0B08F1D0B0
:101950004E68664512DC122E56D8DFE806F0350BCD
:101960004D4955555555555555555555555555454B
:10197000510000BFD1F80C9046E000BF4FF6FF7257
:10198000C1F2210296420FDC0022C1F211029642FE
:101990001AD00022C1F21202964215D00022C1F2E2
:1019A0002102964210D02FE00022C1F2220296427C
:1019B0000AD00022C1F23102964205D00022C1F2C3
:1019C0003202964220D100BF8A684AB1012A14BF70
:1019D000C0F814B0C0F810B04FF0080914E000BF10
:1019E0004FF0040910E000BFCA6802F104090BE0DF
:1019F0004FF0000908E000BFCA6802F1080903E0DF
:101A0000CA6802F10C0900BF02462646B8F5807F7D
:101A100024BF0432203E17680F25B54027EA05058C
:101A200009FA06F635431560CA79D2067FF582AF0A
:101A300041F21803C4F202031A68AEF57E7642F052
:101A400001021A601A6802F001020192019A2AF05A
:101A5000030256F802B040F60002C4F201029042BE
:101A600008D040F60042C4F2010290427FF420AF59
:101A7000012725E7002723E702B0BDE8F08F00002B
:101A80008068084018BF012070470000002A08BF86
:101A9000090401617047000044F23820C2F20000DE
:101AA0000068704740F2000044F23821C2F20000A2
:101AB000C2F2000100780A68104408607047000014
:101AC00080B542F20000C4F20200016841F010014A
:101AD0000160032000F08CF80F2000F005F800F002
:101AE00027F8002080BD000070B540F20006C2F269
:101AF000000640F208013278C2F200014FF47A7316
:101B00000968B3FBF2F20446B1FBF2F1084600F0BB
:101B100081FF0F2C4FF0010508D838B94FF0FF3086
:101B200021460022002500F037F87460284670BD79
:101B300082B041F21800C4F202000168022241F0B2
:101B400001010160016801F0010101910199416801
:101B500041F080514160406800F080500090009852
:101B60000420C4F20100016862F31A61016002B04E
:101B700070470000002848BF704700F01F01012295
:101B800002FA01F11C2202EAD0004EF20012CEF25B
:101B9000000281507047000010B54EF60C5CCEF28A
:101BA000000CDCF80030C3F3022E8EF00704042C86
:101BB00028BF0424BEF103034FF0FF3E0EFA04F4E5
:101BC00038BF0023A14399400EFA03F39A4311430F
:101BD00000F00F0200F160430901043A03F5644389
:101BE0006244002848BF02F10C03197010BD0000C8
:101BF0004EF60C51CEF200010A684FF6FF031A4070
:101C000060F30A2242F0806040F0FD700860704787
:101C1000002804BF012070472DE9F04381B042F253
:101C20000008C4F202080446D8F800000D4600F08F
:101C3000070088420CD2D8F8000020F007002843A3
:101C4000C8F80000D8F8000000F00700A8426CD1E6
:101C5000206841F204098107C4F2020917D541073F
:101C600005D5D9F8001041F4E061C9F8001001076A
:101C700005D5D9F8001041F46051C9F80010D9F821
:101C80000010A26821F0F0011143C9F80010C0074C
:101C900042D1D8F8000000F00700A8420CD9D8F8CB
:101CA000000020F007002843C8F80000D8F8000022
:101CB00000F00700A84238D12068410707D5D9F8BD
:101CC0000010E26821F4E0611143C9F80010000738
:101CD00008D5D9F80000216920F4605040EAC1001D
:101CE000C9F80000D9F8002002F00C00082841F2E1
:101CF0000020C0F27A004DD146F27233C2F3834124
:101D0000C0F60003595CD20338D440F60010C0F28C
:101D10003D0048433EE000BF606859F8041C0228BB
:101D200008D0012826D1890306D4012001B0BDE8DE
:101D3000F08300BF8901F8D5D9F8001021F0030124
:101D40000843C9F80000FFF7A7FE064641F28837AE
:101D5000D9F80000616800F00C00B0EB810F98D05A
:101D6000FFF79AFE801BB842F2D9032001B0BDE80C
:101D7000F08300BF8907D8D5DEE700BFD9F800207F
:101D800046F27033C2F34042C0F600039A5C484307
:101D9000B0FBF2F0D9F8001046F25832C1F303114B
:101DA000C0F60002515C40F2080220FA01F140F254
:101DB0000400C2F200000068C2F200021160FFF7E6
:101DC00093FE002001B0BDE8F083000040F208005F
:101DD00041F20401C2F20000C4F202010068096885
:101DE00046F26832C1F30221C0F60002515CC840DD
:101DF0007047000040F2080041F20401C2F2000006
:101E0000C4F202010068096846F26832C1F3C221D7
:101E1000C0F60002515CC84070470000002804BFB3
:101E2000012070472DE9F04182B00446007841F26C
:101E30000006C007C4F202060CD0706800F00C0067
:101E4000042840F081803068800303D56068002852
:101E500000F04681207880071BD5706810F00C0FC9
:101E600009D0706800F00C00082840F08780706886
:101E7000C00300F183803068800703D52069012802
:101E800040F02E813068616920F0F80040EAC1001E
:101E900030602078000713D4207840072CD4E569FF
:101EA000002D00F01881706800F00C00082840F048
:101EB000A780012D40F00481012002B0BDE8F0812F
:101EC000A069002800F084800020C4F24220012193
:101ED000C0F88014FFF7E0FD054600BF706A800778
:101EE00000F1B280FFF7D8FD401B0228F6D903208D
:101EF00002B0BDE8F08100BFF0695FEAC00808D415
:101F0000F06940F08050F061F06900F0805000907E
:101F1000009847F20007C4F200073868C00549D4AA
:101F2000386840F480703860FFF7B6FD054600BFA2
:101F30003868C0053ED4FFF7AFFD401B6428F7D9D1
:101F4000032002B0BDE8F081706800F00C000828A2
:101F500003D17068C0033FF576AF6168306800292F
:101F600000F00C81B1F5A02F00F00081B1F5803FA9
:101F700040F01A8140F480301CE100BF2069002845
:101F800040F20000C4F2422000F08880012101608C
:101F9000FFF782FD054600BF306880073FF572AF4E
:101FA000FFF77AFD401B0228F6D9032002B0BDE8F6
:101FB000F08100BFE168306A002900F09D800529AA
:101FC00000F09280012940F0AF8040F00100B1E0C4
:101FD0000020C4F242200021C0F88014FFF75CFD0D
:101FE000054600BF706A80077FF556AFFFF754FDC6
:101FF000401B0228F6D9032002B0BDE8F08100BFE3
:102000000027C4F2422700203866FFF745FD022D65
:1020100005460DD13068800140F1DE80FFF73CFDC0
:10202000401B02284FF00300F4D902B0BDE8F08154
:10203000306880014FD5FFF72FFD401B02284FF07D
:102040000300F5D9F1E700BF40F20800C2F200003A
:10205000006844F6D351C1F26201A0FB0101480AB5
:10206000019000BF00BF0198411E002801913FF47C
:1020700013AF00BF0198411E002801913FF40CAF3F
:1020800000BF0198411E002801913FF405AF00BF39
:102090000198411E00280191E4D1FDE60021016074
:1020A000FFF7FAFC054600BF306880077FF5F1AE08
:1020B000FFF7F2FC401B02284FF00300F4D9B4E70D
:1020C0007068216A00F480328A4209D1616A00F4A2
:1020D0007010884204D1002002B0BDE8F08100BF3A
:1020E000012002B0BDE8F08140F004003062306AA7
:1020F00040F001001EE000BF20F001003062306AB5
:1021000020F004003062FFF7C7FC054641F2883733
:10211000306A800720D5FFF7BFFC401BB8424FF064
:102120000300F5D981E700BF20F001003062306A7A
:1021300020F004003062FFF7AFFC054641F288371B
:10214000306A800708D4FFF7A7FC401BB842F7D9D4
:10215000032002B0BDE8F081B8F1000F3FF59FAE5B
:10216000F06920F08050F06199E600BF40F48020D3
:102170003060306840F480301CE000BF20F48030D4
:102180003060306820F480203060FFF785FC054621
:10219000306880037FF55EAEFFF77EFC401B64284D
:1021A0004FF00300F4D940E720F48030306030680D
:1021B00020F480203060FFF76FFC05463068800314
:1021C0003FF548AEFFF768FC401B6428F6D90320B2
:1021D00002B0BDE8F08100BF206AB0F5803F05D1B4
:1021E0007168A26821F40031114371607168626AFC
:1021F00021F4741111430843706001203866FFF721
:102200004BFC0446306880013FF565AFFFF744FCA6
:10221000001B02284FF00300F4D906E770B528B17F
:10222000416A29B100210161142106E0012070BD3D
:102230004168B1F5827F02D01C2100224250002665
:10224000866290F8511029B980F85060054600F078
:1022500039F82846022180F8511090E82E0002F447
:1022600082720C6803F4044324F040040C601A44A6
:1022700005F4006305691A4405F0020345691A4430
:1022800005F001038569C4691A4405F400731A4412
:1022900004F03803046A1A4404F08003846A1A4381
:1022A00004F400531A430A60042202EA15424A6009
:1022B000CA6922F40062CA610121466580F85110A2
:1022C000304670BD70B586B040F60044C4F20104DB
:1022D0000068A4F55441002688420596CDE90366BE
:1022E000029601D006B070BD41F21800C4F202009F
:1022F000416802AD41F480414160416801F4804190
:1023000001910199016841F00801016000682946C6
:1023100000F00800019001984FF420400290022044
:102320000390032005902046FFF7A2FA4FF4804067
:10233000CDE90206204629460496FFF799FA06B031
:1023400070BD00002DE9F04182B0044690F85100C4
:10235000012819D160681D4617460E46B0F5827FE8
:1023600001D1A068A0B1FFF797FB8046002E4FF087
:10237000010018BF002F03D102B0BDE8F08100BFFB
:1023800094F85000012811D1022002B0BDE8F0817C
:10239000042084F851002046314632463B460095E1
:1023A00000F0CEF902B0BDE8F08100BF012084F852
:1023B00050000420002184F851006165A663A787BE
:1023C000E7872163A186E186A2682068B2F5004F05
:1023D0002164616438D00168490640D5E168E08F26
:1023E000002944D000287BD0681C0CD11BE000BF22
:1023F000C068A16B21F8020BA163E08F0138E08770
:10240000E08F00286CD020688168C907F0D1FFF701
:1024100043FBA0EB0800A842F2D342E0FFF73CFBED
:10242000E08F00285CD020688168C907F6D0C068BA
:10243000A16B21F8020BA163E08F0138E087E08FE8
:102440000028F0D14CE000BF016821F0400101609C
:10245000016821F48041016001684906BED4016829
:1024600041F040010160E168E08F0029BAD1B8B3C2
:10247000681C0CD124E000BF007BA16B0870A06B2E
:102480000130A063E08F0138E087E08F40B320681F
:102490008168C907F0D1FFF7FFFAA0EB0800A84256
:1024A000F3D3012084F85100002084F85000032069
:1024B00002B0BDE8F08100BFFFF7EEFAE08F78B11F
:1024C00020688168C907F7D0007BA16B0870A06BFA
:1024D0000130A063E08F0138E087E08F0028EFD162
:1024E0006068B0F5827F11D1A068B0F5004F02D0CE
:1024F000B0F5806F0AD12168B0F5806F0A6822F0CC
:1025000040020A6002D12046012101E020468021DC
:1025100000222B46CDF8008001F0FAFB28B1606D57
:1025200040F02000606520206065012084F85100A3
:10253000002084F85000606D002818BF012002B010
:10254000BDE8F0812DE9F04182B01D4616460F46E8
:102550000446FFF7A1FA94F8511001290ED18046E4
:10256000002F4FF0010018BF002E03D102B0BDE8CC
:10257000F08100BF94F85000012803D1022002B07E
:10258000BDE8F081012084F850000320002184F888
:10259000510061652763A686E686A163A187E1876E
:1025A000A0682164B0F5004F2068616407D101681C
:1025B00021F040010160016841F48041016001683F
:1025C000490603D4016841F0400101606168731E4F
:1025D000E268B1FA81F1B3FA83F349095B09B2F514
:1025E000006F41EA030139D131B137F8021BC160F4
:1025F0002763E08E0138E086E08E002870D0681CEA
:102600000BD11AE0216B31F8022BC2602163E08EFE
:102610000138E086E08E002862D020688168890752
:10262000F0D4FFF739FAA0EB0800A842F2D338E063
:10263000FFF732FAE08E002852D0206881688907BF
:10264000F6D5216B31F8022BC2602163E08E013890
:10265000E086E08E0028F0D142E000BF39B1397841
:102660000173206B01302063E08E0138E086E08E3C
:10267000B0B3681C0BD123E0216B09780173206B88
:1026800001302063E08E0138E086E08E40B32068A0
:1026900081688907F0D4FFF7FFF9A0EB0800A84292
:1026A000F3D3012084F85100002084F85000032067
:1026B00002B0BDE8F08100BFFFF7EEF9E08E78B11F
:1026C000206881688907F7D5216B09780173206B31
:1026D00001302063E08E0138E086E08E0028EFD1E3
:1026E0002046022101222B46CDF8008001F010FB8C
:1026F00040B92046802100222B46CDF8008001F011
:1027000007FB28B1606D40F0200060652020606507
:10271000A06838B9002001902068C16801918068E4
:1027200001900198012084F85100002084F85000A5
:10273000606D002818BF012002B0BDE8F0810000E4
:102740002DE9F04383B01E4615460F460446FFF7B9
:10275000A3F994F851108146012909D1002F4FF0B7
:10276000010018BF002D0FD103B0BDE8F08300BFFA
:102770006068B0F5827F0DD104294FF00200F3D1DB
:10278000A1680029EAD0EFE7002EEDD094F85000C0
:10279000012803D1022003B0BDE8F083012084F8B2
:1027A000500094F85100002104281CBF052084F833
:1027B00051006165A563E687A6872763E6862068E2
:1027C000A686216461640168490603D4016841F06A
:1027D000400101606168731EE268B1FA81F1B3FAE9
:1027E00083F3DDF8288049095B09B2F5006F41EAFF
:1027F000030165D131B137F8021BC1602763E08E58
:102800000138E086012518F1010032D102E000BF55
:10281000FFF742F9E08E18B9E08F002800F0B88089
:102820002068816889070CD5E18E51B1012D08D14E
:10283000216B002531F8022BC2602163E18E013942
:10284000E1868168C907E3D0E18F0029E0D0C06844
:10285000A16B012521F8020BA163E08F0138E0870D
:10286000D6E700BFFFF718F9A0EB0900404580F05C
:10287000AF80E08E18B9E08F002800F089802068D2
:10288000816889070CD5E18E51B1012D08D1216BEA
:10289000002531F8022BC2602163E18E0139E18607
:1028A0008168C907DED0E18F0029DBD0C068A16B49
:1028B000012521F8020BA163E08F0138E087D1E701
:1028C00039B139780173206B01302063E08E013813
:1028D000E086012518F1010032D101E0FFF7DCF8B4
:1028E000E08E10B9E08F002852D0206881688907F7
:1028F0000ED5E18E61B1012D0AD1216B0025097839
:102900000173216B206801312163E18E0139E18679
:102910008168C907E2D0E18F0029DFD0C068A16BD0
:1029200001250870A06B0130A063E08F0138E087BB
:10293000D4E700BFFFF7B0F8A0EB0900404547D24D
:10294000E08E08B9E08F18B32068816889070ED53A
:10295000E18E61B1012D0AD1216B00250978017347
:10296000216B206801312163E18E0139E1868168A4
:10297000C907DFD0E18F0029DCD0C068A16B012539
:102980000870A06B0130A063E08F0138E087D1E7C9
:102990002046022101224346CDF8009001F0B8F90B
:1029A00040B92046802100224346CDF8009001F036
:1029B000AFF9B8B1606D40F020006065202060651F
:1029C000002084F85000012003B0BDE8F08300BF70
:1029D000012084F85100002084F85000032003B047
:1029E000BDE8F083A06838B9002002902068C16873
:1029F0000291806802900298012084F85100002022
:102A000084F85000606D002818BF012003B0BDE8B5
:102A1000F0830000411E0020B0EB116F1CBF0120AD
:102A200070474EF21002CEF2000251604EF6235172
:102A3000CEF20001F0230B70072190601160704707
:102A400090F83C20012A4FF0020236D010B580F8F1
:102A50003D200268D2F804E0D2F808C00C682EF0DD
:102A60007003234340F2FF74C4F20004A242536097
:102A70000ADCB2F1804F13D040F20043C4F20003ED
:102A80009A420DD011E000BF42F60043C4F20103A8
:102A90009A4205D040F60003C4F200039A4204D1E2
:102AA00049682CF08003194391600121002280F8CD
:102AB0003D1080F83C20BDE81040104670470000F3
:102AC000002804BF0120704710B590F83D1031B9BF
:102AD000002180F83C10044600F070F820460221E6
:102AE00080F83D10016840F2FF740B68C4F20004E6
:102AF00042F6004CA142C4F2010C15DCB1F1804F4A
:102B00001AD040F20042C4F20002914214D0A14215
:102B100018DCB1F1804F1DD040F20042C4F2000237
:102B2000914217D01AE000BF614505D040F600027F
:102B3000C4F200029142EAD1826823F07003134389
:102B4000A142E6DD614505D040F60002C4F2000274
:102B5000914203D1026923F440731343846923F043
:102B60008002D0F804E0C368224361450A60CB626A
:102B7000C1F828E002D14269CCF8302001224A6134
:102B80000B69DB0703D00B6923F001030B6180F8AD
:102B9000462080F83E2080F83F2080F8402080F8D2
:102BA000412080F8422080F8432080F8442080F8BB
:102BB000452080F83D20002010BD000083B0006853
:102BC00040F60001C4F20001884227D040F20041E3
:102BD000C4F20001884211D0B0F1804F2BD141F2F4
:102BE0001C00C4F20200016841F0010101600068AC
:102BF00000F001000290029803B0704741F21C00FF
:102C0000C4F20200016841F002010160006800F0B6
:102C100002000190019803B0704700BF41F21C0010
:102C2000C4F20200016841F004010160006800F094
:102C300004000090009803B07047000090F83C201A
:102C4000012A4FF002026CD080B580F83D20D0F808
:102C500000C04FF67772DCF8083023EA0202CCF8A5
:102C600008200B684F2B29DC1F2B45DD202B46D07D
:102C7000302B44D0402B40F0AF80D1F804E0C9683D
:102C8000DCF82030DCF8202022F00102CCF82020F3
:102C9000DCF8182022F0F00242EA011123F00A02C7
:102CA00042EA0E02CCF81810CCF82020DCF808100C
:102CB00041F0470121F0300128E000BF6F2B33DDE8
:102CC000B3F5005F74D0B3F5805F21D0702B40F076
:102CD0008380D1E901E3C968DCF8082043EA0E03E8
:102CE00022F47F4243EA01211143CCF80810DCF8BA
:102CF000081041F0770109E00BB1102B6CD1DCF822
:102D0000081021F07001194341F00701CCF80810B8
:102D10000022012180F83D10002180F83C10BDE820
:102D200080401046704700BF502B21D0602B53D1FC
:102D3000D1F804E0C968DCF82030DCF8202022F06B
:102D40001002CCF82020DCF8182022F4704242EA6D
:102D5000013123F0A00242EA0E12CCF81810CCF890
:102D60002020DCF8081041F0670121F01001CDE7C8
:102D7000D1F804E0C968DCF82030DCF8202022F02B
:102D80000102CCF82020DCF8182022F0F00242EA00
:102D9000011123F00A0242EA0E02CCF81810CCF816
:102DA0002020DCF8081041F0570121F02001ADE7A8
:102DB000D1E901E3C968DCF8082043EA0E0322F4F4
:102DC0007F4243EA01211143CCF80810DCF80810D7
:102DD00041F480419AE700BF01229AE780B586B0AE
:102DE000006840F60001C4F2000188424FF0000183
:102DF000CDE90411CDE9021160D040F20041C4F2E6
:102E0000000188422ED0B0F1804F71D141F21800FC
:102E1000C4F20200016841F008010160006802A9E3
:102E200000F0080001900198082002900220039011
:102E3000059040F60040C4F20100FEF719FD0420A1
:102E4000C4F201004FF2FF320168CFF6FF0202F533
:102E50001062114041F0E06141F48071016006B000
:102E600080BD00BF41F21800C4F20200016841F0C9
:102E700008010160006802A900F0080001900198B3
:102E80001020029002200390059040F60040C4F20A
:102E90000100FEF7EDFC0420C4F2010001684FF2CE
:102EA000FF32CFF6FF02114001F1E06101F58071C0
:102EB00001F5E061016006B080BD00BF41F218007D
:102EC000C4F20200016841F008010160006802A933
:102ED00000F00800019001984FF4707002900220F9
:102EE0000390059040F60040C4F20100FEF7C0FCDC
:102EF00006B080BD90F83C30012B04BF0220704723
:102F00004FEAB202032A00F2F1802DE9F043DFE834
:102F100002F003A53B7500BF036842F600461D6A38
:102F20001A6AC4F2010622F001021A621A465C68AB
:102F300052F818CFB3428E68D1F800E025F00205B0
:102F400045EA06050CD1CE68D1E9057824F4407431
:102F500025F00C0526F004063C43354344EA0804FA
:102F60002CF0730747EA0E075C609F614F680969A0
:102F70005F631D629F6947F008079F619F6927F0A3
:102F800004079F61A6E000BF036842F600461D6A81
:102F90001A6AC4F2010622F480721A621A46D3F841
:102FA00004C052F81CEFB3428E680C6825F400751B
:102FB00045EA06250FD1CE68D1E90598360240F2E0
:102FC000FF4725F44065BE4335432CF4405748EA9B
:102FD000090647EA061C2EF073072743C3F804C00E
:102FE000DF614F680969DF631D62DF6947F0080729
:102FF000DF61DF6927F00407DF616BE0036842F6F9
:103000000047D3F820C01A6AC4F2010722F48052A4
:103010001A621A465C6852F81C5FD1F800E08E68AC
:10302000BB4204D14F6924F4804444EA87142CF451
:10303000005747EA063725F4E64646EA0E265C6066
:10304000DE614E6809691E641F62DF6947F400672C
:10305000DF61DF6927F48067DF613AE0036842F6E9
:1030600000461D6A1A6AC4F2010622F010021A62B2
:103070001A46D3F804C052F8184FB3428E68D1F8FC
:1030800000E025F0200545EA06150FD1CE68D1E90C
:1030900005986FF0400725F0C00507EA061635438E
:1030A0002CF4406748EA090647EA860C24F4E64413
:1030B00044EA0E27C3F804C09F614F6809699F6303
:1030C0001D629F6947F400679F619F6927F48067CD
:1030D0009F6109021368194311600021BDE8F043A4
:1030E000002280F83C200846704700BF01210022E2
:1030F00080F83C2008467047002804BF0120704734
:1031000010B590F83D1031B9002180F83C1004460C
:1031100000F070F82046022180F83D10016840F26E
:10312000FF740B68C4F2000442F6004CA142C4F2E2
:10313000010C15DCB1F1804F1AD040F20042C4F20C
:103140000002914214D0A14218DCB1F1804F1DD091
:1031500040F20042C4F20002914217D01AE000BFD0
:10316000614505D040F60002C4F200029142EAD166
:10317000826823F070031343A142E6DD614505D068
:1031800040F60002C4F20002914203D1026923F426
:1031900040731343846923F08002D0F804E0C368CD
:1031A000224361450A60CB62C1F828E002D142693E
:1031B000CCF8302001224A610B69DB0703D00B6990
:1031C00023F001030B6180F8462080F83E2080F850
:1031D0003F2080F8402080F8412080F8422080F88D
:1031E000432080F8442080F8452080F83D200020CE
:1031F00010BD000070470000C1B1042908D00829A3
:1032000014BF41224022825C012A05D016E000BF93
:103210003F22825C012A11D10222082910D0042900
:1032200014BF80F8412080F83F200BE090F83E204A
:10323000012A03D1022280F83E2003E001207047DA
:1032400080F84020006801F01F010122036A8A40D3
:1032500023EA02010162036A42F64441C4F2010119
:103260001A43A1F14403984202620FD040F2FF7169
:10327000C4F20001884213DCB0F1804F1CD040F250
:103280000041C4F20001884216D01CE00A6842F4F2
:1032900000420A6040F2FF71C4F200018842EBDD97
:1032A00042F60041C4F20101884205D040F6000117
:1032B000C4F20001884206D1816801F007010629A5
:1032C00004BF00207047016841F001010160002047
:1032D000704700007047000070470000B0B582B032
:1032E00001680A68CC684B6902F02F05202D04F0B4
:1032F000200505D125B102B0BDE8B04000F02ABEDE
:103300005FEA027C1EBF03F0010E04F4907313EB1E
:103310000E0341D1036BD50618D5012B16D114F03D
:10332000100313D0002201920A6801924A680192A8
:10333000019A496949064BD4818DC28DC38D002BFA
:1033400018BF914240F0F48102B0B0BD13062DD5F4
:1033500014F080032AD090F84120212AF4D1826809
:10336000B2F5805F03D10269002A00F06782026A29
:10337000531C036212784A60C28C013A1304C2845F
:10338000E2D1C86820F08000C860C86840F0400002
:10339000C86002B0B0BD00BFD30718BF14F480737B
:1033A00040F0D080530700F1D380D8E05206CBD54F
:1033B00014F04002C8D0CA6822F04002CA6020213E
:1033C00080F8411002B0BDE8B04000F025BC00BF5D
:1033D000C16B0A68526893B2002BB5D0858DAB42A1
:1033E000B2D2C2858969202900F0A180016851E824
:1033F000031F026821F4807142E80313DBB1016806
:1034000051E8031F026821F4807142E8031393B16D
:10341000016851E8031F026821F4807142E8031338
:103420004BB1016851E8031F026821F4807142E842
:103430000313002BDAD1016851E8051F026821F05F
:10344000010142E80513C3B3016851E8051F026892
:1034500021F0010142E805137BB3016851E8051F23
:10346000026821F0010142E8051333B3016851E815
:10347000051F026821F0010142E80513002BDAD193
:103480001BE000BF016851E8051F026821F0400100
:1034900042E80513DBB1016851E8051F026821F01D
:1034A000400142E8051393B1016851E8051F026825
:1034B00021F0400142E805134BB1016851E8051FB6
:1034C000026821F0400142E80513002BDAD12021E7
:1034D00080F8421000210163016851E8031F02686F
:1034E00021F0100142E80313DBB1016851E8031F2A
:1034F000026821F0100142E8031393B1016851E81A
:10350000031F026821F0100142E803134BB1016868
:1035100051E8031F026821F0100142E80313002B59
:10352000DAD1C16B04460846FEF7D8F820460221DE
:103530004163818DC28D891A89B202B0BDE8B04065
:10354000FFF7C8BE436C43F001034364530706D53D
:10355000BEF1000F03D0436C43F0020343649307B2
:1035600006D5BEF1000F03D0436C43F0040343645F
:10357000BCF1000F06D55EEA050303D0436C43F0AF
:1035800008034364436C002B3FF4DEAE920605D57E
:1035900025B1044600F0DEFC216820464969426CF2
:1035A00001F0400102F00802891800F0B98000BF64
:1035B000016851E8031F026821F4907142E8031387
:1035C000BBB3016851E8031F026821F4907142E81F
:1035D000031373B3016851E8031F026821F490716B
:1035E00042E803132BB3016851E8031F026821F47A
:1035F000907142E80313002BDAD11AE0016851E818
:10360000051F026821F0010142E80513DBB10168E2
:1036100051E8051F026821F0010142E8051393B14A
:10362000016851E8051F026821F0010142E8051315
:103630004BB1016851E8051F026821F0010142E821
:103640000513002BDAD1016B012924D1016851E85F
:10365000031F026821F0100142E80313DBB1016887
:1036600051E8031F026821F0100142E8031393B1EF
:10367000016851E8031F026821F0100142E80313BA
:103680004BB1016851E8031F026821F0100142E8C4
:103690000313002BDAD1202180F8421000210163AE
:1036A00001684969490640F1C380016851E8051F76
:1036B000026821F0400142E80513DBB1016851E8DE
:1036C000051F026821F0400142E8051393B101682B
:1036D00051E8051F026821F0400142E805134BB193
:1036E000016851E8051F026821F0400142E8051316
:1036F000002BDAD1C16B002900F09A8043F64972A1
:10370000C0F60002044608464A63FEF70BF800289C
:103710003FF41AAEE06B416B02B0BDE8B040084721
:103720000446FFF7D9FD0020606402B0B0BD00BFC1
:10373000891A00BF026852E8032F036822F49072CE
:1037400043E80325BDB3026852E8032F036822F45F
:10375000907243E8032575B3026852E8032F0368AB
:1037600022F4907243E803252DB3026852E8032F38
:10377000036822F4907243E80325002DDAD11AE0A1
:10378000026852E8052F036822F0010243E805258C
:10379000DDB1026852E8052F036822F0010243E818
:1037A000052595B1026852E8052F036822F0010251
:1037B00043E805254DB1026852E8052F036822F061
:1037C000010243E80525002DDAD1202280F84220AD
:1037D00000220263026852E8032F036822F01002FD
:1037E00043E80325DDB1026852E8032F036822F0A5
:1037F000100243E8032595B1026852E8032F0368DD
:1038000022F0100243E803254DB1026852E8032F6D
:10381000036822F0100243E80325002DDAD10222CA
:1038200089B2426302B0BDE8B040FFF753BD00BFAC
:1038300002B0BDE8B040FFF74FBD00BF026A32F8EA
:10384000023B6FF35F234B60026295E5002804BFE3
:103850000120704710B5044690F8410028B90020B7
:1038600084F84000204600F063F8242084F84100EA
:103870002068D4E90212C36823F40053C3600369CB
:1038800023F440531A430261D4E904231143C2686C
:10389000194341F20C639A431143C1604169A26923
:1038A00021F44071114343F60002C4F20102904238
:1038B000416103D0FEF78AFA02E000BFFEF79AFAF0
:1038C000D4E90023192148439900B0FBF1F048F2F4
:1038D0001F5CC5F2EB1CA0FB0C314FF69C73490931
:1038E000C0F6FF7301FB0300322303EB0010A0FBC3
:1038F0000C03F02000EA531000EB0110C3F3431156
:10390000084490601069202120F4904010615069B3
:1039100020F02A005061D06840F40050D0600020B0
:10392000606484F8411084F84210606310BD0000A8
:1039300070B586B040F60044C4F201040068A4F5F6
:103940004441002688420596CDE90366029601D0DF
:1039500006B070BD41F21800C4F20200416802AD29
:1039600041F480214160416801F480210191019975
:10397000016841F0080101600068294600F0080074
:10398000019001984FF48060029002200390032080
:1039900005902046FDF76CFF4FF40060CDE902066C
:1039A000204629460496FDF763FF272000210022C8
:1039B000FEF7F2F82720FEF7DDF806B070BD000034
:1039C00090F84230202B07D100294FF0010318BF97
:1039D000002A05D11846704702231846704700BFD9
:1039E00000230363816222218285C285436480F8BB
:1039F00042100169006819B1C16841F48071C16069
:103A0000416941F001014161C16841F02001C1609B
:103A10001846704744F23C20C2F20000007844F29D
:103A2000342140F23C324028C2F20001C2F20002CE
:103A300016D01278012A1AD0232805D143F220206B
:103A4000C2F200000121017040F2F42044F23C2156
:103A5000C2F20000C2F200010122FFF7B1BF00BFB5
:103A600000230B80012313701278012AE4D10A8805
:103A7000531C0B8040F2A801C2F200018854232895
:103A8000DCD0E1E72DE9F04381B0044690F8410035
:103A9000202809D100294FF0010018BF002A07D1C2
:103AA00001B0BDE8F08300BF022001B0BDE8F083A3
:103AB0000020606421201D460E4684F84100174610
:103AC000FDF7EAFFA784E784A1688146B1F5805F2E
:103AD00002D1206900285DD037460020E28C2168A1
:103AE000002A5DD06A1C24D0002D4AD0804600BF39
:103AF0000868000608D4FDF7CFFFA0EB0900A84234
:103B00007AD82168C868F3E717B117F8010B04E009
:103B100038F8020B00276FF35F204860E08C013813
:103B2000E084E08C0028E3D13AE000BF0A68120686
:103B300009D40A68120606D40A6812065CBF0A682D
:103B40005FEA0262F2D51FB117F8012B05E000BF52
:103B500030F8022B00276FF35F224A60E28C013AB3
:103B6000E284E28C002AE4D11AE000BF30F8022B94
:103B700000276FF35F224A60E28C013AE284E28C14
:103B800072B10A68120635D5002FEFD017F8012B55
:103B9000F1E700BF00273046E28C2168002AA1D15E
:103BA000086840061ED42DB3681C14D1086840066E
:103BB0002AD40868400627D40868400624D4086838
:103BC00040064FF00000F1D50DE000BF2068C1684D
:103BD0000068400618D4FDF75FFFA0EB0900A8427B
:103BE000F4D909E00020202184F8411001B0BDE89B
:103BF000F08300BFFDF750FF0320202184F841101F
:103C000001B0BDE8F08300BF0020202184F84110FE
:103C100001B0BDE8F083000070470000FEE700003F
:103C200000228842D8BF012210467047F0B581B00B
:103C300040F60007C4F201070D460446384601214C
:103C4000FDF71EFF064638460221FDF719FF002E3C
:103C500008BF012808D0002808BF012E0AD0304331
:103C600018BF002528460BE0A8B205EBD03000B203
:103C7000401005E0A8B205EBD03001B228464D1047
:103C800000B229B2C4E90001C4E9020101B0F0BDEB
:103C9000FEE7000070B592B090E81A00C0680DF120
:103CA0000B0601F2DC5203F2DC5304F2DC5400F2A6
:103CB000DC5505A13046CDE90045FCF7C3FA304696
:103CC00000F01EF912B070BD233030315025303471
:103CD0006454303030302123303032502530346459
:103CE0005430303030212330303350253034645458
:103CF000303030302123303034502530346454306B
:103D00003030302100000000FEE700007047000066
:103D10002DE9F04381B0089C984615460E46814631
:103D2000FDF7BAFE201A00EB0804FDF7B5FE40F2DD
:103D30000801C2F200010968C1F3CB31614300916F
:103D4000D9F800108A683240921BB2FA82F2520906
:103D5000AA423DD0074618F1010031D0FDF79CFE84
:103D6000C01BA04238D2009800990028A1F101019F
:103D70000091D9F80010896808BF044601EA0600DE
:103D8000801BB0FA80F04009A842E7D120E000BFD4
:103D900088683040801BB0FA80F04009A84217D0F4
:103DA00088683040801BB0FA80F04009A8420FD0EC
:103DB00088683040801BB0FA80F04009A84207D0E4
:103DC00088683040801BB0FA80F04009A842DFD1FB
:103DD000002001B0BDE8F083D9E900014268B1F5E7
:103DE000827F22F0E00242600BD1D9F80810B1F5D1
:103DF000004F02D0B1F5806F03D1016821F040017E
:103E00000160D9F82810B1F5005F07D1016821F4ED
:103E100000510160016841F400510160012089F8FE
:103E20005100002089F85000032001B0BDE8F08364
:103E30007047000010B503884FF4FA6C4BF6D71E9C
:103E40004FF48771B3F5877F28BF0B4603FB0CF255
:103E5000C0F2F20EA2FB0E2340F21C22C2F20002BC
:103E6000126803F5FA7393638288B2F5877F28BFDF
:103E70000A4602FB0CF2A2FB0E2340F26422C2F2BD
:103E80000002126803F5FA7353630289B2F5877F63
:103E900028BF0A4602FB0CF2A2FB0E2340F2AC2222
:103EA000C2F20002126803F5FA7353638389B3F513
:103EB000877F28BF0B4603FB0CF3A3FB0E3404F5EE
:103EC000FA739363038AB3F5877F28BF0B4603FB1E
:103ED0000CF3A3FB0E3404F5FA73D363808AB0F5B8
:103EE000877F38BF014601FB0CF0A0FB0E0101F5F6
:103EF000FA70106410BD0000FDF7D4BD70470000DB
:103F0000002808BF70470146002000BF82B28A5CCB
:103F10008AB140F0010293B2CB5C5BB140F0020287
:103F200093B2CB5C33B140F0030293B2CB5C04306C
:103F3000002BEBD1104682B240F2F420C2F2000016
:103F40004FF0FF33FFF79EBD406A0021C185C18459
:103F5000FFF7C2B981B090F84210222921D18368BD
:103F60000246B3F5805F09D152F8281F52F8183C79
:103F7000002B63D003685B680AE000BF52F8281F7B
:103F800013B90369002BF5D003685B6803F07F0366
:103F90000B70116801311160C18D01390A04C185AE
:103FA00002D001B0704700BF0168CA6822F0200249
:103FB000CA60CA6822F48072CA604A6922F00102AB
:103FC0004A61202180F8421000214163026B012ADE
:103FD0003CD10163016851E8031F026821F0100120
:103FE00042E80313DBB1016851E8031F026821F0C6
:103FF000100142E8031393B1016851E8031F0268FE
:1040000021F0100142E803134BB1016851E8031F8E
:10401000026821F0100142E80313002BDAD1016895
:104020000A68D20606D5002200920A680092496802
:1040300000910099818D01B0FFF74CB90268526878
:104040006FF35F2221F8022B8162A5E701B0FFF731
:10405000E1BC000040F2F420C2F20000FFF73EB9DC
:10406000FEE70000F0B581B00C4603218DF800108A
:10407000010C40F600468DF80110010AC4F2010659
:1040800015468DF802108DF8030030464FF480512C
:104090000022FDF7FBFC40F2C417C2F2000769469C
:1040A000384604224FF0FF33FEF74CFAAAB23846E6
:1040B00021464FF0FF33FEF745F930464FF480516B
:1040C0000122FDF7E3FC01B0F0BD0000B0B582B005
:1040D00020218DF80310010C40F600448DF80410E7
:1040E000010AC4F201048DF805108DF8060020467F
:1040F0004FF480510022FDF7C9FC40F2C4150620A0
:10410000C2F200058DF807000DF1070128460122D3
:104110004FF0FF33FEF716FA20464FF4805101228C
:10412000FDF7B4FC20464FF480510022FDF7AEFCB1
:104130000DF10301284604224FF0FF33FEF702FA87
:1041400020464FF480510122FDF7A0FC4FF47A7015
:1041500000F002F802B0B0BD2DE9F04F81B040F69A
:10416000004B0446C4F2010BFDF796FC40F2C41765
:1041700006464FF0050AC2F200070DF102080DF1E4
:10418000030900BF58464FF480510022FDF77EFC22
:104190003846414601224FF0FF338DF802A0FEF76A
:1041A000D1F93846494601224FF0FF33FEF7CAF8ED
:1041B0009DF8035058464FF480510122FDF766FCEC
:1041C000FDF76AFC801BA04202D215F00100D9D194
:1041D00001B0BDE8F08F0000002A08BF7047F0B5BD
:1041E00081B014460D460646F0B2C0F58077A7426E
:1041F00028BF2746304629463A4600F009F83D4494
:10420000E41B3E44F0D101B0BDE8F040704700002F
:10421000002A08BF70472DE9F04182B040F6004502
:10422000B2F5807F28BF4FF48072C4F201050C46BE
:10423000074628464FF4805190460022FDF726FCA1
:1042400040F2C4160620C2F200068DF807000DF1F8
:104250000701304601224FF0FF33FEF773F928467D
:104260004FF480510122FDF711FC02208DF803006C
:10427000380C8DF80400380A8DF8050028464FF4F4
:10428000805100228DF80670FDF700FC0DF103014E
:10429000304604224FF0FF33FEF754F930462146F2
:1042A00042464FF0FF33FEF74DF928464FF4805158
:1042B0000122FDF7EBFB6420FFF74EFF02B0BDE8E3
:1042C000F041704792B0FDF7FBFB00240120CDE9DF
:1042D0000B44CDE9094406900A904FF4E0104FF4E6
:1042E000803102250F9006A8CDE90714CDE90D51C4
:1042F000FDF794FD20B1EFF3108072B6FEE700BF2A
:104300000F20CDE901054FF48060CDE9040401A838
:1043100002210394FDF77CFC20B1EFF3108072B60C
:10432000FEE700BF002741F21800CDE90877CDE98C
:104330000677C4F20200016840F6000841F020014F
:1043400001600168C4F2010801F0200101910199A6
:104350000168002241F0040101600168042401F0B9
:10436000040101910199016841F0080101600068B0
:10437000042100F00800019001984046FDF786FBFB
:1043800008F5806528464FF4805100224FF480598B
:10439000FDF77CFB032006AECDE90607404631461B
:1043A0000897FDF765FA069401244FF0020A40468B
:1043B0003146CDE90747CDF824A0FDF759FA40F280
:1043C000000BC1F2210B0BF58010CDE90707284641
:1043D00031460694FDF74CFA28463146CDE906945D
:1043E000CDE9087AFDF744FA4FF48070CDE9060B69
:1043F000404631460897FDF73BFA0620052100228A
:10440000FDF7CAFB0620FDF7B5FB172000210022AF
:10441000FDF7C2FB1720FDF7ADFB40F2F420A8F535
:104420004041C2F200000C234FF4E13280E88600E4
:10443000C0E90377C0E90537C761FFF707FA28B17C
:10444000EFF3108072B600BFFEE700BF40F21C2001
:10445000C2F200004FF0804144F61F630497CDE99B
:104460000277CDE91077CDE90B77CDE909774722BF
:1044700080E88600C0E903378761FEF721FB28B199
:10448000EFF3108072B600BFFEE700BF4FF480501C
:10449000019040F21C20C2F2000001A9FEF7CEFB01
:1044A00020B1EFF3108072B6FEE700BF40F21C208F
:1044B000C2F20000FEF720FE20B1EFF3108072B6CA
:1044C000FEE700BF40F21C20C2F2000010A9FEF778
:1044D000B7FA28B1EFF3108072B600BFFEE700BF55
:1044E0006020069040F21C200025C2F2000006A9C0
:1044F0000422CDE907550A95FEF7FCFC20B1EFF345
:10450000108072B6FEE700BF40F21C20C2F200002D
:10451000FEF764FC40F26420A8F58231C2F200008C
:1045200044F61F630495CDE90255CDE91055CDE958
:104530000B55CDE90955472280E82600C0E903352F
:104540008561FEF7BDFA28B1EFF3108072B600BFA7
:10455000FEE700BF4FF48050019040F26420C2F2A9
:10456000000001A9FEF76AFB20B1EFF3108072B6DC
:10457000FEE700BF40F26420C2F20000FEF7BCFD7F
:1045800020B1EFF3108072B6FEE700BF40F2642066
:10459000C2F2000010A9FEF753FA18B1EFF3108031
:1045A00072B6FEE76020069040F264200025C2F259
:1045B000000006A90022CDE907550A95FEF79AFCEE
:1045C00020B1EFF3108072B6FEE700BF40F2642026
:1045D000C2F20000FEF702FC40F2AC20A8F58031E8
:1045E000C2F2000044F61F630495CDE90255CDE9FF
:1045F0001055CDE90B55CDE90955472280E8260035
:10460000C0E903358561FEF75BFA18B1EFF310805E
:1046100072B6FEE74FF48050019040F2AC20C2F237
:10462000000001A9FEF70AFB20B1EFF3108072B67B
:10463000FEE700BF40F2AC20C2F20000FEF75CFDD6
:1046400020B1EFF3108072B6FEE700BF40F2AC205D
:10465000C2F2000010A9FEF7F3F918B1EFF31080D1
:1046600072B6FEE7602006900020CDE907000A90B0
:1046700040F2AC20C2F2000006A90022FEF73AFC8C
:1046800020B1EFF3108072B6FEE700BF40F2AC201D
:10469000C2F2000006A90422FEF72CFC20B1EFF3C1
:1046A000108072B6FEE700BF40F2AC20C2F20000FC
:1046B00006A90822FEF71EFC20B1EFF3108072B6A7
:1046C000FEE700BF40F2AC20C2F2000006A90C22B7
:1046D000FEF710FC20B1EFF3108072B6FEE700BFCA
:1046E00040F2AC20C2F20000FEF778FB40F2C410AA
:1046F000A8F55041C2F200004FF4827200254FF439
:10470000007380E826000A21C0E90355C0E905537B
:10471000C561C0E90855C0E90A51FDF77FFD18B130
:10472000EFF3108072B6FEE700F02CFF00F0E0FE21
:10473000FCF7D0FC43F2202640F2A80440F23C37BC
:10474000C2F20006C2F20004C2F20007307801286B
:10475000FCD1204600F03EFE0138032835703D7044
:10476000F4D8DFE800F0070B0F0300BF00F00CFAED
:10477000ECE700BF00F00AF8E8E700BF00F076F8C9
:10478000E4E700BF00F04CF9E0E700002DE9F04F4E
:1047900095B0002533A0ADF80450FFF7B1FB01A898
:1047A00043F2202640F2A80940F23C3800F1040A06
:1047B00000F1100B87205A21C2F20006C2F2000954
:1047C000C2F2000811AC0BAFCDE90255049505907B
:1047D000CDE90611CDE908108DF828500EE000BF94
:1047E0002046514600F0B8FA3846594600F002FE1D
:1047F0002046FFF74FFA3846FFF71CFB30780128B8
:1048000006D101A8494600F05FFB357088F80050DA
:104810009DF8040001280DD09DF805000128DFD087
:104820000028EBD1204600F049FB384600F094FE0A
:10483000DEE700BF46F29630C0F60000FFF760FBEF
:1048400011AC204600F03AFB0BAD284600F084FE88
:104850002046FFF71FFA2846FFF7ECFA15B0BDE82F
:10486000F08F00BF4041434B4D3123002DE9F04F05
:10487000B1B0002563A0ADF88C50FFF741FB23AC2D
:10488000201D039004F11000029087205A212790E8
:10489000CDE92A1004F1280043F2202640F2A807AF
:1048A00040F23C3A0190C2F20006C2F20007C2F2A6
:1048B000000A0DF17C0B0DF164080020CDE92455B0
:1048C0002695CDE928118DF8B05004903078012854
:1048D00006D12046394600F0CFFB35708AF80050EB
:1048E0009DF88C0001286FD09DF88D0001281BD009
:1048F0000028EBD1FCF7F8FB012836D1584600F030
:10490000DDFA404600F028FE5846FFF7C3F940465E
:10491000FFF790FAFCF7F2FD3EA0FFF7F1FA9DF8E1
:104920008D000128D2D124E0FCF7DEFBE8B90DF1BF
:104930005409019948461022FBF712FF8DF8635085
:10494000FBF7AAFEC1B24846FCF798FD90B3D846E3
:104950000DF1140B58462DA14A46FBF773FC58463F
:10496000C3460DF16408FFF7CBFA9DF88D000128CE
:10497000ACD1FCF7B9FB0128A8D10399584600F047
:10498000EBF90299404600F035FD5846FFF782F9F1
:104990004046FFF74FFAFDF77FF881460498A9EBF0
:1049A0000000322892D34046FCF72AFDCDF8109043
:1049B0008CE700BFFDF770F804909DF88D0001288A
:1049C0007FF484AFD5E700BF46F29630C0F6000012
:1049D000FFF796FA1FAC204600F070FA19AD284692
:1049E00000F0BAFD2046FFF755F92846FFF722FAF6
:1049F000FCF77AFB012808BFFCF780FD31B0BDE869
:104A0000F08F00BF4041434B4D3223004661696C3B
:104A1000202573004041434B4D3253542300000086
:104A20002DE9F04F9FB04EA0FFF76AFA1DAC43F29C
:104A3000202840F2A80A0026651C04F1020B201D64
:104A4000C2F20008C2F2000A4FF0010902AF8DF86D
:104A50007A608DF87460019008E000BF8DF87A905C
:104A6000FCF748FB284606708DF87A6030BF98F84E
:104A7000000001280DD120465146CDF877601D96E3
:104A800000F0EAFB40F23C30C2F2000088F800601F
:104A900006709DF8740001284AD09DF875109DF8A5
:104AA0007A00012908BF0028D8D09DF87610012986
:104AB00008BF002814D09DF87810012908BF0028ED
:104AC000D4D19DF8790012A9FCF7C2FA9DF879209B
:104AD00010B31046FCF766FA9DF8792022A11FE07A
:104AE0009DF8770012A98DF87A90FCF7B1FA28B1F9
:104AF000129813A9FCF72AFC1FA103E046F28231A9
:104B0000C0F600019DF877203846FBF79BFB38463E
:104B1000FFF7F6F95846A6E746F28231C0F60001E3
:104B20003846FBF78FFB3846FFF7EAF901989AE71A
:104B300046F29630C0F60000FFF7E2F919AC2046C5
:104B400000F0BCF913AD284600F006FD2046FFF743
:104B5000A1F82846FFF76EF91FB0BDE8F08F00BF3F
:104B60004041434B4D3323004041434B4D3344259B
:104B700030336423000000004041434B4D33422555
:104B800030336423000000002DE9F04F9DB05FA09A
:104B9000FFF7B6F943F2202640F23C380027C2F274
:104BA00000061BADC2F200084FF0010A01AC0DF186
:104BB0005C09ADF86C708DF86E708DF8707005E062
:104BC0008DF86EA0FCF734FBADF86D7030780128DD
:104BD00009D140F2A8012846C2F2000100F09AFB78
:104BE000377088F800709DF86C00012876D09DF829
:104BF0006D109DF86E00012908BF0028E0D0012843
:104C0000E4D19DF86F20BDF87230204641A1FBF73A
:104C100019FB2046FFF774F9FCF7CAFC411C1FD0B2
:104C2000BDF9721000B2FEF7FBFF01068DF87000AF
:104C3000484639D000F042F94846FFF72BF80DF10D
:104C4000440B5846FFF7F6F89DF86F006946FCF7ED
:104C5000FFF988B300985946FCF778FB31A12FE0A3
:104C600033480FF2CC0909F1040301900FCB09F18D
:104C7000180C0DF1080BA246D9F81440AE469CE87A
:104C8000A0108BE81F00B9F824005446079575461C
:104C900008974FF0010A0DF15C090027CDF824C0F8
:104CA000ADF8280011E000BF4FF49671FEF7BEFF8B
:104CB0004846FEF7EFFF89E746F28231C0F6000171
:104CC0009DF86F202046FBF7BDFA2046FFF718F944
:104CD0008DF86E708DF8707078E700BF46F29630F0
:104CE000C0F60000FFF70CF917AC204600F0E6F81C
:104CF00011AD284600F030FC2046FEF7CBFF2846D9
:104D0000FFF798F81DB0BDE8F08F00BF4041434B5E
:104D10004D342300404D3441434C2530336425301D
:104D20003264230053746172742025640000000013
:104D300044697374616E6365206D65617375726536
:104D40006D656E74206661696C656420526574726D
:104D500079696E670A0000002DE9F04F81B0D1E952
:104D600000C8D1F808A008EB0C07A7EB0A024FF423
:104D70007A764DF2496402FB06F5CFF2B92485FB41
:104D80000451A8EB0C05554405FB06F383FB0439DD
:104D90000CEB0A03A8EB0303009103FB06F181FB74
:104DA000041B07EB0A0101FB06F787FB044E009C7E
:104DB00003FB06B302FB06420446101200EBD2725C
:104DC00005FB069001FB06E1051205EBD0701D12F4
:104DD00005EBD3770B1203EBD175002A22606060DC
:104DE000A760E56048BF5242002848BF4042824267
:104DF000C8BF1046002F48BF7F42B842C8BF074611
:104E00000CFB0CF008FB0800002D0AFB0A0048BF51
:104E10006D42AF42C8BF3D4600F0B8FD00F0EBFB6D
:104E200048F20003C4F25603002200F053FC00F0E5
:104E30001FFC4FF07E51064600F06AFF002100285B
:104E400018BF4FF07E56C4F27A41304601F01AF98D
:104E50000646284601F096F80146304600F080FFED
:104E6000054694E8C10101F08DF80146284601F09D
:104E700009F901F06BF82060304601F083F8014633
:104E8000284601F0FFF801F061F86060384601F053
:104E900079F80146284601F0F5F801F057F8A060CE
:104EA000404601F06FF80146284601F0EBF801F0AA
:104EB0004DF8E06001B0BDE8F08F00000021C0E9CE
:104EC0000011C0E9021170474A78532A05D18A7847
:104ED000542A02BF012101707047CA782C2A1BD0C6
:104EE000532A0DD0412A40F0B9800979432940F076
:104EF000B58001225DA1034608465A70FFF700B84D
:104F00000979542918BF7047002255A10346084665
:104F10005A70FEF7F5BF00BF2DE9F0414B798A7951
:104F20004FF0640891F807E003FB08F302EB8202FC
:104F300003EB420291F804C0724441F2D043D41A08
:104F4000BCF12D0F08BF9C1A44608A7ACE7A0F7B81
:104F500002FB08F206EB860602EB46024D7A174486
:104F6000FA1A2D2D08BFDA1B04F114075342282F1B
:104F7000836007D812F1140F04DB142ADCBF00226F
:104F8000C0E901224A7F303AD2B2022A06D846F25C
:104F90004C33C0F6000353F82220C2600A7D4E7DD8
:104FA00064238D7D5A4306EB860602EB4602CF7CD6
:104FB000561941F2D042B51A2D2F08BF951B056135
:104FC00091F8226091F8235091F824405E4305EB5C
:104FD000850506EB450691F821702644B51A2D2F5C
:104FE00008BF951B456191F8276091F8285091F80A
:104FF00029405E4305EB850506EB450691F82670D2
:105000002644B51A2D2F08BF951B856191F82C6099
:1050100091F82D5091F82E405E4305EB850506EB87
:10502000450691F82B702644B51A2D2F08BF951B05
:10503000C5614E7E8D7ECC7E734305EB850603EB0A
:1050400046030F7E23449E1A2D2F08BFD61A0662F0
:10505000497F303980F82410BDE8F041704700BF27
:105060004041434B4D315354230000004041434BDA
:105070004D3141432300000070B586B04A78532A71
:1050800006D18A78542A03D10121017006B070BD7F
:10509000CA782C2A2CD0532A1CD0412A40F0C9802F
:1050A0000A79432A40F0C580012242708A7902AD14
:1050B00080F82820CB7980F829300C7A61A180F81B
:1050C0002A4028460094FBF7BDF82846FEF718FF53
:1050D00006B070BD0979542940F0AB80002256A17A
:1050E000034608465A7006B0BDE87040FEF708BF98
:1050F0004B798D794FF0640CCC7903FB0CF305EB05
:10510000850503EB45030A79234441F2D0455C1B36
:105110002D2A08BFEC1A44608A7ACB7A0E7B02FBF8
:105120000CF203EB830391F809E002EB43029319BD
:105130005A1BBEF12D0F04F1140608BFEA1A5342A0
:10514000282E836007D812F1140F04DB142ADCBF69
:105150000022C0E901224A7F303AD2B2022A06D8A0
:1051600046F24C33C0F6000353F82220C2600A7D99
:105170004D7D8C7D02FB0CF205EB850502EB4502B3
:10518000CE7C151941F2D042AC1A2D2E08BF541B0B
:10519000046191F8225091F8234091F8243005FBE6
:1051A0000CF504EB840405EB440591F821602B44D5
:1051B0009D1A2D2E08BFD51A456191F8276091F8E8
:1051C000285091F8294006FB0CF605EB850506EB07
:1051D000450691F826302644B51A2D2B08BF951B9D
:1051E000856191F82C6091F82D5091F82E4006FBC6
:1051F0000CF605EB850506EB450691F82B302644A9
:10520000B51A2D2B08BF951BC5614E7E8D7ECC7EB9
:1052100006FB0CF605EB850506EB45060B7E2644E2
:10522000B51A2D2B08BF951B0562497F303980F8D0
:10523000241006B070BD00BF4041434B4D32535463
:10524000230000004041434B4D324143222563255A
:105250006325632223000000B0B586B04A78532A44
:1052600006D18A78542A03D10121017006B0B0BD5D
:10527000CA78422A22D0442A08D0522A39D1097940
:10528000452936D10121417006B0B0BD012202711D
:105290000A794B79642589796A4303EB830302EB2E
:1052A0004302114441F2D042891A02AC4171CAB2A0
:1052B00011A12046FAF7C6FF204618E001228270AD
:1052C0000A794B79642491F806C0624303EB8303A7
:1052D00002EB430262443032C2700A794B798C7916
:1052E00002AD08A128460094FAF7ACFF2846FEF765
:1052F00007FE06B0B0BD00BF4041434B4D334425CF
:10530000642300004041434B4D3342256325632510
:10531000632300004A78532A06D18A78542A03D19D
:1053200001210170704700BFCA78412A16D0532A64
:1053300008D0522A05D10979452902BF01214170BF
:10534000704770470979542918BF704719A1002286
:10535000034608469A70FEF7D3BD00BF0A79432A78
:10536000EFD14A794C2AECD110B584B00122827079
:105370008A79CB79642491F808C0624303EB8303F4
:1053800002EB430262443032C2708B7AC97A03EB7B
:10539000830301EB4301A1F504716C46C180D2B2D5
:1053A0008BB207A12046FAF74DFF2046FEF7A8FD75
:1053B00004B010BD4041434B4D3453542300000012
:1053C0004041434B4D3441434C2564222564222304
:1053D0000000000041784D294FF0000107D180788E
:1053E000A0F13102D2B2042A38BFA0F13001C8B214
:1053F000704700002DE9F041044605200D46FCF7FA
:10540000EDF9286840F20C081E28C2F2000805D801
:10541000D8F800004FF0404108E000BF3D38D8F810
:1054200000601D2807D830464FF0804100F000FC96
:105430000646C8F800000027C4F2873730463946D0
:1054400000F066FC28B930460021002700F067FC18
:1054500010B93E46C8F80070304600F077FD206075
:105460000520FCF7BBF9286940F210081E28C2F29B
:10547000000805D8D8F800004FF0804108E000BFD0
:105480003D38D8F800601D2807D830464FF040411D
:1054900000F0CEFB0646C8F800000027C4F26137D2
:1054A0003046394600F034FC38B90027C4F23427BE
:1054B0003046394600F033FC10B93E46C8F800705B
:1054C000304600F043FD297D2061012902D019B941
:1054D000442000E08C2060612A1D07CA231D2D3066
:1054E000C1F1E101C2F1E10207C3BDE8F0810000B2
:1054F00070B540F21C24C2F2000420460421FDF7DE
:105500007BFE40F26425C2F2000528460021FDF72B
:1055100073FE40F2AC26C2F2000630460021FDF7D1
:105520006BFE30460421FDF767FE30460821FDF78B
:1055300063FE30460C21FDF75FFE206840F2DC512F
:10554000816328684163306841638163C16340F2CD
:10555000CC71016470BD00008721CA22C0E900112E
:10556000C0E90211C0E9041240F20C000021C2F2AD
:105570000000C4F20731016040F21000C2F20000E6
:105580000160704780B540F2A800C2F2000008A197
:105590003522FBF7A0F840F2F42044F23C21C2F29D
:1055A0000000C2F200010122BDE88040FEF708BA07
:1055B000402C2B3030302C2B3030302C2B303030F6
:1055C0002C3034352C3034352C302C302C303838CD
:1055D0002C2B3030302C2B3030302C2B3030302CEA
:1055E00063732C230000000030380A2801D2012008
:1055F0007047002070472DE9F04106460F4600F045
:1056000031FA041E0D4618BF0120284320F0004047
:10561000C0F17F6000F1E040C00F0ED0301C18BF19
:105620000120384320F00040C0F17F6000F1E040ED
:10563000C00F04BF0120FBF7C6F820462946BDE88D
:10564000F081000010B500290AD00878002807D0A2
:1056500005487844FBF744FA002801D0002010BD2B
:105660000248784410BD0000860D00007E0D000049
:1056700021F0004201F00043A2F16052B2F5801F18
:1056800028BFD2F17F6C0BD95FEA001C43EAC2024B
:1056900042EB507018BF704728BF20F001007047E0
:1056A000B2F5801FBCBF184670474FEA410C1CF58D
:1056B000001F02D2084600F0ACBD70B500F07DF9C5
:1056C00000000089FFF7F6BF4FF00040A0F5800012
:1056D000704700002DE9C04130B4DFF8A8C23CEAB1
:1056E000111418BF3CEA131400F0F0801CEA1114E6
:1056F00081EA030544EAD57418BF1CEA131500F0CB
:10570000CB80A4EB050404F17F7404F500344FF062
:10571000004545EAC12145EAC32341EA505143EA25
:1057200052534FEAC0204FEAC222994208BF90422A
:1057300000F0A0804FEA13650FF24816765D4FEA3D
:10574000134506FB05F7C7F1807706FB07F74FEA1D
:10575000D737A7FB03687642A7FB06CEC8F580388B
:1057600038BFA8F1010807FB08E6A6FB028C4FF042
:10577000000EE6FB03CED8F100086FEA0C0C5CF1DA
:10578000000C6FEA0E0E4EF1004EA6FB0C584FF0C7
:105790000007E6FB0E87A1FB08C6A0FB07CE16EBB1
:1057A0000E064FF0000545F10005E1FB076515F118
:1057B000E04E7EBFA4F580345FEA46066D4116F1E7
:1057C000800745F100054FEA172747EA05674FEACA
:1057D00015254FEA0666A6F1DE46B6F1805F20D9B0
:1057E000384605EBC47124F0010C01EB0C11BCF13F
:1057F000FE6F02D8F0BCBDE8008124425CBF01F519
:10580000801E9EEAC47F02D4F0BCBDE80081244221
:1058100000F13980A1F1C041F0BCBDE8004100F0C9
:105820001AB94FEAD02040EA41504FEAD1214FEA5D
:10583000D22242EA43524FEAD323A7FB028607FB58
:10584000036605FB02661EEA0E0F58BFA6EB005664
:10585000B6EB00564FEA520E4EEAC37E18EB0E0E20
:1058600056EB530EBCD518EB02085E417F1C55F178
:105870000005B5E74FF480154FF000074FF0000624
:105880004FF00008ACE701F1C04101F000414FF0DA
:105890000000F0BCBDE800810CEA131511EA0C1FF2
:1058A00000D00CE013EA0C1F00F025804FF0000040
:1058B00081EA030101F00041F0BCBDE80081F0BCC9
:1058C000BDE8004181EA030100F0C5B8F0BCBDE8C5
:1058D000004170B500F071F8097EFC3E00F007B899
:1058E0004FF0000081EA030101F00041704781EAB6
:1058F000030100F0B0B8F0BCBDE8004122494FF010
:1059000000007047FFFDFBF9F7F5F4F2F0EEEDEB68
:10591000E9E8E6E4E3E1E0DEDDDBDAD8D7D5D4D3AD
:10592000D1D0CFCDCCCBCAC8C7C6C5C4C2C1C0BFF9
:10593000BEBDBCBBBAB9B8B7B6B5B4B3B2B1B0AFFF
:10594000AEADACABAAA9A8A8A7A6A5A4A3A3A2A1E3
:10595000A09F9F9E9D9C9C9B9A999998979796959E
:1059600095949393929191908F8F8E8E8D8C8C8B3A
:105970008B8A8989888887878685858484838382C2
:10598000828181800000FF070000F87F10F0004254
:1059900048BF4042B0FA80F310FA03F10AD0C3F1D5
:1059A0001D0303F5806302EB03524FEA415002EB03
:1059B000D12170474FF0000070470EF1020E2EF01B
:1059C000030E5EF8046B364205D4012A43EB03054F
:1059D00015F5001F12D8012841EB010C1CF5001F22
:1059E0000CD80ED14FEAD17C0CEB4C0C0CF1020C14
:1059F00015F5001F08BF4CEBD37C04E04FF0080CFA
:105A000001E04FEAD37C0CEB4C0526FA05F606F0D4
:105A10000706B6F1040C06D20EEB860CBDE870400A
:105A20004CF0010C6047DFE80CF0090B02024FF06C
:105A30000041A1F500214FF0000070BD194610464D
:105A4000012851EB010418BFD4F5001484BF0020D5
:105A500001F0004170BD0808A0F500114FEA3101C6
:105A6000704700002DE9F04101F5801CBCF5001FD6
:105A7000C0F2C3804FEA115C21EA0C5141F480115D
:105A80000CF1FD0C5FEA5C0C0CF5C07C01D340000E
:105A90004941890241EA905187023BA48E0EA45DE0
:105AA0000A0C04FB04F602FB06F6C6F14046A4FB12
:105AB0000662F60D46EA422606FB06F4A4FB012325
:105AC0005242C3F1404338BF5B1EA6FB0242002492
:105AD000E6FB0324D20B42EA4446A6FB0623A1FBC5
