:020000040800F2
:10000000E8070020BD010008D1190008C91900083F
:10001000CD190008AD050008C11B00080000000054
:10002000000000000000000000000000D9190008D6
:10003000B105000800000000D5190008591A000891
:10004000D7010008D7010008D7010008D701000830
:10005000D7010008D7010008D7010008D701000820
:10006000D7010008D7010008D7010008D701000810
:10007000D7010008D7010008D7010008D701000800
:10008000D7010008D7010008D7010008D7010008F0
:10009000D7010008D7010008D7010008D7010008E0
:1000A000D7010008D7010008D7010008D7010008D0
:1000B000D7010008D7010008D7010008D7010008C0
:1000C000D7010008D7010008D7010008D7010008B0
:1000D000D7010008D7010008D7010008B51B0008A8
:1000E000D7010008D7010008D701000800F002F886
:1000F00000F055F814A696E8000CB244B344DA4573
:1001000001D100F04CF8BAE80F000FA696E83000D5
:10011000A5EB040504EB0607AAEB0704A7F101070A
:100120004FEA15154FEA3414A4F10104AC4201D38F
:1001300000F035F813F0010F18BFFB1A43F001036C
:1001400000F001F8DBE718474C2900006C2900009B
:10015000103A24BF78C878C1FAD8520724BF30C8F3
:1001600030C144BF04680C60704700007047000055
:100170000023002400250026103A28BF78C1FBD8B0
:10018000520728BF30C148BF0B607047642900F098
:100190007180002070471FB51FBD10B510BD00F065
:1001A000CFF91146FFF7F7FF01F00CFD00F0EDF974
:1001B00003B4FFF7F2FF03BC00F0F0F909488047F1
:1001C00009480047FEE7FEE7FEE7FEE7FEE7FEE739
:1001D000FEE7FEE7FEE7FEE704480549054A064B51
:1001E000704700005D1A0008ED000008E8010020DB
:1001F000E8070020E8030020E80300200FB41CB546
:10020000074B06AA7B4469460090059800F077F9F1
:100210000020694600F086F91CBC5DF814FB000064
:100220001D03000070B5044685690068C10601D54C
:10023000302600E02026C00707D070BDD4E9012198
:1002400030469047206A401C20626D1EF6D570BD76
:1002500070B5044685690078C00707D170BDD4E940
:10026000012120209047206A401C20626D1EF6D597
:1002700070BD00002DE9F041064600241068752984
:10028000314616A510D0AFF30080002802DA4042B4
:1002900013A507E031688A0701D512A502E04907D6
:1002A00004D511A5012401E0AFF3008000210A224A
:1002B00006F1240709E0B0FBF2FCB0FBF2F302FB0D
:1002C0001C00303078541846491C0028F3D12346CE
:1002D0002A463046BDE8F04100F0B2B80000000008
:1002E0002D0000002B000000200000002DE9F05F31
:1002F000894604464FF0000ADFF824B1FB44C0F8F9
:1003000020A02046E168884700287DD0252806D017
:10031000D4E901219047206A401C2062F1E70025C2
:100320005F462046E16888472028064607DB312ED5
:1003300005D2B81910F8200C08B10543F1E7A80759
:1003400001D525F00405C4F81CA00027C4F818A0A6
:100350002A2E09D0304601F0CDFD38B304EB8708D2
:10036000303EC8F8186019E059F8041B204604EB29
:1003700087029161E1688847012F064618D1E0693C
:10038000002820DA25F020051DE0D8F8180000EB41
:10039000800006EB40003038C8F818002046E168BD
:1003A0008847064601F0A6FD0028EED1012F0AD0AD
:1003B0002E2E08D12046E16888477F1C0646022F72
:1003C00045F02005C4DBA069002803DA404245F06F
:1003D0000105A061E80701D025F01005A6B1A6F13E
:1003E0004100192802D8203645F400654A463146B6
:1003F000204625604D46FFF7C9FE60B1012807D0B1
:10040000ED1D25F0070000E007E000F1080978E79E
:1004100005F1040975E730467AE7206ABDE8F09FE8
:100420005827000070477047704710B500F080F8FB
:10043000006810BD10B5044600F07AF8046010BDE5
:100440002DE9F0470D4699469246044600F12408EE
:100450000168880604D5E06921F01001216000E000
:100460000120A84201DD471B00E00027A1697A199D
:1004700002EB0900081AA0612078C00602D42046C9
:10048000FFF7D0FE002608E0D4E901211AF80600A3
:100490009047206A401C761C20624E45F4DB207891
:1004A000C0060AD52046FFF7BDFE06E0D4E90121CB
:1004B00030209047206A401C2062381EA7F10107B7
:1004C000F4DC07E0D4E9012118F805009047206A20
:1004D000401C2062281EA5F10105F3DC2046FFF731
:1004E000B7FE2078000602D50220BDE8F087012083
:1004F000FBE7000001694A1C02610878704700B5FB
:100500008FB0CDE901310021059105497944CDE94C
:10051000031011466846FFF7E9FE0FB000BD00006A
:10052000E5FFFFFF0A6802F8010B0A607047000050
:10053000004870471000002000487047100000205D
:100540007546FFF7F9FFAE4605006946534620F0B1
:100550000700854618B020B5FFF73EFEBDE82040F5
:100560004FF000064FF000074FF000084FF0000B6F
:10057000AC46ACE8C009ACE8C009ACE8C009ACE8DE
:10058000C00921F007018D46704710B50446AFF34E
:1005900000802046BDE81040FFF70ABE0149182040
:1005A000ABBEFEE72600020070470000FEE7000039
:1005B00070470000014690F82100022816D1086813
:1005C000D1E90FC3026822F00E020260026822F035
:1005D00001020260012000FA03F2CCF8042081F845
:1005E00021000020002281F8202070470420886329
:1005F0000120002281F820207047000090F821108F
:10060000022923D1026840F2040C1168C4F2020CE2
:1006100021F00E01116013682F21C4F202018A42F9
:1006200023F00103136015DD3023C4F202039A4264
:100630001CD04423C4F202039A421BD05823C4F2B4
:1006400002039A421CD14FF4803321E004218163DC
:10065000012070470823C4F202039A420ED01C23E3
:10066000C4F202039A420BD1102311E04FF48073BD
:100670000EE000BF4FF480530AE000BF012307E003
:100680000CF168014FF080738A4208BF4FF4801369
:100690000121CCF8003080F82110416B00220029A4
:1006A00080F8202004BF0020704780B588470020D4
:1006B00080BD00002DE9F04F82B00E68002E00F0E2
:1006C000FD8041F20042C4F20102042340F2004ED8
:1006D000904208BF03234FF6FF7CC4F2010E009343
:1006E00000240123C1F2100C4FF0000A4FF0000962
:1006F0004BE000BF41F20002C4F20102009F9042B1
:1007000008BF022704F00C030F229A402BEA0202D2
:1007100007FA03F34FEA9A051A4346F825204E6874
:1007200040F20C45F202DEF8082054BF22EA08022B
:1007300042EA0802C4F20105CEF808202A68B30292
:1007400054BF22EA080242EA08022A60B303DEF834
:10075000042054BF22EA080242EA0802F303CEF85A
:100760000420DEF800204FF0010354BF22EA080203
:1007700042EA0802CEF800200E680AF1010A36FAB1
:100780000AF204F1040400F0998003FA0AFB16EA65
:100790000B08F1D04E68664512DC122E56D8DFE801
:1007A00006F0350B4D49555555555555555555552B
:1007B00055555545510000BFD1F80C9046E000BF9B
:1007C0004FF6FF72C1F2210296420FDC0022C1F205
:1007D000110296421AD00022C1F21202964215D09E
:1007E0000022C1F22102964210D02FE00022C1F275
:1007F000220296420AD00022C1F23102964205D06E
:100800000022C1F23202964220D100BF8A684AB16A
:10081000012A14BFC0F814B0C0F810B04FF0080996
:1008200014E000BF4FF0040910E000BFCA6802F1F5
:1008300004090BE04FF0000908E000BFCA6802F1AC
:10084000080903E0CA6802F10C0900BF0246264607
:10085000B8F5807F24BF0432203E17680F25B540CD
:1008600027EA050509FA06F635431560CA79D20666
:100870007FF582AF41F21803C4F202031A68AEF5A5
:100880007E7642F001021A601A6802F001020192BB
:10089000019A2AF0030256F802B040F60002C4F2B0
:1008A0000102904208D040F60042C4F20102904298
:1008B0007FF420AF012725E7002723E702B0BDE83A
:1008C000F08F00008068084018BF012070470000CA
:1008D00040F2E010C2F200000068704740F20000F1
:1008E00040F2E011C2F20000C2F2000100780A6892
:1008F000104408607047000080B542F20000C4F266
:100900000200016841F010010160032000F08CF842
:100910000F2000F005F800F027F8002080BD00004F
:1009200070B540F20006C2F2000640F208013278CB
:10093000C2F200014FF47A730968B3FBF2F2044685
:10094000B1FBF2F1084600F085FB0F2C4FF00105DA
:1009500008D838B94FF0FF3021460022002500F0BA
:1009600037F87460284670BD82B041F21800C4F2B6
:1009700002000168022241F001010160016801F0FA
:10098000010101910199416841F080514160406845
:1009900000F08050009000980420C4F2010001682B
:1009A00062F31A61016002B070470000002848BF7E
:1009B000704700F01F01012202FA01F11C2202EA35
:1009C000D0004EF20012CEF20002815070470000BB
:1009D00010B54EF60C5CCEF2000CDCF80030C3F320
:1009E000022E8EF00704042C28BF0424BEF103035A
:1009F0004FF0FF3E0EFA04F438BF0023A1439940A4
:100A00000EFA03F39A43114300F00F0200F1604322
:100A10000901043A03F564436244002848BF02F127
:100A20000C03197010BD00004EF60C51CEF20001FF
:100A30000A684FF6FF031A4060F30A2242F0806012
:100A400040F0FD7008607047002804BF0120704727
:100A50002DE9F04381B042F20008C4F202080446D6
:100A6000D8F800000D4600F0070081420CD9D8F8F4
:100A7000000020F007002843C8F80000D8F8000064
:100A800000F00700A8426CD1206841F204098107F8
:100A9000C4F2020917D5410705D5D9F8001041F471
:100AA000E061C9F80010010705D5D9F8001041F43C
:100AB0006051C9F80010D9F80010A26821F0F001C7
:100AC0001143C9F80010C00742D1D8F8000000F067
:100AD000070085420CD2D8F8000020F00700284318
:100AE000C8F80000D8F8000000F00700A84238D18C
:100AF0002068410707D5D9F80010E26821F4E061C9
:100B00001143C9F80010000708D5D9F80000216981
:100B100020F4605040EAC100C9F80000D9F8002074
:100B200002F00C00082841F20020C0F27A004DD1FA
:100B300042F68323C2F38341C0F60003595CD2031B
:100B400038D440F60010C0F23D0048433EE000BFFC
:100B5000606859F8041C022808D0012826D18903AE
:100B600006D4012001B0BDE8F08300BF8901F8D5AB
:100B7000D9F8001021F003010843C9F80000FFF77D
:100B8000A7FE064641F28837D9F80000616800F0F8
:100B90000C00B0EB810F98D0FFF79AFE801BB84293
:100BA000F2D9032001B0BDE8F08300BF8907D8D592
:100BB000DEE700BFD9F8002042F68123C2F34042AD
:100BC000C0F600039A5C4843B0FBF2F0D9F800107D
:100BD00042F66922C1F30311C0F60002515C40F2F3
:100BE000080220FA01F140F20400C2F2000000689D
:100BF000C2F200021160FFF793FE002001B0BDE8D1
:100C0000F083000040F2080041F20401C2F200004B
:100C1000C4F202010068096842F67922C1F3022198
:100C2000C0F60002515CC8407047000040F2080066
:100C300041F20401C2F20000C4F202010068096836
:100C400042F67922C1F3C221C0F60002515CC840CD
:100C500070470000002804BF012070472DE9F041D3
:100C600082B00446007841F20006C007C4F20206D2
:100C70000CD0706800F00C00042840F081803068CF
:100C8000800303D56068002800F046812078800743
:100C90001BD5706810F00C0F09D0706800F00C00C4
:100CA000082840F087807068C00300F183803068B6
:100CB000800703D52069012840F02E8130686169E2
:100CC00020F0F80040EAC10030602078000713D41B
:100CD000207840072CD4E569002D00F01881706859
:100CE00000F00C00082840F0A780012D40F004819E
:100CF000012002B0BDE8F081A069002800F08480E6
:100D00000020C4F242200121C0F88014FFF7E0FD6A
:100D1000054600BF706A800700F1B280FFF7D8FD7A
:100D2000401B0228F6D9032002B0BDE8F08100BFC5
:100D3000F0695FEAC00808D4F06940F08050F061C3
:100D4000F06900F080500090009847F20007C4F26C
:100D500000073868C00549D4386840F480703860AE
:100D6000FFF7B6FD054600BF3868C0053ED4FFF763
:100D7000AFFD401B6428F7D9032002B0BDE8F08125
:100D8000706800F00C00082803D17068C0033FF5BC
:100D900076AF61683068002900F00C81B1F5A02FB2
:100DA00000F00081B1F5803F40F01A8140F48030BE
:100DB0001CE100BF2069002840F20000C4F242207C
:100DC00000F0888001210160FFF782FD054600BF29
:100DD000306880073FF572AFFFF77AFD401B0228AD
:100DE000F6D9032002B0BDE8F08100BFE168306AA7
:100DF000002900F09D80052900F09280012940F033
:100E0000AF8040F00100B1E00020C4F24220002198
:100E1000C0F88014FFF75CFD054600BF706A8007CC
:100E20007FF556AFFFF754FD401B0228F6D903208B
:100E300002B0BDE8F08100BF0027C4F242270020C5
:100E40003866FFF745FD022D05460DD1306880015B
:100E500040F1DE80FFF73CFD401B02284FF003000D
:100E6000F4D902B0BDE8F081306880014FD5FFF7BA
:100E70002FFD401B02284FF00300F5D9F1E700BF1A
:100E800040F20800C2F20000006844F6D351C1F2FB
:100E90006201A0FB0101480A019000BF00BF019858
:100EA000411E002801913FF413AF00BF0198411E7D
:100EB000002801913FF40CAF00BF0198411E0028AB
:100EC00001913FF405AF00BF0198411E0028019138
:100ED000E4D1FDE600210160FFF7FAFC054600BF02
:100EE000306880077FF5F1AEFFF7F2FC401B022867
:100EF0004FF00300F4D9B4E77068216A00F480323F
:100F00008A4209D1616A00F47010884204D100203D
:100F100002B0BDE8F08100BF012002B0BDE8F08161
:100F200040F004003062306A40F001001EE000BF73
:100F300020F001003062306A20F004003062FFF7D8
:100F4000C7FC054641F28837306A800720D5FFF795
:100F5000BFFC401BB8424FF00300F5D981E700BF4A
:100F600020F001003062306A20F004003062FFF7A8
:100F7000AFFC054641F28837306A800708D4FFF796
:100F8000A7FC401BB842F7D9032002B0BDE8F081AE
:100F9000B8F1000F3FF59FAEF06920F08050F0618E
:100FA00099E600BF40F480203060306840F4803023
:100FB0001CE000BF20F480303060306820F48020D6
:100FC0003060FFF785FC0546306880037FF55EAE34
:100FD000FFF77EFC401B64284FF00300F4D940E784
:100FE00020F480303060306820F480203060FFF7DB
:100FF0006FFC0546306880033FF548AEFFF768FC9C
:10100000401B6428F6D9032002B0BDE8F08100BF80
:10101000206AB0F5803F05D17168A26821F40031E3
:10102000114371607168626A21F4741111430843BD
:10103000706001203866FFF74BFC04463068800181
:101040003FF565AFFFF744FC001B02284FF003009B
:10105000F4D906E7411E0020B0EB116F1CBF012040
:1010600070474EF21002CEF2000251604EF623514C
:10107000CEF20001F0230B700721906011607047E1
:101080007047000070470000B0B582B001680A6880
:10109000CC684B6902F02F05202D04F0200505D106
:1010A00025B102B0BDE8B04000F004BD5FEA027CAB
:1010B0001EBF03F0010E04F4907313EB0E0341D135
:1010C000036BD50618D5012B16D114F0100313D0DD
:1010D000002201920A6801924A680192019A4969C4
:1010E00049064BD4818DC28DC38D002B18BF914210
:1010F00040F0F48102B0B0BD13062DD514F080038A
:101100002AD090F84120212AF4D18268B2F5805F7C
:1011100003D10269002A00F06782026A531C03624D
:1011200012784A60C28C013A1304C284E2D1C868C2
:1011300020F08000C860C86840F04000C86002B07D
:10114000B0BD00BFD30718BF14F4807340F0D08047
:10115000530700F1D380D8E05206CBD514F04002FB
:10116000C8D0CA6822F04002CA60202180F841102D
:1011700002B0BDE8B04000F025BC00BFC16B0A68FA
:10118000526893B2002BB5D0858DAB42B2D2C285E6
:101190008969202900F0A180016851E8031F0268D5
:1011A00021F4807142E80313DBB1016851E8031FA9
:1011B000026821F4807142E8031393B1016851E899
:1011C000031F026821F4807142E803134BB10168E8
:1011D00051E8031F026821F4807142E80313002BD9
:1011E000DAD1016851E8051F026821F0010142E8E7
:1011F0000513C3B3016851E8051F026821F001011E
:1012000042E805137BB3016851E8051F026821F02D
:10121000010142E8051333B3016851E8051F026874
:1012200021F0010142E80513002BDAD11BE000BFD9
:10123000016851E8051F026821F0400142E80513EA
:10124000DBB1016851E8051F026821F0400142E866
:10125000051393B1016851E8051F026821F04001B0
:1012600042E805134BB1016851E8051F026821F0FF
:10127000400142E80513002BDAD1202180F842100A
:1012800000210163016851E8031F026821F0100189
:1012900042E80313DBB1016851E8031F026821F043
:1012A000100142E8031393B1016851E8031F02687B
:1012B00021F0100142E803134BB1016851E8031F0C
:1012C000026821F0100142E80313002BDAD1C16B50
:1012D00004460846FFF76EF9204602214163818DDE
:1012E000C28D891A89B202B0BDE8B040FFF7C8BE0E
:1012F000436C43F001034364530706D5BEF1000F6E
:1013000003D0436C43F002034364930706D5BEF158
:10131000000F03D0436C43F004034364BCF1000F9F
:1013200006D55EEA050303D0436C43F0080343642B
:10133000436C002B3FF4DEAE920605D525B1044682
:1013400000F0B8FB216820464969426C01F0400179
:1013500002F00802891800F0B98000BF016851E866
:10136000031F026821F4907142E80313BBB30168C4
:1013700051E8031F026821F4907142E8031373B32C
:10138000016851E8031F026821F4907142E80313D9
:101390002BB3016851E8031F026821F4907142E801
:1013A0000313002BDAD11AE0016851E8051F026827
:1013B00021F0010142E80513DBB1016851E8051F86
:1013C000026821F0010142E8051393B1016851E878
:1013D000051F026821F0010142E805134BB10168C5
:1013E00051E8051F026821F0010142E80513002BB6
:1013F000DAD1016B012924D1016851E8031F026889
:1014000021F0100142E80313DBB1016851E8031F2A
:10141000026821F0100142E8031393B1016851E81A
:10142000031F026821F0100142E803134BB1016869
:1014300051E8031F026821F0100142E80313002B5A
:10144000DAD1202180F84210002101630168496946
:10145000490640F1C380016851E8051F026821F088
:10146000400142E80513DBB1016851E8051F02683D
:1014700021F0400142E8051393B1016851E8051FCE
:10148000026821F0400142E805134BB1016851E8C0
:10149000051F026821F0400142E80513002BDAD154
:1014A000C16B002900F09A8041F6A922C0F6000223
:1014B000044608464A63FFF7A1F800283FF41AAE35
:1014C000E06B416B02B0BDE8B04008470446FFF74F
:1014D000D9FD0020606402B0B0BD00BF891A00BF12
:1014E000026852E8032F036822F4907243E8032550
:1014F000BDB3026852E8032F036822F4907243E8F8
:10150000032575B3026852E8032F036822F4907232
:1015100043E803252DB3026852E8032F036822F441
:10152000907243E80325002DDAD11AE0026852E8F0
:10153000052F036822F0010243E80525DDB10268AA
:1015400052E8052F036822F0010243E8052595B112
:10155000026852E8052F036822F0010243E80525DE
:101560004DB1026852E8052F036822F0010243E8FA
:101570000525002DDAD1202280F8422000220263C6
:10158000026852E8032F036822F0100243E80325A3
:10159000DDB1026852E8032F036822F0100243E82D
:1015A000032595B1026852E8032F036822F0100268
:1015B00043E803254DB1026852E8032F036822F087
:1015C000100243E80325002DDAD1022289B24263DA
:1015D00002B0BDE8B040FFF753BD00BF02B0BDE8A8
:1015E000B040FFF74FBD00BF026A32F8023B6FF315
:1015F0005F234B60026295E5002804BF012070471D
:1016000010B5044690F8410028B9002084F8400045
:10161000204600F063F8242084F841002068D4E9D3
:101620000212C36823F40053C360036923F44053D8
:101630001A430261D4E904231143C268194341F2F9
:101640000C639A431143C1604169A26921F440715E
:10165000114343F60002C4F201029042416103D0FB
:10166000FFF7D0FA02E000BFFFF7E0FAD4E9002369
:10167000192148439900B0FBF1F048F21F5CC5F214
:10168000EB1CA0FB0C314FF69C734909C0F6FF73AD
:1016900001FB0300322303EB0010A0FB0C03F0203E
:1016A00000EA531000EB0110C3F3431108449060AB
:1016B0001069202120F490401061506920F02A0028
:1016C0005061D06840F40050D0600020606484F81D
:1016D000411084F84210606310BD000070B586B000
:1016E00040F60044C4F201040068A4F54441002619
:1016F00088420596CDE90366029601D006B070BD1A
:1017000041F21800C4F20200416802AD41F48021A8
:101710004160416801F4802101910199016841F023
:10172000080101600068294600F008000190019856
:101730004FF4806002900220039003200590204621
:10174000FEF7B8FF4FF40060CDE9020620462946B7
:101750000496FEF7AFFF272000210022FFF738F99B
:101760002720FFF723F906B070BD000090F8423043
:10177000202B07D100294FF0010318BF002A05D103
:101780001846704702231846704700BF00230363C2
:10179000816222218285C285436480F842100169FA
:1017A000006819B1C16841F48071C160416941F0BC
:1017B00001014161C16841F02001C16018467047D4
:1017C00040F2E410C2F20000007840F2DC1140F276
:1017D000B8124028C2F20001C2F2000216D01278FC
:1017E000012A1AD0232805D140F2CC10C2F2000001
:1017F0000121017040F2701040F2E411C2F20000C9
:10180000C2F200010122FFF7B1BF00BF00230B802D
:10181000012313701278012AE4D10A88531C0B802B
:1018200040F27001C2F2000188542328DCD0E1E7C5
:101830002DE9F04381B0044690F84100202809D1F9
:1018400000294FF0010018BF002A07D101B0BDE800
:10185000F08300BF022001B0BDE8F0830020606487
:1018600021201D460E4684F841001746FFF730F848
:10187000A784E784A1688146B1F5805F02D1206921
:1018800000285DD037460020E28C2168002A5DD018
:101890006A1C24D0002D4AD0804600BF086800068C
:1018A00008D4FFF715F8A0EB0900A8427AD8216800
:1018B000C868F3E717B117F8010B04E038F8020B1A
:1018C00000276FF35F204860E08C0138E084E08CF3
:1018D0000028E3D13AE000BF0A68120609D40A687A
:1018E000120606D40A6812065CBF0A685FEA026242
:1018F000F2D51FB117F8012B05E000BF30F8022B1D
:1019000000276FF35F224A60E28C013AE284E28CA6
:10191000002AE4D11AE000BF30F8022B00276FF351
:101920005F224A60E28C013AE284E28C72B10A687A
:10193000120635D5002FEFD017F8012BF1E700BFC5
:1019400000273046E28C2168002AA1D108684006B1
:101950001ED42DB3681C14D1086840062AD4086828
:10196000400627D40868400624D4086840064FF093
:101970000000F1D50DE000BF2068C1680068400696
:1019800018D4FEF7A5FFA0EB0900A842F4D909E09E
:101990000020202184F8411001B0BDE8F08300BF91
:1019A000FEF796FF0320202184F8411001B0BDE826
:1019B000F08300BF0020202184F8411001B0BDE871
:1019C000F083000070470000FEE70000FEE7000023
:1019D000FEE70000704700007047000070B592B04D
:1019E00040F2BC10C2F2000090E81A00C0680DF18D
:1019F0000B0601F2DC5203F2DC5304F2DC5400F279
:101A0000DC5505A13046CDE90045FEF7F7FB304631
:101A100000F026F812B070BD23303031502530343C
:101A2000645430303030212330303250253034642B
:101A3000543030303021233030335025303464542A
:101A4000303030302123303034502530346454303D
:101A50003030302100000000FEF740BF704700002A
:101A6000002808BF70470146002000BF82B28A5C90
:101A70008AB140F0010293B2CB5C5BB140F002024C
:101A800093B2CB5C33B140F0030293B2CB5C043031
:101A9000002BEBD1104682B240F27010C2F200006F
:101AA0004FF0FF33FFF7C4BE406A0021C185C184F7
:101AB000FFF7E8BA81B090F84210222921D183685B
:101AC0000246B3F5805F09D152F8281F52F8183C3E
:101AD000002B63D003685B680AE000BF52F8281F40
:101AE00013B90369002BF5D003685B6803F07F032B
:101AF0000B70116801311160C18D01390A04C18573
:101B000002D001B0704700BF0168CA6822F020020D
:101B1000CA60CA6822F48072CA604A6922F001026F
:101B20004A61202180F8421000214163026B012AA2
:101B30003CD10163016851E8031F026821F01001E4
:101B400042E80313DBB1016851E8031F026821F08A
:101B5000100142E8031393B1016851E8031F0268C2
:101B600021F0100142E803134BB1016851E8031F53
:101B7000026821F0100142E80313002BDAD101685A
:101B80000A68D20606D5002200920A6800924968C7
:101B900000910099818D01B0FFF772BA0268526816
:101BA0006FF35F2221F8022B8162A5E701B0FFF7F6
:101BB00007BE000040F27010C2F20000FFF764BAE6
:101BC000FEE7000090B0FEF797FE00240120CDE96B
:101BD0000B44CDE9094406900A904FF4E0104FF40D
:101BE000803102250F9006A8CDE90714CDE90D51EB
:101BF000FFF730F820B1EFF3108072B6FEE700BFB8
:101C00000F20CDE901054FF48060CDE9040401A85F
:101C100002210394FEF718FF20B1EFF3108072B693
:101C2000FEE700BF41F21800C4F20200016844F66A
:101C3000000441F0200101600168C4F2000401F0D9
:101C40002001069106990168002641F00801016013
:101C500001680C2201F0080106910699016841F023
:101C60000401016000684FF4E13100F004000690C7
:101C7000069840F27010C2F20000C0E90041C0E9CD
:101C80000266C0E90462C0E90666FFF7B5FC28B148
:101C9000EFF3108072B600BFFEE700BF40F2CC1732
:101CA00040F2700840F2B81504F54044C2F2000753
:101CB000C2F20008C2F2000520464FF48071FEF720
:101CC00001FE0128F8D138780128F5D1404600F00E
:101CD000CBF800F005F8FFF781FE3E702E70EBE7C1
:101CE0002DE9F04F81B040F2D010C2F20000D0E9EF
:101CF000001ED0F808C00EEB0103A3EB0C074FF455
:101D00007A764DF2496A07FB06F5CFF2B92A85FBD0
:101D10000A58AEEB010505EB0C0202FB06F585FB4C
:101D20000A5901EB0C050091AEEB050101FB06F52C
:101D300085FB0A5B03EB0C0407FB068504FB06F33B
:101D400083FB0A3002FB06922B1201FB06B103EB68
:101D5000D575131204FB060003EBD2770A1240F28A
:101D6000BC1802EBD1730112C2F2000801EBD0746F
:101D7000002DC8F80050C8F80470C8F80830C8F83A
:101D80000C4048BF6D42002F48BF7F42BD4288BF14
:101D90002F46002B48BF5B429F4288BF3B46002C2A
:101DA00048BF64420098A34200FB00F00EFB0E0007
:101DB00088BF1C460CFB0C0000F058FA00F0A1F89C
:101DC00048F20003C4F25603002200F0F3F800F0DA
:101DD000BFF84FF07E51054600F0A4FB002100281B
:101DE00018BF4FF07E55C4F27A41284600F068FDD6
:101DF0000546204600F0E8FC0146284600F0BAFB04
:101E00000446D8E90007D8E9026500F0C5FC0146A0
:101E1000204600F055FD00F0A3FCC8F8000038464D
:101E200000F0BAFC0146204600F04AFD00F098FCA4
:101E3000C8F80400304600F0AFFC0146204600F030
:101E40003FFD00F08DFCC8F80800284600F0A4FC17
:101E50000146204600F034FD00F082FCC8F80C007A
:101E600001B0BDE8F08F000070B5027B437B4FF0FE
:101E7000640E02FB0E3203EB8303C17A02EB4302D2
:101E800041F2D043D41A90F811C02D2908BF9C1AF2
:101E9000827CC57C067D02FB0EF205EB850502EB1C
:101EA000450240F2D0111644C2F20001F21A0C6051
:101EB000BCF12D0F08BF9A1B04F114065342282EC3
:101EC0004B6005D81432282A9CBF0022C1E90022A9
:101ED000C07D3038C0B2022888BF70BD02A252F85F
:101EE0002000886070BD00BF00000000A6FFFFFF5B
:101EF0005A00000030380A2801D201207047002023
:101F000070472DE9F04106460F4600F017FA041E0F
:101F10000D4618BF0120284320F00040C0F17F602B
:101F200000F1E040C00F0ED0301C18BF0120384334
:101F300020F00040C0F17F6000F1E040C00F04BF1E
:101F40000120FEF777FA20462946BDE8F08100001F
:101F500021F0004201F00043A2F16052B2F5801F6F
:101F600028BFD2F17F6C0BD95FEA001C43EAC202A2
:101F700042EB507018BF704728BF20F00100704737
:101F8000B2F5801FBCBF184670474FEA410C1CF5E4
:101F9000001F02D2084600F05ABD70B500F079F972
:101FA00000000089FFF7F6BF4FF00040A0F5800069
:101FB000704700002DE9C04130B4DFF8A8C23CEA08
:101FC000111418BF3CEA131400F0F0801CEA11143D
:101FD00081EA030544EAD57418BF1CEA131500F022
:101FE000CB80A4EB050404F17F7404F500344FF0BA
:101FF000004545EAC12145EAC32341EA505143EA7D
:1020000052534FEAC0204FEAC222994208BF904281
:1020100000F0A0804FEA13650FF24816765D4FEA94
:10202000134506FB05F7C7F1807706FB07F74FEA74
:10203000D737A7FB03687642A7FB06CEC8F58038E2
:1020400038BFA8F1010807FB08E6A6FB028C4FF099
:10205000000EE6FB03CED8F100086FEA0C0C5CF131
:10206000000C6FEA0E0E4EF1004EA6FB0C584FF01E
:102070000007E6FB0E87A1FB08C6A0FB07CE16EB08
:102080000E064FF0000545F10005E1FB076515F16F
:10209000E04E7EBFA4F580345FEA46066D4116F13E
:1020A000800745F100054FEA172747EA05674FEA21
:1020B00015254FEA0666A6F1DE46B6F1805F20D907
:1020C000384605EBC47124F0010C01EB0C11BCF196
:1020D000FE6F02D8F0BCBDE8008124425CBF01F570
:1020E000801E9EEAC47F02D4F0BCBDE80081244279
:1020F00000F13980A1F1C041F0BCBDE8004100F021
:1021000016B94FEAD02040EA41504FEAD1214FEAB8
:10211000D22242EA43524FEAD323A7FB028607FBAF
:10212000036605FB02661EEA0E0F58BFA6EB0056BB
:10213000B6EB00564FEA520E4EEAC37E18EB0E0E77
:1021400056EB530EBCD518EB02085E417F1C55F1CF
:102150000005B5E74FF480154FF000074FF000067B
:102160004FF00008ACE701F1C04101F000414FF031
:102170000000F0BCBDE800810CEA131511EA0C1F49
:1021800000D00CE013EA0C1F00F025804FF0000097
:1021900081EA030101F00041F0BCBDE80081F0BC20
:1021A000BDE8004181EA030100F0C1B8F0BCBDE820
:1021B000004170B500F06DF8097EFC3E00F007B8F4
:1021C0004FF0000081EA030101F00041704781EA0D
:1021D000030100F0ACB8F0BCBDE8004122494FF06B
:1021E00000007047FFFDFBF9F7F5F4F2F0EEEDEBC0
:1021F000E9E8E6E4E3E1E0DEDDDBDAD8D7D5D4D305
:10220000D1D0CFCDCCCBCAC8C7C6C5C4C2C1C0BF50
:10221000BEBDBCBBBAB9B8B7B6B5B4B3B2B1B0AF56
:10222000AEADACABAAA9A8A8A7A6A5A4A3A3A2A13A
:10223000A09F9F9E9D9C9C9B9A99999897979695F5
:1022400095949393929191908F8F8E8E8D8C8C8B91
:102250008B8A898988888787868585848483838219
:10226000828181800000FF070000F87FB0FA80F3D0
:1022700010FA03F10AD0C3F11D0303F580634FEA9E
:1022800003524FEA415002EBD12170474FF000005A
:1022900070470EF1020E2EF0030E5EF8046B36420C
:1022A00005D4012A43EB030515F5001F12D80128B8
:1022B00041EB010C1CF5001F0CD80ED14FEAD17C6C
:1022C0000CEB4C0C0CF1020C15F5001F08BF4CEB8D
:1022D000D37C04E04FF0080C01E04FEAD37C0CEB18
:1022E0004C0526FA05F606F00706B6F1040C06D2F0
:1022F0000EEB860CBDE870404CF0010C6047DFE847
:102300000CF0090B02024FF00041A1F500214FF043
:10231000000070BD19461046012851EB010418BF9A
:10232000D4F5001484BF002001F0004170BD0808FE
:10233000A0F500114FEA3101704700002DE9F0418E
:1023400001F5801CBCF5001FC0F2C3804FEA115C90
:1023500021EA0C5141F480110CF1FD0C5FEA5C0C98
:102360000CF5C07C01D340004941890241EA9051FB
:1023700087023BA48E0EA45D0A0C04FB04F602FB4C
:1023800006F6C6F14046A4FB0662F60D46EA422672
:1023900006FB06F4A4FB01235242C3F1404338BFBD
:1023A0005B1EA6FB02420024E6FB0324D20B42EA9A
:1023B0004446A6FB0623A1FB02E2A3FB07E4A41804
:1023C0004FF0000252F10002E3FB01426442C2F10D
:1023D000404E38BFAEF1010EA6FB04234FF00002C1
:1023E000E6FB0E32A2FB0346B6194FF0000454F18F
:1023F0000004E2FB0264A1FB06E6A4FB07E816EB7F
:1024000008064FF0000858F10008E4FB0168764226
:10241000C8F1405838BFA8F10108A2FB06E4A3FBAD
:1024200008E52D194FF0000454F10004E2FB0854B4
:10243000A1FB05E6A7FB04E818EB06084FF0000631
:1024400056F10006E1FB048618F1200556F100065E
:10245000A80940EA8660B109A8F11B0808F03F0806
:10246000B8F10A0F1CD901EB0C51BDE8F08100BF97
:10247000FCF5EEE8E2DDD8D3CFCBC7C3C0BDB9B61B
:10248000B4B1AEACA9A7A5A3A19F9D9B9A98969520
:102490009392908F8D8C8B898887868584838281A7
:1024A000A0FB006800FB01F208EB4208B8EB8728AC
:1024B00007D5341858EB0104D5D5401C51F1000163
:1024C000D1E7341A78EB0104CDD4401E71F100013C
:1024D000C9E75FEA4C0C5FEA9C5C0DD105D301F0C3
:1024E00000414FF00000BDE8F081BDE8F04170B55B
:1024F000FFF7CFFE6DDBFFBEBDE8F04101494FF0B5
:10250000000070470000F87F10B500F0F5F80CBF30
:102510000120002010BD10B500F0EEF814BF01201E
:10252000002010BD10B500F063F98CBF0120002021
:1025300010BD10B500F05CF92CBF0120002010BDCB
:1025400010B500F089F994BF0120002010BD10B52E
:1025500000F082F934BF0120002010BD401058BFA8
:10256000C0F14040491058BFC1F140418142EFF3F2
:10257000008070474FF47F0C1CEAD0121EBF1CEA8B
:10258000D11392EA0C0F93EA0C0F00F0858090EAC9
:10259000010F48BF42F4807240F4000C41F4000087
:1025A0002CF07F4120F07F4000B5A2EB0302814276
:1025B0000FF2081CACEB504E9EF800E0C0F100009A
:1025C0004FEA4E0E00FB0EFC38BF49004FEA2C1CB0
:1025D0000CFB0EF34FEACE1E0EEB635E4FEA112C9E
:1025E0000EFB0CFC4FEAC1214FEA1C5300FB031108
:1025F00002F5FA024FEA112C0EFB0CFC4FEA0131F6
:102600004FEADC4C00FB0C1142EB2242C14228BFD6
:1026100009184CEB03335DF804EB10EB410143EB7D
:10262000C250B2F57C0F38BF704729D512F0F00FB9
:102630001CBF00F1C04000F0004070470081828361
:102640008485868788898B8C8D8E8F9192939596C1
:1026500097999A9C9D9FA0A2A3A5A7A8AAACAEB04B
:10266000B2B3B5B7B9BCBEC0C2C5C7C9CCCED1D450
:10267000D7D9DCDFE2E6E9ECF0F3F7FAFE00000080
:102680004FEA400C0CF1807CBCF17E4F28BF7047B4
:10269000B0F1C04000F0DBB90CEAD11390EA010FB1
:1026A00048BF42F48072624538BF634507D213F4D5
:1026B0007F0F16D080EA010000F00040704710B58F
:1026C00000F07FF9097EFC3E00F005B880EA0100C9
:1026D00000F00040704780EA010000F0004000F088
:1026E000B6B912F47F0F04BF0248704780EA0100B8
:1026F00000F0ADB90000C07F50EA010C00F113807A
:102700001CF5000F58BFBCF5000F01D4884270477C
:1027100007D710F5000F58BF11F5000F15D48842E8
:102720007047894270471CF5000F04D5BCF5000FB7
:10273000F7D5814270474FF0807C1CEB400F38BFCB
:102740001CEB410F01D28142704710B500F039F9FE
:10275000922449004FF000504FF08051FFF7FEBE29
:1027600041000B0ED3F19E0208D950F400034FEA4A
:10277000032323FA02F048BF4042704710B500F02F
:1027800020F900BF49922480002070476FF000427A
:1027900082EA20007047000010F0004148BF40422C
:1027A000B0FA80F310FA03F2C3F19D030BD051EAA3
:1027B000C35101EB1220530638BF704700F10100EE
:1027C00008BF20F001007047B0FA80F310FA03F25E
:1027D000C3F19D030AD0D90501EB1220530638BF7F
:1027E000704700F1010008BF20F0010070470000B1
:1027F00050EA010C00F113801CF5000F58BFBCF526
:10280000000F01D48842704707D710F5000F58BF5A
:1028100011F5000F15D488427047894270471CF5A6
:10282000000F04D5BCF5000FF7D5814270474FF07B
:10283000807C1CEB400F38BF1CEB410F01D2814262
:10284000704710B500F0BDF8922449004FF0805059
:102850004FF00051FFF782BE50EA010C00F11380E7
:102860001CF5000F58BFBCF5000F01D4884270471B
:1028700007D710F5000F58BF11F5000F15D4884287
:102880007047894270471CF5000F04D5BCF5000F56
:10289000F7D5814270474FF0807C1CEB400F38BF6A
:1028A0001CEB410F01D28142704710B500F089F84E
:1028B000922449004FF000504FF08051FFF74EBE78
:1028C0004FF47F0C1CEAD0121EBF1CEAD11392EA0F
:1028D0000C0F93EA0C0F00F0478090EA010F48BFFD
:1028E00042F480724FF0004C4CEA00204CEA012187
:1028F00002EB0302A0FB0113A2F50002002918BF9E
:1029000043F001035B0028BF4FEA330342EB22424E
:102910005FEA132C4CEBC2502EBFBCEB436FB2F5F9
:102920007C0F70474FEA036CBCF1004F08BF20F0EA
:102930000100B2F57C0F38BF70470BD582F0FF0263
:1029400012F5803FC8BF704700F1C040D8BF00F00B
:102950000040704700F5000C5FEA4C0C48BF704720
:10296000B0F1C04000F073B80CEAD11390EA010F47
:1029700048BF42F48072624538BF634504D280EAA2
:10298000010000F00040704710B500F01AF800BFD9
:102990008900013E00F007B800F009B85FEA410C79
:1029A0005FEA1C6C08D080EA010000F050B85FEAD2
:1029B000400C5FEA1C6CF6D14FF00040A0F580009F
:1029C00070470EF1020E2EF0030E5EF8044B244207
:1029D00004D44FEA4102B2F17F4F11D84FEA4003CD
:1029E000B3F17F4F0CD80ED14FEAD07C0CEB4C0CDE
:1029F0000CF1020CB2F17F4F08BF4CEBD17C04E02C
:102A00004FF0080C01E04FEAD17C0CEB4C0324FAA8
:102A100003F404F00704B4F1040C06D20EEB840CAA
:102A2000BDE810404CF0010C6047DFE80CF00708EF
:102A300002024FF00040A0F5800010BD08464200A1
:102A400018BFD2F1807288BF00F0004010BDFF2196
:102A500041EAD050C00570470400000800000000A3
:102A60000000000200010000100000000000000053
:102A70000001020304060708090000000001020328
:102A800004010202030405060708090A0B0C0D0ED7
:102A90000F101000B82A00080000002010000000ED
:102AA00050010008C82A000810000020D8070000C4
:102AB000700100080000000001000000100000008C
:082AC00000127A000000000082
:04000005080000ED02
:00000001FF
