:020000040800F2
:100000002848002005020008AD3A0008C139000860
:10001000353A00083D130008053E000800000000C6
:10002000000000000000000000000000D53B0008B8
:100030004113000800000000B13A00089D3C000890
:100040001F0200081F0200081F0200081F0200080C
:100050001F0200081F020008451300081F020008C5
:100060001F0200081F0200081F0200081F020008EC
:100070001F0200081F0200081F0200081F020008DC
:100080001F0200081F0200081F0200081F020008CC
:100090001F0200081F0200081F0200084D1300087D
:1000A0001F0200081F0200081F0200081F020008AC
:1000B0001F0200081F0200081F0200081F0200089C
:1000C0001F0200081F0200081F0200081F0200088C
:1000D0001F0200081F0200081F020008F93D000867
:1000E0001F0200081F0200081F02000800F002F8AB
:1000F00000F078F814A696E8000CB244B344DA4550
:1001000001D100F06FF8BAE80F000FA696E83000B2
:10011000A5EB040504EB0607AAEB0704A7F101070A
:100120004FEA15154FEA3414A4F10104AC4201D38F
:1001300000F058F813F0010F18BFFB1A43F0010349
:1001400000F001F8DBE71847F05F000010600000E6
:10015000103A24BF78C878C1FAD8520724BF30C8F3
:1001600030C144BF04680C60704700007047000055
:100170000023002400250026103A28BF78C1FBD8B0
:10018000520728BF30C148BF0B607047692900F093
:10019000CF80642900F0CC80752900F0C9806F29D8
:1001A00000F06081782900F087810368DB0928BFAF
:1001B00041F08001632900F08C83732900F0918362
:1001C000E32900F09C83002070471FB500F07AFC03
:1001D00004000020002105F0E7F8401C60601FBD0E
:1001E00010B510BD00F048FC1146FFF7EEFF03F01C
:1001F0003BFF00F06BFC03B4FFF7F2FF03BC00F021
:10020000AFFC00000948804709480047FEE7FEE7C9
:10021000FEE7FEE7FEE7FEE7FEE7FEE7FEE7FEE7B6
:1002200004480549054A064B70470000A13C0008F8
:10023000ED00000828420020284800202844002023
:10024000284400200FB41CB5074B06AA7B4469461E
:100250000090059800F01BFB0020694600F02AFB87
:100260001CBC5DF814FB00006506000070B5044678
:1002700085690068C10601D5302600E02026C00748
:1002800007D070BDD4E9012130469047206A401C58
:1002900020626D1EF6D570BD70B504468569007884
:1002A000C00707D170BDD4E9012120209047206A02
:1002B000401C20626D1EF6D570BD09684A0501D547
:1002C00040B27047C905FCD500B2704709684A05BD
:1002D00001D5C0B27047C905FCD580B2704770B572
:1002E0000C460546012A05D02878800600D5EA6923
:1002F000002302E0012305E05B1C934202D2E05C94
:100300000028F9D1A869E618C01AA861286A18441B
:1003100028622846FFF7AAFF04E0D5E9012114F876
:10032000010B9047B442F8D32846FFF7B5FF70BDE4
:100330002DE9F0410646002410687529314616A5BE
:1003400010D0FFF7BAFF002802DA404213A507E0F9
:1003500031688A0701D512A502E0490704D511A525
:10036000012401E0FFF7B2FF00210A2206F1240771
:1003700009E0B0FBF2FCB0FBF2F302FB1C003030F2
:1003800078541846491C0028F3D123462A463046A3
:10039000BDE8F04100F01DBA000000002D00000093
:1003A0002B000000200000002DE9FF5F15468A4663
:1003B0000446DFF8AC80F8440027D8E900103E4638
:1003C000CDE9001010E03AF816106A4602A800F0D5
:1003D000A2FA411C07D02178890603D5E2693918B1
:1003E00091420DD80744761C2078800602D5E0693A
:1003F000B84205DDAE42E6DB3AF816000028E2D14D
:10040000A069C01BA0612046FFF730FFD8E90010AB
:10041000CDE90010002017E03AF818106A4602A84B
:1004200000F079FAB0F1FF3F81460BD000250DF1C5
:10043000080B05E0D4E901211BF8050090476D1C6D
:100440004D45F7D308F10100B0428046E4DB206A55
:10045000384420622046FFF71FFFBDE8FF9F0000E1
:10046000D25C000070B5044621461068FFF72EFFED
:10047000002104F1240505E000F007023032C00835
:100480006A54491C0028F7D12068002308A20507F8
:1004900008D500F02000084304D0E069012305A23C
:1004A000401EE0612046BDE8704000F092B90000B7
:1004B000000000003000000070B504460D462146E3
:1004C0001068FFF703FF2188090502D50F4A7A4417
:1004D00002E00E4A7A440E32002104F1240305E0C2
:1004E00000F00F060009965D5E54491C0028F7D104
:1004F00020780023000704D5702D02D009B1022313
:1005000011322046BDE8704000F063B9C25B0000C4
:100510002DE9F05F894604464FF0000ADFF874B118
:10052000FB44C0F820A02046E1688847002874D02A
:10053000252806D0D4E901219047206A401C20627A
:10054000F1E700265F462046E168884720280546F7
:1005500007DB312D05D2781910F8200C08B10643BD
:10056000F1E7B00701D526F00406C4F81CA0002767
:10057000C4F818A02A2D09D0284604F0E7FE38B3A5
:1005800004EB8708303DC8F8185019E059F8041BEF
:10059000204604EB87029161E1688847012F0546F8
:1005A00018D1E069002820DA26F020061DE0D8F8EE
:1005B000180000EB800005EB40003038C8F8180048
:1005C0002046E1688847054604F0C0FE0028EED1C9
:1005D000012F0AD02E2D08D12046E16888477F1CC4
:1005E0000546022F46F02006C4DBA069002803DA86
:1005F000404246F00106A061F00701D026F0100647
:100600006C2D0BD0682D09D04C2D39D06A2D35D0EA
:10061000742D35D07A2D33D016E038E0E1682F46BE
:1006200020468847B842054609D16C2F26D04FF4A2
:100630008060E168064320468847054604E06C2F49
:100640001AD04FF4807006430DB3A5F1410019286C
:1006500002D8203546F400664A46294620462660E0
:100660004E46FFF793FD80B101280BD0F61D26F012
:10067000070000F1080956E74020E4E78020D8E7AA
:100680000020D6E706F104094DE7284652E7206A24
:10069000BDE8F09F985B000010B5431C02E010F825
:1006A000011B71B18107FAD14FF0013202C88C1AD7
:1006B0008C4314EAC211F9D0C01A0A0603D0C01E36
:1006C00010BDC01A10BD0A0401D0801E10BD090261
:1006D000FCD0401E10BD032A40F2308010F0030C05
:1006E00000F0158011F8013BBCF1020F624498BF85
:1006F00011F801CB00F8013B38BF11F8013BA2F122
:10070000040298BF00F801CB38BF00F8013B11F09C
:10071000030300F02481083AC0F0088051F8043B3C
:10072000083A51F804CBA0E80810F5E7121D5CBFA9
:1007300051F8043B40F8043BAFF30080D20724BFDC
:1007400011F8013B11F801CB48BF11F8012B24BF70
:1007500000F8013B00F801CB48BF00F8012B7047BF
:1007600010B5044610F0030F08BF11F0030F40F05E
:1007700015804FF0013E121FC0F20E8051F8043B6D
:10078000A3EB0E0C2CEA030C1CEACE1C08BF40F8AD
:10079000043BF0D0A1F1040102F10402521E08DB77
:1007A00011F8013B00F8013B002BF7D1114600F096
:1007B00008F9204610BD70477047704710B500F02B
:1007C0002BF9006810BD10B5044600F025F904604F
:1007D00010BD2DE9F0470D4699469246044600F1BA
:1007E00024080168880604D5E06921F01001216021
:1007F00000E00120A84201DD471B00E00027A169BD
:100800007A1902EB0900081AA0612078C00602D408
:100810002046FFF72BFD002608E0D4E901211AF855
:1008200006009047206A401C761C20624E45F4DB8F
:100830002078C0060AD52046FFF718FD06E0D4E967
:10084000012130209047206A401C2062381EA7F109
:100850000107F4DC07E0D4E9012118F8050090470E
:10086000206A401C2062281EA5F10105F3DC204609
:10087000FFF712FD2078000602D50220BDE8F087C0
:100880000120FBE701694A1C02610878704700B546
:100890008FB0CDE901310021059105497944CDE9B9
:1008A000031011466846FFF733FE0FB000BD00008D
:1008B000E5FFFFFF0A6802F8010B0A60704710B5F8
:1008C000436913B1AFF3008001E0FFF708FD012099
:1008D00010BD127800F124010A7000224A70012232
:1008E000EDE711684FF0FF32E9E710B5436913B146
:1008F000AFF3008001E0FFF757FD012010BD128823
:1009000000F1240182840022C2840122EDE71168F3
:100910004FF0FF32E9E72DE9F04116460C46054657
:1009200000F072F8036893F80101012807D0FF2C4A
:1009300012D8185D80B101202C70BDE8F081D3F889
:1009400007013246214603F20713C7182846BC4662
:10095000BDE8F041002360474FF0FF30EDE710B5F0
:10096000203AC0F00B80B1E81850A0E81850B1E868
:100970001850A0E81850203ABFF4F5AF5FEA027CA7
:1009800024BFB1E81850A0E8185044BF18C918C0D7
:10099000BDE810405FEA827C24BF51F8043B40F878
:1009A000043B08BF7047D20728BF31F8023B48BF5D
:1009B00011F8012B28BF20F8023B48BF00F8012B9B
:1009C00070474FF000020429C0F0128010F0030CB1
:1009D00000F02880CCF1040CBCF1020F18BF00F825
:1009E000012BA8BF20F8022BA1EB0C0100F01AB8D4
:1009F0005FEAC17C24BF00F8012B00F8012B48BF3F
:100A000000F8012B7047000010B500F05BF8001DE6
:100A100010BD00BF95490000004870471800002035
:100A20004FF0000200B5134694469646203922BF87
:100A3000A0E80C50A0E80C50B1F12001BFF4F7AFD2
:100A4000090728BFA0E80C5048BF0CC05DF804EBB4
:100A5000890028BF40F8042B08BF704748BF20F822
:100A6000022B11F0804F18BF00F8012B70470000D7
:100A700000487047180000207546FFF7F9FFAE46A2
:100A800005006946534620F00700854618B020B59A
:100A9000FFF7C6FBBDE820404FF000064FF000070F
:100AA0004FF000084FF0000BAC46ACE8C009ACE8D2
:100AB000C009ACE8C009ACE8C00921F007018D46C7
:100AC00070470000004870473800002010B5044609
:100AD000AFF300802046BDE81040FFF78CBB00005C
:100AE0004FF0013C50F8042B51F8043B9A4221D1BD
:100AF000A2EB0C03934313EACC1317D150F8042B49
:100B000051F8043B9A4215D1A2EB0C03934313EA2C
:100B1000CC130BD150F8042B51F8043B9A4209D165
:100B2000A2EB0C03934313EACC13DBD04FF000008D
:100B3000704700BFD01A01BAB1FA81F101F0180173
:100B400022FA01F0CB40DBB2C0B2C01AC1F12001E1
:100B50002CFA01F3D11A914311EAC311E6D170477F
:100B600001491820ABBEFEE72600020070470000D6
:100B700044F20820C2F200000068704744F20820E6
:100B8000C2F20000808870472DE9F04744F2082443
:100B9000C2F20004A268C3B20132D6B2A260C2F3AC
:100BA0000727C2F3074506EB12621A443A44C0F322
:100BB000072A2A44C0F3074C5244624420605FFA7B
:100BC00081FE02EB106094F80680704494F8079060
:100BD00000EB112040444EF200054844C0F27F056E
:100BE000E0602846A18003F043F928462146102200
:100BF00003F0C4F905F58055284603F039F9284675
:100C000021461022BDE8F04703F0B8B92DE9F04FB6
:100C100091B0FFF7ADFF002800F0B48004460AA8A9
:100C200043F2082500F1040901264FF0000A0DF1F6
:100C30004207C2F200054FF0000B019405E000BF2F
:100C40000AF5805AA24580F0A0805046394602221B
:100C500003F0DAF89DF84200AA28F1D19DF843008C
:100C60005528EDD150460AA91A2203F0CDF8BDF857
:100C70003C0041F2190101EB001499E88F000DF1DD
:100C8000100CBDF828808CE88F00B9F81400DA4504
:100C9000ADF82400CDE9024622D1BDF82A00B1B258
:100CA00088425ED0504629464FF4805203F0ACF89B
:100CB000039804AF68808FCF05F1040C8CE80F0017
:100CC000BDF82400A5F80080288350466F6103F02A
:100CD000CFF8504629464FF4805203F04FF940E0D8
:100CE000504629464FF48052240B03F08DF804AF90
:100CF0008FCF05F1040C8CE80F00BDF82400A5F897
:100D00000080288358466E806F6103F0B1F8584622
:100D100029464FF4805203F031F9504603F0A8F809
:100D2000012C1ED020460AF580540BF58056474210
:100D3000204629464FF4805203F066F8304603F00F
:100D400097F8304629464FF4805203F017F92046B1
:100D500003F08EF8013704F58054781C06F58056B0
:100D6000E6D14FF200000299C0F21F00039E084036
:100D7000019C8244834401360DF14207A245FFF4F1
:100D800064AF02E04FF0000B0126B1B25846FFF706
:100D9000FBFE11B0BDE8F08F2DE9F04788B00546A5
:100DA000FFF7E6FE78B34FF2000A064600240DF185
:100DB0001E070DF1040841F21909C0F21F0A03E0F1
:100DC00004F58054B4421ED220463946022203F074
:100DD0001BF89DF81E00AA28F2D19DF81F00552887
:100DE000EED1204641461A2203F00EF8BDF8060067
:100DF000A8420DD0BDF8180009EB001000EA0A0067
:100E00000444B442E0D3002008B0BDE8F08700BF3E
:100E100001A920461A2202F0F7FFBDF8180041F29E
:100E2000190101EB0010050B204603F021F8013DEC
:100E300004F58054F8D1FFF7E9FE012008B0BDE8C1
:100E4000F08700002DE9F04F87B088460546FFF790
:100E50008FFE70B34FF2000B064600270DF11A0407
:100E6000E94641F2190AC0F21F0B03E007F580576B
:100E7000B7421ED238462146022202F0C5FF9DF835
:100E80001A00AA28F2D19DF81B005528EED1384649
:100E900049461A2202F0B8FFBDF80200A8420DD060
:100EA000BDF814000AEB001000EA0B000744B7423B
:100EB000E0D3002007B0BDE8F08F00BFC8F8007095
:100EC000012007B0BDE8F08F40F27800C2F20000C8
:100ED000406870472DE9F04F93B0FFF749FE0028B6
:100EE00070D04FF2000B04460026C0F21F0B08AD75
:100EF000E84641F21909002703E000BF0744A74272
:100F00001CD238462946022202F07EFF9DF82000BE
:100F1000AA284FF48050F1D19DF821105529EDD128
:100F2000384641461A22013602F06EFFBDF8140021
:100F300009EB001000EA0B00E0E700BFB2B246F296
:100F400022110FAEC0F600013046FFF77BF93046A4
:100F500002F0A8FE002C41D005F1040800270DF195
:100F60003A0A6E4641F2190903E000BF0744A7425E
:100F700034D238465146022202F046FF9DF83A002C
:100F8000AA284FF48050F1D19DF83B105529EDD19E
:100F9000384629461A2202F037FFBDF8222046F2D1
:100FA0002E113046C0F600014346FFF74BF930469C
:100FB00002F078FEBDF8340009EB001000EA0B00E7
:100FC000D4E700BF46F222110FACC0F60001204664
:100FD0000022FFF737F9204602F064FE46F22010A7
:100FE000C0F6000002F05EFE13B0BDE8F08F000016
:100FF0002DE9F04F93B0FFF7BBFD002870D04FF202
:10100000000B04460026C0F21F0B08ADE84641F273
:101010001909002703E000BF0744A7421CD2384645
:101020002946022202F0F0FE9DF82000AA284FF483
:101030008050F1D19DF821105529EDD13846414617
:101040001A22013602F0E0FEBDF8140009EB001090
:1010500000EA0B00E0E700BFB2B246F228110FAE83
:10106000C0F600013046FFF7EDF8304602F01AFEF8
:10107000002C41D005F1040800270DF13A0A6E4614
:1010800041F2190903E000BF0744A74234D23846B1
:101090005146022202F0B8FE9DF83A00AA284FF409
:1010A0008050F1D19DF83B105529EDD138462946A5
:1010B0001A2202F0A9FEBDF8222046F22E11304677
:1010C000C0F600014346FFF7BDF8304602F0EAFDE6
:1010D000BDF8340009EB001000EA0B00D4E700BFB4
:1010E00046F228110FACC0F6000120460022FFF79F
:1010F000A9F8204602F0D6FD46F22010C0F6000006
:1011000002F0D0FD13B0BDE8F08F00002DE9F047EC
:1011100090B08A460DF126011A22054602F074FEAF
:101120009DF82600AA2841D19DF8270055283DD1D9
:1011300005AE304603F078FD304602F07DFCBDF888
:101140003A0098B31A3500260DF1040807E000BFF5
:10115000BDF83A000136864205F1100526D200F0AE
:101160006DFB814628464146102202F04DFEBDF936
:101170000800BDF91240BDF90A10BDF90C20BDF9F7
:101180000E30BDF910708AE88F005046CAF814403E
:1011900002F022FD00F052FB0199A0EB0900814210
:1011A000D6D9081A00F0ECF9D2E700BF10B0BDE8BC
:1011B000F08700002DE9F04140F27804C2F200040B
:1011C0006168002908BFBDE8F081618840F2EE2225
:1011D000914203D3BDE8F04100F062B8618840F26B
:1011E0002438C2F2000808EB01120E0190E8AA00B0
:1011F000D3809180D0E90410158157819181D081ED
:1012000000F01CFB21692061411A48F80610608833
:1012100001306080A0680844A060BDE8F081000053
:10122000F0B581B040F27805C2F200056A681AB1E3
:101230004FF0FF3001B0F0BD41F6FF7704460E4697
:10124000CFF68077FFF794FCC11901F54051B94200
:1012500008D2FFF7DBFCFFF78BFC391801F5405192
:10126000B942E5D3E860FFF789FC288000272846CB
:1012700040F8147F32462146C5E906772F620F2ECB
:1012800028BF0F22FFF727FA6F80AF6000F0D6FA71
:101290000146296101210020696001B0F0BD000014
:1012A0002DE9F04188B040F27806C2F2000670687D
:1012B000002840D000257560748841F219004FF273
:1012C000000100EB0410C0F21F014FEA041800EA0D
:1012D000010700BFF068284402F0CAFD05F58055FB
:1012E000AF42F7D1318845F2AA500DF10605ADF8AD
:1012F0000600ADF80810281D06F114011022FFF7B2
:101300002FFAADF81A40B168F068079129461A2201
:1013100002F034FE44B1F06840F224311A30C2F2D7
:101320000001424602F02AFE3188F068013138445B
:1013300089B2FFF729FC08B0BDE8F081FEE70000A4
:1013400070470000012000F059B900004FF4807090
:1013500000F054B92DE9F04140F6000440F29C063B
:10136000C4F20104C2F20006002041F204057070CC
:101370003070204604210022CEF2000500F058FA19
:1013800040F20807C2F20007286839684DF6836802
:10139000C4F21B38A1FB08126FF0010101EA5241AF
:1013A0002A68121A8A420BD22A68121A8A4207D273
:1013B0002A68121A8A4203D22A68121A8A42EFD382
:1013C00020460421012200F033FA28683968A1FB85
:1013D0000812910C01EB8101490000BF2A68121A22
:1013E0008A420BD22A68121A8A4207D22A68121A33
:1013F0008A4203D22A68121A8A42EFD32046042175
:10140000002200F015FA296838684CF6CD42CCF677
:10141000CC42A0FB022301EB13117278F2B92A68C7
:10142000521AB2F1FF3F14DC7278BAB92A68521A24
:10143000B2F1FF3F0DDC727882B92A68521AB2F11C
:10144000FF3F06DC72784AB92A68521AB2F1FF3FB0
:10145000E3DD4FF0FF30BDE8F08100BFB168726896
:10146000A0FB0803881A990CB0FBF1F04CF6093187
:10147000C8F63D51A0FB01014809BDE8F08100001C
:10148000014690F82100022816D10868D1E90FC35F
:10149000026822F00E020260026822F0010202607D
:1014A000012000FA03F2CCF8042081F8210000208A
:1014B000002281F820207047042088630120002248
:1014C00081F820207047000090F82110022923D1D4
:1014D000026840F2040C1168C4F2020C21F00E0103
:1014E000116013682F21C4F202018A4223F0010324
:1014F000136015DD3023C4F202039A421CD044234A
:10150000C4F202039A421BD05823C4F202039A4247
:101510001CD14FF4803321E0042181630120704706
:101520000823C4F202039A420ED01C23C4F2020321
:101530009A420BD1102311E04FF480730EE000BFEC
:101540004FF480530AE000BF012307E00CF168016B
:101550004FF080738A4208BF4FF480130121CCF80A
:10156000003080F82110416B0022002980F82020F3
:1015700004BF0020704780B58847002080BD000070
:10158000B0B5044600F05AF9054640F20000C2F238
:1015900000000078611C18BF044400BF00F04EF941
:1015A000401BA042FAD3B0BD012818BF704780B5D8
:1015B00040F60040C4F20100012100F033F9012897
:1015C00040F29C00C2F2000008D141F20401CEF2C8
:1015D00000010968416001210BE000BF017849B1B9
:1015E00041F20401CEF200010968816001214170DD
:1015F00000210170BDE880407047000040F21441B6
:10160000C4F201010A68024214BF08607047FFF784
:10161000CBBF00002DE9F04F82B00E68002E00F025
:10162000FD8041F20042C4F20102042340F2004E68
:10163000904208BF03234FF6FF7CC4F2010E0093D3
:1016400000240123C1F2100C4FF0000A4FF00009F2
:101650004BE000BF41F20002C4F20102009F904241
:1016600008BF022704F00C030F229A402BEA020263
:1016700007FA03F34FEA9A051A4346F825204E6805
:1016800040F20C45F202DEF8082054BF22EA0802BC
:1016900042EA0802C4F20105CEF808202A68B30223
:1016A00054BF22EA080242EA08022A60B303DEF8C5
:1016B000042054BF22EA080242EA0802F303CEF8EB
:1016C0000420DEF800204FF0010354BF22EA080294
:1016D00042EA0802CEF800200E680AF1010A36FA42
:1016E0000AF204F1040400F0998003FA0AFB16EAF6
:1016F0000B08F1D04E68664512DC122E56D8DFE892
:1017000006F0350B4D4955555555555555555555BB
:1017100055555545510000BFD1F80C9046E000BF2B
:101720004FF6FF72C1F2210296420FDC0022C1F295
:10173000110296421AD00022C1F21202964215D02E
:101740000022C1F22102964210D02FE00022C1F205
:10175000220296420AD00022C1F23102964205D0FE
:101760000022C1F23202964220D100BF8A684AB1FB
:10177000012A14BFC0F814B0C0F810B04FF0080927
:1017800014E000BF4FF0040910E000BFCA6802F186
:1017900004090BE04FF0000908E000BFCA6802F13D
:1017A000080903E0CA6802F10C0900BF0246264698
:1017B000B8F5807F24BF0432203E17680F25B5405E
:1017C00027EA050509FA06F635431560CA79D206F7
:1017D0007FF582AF41F21803C4F202031A68AEF536
:1017E0007E7642F001021A601A6802F0010201924C
:1017F000019A2AF0030256F802B040F60002C4F241
:101800000102904208D040F60042C4F20102904228
:101810007FF420AF012725E7002723E702B0BDE8CA
:10182000F08F00008068084018BF0120704700005A
:10183000002A08BF090401617047000044F21C201F
:10184000C2F200000068704740F2000044F21C2120
:10185000C2F20000C2F2000100780A681044086079
:101860007047000080B542F20000C4F20200016837
:1018700041F010010160032000F08CF80F2000F00F
:1018800005F800F027F8002080BD000070B540F298
:101890000006C2F2000640F208013278C2F20001EE
:1018A0004FF47A730968B3FBF2F20446B1FBF2F12C
:1018B000084600F081FF0F2C4FF0010508D838B919
:1018C0004FF0FF3021460022002500F037F8746009
:1018D000284670BD82B041F21800C4F202000168CF
:1018E000022241F001010160016801F00101019152
:1018F0000199416841F080514160406800F080509A
:10190000009000980420C4F20100016862F31A619B
:10191000016002B070470000002848BF704700F027
:101920001F01012202FA01F11C2202EAD0004EF24C
:101930000012CEF2000281507047000010B54EF642
:101940000C5CCEF2000CDCF80030C3F3022E8EF0FB
:101950000704042C28BF0424BEF103034FF0FF3E0C
:101960000EFA04F438BF0023A14399400EFA03F3A2
:101970009A43114300F00F0200F160430901043A59
:1019800003F564436244002848BF02F10C03197058
:1019900010BD00004EF60C51CEF200010A684FF661
:1019A000FF031A4060F30A2242F0806040F0FD70AD
:1019B00008607047002804BF012070472DE9F043FC
:1019C00081B042F20008C4F202080446D8F80000D0
:1019D0000D4600F0070081420CD9D8F8000020F035
:1019E00007002843C8F80000D8F8000000F00700FE
:1019F000A8426CD1206841F204098107C4F20209AF
:101A000017D5410705D5D9F8001041F4E061C9F8B0
:101A10000010010705D5D9F8001041F46051C9F84C
:101A20000010D9F80010A26821F0F0011143C9F8A4
:101A30000010C00742D1D8F8000000F0070085422E
:101A40000CD2D8F8000020F007002843C8F80000A6
:101A5000D8F8000000F00700A84238D120684107FC
:101A600007D5D9F80010E26821F4E0611143C9F804
:101A70000010000708D5D9F80000216920F4605053
:101A800040EAC100C9F80000D9F8002002F00C00BB
:101A9000082841F20020C0F27A004DD146F2F60348
:101AA000C2F38341C0F60003595CD20338D440F638
:101AB0000010C0F23D0048433EE000BF606859F8A6
:101AC000041C022808D0012826D1890306D401204D
:101AD00001B0BDE8F08300BF8901F8D5D9F8001046
:101AE00021F003010843C9F80000FFF7A7FE0646EE
:101AF00041F28837D9F80000616800F00C00B0EBC3
:101B0000810F98D0FFF79AFE801BB842F2D90320CC
:101B100001B0BDE8F08300BF8907D8D5DEE700BF7C
:101B2000D9F8002046F2F403C2F34042C0F60003A5
:101B30009A5C4843B0FBF2F0D9F8001046F2DC02A0
:101B4000C1F30311C0F60002515C40F2080220FA12
:101B500001F140F20400C2F200000068C2F200028B
:101B60001160FFF793FE002001B0BDE8F083000094
:101B700040F2080041F20401C2F20000C4F2020186
:101B80000068096846F2EC02C1F30221C0F60002C7
:101B9000515CC8407047000040F2080041F2040167
:101BA000C2F20000C4F202010068096846F2EC02C9
:101BB000C1F3C221C0F60002515CC840704700006A
:101BC000002804BF012070472DE9F04182B004468F
:101BD000007841F20006C007C4F202060CD070681B
:101BE00000F00C00042840F081803068800303D5A9
:101BF0006068002800F04681207880071BD5706857
:101C000010F00C0F09D0706800F00C00082840F0AC
:101C100087807068C00300F183803068800703D537
:101C20002069012840F02E813068616920F0F800B9
:101C300040EAC10030602078000713D420784007C4
:101C40002CD4E569002D00F01881706800F00C00BC
:101C5000082840F0A780012D40F00481012002B047
:101C6000BDE8F081A069002800F084800020C4F263
:101C700042200121C0F88014FFF7E0FD054600BFB7
:101C8000706A800700F1B280FFF7D8FD401B022880
:101C9000F6D9032002B0BDE8F08100BFF0695FEA29
:101CA000C00808D4F06940F08050F061F06900F09D
:101CB00080500090009847F20007C4F2000738688F
:101CC000C00549D4386840F480703860FFF7B6FD2D
:101CD000054600BF3868C0053ED4FFF7AFFD401B86
:101CE0006428F7D9032002B0BDE8F081706800F0E5
:101CF0000C00082803D17068C0033FF576AF616817
:101D00003068002900F00C81B1F5A02F00F00081AF
:101D1000B1F5803F40F01A8140F480301CE100BFF3
:101D20002069002840F20000C4F2422000F08880C0
:101D300001210160FFF782FD054600BF3068800782
:101D40003FF572AFFFF77AFD401B0228F6D903205A
:101D500002B0BDE8F08100BFE168306A002900F000
:101D60009D80052900F09280012940F0AF8040F06D
:101D70000100B1E00020C4F242200021C0F880142C
:101D8000FFF75CFD054600BF706A80077FF556AF20
:101D9000FFF754FD401B0228F6D9032002B0BDE82E
:101DA000F08100BF0027C4F2422700203866FFF709
:101DB00045FD022D05460DD13068800140F1DE80E1
:101DC000FFF73CFD401B02284FF00300F4D902B09E
:101DD000BDE8F081306880014FD5FFF72FFD401B33
:101DE00002284FF00300F5D9F1E700BF40F20800E8
:101DF000C2F20000006844F6D351C1F26201A0FBB8
:101E00000101480A019000BF00BF0198411E00284F
:101E100001913FF413AF00BF0198411E00280191CA
:101E20003FF40CAF00BF0198411E002801913FF420
:101E300005AF00BF0198411E00280191E4D1FDE6E5
:101E400000210160FFF7FAFC054600BF30688007FB
:101E50007FF5F1AEFFF7F2FC401B02284FF00300C4
:101E6000F4D9B4E77068216A00F480328A4209D15B
:101E7000616A00F47010884204D1002002B0BDE80D
:101E8000F08100BF012002B0BDE8F08140F0040005
:101E90003062306A40F001001EE000BF20F0010017
:101EA0003062306A20F004003062FFF7C7FC05465C
:101EB00041F28837306A800720D5FFF7BFFC401B0E
:101EC000B8424FF00300F5D981E700BF20F00100D0
:101ED0003062306A20F004003062FFF7AFFC054644
:101EE00041F28837306A800708D4FFF7A7FC401B0F
:101EF000B842F7D9032002B0BDE8F081B8F1000F75
:101F00003FF59FAEF06920F08050F06199E600BF88
:101F100040F480203060306840F480301CE000BF26
:101F200020F480303060306820F480203060FFF78B
:101F300085FC0546306880037FF55EAEFFF77EFCCA
:101F4000401B64284FF00300F4D940E720F48030B0
:101F50003060306820F480203060FFF76FFC054669
:101F6000306880033FF548AEFFF768FC401B6428EB
:101F7000F6D9032002B0BDE8F08100BF206AB0F5B9
:101F8000803F05D17168A26821F40031114371606E
:101F90007168626A21F47411114308437060012072
:101FA0003866FFF74BFC0446306880013FF565AFAB
:101FB000FFF744FC001B02284FF00300F4D906E7AA
:101FC00070B528B1416A29B100210161142106E0F0
:101FD000012070BD4168B1F5827F02D01C21002232
:101FE00042500026866290F8511029B980F850605E
:101FF000054600F039F82846022180F8511090E893
:102000002E0002F482720C6803F4044324F04004AE
:102010000C601A4405F4006305691A4405F00203D4
:1020200045691A4405F001038569C4691A4405F439
:1020300000731A4404F03803046A1A4404F080035D
:10204000846A1A4304F400531A430A60042202EA21
:1020500015424A60CA6922F40062CA6101214665DC
:1020600080F85110304670BD70B586B040F600441F
:10207000C4F201040068A4F5544100268842059684
:10208000CDE90366029601D006B070BD41F218009A
:10209000C4F20200416802AD41F4804141604168F0
:1020A00001F4804101910199016841F0080101604A
:1020B0000068294600F00800019001984FF4204084
:1020C000029002200390032005902046FFF7A2FA19
:1020D0004FF48040CDE90206204629460496FFF7DA
:1020E00099FA06B070BD00002DE9F04182B00446B7
:1020F00090F85100012819D160681D4617460E4618
:10210000B0F5827F01D1A068A0B1FFF797FB8046B0
:10211000002E4FF0010018BF002F03D102B0BDE820
:10212000F08100BF94F85000012811D1022002B0C4
:10213000BDE8F081042084F8510020463146324643
:102140003B46009500F0CEF902B0BDE8F08100BF3B
:10215000012084F850000420002184F851006165BA
:10216000A663A787E7872163A186E186A268206826
:10217000B2F5004F2164616438D00168490640D54A
:10218000E168E08F002944D000287BD0681C0CD186
:102190001BE000BFC068A16B21F8020BA163E08FB8
:1021A0000138E087E08F00286CD020688168C9077B
:1021B000F0D1FFF743FBA0EB0800A842F2D342E0C6
:1021C000FFF73CFBE08F00285CD020688168C907DE
:1021D000F6D0C068A16B21F8020BA163E08F013833
:1021E000E087E08F0028F0D14CE000BF016821F0CB
:1021F00040010160016821F48041016001684906E5
:10220000BED4016841F040010160E168E08F00291F
:10221000BAD1B8B3681C0CD124E000BF007BA16B1D
:102220000870A06B0130A063E08F0138E087E08F79
:1022300040B320688168C907F0D1FFF7FFFAA0EB2F
:102240000800A842F3D3012084F85100002084F84C
:102250005000032002B0BDE8F08100BFFFF7EEFAA6
:10226000E08F78B120688168C907F7D0007BA16B47
:102270000870A06B0130A063E08F0138E087E08F29
:102280000028EFD16068B0F5827F11D1A068B0F569
:10229000004F02D0B0F5806F0AD12168B0F5806F91
:1022A0000A6822F040020A6002D12046012101E0C2
:1022B0002046802100222B46CDF8008001F0FAFB59
:1022C00028B1606D40F0200060652020606501202D
:1022D00084F85100002084F85000606D002818BF79
:1022E000012002B0BDE8F0812DE9F04182B01D4629
:1022F00016460F460446FFF7A1FA94F8511001293B
:102300000ED18046002F4FF0010018BF002E03D1E0
:1023100002B0BDE8F08100BF94F85000012803D15D
:10232000022002B0BDE8F081012084F850000320B3
:10233000002184F8510061652763A686E686A163C3
:10234000A187E187A0682164B0F5004F206861642F
:1023500007D1016821F040010160016841F480412A
:1023600001600168490603D4016841F04001016041
:102370006168731EE268B1FA81F1B3FA83F3490927
:102380005B09B2F5006F41EA030139D131B137F889
:10239000021BC1602763E08E0138E086E08E0028D2
:1023A00070D0681C0BD11AE0216B31F8022BC2608F
:1023B0002163E08E0138E086E08E002862D020683C
:1023C00081688907F0D4FFF739FAA0EB0800A8422A
:1023D000F2D338E0FFF732FAE08E002852D02068BE
:1023E00081688907F6D5216B31F8022BC260216321
:1023F000E08E0138E086E08E0028F0D142E000BF98
:1024000039B139780173206B01302063E08E0138D7
:10241000E086E08EB0B3681C0BD123E0216B097815
:102420000173206B01302063E08E0138E086E08E7E
:1024300040B3206881688907F0D4FFF7FFF9A0EB6B
:102440000800A842F3D3012084F85100002084F84A
:102450005000032002B0BDE8F08100BFFFF7EEF9A5
:10246000E08E78B1206881688907F7D5216B0978FB
:102470000173206B01302063E08E0138E086E08E2E
:102480000028EFD12046022101222B46CDF8008002
:1024900001F010FB40B92046802100222B46CDF8E8
:1024A000008001F007FB28B1606D40F020006065FE
:1024B00020206065A06838B9002001902068C168BC
:1024C0000191806801900198012084F8510000205A
:1024D00084F85000606D002818BF012002B0BDE8EC
:1024E000F08100002DE9F04383B01E4615460F46EB
:1024F0000446FFF7A3F994F851108146012909D148
:10250000002F4FF0010018BF002D0FD103B0BDE820
:10251000F08300BF6068B0F5827F0DD104294FF0D1
:102520000200F3D1A1680029EAD0EFE7002EEDD038
:1025300094F85000012803D1022003B0BDE8F083D5
:10254000012084F8500094F85100002104281CBF99
:10255000052084F851006165A563E687A687276397
:10256000E6862068A686216461640168490603D472
:10257000016841F0400101606168731EE268B1FAD0
:1025800081F1B3FA83F3DDF8288049095B09B2F5DC
:10259000006F41EA030165D131B137F8021BC16018
:1025A0002763E08E0138E086012518F1010032D161
:1025B00002E000BFFFF742F9E08E18B9E08F002873
:1025C00000F0B8802068816889070CD5E18E51B190
:1025D000012D08D1216B002531F8022BC260216347
:1025E000E18E0139E1868168C907E3D0E18F0029D6
:1025F000E0D0C068A16B012521F8020BA163E08F38
:102600000138E087D6E700BFFFF718F9A0EB090013
:10261000404580F0AF80E08E18B9E08F002800F0D0
:1026200089802068816889070CD5E18E51B1012D20
:1026300008D1216B002531F8022BC2602163E18EA5
:102640000139E1868168C907DED0E18F0029DBD03E
:10265000C068A16B012521F8020BA163E08F01384E
:10266000E087D1E739B139780173206B01302063FD
:10267000E08E0138E086012518F1010032D101E039
:10268000FFF7DCF8E08E10B9E08F002852D0206808
:10269000816889070ED5E18E61B1012D0AD1216BC8
:1026A000002509780173216B206801312163E18ED7
:1026B0000139E1868168C907E2D0E18F0029DFD0C6
:1026C000C068A16B01250870A06B0130A063E08F8A
:1026D0000138E087D4E700BFFFF7B0F8A0EB0900AE
:1026E000404547D2E08E08B9E08F18B32068816872
:1026F00089070ED5E18E61B1012D0AD1216B00252C
:1027000009780173216B206801312163E18E013961
:10271000E1868168C907DFD0E18F0029DCD0C0687D
:10272000A16B01250870A06B0130A063E08F013818
:10273000E087D1E72046022101224346CDF80090F0
:1027400001F0B8F940B92046802100224346CDF877
:10275000009001F0AFF9B8B1606D40F02000606505
:1027600020206065002084F85000012003B0BDE8FF
:10277000F08300BF012084F85100002084F850004D
:10278000032003B0BDE8F083A06838B900200290B0
:102790002068C1680291806802900298012084F844
:1027A0005100002084F85000606D002818BF0120FF
:1027B00003B0BDE8F0830000411E0020B0EB116FB4
:1027C0001CBF012070474EF21002CEF20002516091
:1027D0004EF62351CEF20001F0230B7007219060DA
:1027E0001160704790F83C20012A4FF0020236D069
:1027F00010B580F83D200268D2F804E0D2F808C095
:102800000C682EF07003234340F2FF74C4F20004FE
:10281000A24253600ADCB2F1804F13D040F2004371
:10282000C4F200039A420DD011E000BF42F600430B
:10283000C4F201039A4205D040F60003C4F200033B
:102840009A4204D149682CF0800319439160012118
:10285000002280F83D1080F83C20BDE81040104672
:1028600070470000002804BF0120704710B590F8A1
:102870003D1031B9002180F83C10044600F070F89A
:102880002046022180F83D10016840F2FF740B6879
:10289000C4F2000442F6004CA142C4F2010C15DC63
:1028A000B1F1804F1AD040F20042C4F200029142CE
:1028B00014D0A14218DCB1F1804F1DD040F200428B
:1028C000C4F20002914217D01AE000BF614505D062
:1028D00040F60002C4F200029142EAD1826823F07D
:1028E00070031343A142E6DD614505D040F60002C6
:1028F000C4F20002914203D1026923F440731343EE
:10290000846923F08002D0F804E0C3682243614563
:102910000A60CB62C1F828E002D14269CCF83020CD
:1029200001224A610B69DB0703D00B6923F0010325
:102930000B6180F8462080F83E2080F83F2080F828
:10294000402080F8412080F8422080F8432080F821
:10295000442080F8452080F83D20002010BD000074
:1029600083B0006840F60001C4F20001884227D01D
:1029700040F20041C4F20001884211D0B0F1804F12
:102980002BD141F21C00C4F20200016841F00101A8
:102990000160006800F001000290029803B07047E7
:1029A00041F21C00C4F20200016841F00201016022
:1029B000006800F002000190019803B0704700BF6A
:1029C00041F21C00C4F20200016841F00401016000
:1029D000006800F004000090009803B07047000009
:1029E00090F83C20012A4FF002026CD080B580F8AC
:1029F0003D20D0F800C04FF67772DCF8083023EAAB
:102A00000202CCF808200B684F2B29DC1F2B45DD78
:102A1000202B46D0302B44D0402B40F0AF80D1F853
:102A200004E0C968DCF82030DCF8202022F0010244
:102A3000CCF82020DCF8182022F0F00242EA011144
:102A400023F00A0242EA0E02CCF81810CCF820203B
:102A5000DCF8081041F0470121F0300128E000BF08
:102A60006F2B33DDB3F5005F74D0B3F5805F21D0F9
:102A7000702B40F08380D1E901E3C968DCF80820BD
:102A800043EA0E0322F47F4243EA01211143CCF8CA
:102A90000810DCF8081041F0770109E00BB1102BA9
:102AA0006CD1DCF8081021F07001194341F00701E6
:102AB000CCF808100022012180F83D10002180F898
:102AC0003C10BDE880401046704700BF502B21D01D
:102AD000602B53D1D1F804E0C968DCF82030DCF871
:102AE000202022F01002CCF82020DCF8182022F45C
:102AF000704242EA013123F0A00242EA0E12CCF801
:102B00001810CCF82020DCF8081041F0670121F003
:102B10001001CDE7D1F804E0C968DCF82030DCF81A
:102B2000202022F00102CCF82020DCF8182022F02E
:102B3000F00242EA011123F00A0242EA0E02CCF846
:102B40001810CCF82020DCF8081041F0570121F0D3
:102B50002001ADE7D1E901E3C968DCF8082043EAC8
:102B60000E0322F47F4243EA01211143CCF80810FE
:102B7000DCF8081041F480419AE700BF01229AE78F
:102B800080B586B0006840F60001C4F200018842BA
:102B90004FF00001CDE90411CDE9021160D040F2FF
:102BA0000041C4F2000188422ED0B0F1804F71D1B3
:102BB00041F21800C4F20200016841F0080101600E
:102BC000006802A900F00800019001980820029016
:102BD00002200390059040F60040C4F20100FEF789
:102BE00019FD0420C4F201004FF2FF320168CFF654
:102BF000FF0202F51062114041F0E06141F4807182
:102C0000016006B080BD00BF41F21800C4F20200AE
:102C1000016841F008010160006802A900F00800A5
:102C2000019001981020029002200390059040F638
:102C30000040C4F20100FEF7EDFC0420C4F20100E4
:102C400001684FF2FF32CFF6FF02114001F1E0615F
:102C500001F5807101F5E061016006B080BD00BF43
:102C600041F21800C4F20200016841F0080101605D
:102C7000006802A900F00800019001984FF47070FC
:102C8000029002200390059040F60040C4F201003B
:102C9000FEF7C0FC06B080BD90F83C30012B04BFAD
:102CA000022070474FEAB202032A00F2F1802DE9B8
:102CB000F043DFE802F003A53B7500BF036842F66E
:102CC00000461D6A1A6AC4F2010622F001021A6265
:102CD0001A465C6852F818CFB3428E68D1F800E00B
:102CE00025F0020545EA06050CD1CE68D1E9057844
:102CF00024F4407425F00C0526F004063C433543CB
:102D000044EA08042CF0730747EA0E075C609F61F1
:102D10004F6809695F631D629F6947F008079F61FB
:102D20009F6927F004079F61A6E000BF036842F691
:102D300000461D6A1A6AC4F2010622F480721A6201
:102D40001A46D3F804C052F81CEFB3428E680C68E0
:102D500025F4007545EA06250FD1CE68D1E905981E
:102D6000360240F2FF4725F44065BE4335432CF45C
:102D7000405748EA090647EA061C2EF07307274326
:102D8000C3F804C0DF614F680969DF631D62DF6952
:102D900047F00807DF61DF6927F00407DF616BE0B8
:102DA000036842F60047D3F820C01A6AC4F201074C
:102DB00022F480521A621A465C6852F81C5FD1F8FD
:102DC00000E08E68BB4204D14F6924F4804444EA99
:102DD00087142CF4005747EA063725F4E64646EAFE
:102DE0000E265C60DE614E6809691E641F62DF6941
:102DF00047F40067DF61DF6927F48067DF613AE04D
:102E0000036842F600461D6A1A6AC4F2010622F0FF
:102E100010021A621A46D3F804C052F8184FB3428F
:102E20008E68D1F800E025F0200545EA06150FD19F
:102E3000CE68D1E905986FF0400725F0C00507EA94
:102E4000061635432CF4406748EA090647EA860C23
:102E500024F4E64444EA0E27C3F804C09F614F6897
:102E600009699F631D629F6947F400679F619F69BD
:102E700027F480679F6109021368194311600021DC
:102E8000BDE8F043002280F83C200846704700BFB0
:102E90000121002280F83C2008467047002804BF2A
:102EA0000120704710B590F83D1031B9002180F82D
:102EB0003C10044600F070F82046022180F83D10D6
:102EC000016840F2FF740B68C4F2000442F6004C43
:102ED000A142C4F2010C15DCB1F1804F1AD040F2CE
:102EE0000042C4F20002914214D0A14218DCB1F1B8
:102EF000804F1DD040F20042C4F20002914217D030
:102F00001AE000BF614505D040F60002C4F200029D
:102F10009142EAD1826823F070031343A142E6DDB7
:102F2000614505D040F60002C4F20002914203D18F
:102F3000026923F440731343846923F08002D0F8BC
:102F400004E0C368224361450A60CB62C1F828E00F
:102F500002D14269CCF8302001224A610B69DB07BB
:102F600003D00B6923F001030B6180F8462080F841
:102F70003E2080F83F2080F8402080F8412080F8F3
:102F8000422080F8432080F8442080F8452080F8D3
:102F90003D20002010BD000070470000C1B1042991
:102FA00008D0082914BF41224022825C012A05D0A2
:102FB00016E000BF3F22825C012A11D102220829BB
:102FC00010D0042914BF80F8412080F83F200BE086
:102FD00090F83E20012A03D1022280F83E2003E02F
:102FE0000120704780F84020006801F01F01012295
:102FF000036A8A4023EA02010162036A42F64441FD
:10300000C4F201011A43A1F14403984202620FD0B5
:1030100040F2FF71C4F20001884213DCB0F1804F2E
:103020001CD040F20041C4F20001884216D01CE0DE
:103030000A6842F400420A6040F2FF71C4F20001E3
:103040008842EBDD42F60041C4F20101884205D01E
:1030500040F60001C4F20001884206D1816801F007
:103060000701062904BF00207047016841F00101F3
:1030700001600020704700007047000070470000AA
:10308000B0B582B001680A68CC684B6902F02F05C0
:10309000202D04F0200505D125B102B0BDE8B040D7
:1030A00000F02ABE5FEA027C1EBF03F0010E04F4AA
:1030B000907313EB0E0341D1036BD50618D5012B8A
:1030C00016D114F0100313D0002201920A68019265
:1030D0004A680192019A496949064BD4818DC28D93
:1030E000C38D002B18BF914240F0F48102B0B0BDF7
:1030F00013062DD514F080032AD090F84120212A00
:10310000F4D18268B2F5805F03D10269002A00F031
:103110006782026A531C036212784A60C28C013AC9
:103120001304C284E2D1C86820F08000C860C86877
:1031300040F04000C86002B0B0BD00BFD30718BF68
:1031400014F4807340F0D080530700F1D380D8E0AE
:103150005206CBD514F04002C8D0CA6822F0400213
:10316000CA60202180F8411002B0BDE8B04000F0F4
:1031700025BC00BFC16B0A68526893B2002BB5D062
:10318000858DAB42B2D2C2858969202900F0A18029
:10319000016851E8031F026821F4807142E80313BB
:1031A000DBB1016851E8031F026821F4807142E835
:1031B000031393B1016851E8031F026821F4807181
:1031C00042E803134BB1016851E8031F026821F480
:1031D000807142E80313002BDAD1016851E8051F22
:1031E000026821F0010142E80513C3B3016851E808
:1031F000051F026821F0010142E805137BB3016855
:1032000051E8051F026821F0010142E8051333B3BC
:10321000016851E8051F026821F0010142E8051329
:10322000002BDAD11BE000BF016851E8051F0268DE
:1032300021F0400142E80513DBB1016851E8051FA8
:10324000026821F0400142E8051393B1016851E89A
:10325000051F026821F0400142E805134BB10168E7
:1032600051E8051F026821F0400142E80513002BD8
:10327000DAD1202180F8421000210163016851E871
:10328000031F026821F0100142E80313DBB101685B
:1032900051E8031F026821F0100142E8031393B1C3
:1032A000016851E8031F026821F0100142E803138E
:1032B0004BB1016851E8031F026821F0100142E898
:1032C0000313002BDAD1C16B04460846FEF7D8F889
:1032D000204602214163818DC28D891A89B202B0D4
:1032E000BDE8B040FFF7C8BE436C43F00103436440
:1032F000530706D5BEF1000F03D0436C43F0020321
:103300004364930706D5BEF1000F03D0436C43F02E
:1033100004034364BCF1000F06D55EEA050303D045
:10332000436C43F008034364436C002B3FF4DEAE70
:10333000920605D525B1044600F0DEFC2168204642
:103340004969426C01F0400102F00802891800F05E
:10335000B98000BF016851E8031F026821F4907131
:1033600042E80313BBB3016851E8031F026821F46C
:10337000907142E8031373B3016851E8031F0268B8
:1033800021F4907142E803132BB3016851E8031F45
:10339000026821F4907142E80313002BDAD11AE09D
:1033A000016851E8051F026821F0010142E8051398
:1033B000DBB1016851E8051F026821F0010142E814
:1033C000051393B1016851E8051F026821F001015E
:1033D00042E805134BB1016851E8051F026821F06E
:1033E000010142E80513002BDAD1016B012924D138
:1033F000016851E8031F026821F0100142E803133D
:10340000DBB1016851E8031F026821F0100142E8B6
:10341000031393B1016851E8031F026821F0100102
:1034200042E803134BB1016851E8031F026821F021
:10343000100142E80313002BDAD1202180F842105A
:103440000021016301684969490640F1C3800168B0
:1034500051E8051F026821F0400142E80513DBB185
:10346000016851E8051F026821F0400142E8051398
:1034700093B1016851E8051F026821F0400142E85C
:1034800005134BB1016851E8051F026821F04001A6
:1034900042E80513002BDAD1C16B002900F09A80B5
:1034A00043F6ED42C0F60002044608464A63FEF7C2
:1034B0000BF800283FF41AAEE06B416B02B0BDE898
:1034C000B04008470446FFF7D9FD0020606402B011
:1034D000B0BD00BF891A00BF026852E8032F03681D
:1034E00022F4907243E80325BDB3026852E8032F2B
:1034F000036822F4907243E8032575B3026852E82A
:10350000032F036822F4907243E803252DB3026869
:1035100052E8032F036822F4907243E80325002D3C
:10352000DAD11AE0026852E8052F036822F001029E
:1035300043E80525DDB1026852E8052F036822F053
:10354000010243E8052595B1026852E8052F03689A
:1035500022F0010243E805254DB1026852E8052F2B
:10356000036822F0010243E80525002DDAD120226C
:1035700080F8422000220263026852E8032F0368A9
:1035800022F0100243E80325DDB1026852E8032F60
:10359000036822F0100243E8032595B1026852E85F
:1035A000032F036822F0100243E803254DB102689F
:1035B00052E8032F036822F0100243E80325002D90
:1035C000DAD1022289B2426302B0BDE8B040FFF70F
:1035D00053BD00BF02B0BDE8B040FFF74FBD00BF14
:1035E000026A32F8023B6FF35F234B60026295E59B
:1035F000002804BF0120704710B5044690F8410030
:1036000028B9002084F84000204600F063F8242008
:1036100084F841002068D4E90212C36823F40053FF
:10362000C360036923F440531A430261D4E90423BD
:103630001143C268194341F20C639A431143C160BC
:103640004169A26921F44071114343F60002C4F2BA
:1036500001029042416103D0FEF78AFA02E000BF06
:10366000FEF79AFAD4E90023192148439900B0FBE8
:10367000F1F048F21F5CC5F2EB1CA0FB0C314FF6D9
:103680009C734909C0F6FF7301FB0300322303EB6F
:103690000010A0FB0C03F02000EA531000EB011017
:1036A000C3F34311084490601069202120F4904036
:1036B0001061506920F02A005061D06840F4005039
:1036C000D0600020606484F8411084F84210606388
:1036D00010BD000070B586B040F60044C4F201048D
:1036E0000068A4F54441002688420596CDE90366AA
:1036F000029601D006B070BD41F21800C4F202007B
:10370000416802AD41F480214160416801F48021AB
:1037100001910199016841F00801016000682946A2
:1037200000F00800019001984FF4806002900220A0
:103730000390032005902046FDF76CFF4FF40060D6
:10374000CDE90206204629460496FDF763FF2720AF
:1037500000210022FEF7F2F82720FEF7DDF806B080
:1037600070BD000090F84230202B07D100294FF0A7
:10377000010318BF002A05D11846704702231846D6
:10378000704700BF00230363816222218285C285C6
:10379000436480F842100169006819B1C16841F4BE
:1037A0008071C160416941F001014161C16841F02E
:1037B0002001C1601846704744F22020C2F2000088
:1037C000007844F2182140F220324028C2F2000171
:1037D000C2F2000216D01278012A1AD0232805D18D
:1037E00043F20420C2F200000121017040F2D8200F
:1037F00044F22021C2F20000C2F200010122FFF7D0
:10380000B1BF00BF00230B80012313701278012A7F
:10381000E4D10A88531C0B8040F2A801C2F20001D7
:1038200088542328DCD0E1E72DE9F04381B0044639
:1038300090F84100202809D100294FF0010018BF5D
:10384000002A07D101B0BDE8F08300BF022001B01B
:10385000BDE8F0830020606421201D460E4684F8F8
:1038600041001746FDF7EAFFA784E784A168814677
:10387000B1F5805F02D1206900285DD03746002075
:10388000E28C2168002A5DD06A1C24D0002D4AD029
:10389000804600BF0868000608D4FDF7CFFFA0EB04
:1038A0000900A8427AD82168C868F3E717B117F869
:1038B000010B04E038F8020B00276FF35F2048602B
:1038C000E08C0138E084E08C0028E3D13AE000BFCE
:1038D0000A68120609D40A68120606D40A68120693
:1038E0005CBF0A685FEA0262F2D51FB117F8012BCC
:1038F00005E000BF30F8022B00276FF35F224A601B
:10390000E28C013AE284E28C002AE4D11AE000BFA2
:1039100030F8022B00276FF35F224A60E28C013AF5
:10392000E284E28C72B10A68120635D5002FEFD01E
:1039300017F8012BF1E700BF00273046E28C216821
:10394000002AA1D1086840061ED42DB3681C14D1EA
:10395000086840062AD40868400627D4086840064C
:1039600024D4086840064FF00000F1D50DE000BFF8
:103970002068C1680068400618D4FDF75FFFA0EB1F
:103980000900A842F4D909E00020202184F8411060
:1039900001B0BDE8F08300BFFDF750FF03202021F8
:1039A00084F8411001B0BDE8F08300BF0020202161
:1039B00084F8411001B0BDE8F083000070470000BA
:1039C000FEE7000000228842D8BF0122104670475F
:1039D000F0B581B040F60007C4F201070D46044679
:1039E00038460121FDF71EFF064638460221FDF745
:1039F00019FF002E08BF012808D0002808BF012E9B
:103A00000AD0304318BF002528460BE0A8B205EBCA
:103A1000D03000B2401005E0A8B205EBD03001B2C2
:103A200028464D1000B229B2C4E90001C4E90201E0
:103A300001B0F0BDFEE7000070B592B090E81A004A
:103A4000C0680DF10B0601F2DC5203F2DC5304F204
:103A5000DC5400F2DC5505A13046CDE90045FCF709
:103A6000F1FB304600F01EF912B070BD233030314A
:103A700050253034645430303030212330303250CF
:103A800025303464543030303021233030335025E9
:103A900030346454303030302123303034502530CD
:103AA000346454303030302100000000FEE7000064
:103AB000704700002DE9F04381B0089C98461546F8
:103AC0000E468146FDF7BAFE201A00EB0804FDF70A
:103AD000B5FE40F20801C2F200010968C1F3CB3122
:103AE00061430091D9F800108A683240921BB2FA03
:103AF00082F2520995423DD0074618F1010031D0BB
:103B0000FDF79CFEC01BA04238D200980099002807
:103B1000A1F101010091D9F80010896808BF04469D
:103B200001EA0600801BB0FA80F040098542E7D127
:103B300020E000BF88683040801BB0FA80F0400968
:103B4000854217D088683040801BB0FA80F0400969
:103B500085420FD088683040801BB0FA80F0400961
:103B6000854207D088683040801BB0FA80F0400959
:103B70008542DFD1002001B0BDE8F083D9E9000122
:103B80004268B1F5827F22F0E00242600BD1D9F8A1
:103B90000810B1F5004F02D0B1F5806F03D1016874
:103BA00021F040010160D9F82810B1F5005F07D17C
:103BB000016821F400510160016841F40051016085
:103BC000012089F85100002089F85000032001B03D
:103BD000BDE8F0837047000010B503884FF4FA6C1D
:103BE0004BF6D71E4FF48771B3F5877F28BF0B467E
:103BF00003FB0CF2C0F2F20EA2FB0E2340F20022F5
:103C0000C2F20002126803F5FA7393638288B2F578
:103C1000877F28BF0A4602FB0CF2A2FB0E2340F26C
:103C20004822C2F20002126803F5FA735363028954
:103C3000B2F5877F28BF0A4602FB0CF2A2FB0E23D7
:103C400040F29022C2F20002126803F5FA73536345
:103C50008389B3F5877F28BF0B4603FB0CF3A3FBD7
:103C60000E3404F5FA739363038AB3F5877F28BF94
:103C70000B4603FB0CF3A3FB0E3404F5FA73D3637A
:103C8000808AB0F5877F38BF014601FB0CF0A0FBAE
:103C90000E0101F5FA70106410BD0000FDF7D4BDEF
:103CA00070470000002808BF70470146002000BF91
:103CB00082B28A5C8AB140F0010293B2CB5C5BB104
:103CC00040F0020293B2CB5C33B140F0030293B2F6
:103CD000CB5C0430002BEBD1104682B240F2D820EE
:103CE000C2F200004FF0FF33FFF79EBD406A002193
:103CF000C185C184FFF7C2B981B090F84210222972
:103D000021D183680246B3F5805F09D152F8281F9C
:103D100052F8183C002B63D003685B680AE000BFD0
:103D200052F8281F13B90369002BF5D003685B68AC
:103D300003F07F030B70116801311160C18D0139EF
:103D40000A04C18502D001B0704700BF0168CA688B
:103D500022F02002CA60CA6822F48072CA604A69EE
:103D600022F001024A61202180F8421000214163C3
:103D7000026B012A3CD10163016851E8031F02680C
:103D800021F0100142E80313DBB1016851E8031F81
:103D9000026821F0100142E8031393B1016851E871
:103DA000031F026821F0100142E803134BB10168C0
:103DB00051E8031F026821F0100142E80313002BB1
:103DC000DAD101680A68D20606D5002200920A6894
:103DD0000092496800910099818D01B0FFF74CB9BC
:103DE000026852686FF35F2221F8022B8162A5E717
:103DF00001B0FFF7E1BC000040F2D820C2F20000A1
:103E0000FFF73EB9FEE70000F0B581B00C46032194
:103E10008DF80010010C40F600468DF80110010AE3
:103E2000C4F2010615468DF802108DF803003046E5
:103E30004FF480510022FDF7FBFC40F2A817C2F2BC
:103E400000076946384604224FF0FF33FEF74CFA6C
:103E5000AAB2384621464FF0FF33FEF745F9304607
:103E60004FF480510122FDF7E3FC01B0F0BD0000EA
:103E7000B0B582B020218DF80310010C40F600444B
:103E80008DF80410010AC4F201048DF805108DF8B4
:103E9000060020464FF480510022FDF7C9FC40F295
:103EA000A8150620C2F200058DF807000DF10701E4
:103EB000284601224FF0FF33FEF716FA20464FF452
:103EC00080510122FDF7B4FC20464FF480510022BE
:103ED000FDF7AEFC0DF10301284604224FF0FF333D
:103EE000FEF702FA20464FF480510122FDF7A0FCB4
:103EF0004FF47A7000F002F802B0B0BD2DE9F04F37
:103F000081B040F6004B0446C4F2010BFDF796FC6D
:103F100040F2A81706464FF0050AC2F200070DF15D
:103F200002080DF1030900BF58464FF480510022EA
:103F3000FDF77EFC3846414601224FF0FF338DF8F5
:103F400002A0FEF7D1F93846494601224FF0FF336F
:103F5000FEF7CAF89DF8035058464FF480510122ED
:103F6000FDF766FCFDF76AFC801BA04202D215F04B
:103F70000100D9D101B0BDE8F08F0000002A08BFD0
:103F80007047F0B581B014460D460646F0B2C0F554
:103F90008077A74228BF2746304629463A4600F098
:103FA00009F83D44E41B3E44F0D101B0BDE8F040C7
:103FB00070470000002A08BF70472DE9F04182B029
:103FC00040F60045B2F5807F28BF4FF48072C4F2FE
:103FD00001050C46074628464FF4805190460022C2
:103FE000FDF726FC40F2A8160620C2F200068DF866
:103FF00007000DF10701304601224FF0FF33FEF7B5
:1040000073F928464FF480510122FDF711FC02207C
:104010008DF80300380C8DF80400380A8DF805007F
:1040200028464FF4805100228DF80670FDF700FC01
:104030000DF10301304604224FF0FF33FEF754F92F
:104040003046214642464FF0FF33FEF74DF92846F1
:104050004FF480510122FDF7EBFB6420FFF74EFF88
:1040600002B0BDE8F041704792B0FDF7FBFB0024C1
:104070000120CDE90B44CDE9094406900A904FF4A4
:10408000E0104FF4803102250F9006A8CDE9071407
:10409000CDE90D51FDF794FD20B1EFF3108072B61C
:1040A000FEE700BF0F20CDE901054FF48060CDE9A8
:1040B000040401A802210394FDF77CFC20B1EFF376
:1040C000108072B6FEE700BF002741F21800CDE96C
:1040D0000877CDE90677C4F20200016840F60008CF
:1040E00041F0200101600168C4F2010801F02001E3
:1040F000019101990168002241F004010160016809
:10410000042401F0040101910199016841F00801C2
:1041100001600068042100F0080001900198404609
:10412000FDF786FB08F5806528464FF48051002294
:104130004FF48059FDF77CFB032006AECDE906075E
:10414000404631460897FDF765FA069401244FF082
:10415000020A40463146CDE90747CDF824A0FDF7D5
:1041600059FA40F2000BC1F2210B0BF58010CDE99A
:104170000707284631460694FDF74CFA2846314693
:10418000CDE90694CDE9087AFDF744FA4FF4807042
:10419000CDE9060B404631460897FDF73BFA06206D
:1041A00005210022FDF7CAFB0620FDF7B5FB17200D
:1041B00000210022FDF7C2FB1720FDF7ADFB40F206
:1041C000D820A8F54041C2F200000C234FF4E132A0
:1041D00080E88600C0E90377C0E90537C761FFF7CB
:1041E00007FA28B1EFF3108072B600BFFEE700BFF8
:1041F00040F20020C2F200004FF0804144F61F63FD
:104200000497CDE90277CDE91077CDE90B77CDE9B9
:104210000977472280E88600C0E903378761FEF707
:1042200021FB28B1EFF3108072B600BFFEE700BF9C
:104230004FF48050019040F20020C2F2000001A92A
:10424000FEF7CEFB20B1EFF3108072B6FEE700BFA1
:1042500040F20020C2F20000FEF720FE20B1EFF392
:10426000108072B6FEE700BF40F20020C2F20000EC
:1042700010A9FEF7B7FA28B1EFF3108072B600BFAD
:10428000FEE700BF6020069040F200200025C2F249
:10429000000006A90422CDE907550A95FEF7FCFCAB
:1042A00020B1EFF3108072B6FEE700BF40F20020AD
:1042B000C2F20000FEF764FC40F24820A8F582310B
:1042C000C2F2000044F61F630495CDE90255CDE922
:1042D0001055CDE90B55CDE90955472280E8260058
:1042E000C0E903358561FEF7BDFA28B1EFF3108010
:1042F00072B600BFFEE700BF4FF48050019040F25D
:104300004820C2F2000001A9FEF76AFB20B1EFF3DA
:10431000108072B6FEE700BF40F24820C2F20000F3
:10432000FEF7BCFD20B1EFF3108072B6FEE700BFD0
:1043300040F24820C2F2000010A9FEF753FA18B16B
:10434000EFF3108072B6FEE76020069040F248203E
:104350000025C2F2000006A90022CDE907550A9502
:10436000FEF79AFC20B1EFF3108072B6FEE700BFB3
:1043700040F24820C2F20000FEF702FC40F290201A
:10438000A8F58031C2F2000044F61F630495CDE920
:104390000255CDE91055CDE90B55CDE90955472218
:1043A00080E82600C0E903358561FEF75BFA18B1A5
:1043B000EFF3108072B6FEE74FF48050019040F2A8
:1043C0009020C2F2000001A9FEF70AFB20B1EFF332
:1043D000108072B6FEE700BF40F29020C2F20000EB
:1043E000FEF75CFD20B1EFF3108072B6FEE700BF70
:1043F00040F29020C2F2000010A9FEF7F3F918B1C4
:10440000EFF3108072B6FEE7602006900020CDE941
:1044100007000A9040F29020C2F2000006A9002294
:10442000FEF73AFC20B1EFF3108072B6FEE700BF52
:1044300040F29020C2F2000006A90422FEF72CFCF4
:1044400020B1EFF3108072B6FEE700BF40F290207B
:10445000C2F2000006A90822FEF71EFC20B1EFF30D
:10446000108072B6FEE700BF40F29020C2F200005A
:1044700006A90C22FEF710FC20B1EFF3108072B6F3
:10448000FEE700BF40F29020C2F20000FEF778FB8A
:1044900040F2A810A8F55041C2F200004FF4827219
:1044A00000254FF4007380E826000A21C0E9035577
:1044B000C0E90553C561C0E90855C0E90A51FDF7D7
:1044C0007FFD18B1EFF3108072B6FEE700F00CFF2D
:1044D00000F0C0FE43F2042640F2A80440F2203768
:1044E000C2F20006C2F20004C2F2000730780128CE
:1044F000FCD1204600F020FE0138032835703D70C5
:10450000F4D8DFE800F0070B0F0300BF00F0F2F96A
:10451000ECE700BF00F00AF8E8E700BF00F068F839
:10452000E4E700BF00F032F9E0E700002DE9F04FCA
:1045300095B000252CA0ADF80450FFF7B3FB0DF1AA
:10454000040943F2042640F2203809F1040A09F173
:10455000100BC2F20006C2F2000811AF0BAC0DE066
:104560003846514600F0AEFA2046594600F0F4FDB8
:104570003846FFF761FA2046FFF72EFB3078012816
:1045800009D140F2A8014846C2F2000100F052FBF6
:10459000357088F800509DF8040001280CD09DF873
:1045A00005000128DCD00028E8D1384600F03CFBAB
:1045B000204600F083FEDBE746F21A10C0F600004A
:1045C000FFF770FB11AC204600F02EFB0BAD284628
:1045D00000F074FE2046FFF72FFA2846FFF7FCFA9A
:1045E00015B0BDE8F08F00BF4041434B4D31230073
:1045F0002DE9F04FB1B000265DA0ADF88C60FFF75B
:1046000051FB23AC04F128000190201D039004F11C
:10461000100043F2042740F2A80540F2203A02902D
:10462000C2F20007C2F20005C2F2000A0DF17C0BD3
:104630000DF16408002004903878012806D1204646
:10464000294600F0CDFB3E708AF800609DF88C0092
:1046500001286FD09DF88D0001281BD00028EBD1D8
:10466000FCF732FC012836D1584600F0DDFA40460E
:1046700000F024FE5846FFF7DFF94046FFF7ACFA9A
:10468000FCF70EFE3EA0FFF70DFB9DF88D00012804
:10469000D2D124E0FCF718FCE8B90DF154090199D6
:1046A00048461022FCF75CF88DF86360FBF7F4FFD6
:1046B000C1B24846FCF7B4FD90B3D8460DF1140BD7
:1046C00058462DA14A46FBF7BDFD5846C3460DF19D
:1046D0006408FFF7E7FA9DF88D000128ACD1FCF7DC
:1046E000F3FB0128A8D10399584600F0EBF9029991
:1046F000404600F031FD5846FFF79EF94046FFF76F
:104700006BFAFDF79BF881460498A9EB000032286C
:1047100092D34046FCF74EFDCDF810908CE700BFD9
:10472000FDF78CF804909DF88D0001287FF484AF8C
:10473000D5E700BF46F21A10C0F60000FFF7B2FA44
:104740001FAC204600F070FA19AD284600F0B6FD07
:104750002046FFF771F92846FFF73EFAFCF7B4FB55
:10476000012808BFFCF79CFD31B0BDE8F08F00BF09
:104770004041434B4D3223004661696C2025730054
:104780004041434B4D325354230000002DE9F04F7C
:104790009FB04EA0FFF786FA1DAC43F2042840F20A
:1047A000A80A0026651C04F1020B201DC2F20008B5
:1047B000C2F2000A4FF0010902AF8DF87A608DF85D
:1047C0007460019008E000BF8DF87A90FCF782FBDE
:1047D000284606708DF87A6030BF98F800000128EE
:1047E0000DD120465146CDF877601D9600F0E6FBCE
:1047F00040F22030C2F2000088F8006006709DF898
:10480000740001284AD09DF875109DF87A0001299E
:1048100008BF0028D8D09DF87610012908BF0028CD
:1048200014D09DF87810012908BF0028D4D19DF834
:10483000790012A9FCF706FB9DF8792010B3104609
:10484000FCF7AAFA9DF8792022A11FE09DF87700D5
:1048500012A98DF87A90FCF7F5FA28B1129813A9ED
:10486000FCF754FC1FA103E046F20611C0F600015C
:104870009DF877203846FBF7E5FC3846FFF712FA3B
:104880005846A6E746F20611C0F600013846FBF787
:10489000D9FC3846FFF706FA01989AE746F21A1053
:1048A000C0F60000FFF7FEF919AC204600F0BCF995
:1048B00013AD284600F002FD2046FFF7BDF828465C
:1048C000FFF78AF91FB0BDE8F08F00BF4041434BAE
:1048D0004D3323004041434B4D3344253033642353
:1048E000000000004041434B4D33422530336423E8
:1048F000000000002DE9F04F9DB05FA0FFF7D2F956
:1049000043F2042640F220380027C2F200061BAD15
:10491000C2F200084FF0010A01AC0DF15C09ADF8DC
:104920006C708DF86E708DF8707005E08DF86EA06B
:10493000FCF75EFBADF86D703078012809D140F2CC
:10494000A8012846C2F2000100F096FB377088F8F3
:1049500000709DF86C00012876D09DF86D109DF8D0
:104960006E00012908BF0028E0D00128E4D19DF89D
:104970006F20BDF87230204641A1FBF763FC204652
:10498000FFF790F9FCF7E6FC411C1FD0BDF972104F
:1049900000B2FFF717F801068DF87000484639D0CD
:1049A00000F042F94846FFF747F80DF1440B58462E
:1049B000FFF712F99DF86F006946FCF743FA88B3D8
:1049C00000985946FCF7A2FB31A12FE033480FF2C3
:1049D000CC0909F1040301900FCB09F1180C0DF17A
:1049E000080BA246D9F81440AE469CE8A0108BE80C
:1049F0001F00B9F8240054460795754608974FF0F4
:104A0000010A0DF15C090027CDF824C0ADF828009B
:104A100011E000BF4FF49671FEF7DAFF4846FFF74A
:104A20000BF889E746F20611C0F600019DF86F20E9
:104A30002046FBF707FC2046FFF734F98DF86E702F
:104A40008DF8707078E700BF46F21A10C0F60000CB
:104A5000FFF728F917AC204600F0E6F811AD28461C
:104A600000F02CFC2046FEF7E7FF2846FFF7B4F8DD
:104A70001DB0BDE8F08F00BF4041434B4D342300D3
:104A8000404D3441434C253033642530326423009B
:104A900053746172742025640000000044697374CB
:104AA000616E6365206D6561737572656D656E74A9
:104AB000206661696C6564205265747279696E67FD
:104AC0000A0000002DE9F04F81B0D1E900C8D1F80B
:104AD00008A008EB0C07A7EB0A024FF47A764DF218
:104AE000496402FB06F5CFF2B92485FB0451A8EB1B
:104AF0000C05554405FB06F383FB04390CEB0A0354
:104B0000A8EB0303009103FB06F181FB041B07EBF9
:104B10000A0101FB06F787FB044E009C03FB06B36A
:104B200002FB06420446101200EBD27205FB06900F
:104B300001FB06E1051205EBD0701D1205EBD377E2
:104B40000B1203EBD175002A22606060A760E5605C
:104B500048BF5242002848BF4042824288BF1046A8
:104B6000002F48BF7F42B84288BF07460CFB0CF0BD
:104B700008FB0800002D0AFB0A0048BF6D42AF4247
:104B800088BF3D4600F0B4FD00F0E7FB48F20003AB
:104B9000C4F25603002200F04FFC00F01BFC4FF063
:104BA0007E51064600F062FF0021002818BF4FF03A
:104BB0007E56C4F27A41304601F026F90646284670
:104BC00001F0A6F80146304600F078FF054694E86B
:104BD000C10101F085F80146284601F015F901F000
:104BE00063F82060304601F07BF80146284601F06A
:104BF0000BF901F059F86060384601F071F8014690
:104C0000284601F001F901F04FF8A060404601F09C
:104C100067F80146284601F0F7F801F045F8E06032
:104C200001B0BDE8F08F00000021C0E90011C0E92B
:104C3000021170474A78532A05D18A78542A02BF54
:104C4000012101707047CA782C2A1BD0532A0DD03D
:104C5000412A40F0B7800979432940F0B38001220E
:104C60005CA1034608465A70FFF71CB8097954291D
:104C700018BF7047002254A1034608465A70FFF738
:104C800011B800BF2DE9F0414B798A794FF06408E3
:104C900091F807E003FB08F302EB820203EB420208
:104CA00091F804C0724441F2D043D41ABCF12D0FE4
:104CB00008BF9C1A44608A7ACE7A0F7B02FB08F206
:104CC00006EB860602EB46024D7A1744FA1A2D2DA2
:104CD00008BFDA1B04F114075342282F836005D85C
:104CE0001432282A9CBF0022C0E901224A7F303AB0
:104CF000D2B2022A06D846F2D003C0F6000353F817
:104D00002220C2600A7D4E7D64238D7D5A4306EBCE
:104D1000860602EB4602CF7C561941F2D042B51A04
:104D20002D2F08BF951B056191F8226091F8235043
:104D300091F824405E4305EB850506EB450691F8A6
:104D400021702644B51A2D2F08BF951B456191F897
:104D5000276091F8285091F829405E4305EB8505BE
:104D600006EB450691F826702644B51A2D2F08BF8C
:104D7000951B856191F82C6091F82D5091F82E408B
:104D80005E4305EB850506EB450691F82B7026443E
:104D9000B51A2D2F08BF951BC5614E7E8D7ECC7E2A
:104DA000734305EB850603EB46030F7E23449E1AEF
:104DB0002D2F08BFD61A0662497F303980F824109B
:104DC000BDE8F041704700BF4041434B4D31535463
:104DD000230000004041434B4D314143230000007C
:104DE00070B586B04A78532A06D18A78542A03D1FE
:104DF0000121017006B070BDCA782C2A2CD0532A2C
:104E00001CD0412A40F0C7800A79432A40F0C38071
:104E1000012242708A7902AD80F82820CB7980F88F
:104E200029300C7A60A180F82A4028460094FBF7CC
:104E300009FA2846FEF736FF06B070BD09795429F5
:104E400040F0A980002255A1034608465A7006B0DA
:104E5000BDE87040FEF726BF4B798D794FF0640CAA
:104E6000CC7903FB0CF305EB850503EB45030A79CD
:104E7000234441F2D0455C1B2D2A08BFEC1A446044
:104E80008A7ACB7A0E7B02FB0CF203EB830391F858
:104E900009E002EB430293195A1BBEF12D0F04F1F6
:104EA000140608BFEA1A5342282E836005D814322C
:104EB000282A9CBF0022C0E901224A7F303AD2B2A0
:104EC000022A06D846F2D003C0F6000353F8222087
:104ED000C2600A7D4D7D8C7D02FB0CF205EB8505E1
:104EE00002EB4502CE7C151941F2D042AC1A2D2EB0
:104EF00008BF541B046191F8225091F8234091F8A7
:104F0000243005FB0CF504EB840405EB440591F813
:104F100021602B449D1A2D2E08BFD51A456191F8AA
:104F2000276091F8285091F8294006FB0CF605EB14
:104F3000850506EB450691F826302644B51A2D2B3B
:104F400008BF951B856191F82C6091F82D5091F860
:104F50002E4006FB0CF605EB850506EB450691F8A1
:104F60002B302644B51A2D2B08BF951BC5614E7EEC
:104F70008D7ECC7E06FB0CF605EB850506EB450623
:104F80000B7E2644B51A2D2B08BF951B0562497F61
:104F9000303980F8241006B070BD00BF4041434B4B
:104FA0004D325354230000004041434B4D324143A6
:104FB000222563256325632223000000B0B586B057
:104FC0004A78532A06D18A78542A03D101210170E4
:104FD00006B0B0BDCA78422A22D0442A08D0522A4C
:104FE00039D10979452936D10121417006B0B0BDCA
:104FF000012202710A794B79642589796A4303EBAE
:10500000830302EB4302114441F2D042891A02ACFD
:105010004171CAB211A12046FBF714F9204618E0ED
:10502000012282700A794B79642491F806C06243A8
:1050300003EB830302EB430262443032C2700A790D
:105040004B798C7902AD08A128460094FBF7FAF859
:105050002846FEF727FE06B0B0BD00BF4041434BD7
:105060004D334425642300004041434B4D334225DA
:1050700063256325632300004A78532A06D18A7882
:10508000542A03D101210170704700BFCA78412A18
:1050900016D0532A08D0522A05D10979452902BFD2
:1050A00001214170704770470979542918BF704732
:1050B00019A10022034608469A70FEF7F3BD00BF0F
:1050C0000A79432AEFD14A794C2AECD110B584B041
:1050D000012282708A79CB79642491F808C06243F6
:1050E00003EB830302EB430262443032C2708B7ADB
:1050F000C97A03EB830301EB4301A1F504716C460C
:10510000C180D2B28BB207A12046FBF79BF82046A4
:10511000FEF7C8FD04B010BD4041434B4D3453541D
:10512000230000004041434B4D3441434C25642251
:10513000256422230000000041784D294FF0000132
:1051400007D18078A0F13102D2B2042A38BFA0F191
:105150003001C8B2704700002DE9F0410446052037
:105160000D46FCF70DFA286840F20C081E28C2F222
:10517000000805D8D8F800004FF0404108E000BF13
:105180003D38D8F800601D2807D830464FF08041E0
:1051900000F0FCFB0646C8F800000027C4F2873781
:1051A0003046394600F062FC28B93046002100271D
:1051B00000F063FC10B93E46C8F80070304600F0BD
:1051C00073FD20600520FCF7DBF9286940F2100828
:1051D0001E28C2F2000805D8D8F800004FF0804120
:1051E00008E000BF3D38D8F800601D2807D83046D9
:1051F0004FF0404100F0CAFB0646C8F80000002707
:10520000C4F261373046394600F030FC38B9002727
:10521000C4F234273046394600F02FFC10B93E4620
:10522000C8F80070304600F03FFD297D206101295B
:1052300002D019B9442000E08C2060612A1D07CA01
:10524000231D2D30C1F1E101C2F1E10207C3BDE828
:10525000F081000070B540F20024C2F20004204644
:105260000421FDF79BFE40F24825C2F200052846C6
:105270000021FDF793FE40F29026C2F20006304670
:105280000021FDF78BFE30460421FDF787FE3046F6
:105290000821FDF783FE30460C21FDF77FFE2068D4
:1052A00040F2DC5181632868416330684163816367
:1052B000C16340F2CC71016470BD00008721CA2235
:1052C000C0E90011C0E90211C0E9041240F20C006B
:1052D0000021C2F20000C4F20731016040F2100068
:1052E000C2F200000160704780B540F2A800C2F22F
:1052F000000008A13522FBF7EEF940F2D82044F275
:105300002021C2F20000C2F200010122BDE880406B
:10531000FEF728BA402C2B3030302C2B3030302C7C
:105320002B3030302C3034352C3034352C302C3080
:105330002C3038382C2B3030302C2B3030302C2B7C
:105340003030302C63732C230000000030380A28E2
:1053500001D201207047002070472DE9F041064638
:105360000F4600F02DFA041E0D4618BF01202843F9
:1053700020F00040C0F17F6000F1E040C00F0ED08F
:10538000301C18BF0120384320F00040C0F17F607E
:1053900000F1E040C00F04BF0120FBF714FA2046E3
:1053A0002946BDE8F081000010B500290AD0087830
:1053B000002807D005487844FBF792FB002801D06D
:1053C000002010BD0248784410BD0000A20D00006E
:1053D0009A0D000021F0004201F00043A2F160525A
:1053E000B2F5801F28BFD2F17F6C0BD95FEA001C99
:1053F00043EAC20242EB507018BF704728BF20F04A
:1054000001007047B2F5801FBCBF184670474FEAD5
:10541000410C1CF5001F02D2084600F0BCBD70B55F
:1054200000F079F900000089FFF7F6BF4FF0004067
:10543000A0F58000704700002DE9C04130B4DFF8CE
:10544000A8C23CEA111418BF3CEA131400F0F08023
:105450001CEA111481EA030544EAD57418BF1CEA5A
:10546000131500F0CB80A4EB050404F17F7404F560
:1054700000344FF0004545EAC12145EAC32341EA23
:10548000505143EA52534FEAC0204FEAC222994298
:1054900008BF904200F0A0804FEA13650FF2481653
:1054A000765D4FEA134506FB05F7C7F1807706FBEB
:1054B00007F74FEAD737A7FB03687642A7FB06CE6C
:1054C000C8F5803838BFA8F1010807FB08E6A6FB3D
:1054D000028C4FF0000EE6FB03CED8F100086FEA15
:1054E0000C0C5CF1000C6FEA0E0E4EF1004EA6FBA8
:1054F0000C584FF00007E6FB0E87A1FB08C6A0FB87
:1055000007CE16EB0E064FF0000545F10005E1FB56
:10551000076515F1E04E7EBFA4F580345FEA4606CC
:105520006D4116F1800745F100054FEA172747EA5C
:1055300005674FEA15254FEA0666A6F1DE46B6F185
:10554000805F20D9384605EBC47124F0010C01EBD3
:105550000C11BCF1FE6F02D8F0BCBDE80081244202
:105560005CBF01F5801E9EEAC47F02D4F0BCBDE89A
:105570000081244200F13980A1F1C041F0BCBDE8B6
:10558000004100F016B94FEAD02040EA41504FEAFE
:10559000D1214FEAD22242EA43524FEAD323A7FB5A
:1055A000028607FB036605FB02661EEA0E0F58BF64
:1055B000A6EB0056B6EB00564FEA520E4EEAC37EFB
:1055C00018EB0E0E56EB530EBCD518EB02085E41DD
:1055D0007F1C55F10005B5E74FF480154FF000072B
:1055E0004FF000064FF00008ACE701F1C04101F0B8
:1055F00000414FF00000F0BCBDE800810CEA13153B
:1056000011EA0C1F00D00CE013EA0C1F00F02580FB
:105610004FF0000081EA030101F00041F0BCBDE859
:105620000081F0BCBDE8004181EA030100F0C1B88F
:10563000F0BCBDE8004170B500F06DF8097EFC3E9D
:1056400000F007B84FF0000081EA030101F00041CB
:10565000704781EA030100F0ACB8F0BCBDE800413E
:1056600022494FF000007047FFFDFBF9F7F5F4F217
:10567000F0EEEDEBE9E8E6E4E3E1E0DEDDDBDAD8ED
:10568000D7D5D4D3D1D0CFCDCCCBCAC8C7C6C5C44B
:10569000C2C1C0BFBEBDBCBBBAB9B8B7B6B5B4B362
:1056A000B2B1B0AFAEADACABAAA9A8A8A7A6A5A44D
:1056B000A3A3A2A1A09F9F9E9D9C9C9B9A99999811
:1056C0009797969595949393929191908F8F8E8EB4
:1056D0008D8C8C8B8B8A8989888887878685858441
:1056E00084838382828181800000FF070000F87F2D
:1056F000B0FA80F310FA03F10AD0C3F11D0303F5E9
:1057000080634FEA03524FEA415002EBD1217047C8
:105710004FF0000070470EF1020E2EF0030E5EF8FF
:10572000046B364205D4012A43EB030515F5001F2F
:1057300012D8012841EB010C1CF5001F0CD80ED12A
:105740004FEAD17C0CEB4C0C0CF1020C15F5001F50
:1057500008BF4CEBD37C04E04FF0080C01E04FEAAB
:10576000D37C0CEB4C0526FA05F606F00706B6F1DD
:10577000040C06D20EEB860CBDE870404CF0010C18
:105780006047DFE80CF0090B02024FF00041A1F581
:1057900000214FF0000070BD19461046012851EB62
:1057A000010418BFD4F5001484BF002001F00041AB
:1057B00070BD0808A0F500114FEA310170470000E4
:1057C0002DE9F04101F5801CBCF5001FC0F2C3803B
:1057D0004FEA115C21EA0C5141F480110CF1FD0CEF
:1057E0005FEA5C0C0CF5C07C01D3400049418902A2
:1057F00041EA905187023BA48E0EA45D0A0C04FB83
:1058000004F602FB06F6C6F14046A4FB0662F60D5E
:1058100046EA422606FB06F4A4FB01235242C3F1EA
:10582000404338BF5B1EA6FB02420024E6FB032474
:10583000D20B42EA4446A6FB0623A1FB02E2A3FBED
:1058400007E4A4184FF0000252F10002E3FB01420A
:105850006442C2F1404E38BFAEF1010EA6FB0423F4
:105860004FF00002E6FB0E32A2FB0346B6194FF0E2
:10587000000454F10004E2FB0264A1FB06E6A4FB71
:1058800007E816EB08064FF0000858F10008E4FBA3
:1058900001687642C8F1405838BFA8F10108A2FB60
:1058A00006E4A3FB08E52D194FF0000454F10004B1
:1058B000E2FB0854A1FB05E6A7FB04E818EB060889
:1058C0004FF0000656F10006E1FB048618F12005B2
:1058D00056F10006A80940EA8660B109A8F11B0844
:1058E00008F03F08B8F10A0F1CD901EB0C51BDE8D4
:1058F000F08100BFFCF5EEE8E2DDD8D3CFCBC7C323
:10590000C0BDB9B6B4B1AEACA9A7A5A3A19F9D9BDC
:105910009A9896959392908F8D8C8B89888786859F
:1059200084838281A0FB006800FB01F208EB42083F
:10593000B8EB872807D5341858EB0104D5D5401C9F
:1059400051F10001D1E7341A78EB0104CDD4401EA7
:1059500071F10001C9E75FEA4C0C5FEA9C5C0DD174
:1059600005D301F000414FF00000BDE8F081BDE833
:10597000F04170B5FFF7CFFE6DDBFFBEBDE8F04133
:1059800001494FF0000070470000F87F90EA010FD6
:1059900048BF81F0004100F10A83421A3CBF801ADF
:1059A00089184FEAD052A2EBD1534FF07F4C1CEA3A
:1059B000410F18BF9CEA026F00F03B804FF0004C93
:1059C0004CEA00204CEA012121FA03FC10EB0C0CFC
:1059D0001ED202F1FF325FEA1C2040EBC25038BFFA
:1059E00070471CF07F0F4FEA400C18BFBCF17F4F8F
:1059F00038BF7047C3F12003994008BF20F0010071
:105A0000BCF17F4F38BF7047A0F1C04000F0C3BA6F
:105A10004FEA3C00000A40EBC25028BF1CF0FF0FC9
:105A20004FEA400CE6D018BFBCF17F4F38BF70473B
:105A3000EAE79CEA026F05D010EA5C0F08BF00F0AD
:105A40000040704710B500F060FA00BF64FBBE3E36
:105A500010B500F0F5F80CBF0120002010BD10B506
:105A600000F0EEF814BF0120002010BD10B500F0CA
:105A700063F98CBF0120002010BD10B500F05CF967
:105A80002CBF0120002010BD10B500F089F994BF93
:105A90000120002010BD10B500F082F934BF0120B4
:105AA000002010BD401058BFC0F14040491058BF01
:105AB000C1F140418142EFF3008070474FF47F0C09
:105AC0001CEAD0121EBF1CEAD11392EA0C0F93EA13
:105AD0000C0F00F0858090EA010F48BF42F48072FD
