:020000040800F2
:1000000010090020910100081920000811200008A3
:10001000152000086D060008A52200080000000059
:100020000000000000000000000000002120000887
:1000300071060008000000001D200008892100084A
:10004000AB010008AB010008AB010008AB010008E0
:10005000AB010008AB010008AB010008AB010008D0
:10006000AB010008AB010008AB010008AB010008C0
:10007000AB010008AB010008AB010008AB010008B0
:10008000AB010008AB010008AB010008AB010008A0
:10009000AB010008AB010008AB01000875060008C1
:1000A000AB010008AB010008AB010008AB01000880
:1000B000AB010008AB010008AB010008AB01000870
:1000C000AB010008AB010008AB010008AB01000860
:1000D000AB010008AB010008AB0100089922000841
:1000E000AB010008AB010008AB01000800F002F80A
:1000F00000F03FF80AA090E8000C82448344AAF183
:100100000107DA4501D100F034F8AFF2090EBAE880
:100110000F0013F0010F18BFFB1A43F0010318473B
:10012000A0370000C0370000103A24BF78C878C15B
:10013000FAD8520724BF30C830C144BF04680C60ED
:10014000704700000023002400250026103A28BF35
:1001500078C1FBD8520728BF30C148BF0B60704739
:10016000642900F07180002070471FB51FBD10B5D5
:1001700010BD00F045FA1146FFF7F7FF02F094F8C2
:1001800000F063FA03B4FFF7F2FF03BC00F066FA75
:100190000948804709480047FEE7FEE7FEE7FEE71B
:1001A000FEE7FEE7FEE7FEE7FEE7FEE70448054957
:1001B000054A064B704700008D210008ED0000083D
:1001C0001003002010090020100500201005002059
:1001D0000FB41CB5074B06AA7B44694600900598EE
:1001E00000F0BBF90020694600F0CAF91CBC5DF8BC
:1001F00014FB0000A503000070B504468569006883
:10020000C10601D5302600E02026C00707D070BD0A
:10021000D4E9012130469047206A401C20626D1EBF
:10022000F6D570BD70B5044685690078C00707D162
:1002300070BDD4E9012120209047206A401C206233
:100240006D1EF6D570BD00002DE9F0410646002474
:1002500010687529314616A510D0AFF3008000282C
:1002600002DA404213A507E031688A0701D512A5DA
:1002700002E0490704D511A5012401E0AFF3008095
:1002800000210A2206F1240709E0B0FBF2FCB0FBD2
:10029000F2F302FB1C00303078541846491C002849
:1002A000F3D123462A463046BDE8F04100F0F7B8C6
:1002B000000000002D0000002B00000020000000C6
:1002C0002DE9F05F894604464FF0000ADFF824B1BB
:1002D000FB44C0F820A02046E168884700287DD074
:1002E000252806D0D4E901219047206A401C2062CD
:1002F000F1E700255F462046E1688847202806464A
:1003000007DB312E05D2B81910F8200C08B10543CF
:10031000F1E7A80701D525F00405C4F81CA00027C3
:10032000C4F818A02A2E09D0304602F037FC38B3A2
:1003300004EB8708303EC8F8186019E059F8041B30
:10034000204604EB87029161E1688847012F064649
:1003500018D1E069002820DA25F020051DE0D8F842
:10036000180000EB800006EB40003038C8F8180099
:100370002046E1688847064602F010FC0028EED1CE
:10038000012F0AD02E2E08D12046E16888477F1C15
:100390000646022F45F02005C4DBA069002803DAD9
:1003A000404245F00105A061E80701D025F01005A5
:1003B000A6B1A6F14100192802D8203645F40065FF
:1003C0004A463146204625604D46FFF7C9FE60B1DA
:1003D000012807D0ED1D25F0070000E007E000F13F
:1003E000080978E705F1040975E730467AE7206ADD
:1003F000BDE8F09FB2350000032A40F2308010F0D3
:10040000030C00F0158011F8013BBCF1020F6244AF
:1004100098BF11F801CB00F8013B38BF11F8013B40
:10042000A2F1040298BF00F801CB38BF00F8013BED
:1004300011F0030300F0A980083AC0F0088051F8D9
:10044000043B083A51F804CBA0E80810F5E7121D68
:100450005CBF51F8043B40F8043BAFF30080D20787
:1004600024BF11F8013B11F801CB48BF11F8012B53
:1004700024BF00F8013B00F801CB48BF00F8012B76
:10048000704770477047704710B500F0B1F80068CA
:1004900010BD10B5044600F0ABF8046010BD2DE9A6
:1004A000F0470D4699469246044600F1240801683B
:1004B000880604D5E06921F01001216000E00120E8
:1004C000A84201DD471B00E00027A1697A1902EB71
:1004D0000900081AA0612078C00602D42046FFF760
:1004E0008BFE002608E0D4E901211AF806009047A7
:1004F000206A401C761C20624E45F4DB2078C00642
:100500000AD52046FFF778FE06E0D4E90121302025
:100510009047206A401C2062381EA7F10107F4DCD6
:1005200007E0D4E9012118F805009047206A401C33
:100530002062281EA5F10105F3DC2046FFF772FEBC
:100540002078000602D50220BDE8F0870120FBE7F5
:1005500001694A1C02610878704700B58FB0CDE987
:1005600001310021059105497944CDE90310114677
:100570006846FFF7A5FE0FB000BD0000E5FFFFFFD6
:100580000A6802F8010B0A60704710B5203AC0F003
:100590000B80B1E81850A0E81850B1E81850A0E856
:1005A0001850203ABFF4F5AF5FEA027C24BFB1E8EF
:1005B0001850A0E8185044BF18C918C0BDE8104032
:1005C0005FEA827C24BF51F8043B40F8043B08BF3B
:1005D0007047D20728BF31F8023B48BF11F8012B02
:1005E00028BF20F8023B48BF00F8012B70470000ED
:1005F000004870472000002000487047200000207D
:100600007546FFF7F9FFAE4605006946534620F0F0
:100610000700854618B020B5FFF7C8FDBDE82040AB
:100620004FF000064FF000074FF000084FF0000BAE
:10063000AC46ACE8C009ACE8C009ACE8C009ACE81D
:10064000C00921F007018D46704710B50446AFF38D
:1006500000802046BDE81040FFF794BD01491820F6
:10066000ABBEFEE72600020070470000FEE7000078
:10067000704700004FF4807000F0A4B890F821108B
:10068000022912D1016801230A6822F00E020A60D1
:100690000A6822F001020A60D0E90F1203FA02F29E
:1006A0004A60002180F8213002E0042181630121A9
:1006B000002280F8202008467047000090F82110A2
:1006C000022923D102682F2340F2040CC4F2020352
:1006D000C4F2020C11689A4221F00E0111601168F7
:1006E00021F00101116016DD3023C4F202039A42A9
:1006F0001DD04423C4F202039A421BD05823C4F2F3
:1007000002039A421BD14FF4803320E0042181631D
:100710000121084670470823C4F202039A420CD014
:100720001C23C4F202039A4209D110230FE04FF4B4
:1007300080730CE04FF4805309E0012307E00CF1D3
:1007400068014FF080738A4208BF4FF48013012183
:10075000CCF8003080F82110002180F82010426B86
:1007600022B180B590470021BDE88040084670471F
:1007700070B505466E1C00F043F9044636B140F2F0
:100780000000C2F200000078054401E04FF0FF35A0
:1007900000F036F9001BA842FAD370BDB0F5807F97
:1007A00018BF704780B502F093F940F2BC200021D9
:1007B000C2F20000C0E90011C0E90211BDE88040AA
:1007C00001F030BC40F21441C4F201010A68024257
:1007D0001CBF0860FFF7E2BF704700002DE9F04F33
:1007E00083B0D1F800E0BEF1000F00F0058141F2C6
:1007F000004204234FF6FF7A40F2004801244FF0F4
:1008000000094FF0000BC4F20102C1F2100AC4F259
:100810000108904200F1140208BF032301920093E3
:10082000002300BF04FA09FC1EEA0C0F00F0DB8075
:100830004F68574512DC122F55D80F24DFE807F018
:10084000350A4448545454545454545454545454ED
:10085000544B4F00D1F80CB046E000BF4FF6FF728A
:10086000C1F22102974210DC00220F24C1F21102D2
:1008700097421EBF0022C1F21202974215D00022F9
:10088000C1F22102974210D02EE000220F24C1F2C3
:10089000220297421EBF0022C1F23102974204D0C9
:1008A0000022C1F2320297421ED18A684AB1012A5F
:1008B000019A4FF0080B08BF00F11002C2F800C007
:1008C00012E04FF0040B0FE0CA6802F1080B0BE0D6
:1008D0004FF0000B08E0CA6802F1040B04E0CA689C
:1008E00002F10C0B00E00F24B9F1080F02464FF69D
:1008F000F8754E4628BF0432C3F6FF75176828BF47
:100900002E44B60004FA06F50BFA06F6AF43374359
:100910001760CA79D20601D4012464E041F21802BA
:100920000F244FEA9906C4F2020215462A6842F0E3
:1009300001022A602A6803F00C0502F0010202920B
:1009400004FA05F2029FA8F57E7757F8264024EABC
:10095000020240F60004C4F20104A0420ED040F6A8
:100960000044C4F20104A0420AD041F20004C4F2DF
:100970000104A042009C08BF022402E0002400E021
:10098000012404FA05F501242A4347F8262040F201
:100990000C474D68D8F80820C4F2010715F4801FF1
:1009A0000CBF22EA0C0242EA0C02C8F80820AA0294
:1009B0003A6854BF22EA0C0242EA0C023A60AA03E7
:1009C000D8F8042054BF22EA0C0242EA0C02C8F80C
:1009D0000420EA03D8F8002054BF22EA0C0242EABD
:1009E0000C02C8F80020D1F800E009F10109043335
:1009F0003EFA09F27FF416AF03B0BDE8F08F0000B5
:100A000040F20000C2F200008068704740F200002F
:100A1000C2F20000017882681144816070470000D2
:100A200080B542F20000C4F20200016841F01001FA
:100A30000160032000F08EF80F2000F005F800F0B0
:100A400025F8002080BD000070B540F20006044685
:100A50004FF47A71C2F200063078B1FBF0F040F248
:100A60000C01C2F200010968B1FBF0F000F074FB68
:100A700001250F2C08D838B94FF0FF30214600224D
:100A8000002500F035F87460284670BD82B041F250
:100A900018000222C4F20200016841F00101016065
:100AA000016801F0010101910199416841F0805113
:100AB0004160406800F08050009000980420C4F22B
:100AC0000100016862F31A61016002B07047000022
:100AD0000028B8BF704700F01F010122400902FA48
:100AE00001F14EF20012CEF2000242F820107047DF
:100AF00010B500F00F034EF60C5E00F1604CB0F143
:100B0000FF3FA3F10403CEF2000E734403F10C0483
:100B1000C8BF0CF56444DEF80000C0F3022000F109
:100B2000040CC31E80F00700BCF1070F4FF0010C4E
:100B300038BF0023042828BF04200CFA00F0013835
:100B400008400CFA03F10F319840114008430001AE
:100B5000207010BD4EF60C514FF6FF03CEF200018F
:100B60000A681A4060F30A2242F0806040F0FD708B
:100B7000086070472DE9F04104460D46002C00F056
:100B8000AA8041F20408C4F20208D8F8FC0F00F071
:100B90000700A8420DD2D8F8FC0F20F00700284328
:100BA000C8F8FC0FD8F8FC0F00F00700A84240F08E
:100BB0009280206810F0020F17D0410742BFD8F88A
:100BC000001041F4E061C8F80010010742BFD8F8F6
:100BD000001041F46051C8F80010D8F80010A26865
:100BE00021F0F0011143C8F80010C0072FD0606851
:100BF000012805D158F8041C11F4003F6BD008E01F
:100C000058F8041C022802D1890164D501E0890743
:100C100061D5D8F8001021F003010843C8F800009E
:100C2000FFF7EEFE064641F2883700BFD8F8000015
:100C3000616800F00C00B0EB810F08D0FFF7E0FE18
:100C4000801BB842F2D90320C0B2BDE8F081D8F8C9
:100C5000FC0F00F00700A8420CD9D8F8FC0F20F0D8
:100C600007002843C8F8FC0FD8F8FC0F00F0070075
:100C7000A84230D1206810F0040F07D0D8F8001037
:100C8000E26821F4E0611143C8F80010000708D5BC
:100C9000D8F80000216920F4605040EAC100C8F88B
:100CA0000000D8F8001041F20020C0F27A0001F0F4
:100CB0000C02082A1CD143F6AF03C1F3834211F49E
:100CC000803FC0F600039A5C09D140F60010C0F2E4
:100CD0003D0050430CE00120C0B2BDE8F081D8F8DF
:100CE000001050430FA2C1F34041515CB0FBF1F042
:100CF000D8F8001043F69702C0F60002C1F30311C2
:100D0000515CC84040F20C01C2F20001086040F2A0
:100D10000400C2F200000068FFF796FE0020C0B297
:100D2000BDE8F0810102000040F20C0041F2040134
:100D300043F6A702C2F20000C4F20201C0F60002AC
:100D400000680968C1F30221515CC8407047000087
:100D500040F20C0041F2040143F6A702C2F2000087
:100D6000C4F20201C0F6000200680968C1F3C221A2
:100D7000515CC840704700002DE9F04782B004463E
:100D800074B3207841F2000A41F22007C4F2020A4B
:100D9000C4F20207C00763D057F81C0C00F00C0027
:100DA00004281FD057F81C0C00F00C00082804D1B0
:100DB00057F81C0C10F4803F14D16068D8B1B0F51E
:100DC000803F08D0DAF80010B0F5A02F2ED141F402
:100DD0008020CAF80000DAF8000040F480302DE0EE
:100DE0000120B2E1DAF8000010F4003F38D060686A
:100DF000B0BB0120A9E1DAF8000020F48030CAF885
:100E00000000DAF8000020F48020CAF80000FFF7A4
:100E1000F7FD0546DAF8000010F4003F20D0FFF798
:100E2000EFFD411B03206429F4D98EE121F48030C9
:100E3000CAF80000DAF8000020F48020CAF80000A8
:100E4000FFF7DEFD054600BFDAF8000010F4003FB2
:100E500006D1FFF7D5FD401B6428F5D9032074E1C6
:100E6000207840F20008C4F24228800738D557F8AD
:100E70001C0C10F00C0F21D057F81C0C00F00C00CB
:100E8000082804BF57F81C0C10F4803F16D02069C6
:100E9000002800F0A9800120C8F80000FFF7B0FD8D
:100EA000054600BFDAF8000010F0020F0FD1FFF77F
:100EB000A7FD401B0228F5D9032046E1DAF800001F
:100EC00010F0020F1CBF2069012840F08B80DAF877
:100ED0000000616920F0F80040EAC100CAF8000093
:100EE0002078000738D5A06988B10120C8F88004AF
:100EF000FFF786FD054600BF786810F0020F18D195
:100F0000FFF77EFD401B0228F6D903201DE10020DB
:100F1000C8F88004FFF774FD054600BF786810F03C
:100F2000020F19D0FFF76CFD401B0228F6D90320F1
:100F30000BE140F20C0044F6D351C2F20000C1F2C2
:100F400062010068A0FB0101480A019000BF0198FE
:100F5000411E00280191F9D12078400740F190808E
:100F600057F8040C10F0805F0ED157F8040C4FF0C6
:100F7000010940F0805047F8040C57F8040C00F0C9
:100F800080500090009801E04FF0000946F2000602
:100F9000CFF6FE765AF8060010F4807F14D15AF886
:100FA000060040F480704AF80600FFF729FD054668
:100FB0005AF8060010F4807F06D1FFF721FD401B90
:100FC0006428F5D90320C0E0E06800B3012805D00B
:100FD0003968052833D141F004003860386840F0A2
:100FE000010032E00120B0E00020C8F80000FFF767
:100FF00007FD0546DAF8000010F0020F3FF470AF6D
:10100000FFF7FEFC411B03200229F3D99DE038685D
:1010100020F001003860386820F004003860FFF7E5
:10102000EFFC054641F28836386810F0020F1ED0FA
:10103000FFF7E6FC411B0320B142F5D985E021F022
:1010400001003860386820F004003860FFF7D8FCF1
:10105000054641F2883600BF386810F0020F06D10D
:10106000FFF7CEFC401BB042F6D903206DE0B9F18A
:10107000010F02BF57F8040C20F0805047F8040C11
:10108000E669002E60D057F81C0C00F00C00082810
:1010900003D1012E22D1012057E00020C8F86000C2
:1010A000FFF7AEFC0546022E0CD100BFDAF80000B7
:1010B00010F0007F20D0FFF7A3FC411B0320022982
:1010C000F4D942E0DAF8000010F0007F3CD0FFF7DE
:1010D00097FC411B03200229F4D936E057F81C0C79
:1010E000216A00F480328A4233D1616A00F47010C0
:1010F000884229D0012028E0206AB0F5803F07D13E
:1011000057F81C1CA26821F40031114347F81C1C3D
:1011100057F81C1C21F474110843616A084347F80E
:101120001C0C0120C8F86000FFF76AFC044600BFF1
:10113000DAF8000010F0007F06D1FFF761FC011B18
:1011400003200229F4D900E00020C0B202B0BDE8BB
:10115000F0870120F9E70000411E0020B0EB116F7D
:101160001CBF012070474EF21002F023CEF20002A5
:1011700051604EF62351CEF200010B7007219060B2
:101180001160704790F83C300222012B34D080B5BA
:10119000012380F83C3080F83D2002685368D2F883
:1011A00008C023F0700E0B6843EA0E03536040F250
:1011B000FF73C4F200039A42BDE8804005DCB2F13F
:1011C000804F0ED040F2004307E042F60043C4F2E5
:1011D00001039A4205D040F60003C4F200039A428C
:1011E00004D149682CF08003194391600121002249
:1011F00080F83D1080F83C20D0B2704710B504460E
:10120000002C04BF012010BD94F83D0028B9002037
:1012100084F83C00204600F065F8022040F2FF739D
:1012200042F6004C84F83D00C4F20003C4F2010C05
:1012300020680268984205DCB0F1804F0AD040F285
:10124000004103E0604505D040F60001C4F2000112
:10125000884203D122F07001A2680A43984205DC5B
:10126000B0F1804F0AD040F2004103E0604505D064
:1012700040F60001C4F20001884203D122F440711B
:1012800022690A43A16922F08002604541EA020115
:101290000160E168C1626168816204BF6169CCF884
:1012A000301001214161026912F0010F1EBF026975
:1012B00022F001020261002084F8461084F83E10FA
:1012C00084F83F1084F8401084F8411084F84210EC
:1012D00084F8431084F8441084F8451084F83D10D5
:1012E00010BD000083B0016840F6000241F21C000E
:1012F000C4F20002C4F20200914213D040F2004254
:10130000C4F20002914218D0B1F1804F13D10168AC
:1013100041F001010160006800F0010002900298B4
:1013200003B07047016841F004010160006800F0FB
:1013300004000090009803B07047016841F002017A
:101340000160006800F002000190019803B070474E
:1013500090F83C300222012B00F0C58080B50123BB
:1013600080F83C3080F83D204FF67772D0F800C00E
:10137000DCF8083023EA0202CCF808200B684F2B77
:1013800028DC1F2B43DD202B18BF302B43D0402BF4
:1013900040F0AB80D1F804E0C968DCF82030DCF81C
:1013A000202022F00102CCF82020DCF8182022F0C6
:1013B000F00242EA0111CCF8181023F00A0141EAC8
:1013C0000E01CCF82010DCF8081021F0770141F074
:1013D00047017DE06F2B26DDB3F5005F47D0B3F505
:1013E000805F77D0702B40F08080D1E90123C968FD
:1013F0001A4342EA0121DCF8082022F47F4211431B
:10140000CCF80810DCF8081041F0770160E0002B00
:1014100018BF102B69D1DCF8081021F077011943AF
:1014200041F0070154E0502B33D0602B5DD1D1F84F
:1014300004E0C968DCF82030DCF8202022F010023B
:10144000CCF82020DCF8182022F4704242EA013166
:10145000CCF8181023F0A00141EA0E11CCF82010AE
:10146000DCF8081021F0770141F0670130E0D1E9A4
:101470000123C9681A4342EA0121DCF8082022F45A
:101480007F421143CCF80810DCF8081041F4804189
:101490001EE0D1F804E0C968DCF82030DCF8202038
:1014A00022F00102CCF82020DCF8182022F0F00213
:1014B00042EA0111CCF8181023F00A0141EA0E01AA
:1014C000CCF82010DCF8081021F0770141F057012A
:1014D000CCF808100022012180F83D10002180F88E
:1014E0003C10BDE88040D0B270470122F3E7000015
:1014F00070B586B0002140F60003CDE90411CDE9B6
:10150000021141F21801C4F20003026840F60040E3
:10151000C4F20201C4F201009A422AD040F2004310
:1015200040F2001504244FF2FF36C4F20003C0F26B
:101530000075C4F20104CFF6FF069A422DD0B2F135
:10154000804F28D10A6842F008020A60096801F059
:10155000080101910199082102910221039105914D
:1015600002A9FFF73BF9216806F5106008402843FF
:1015700029E00A6842F008020A60096801F00801DF
:10158000019101994FF4707102910221039105912B
:1015900002A9FFF723F906B070BD0A6842F00802FD
:1015A0000A60096801F00801019101991021029176
:1015B00002210391059102A9FFF710F9206805F5B2
:1015C000E06130400843206006B070BD90F83C30C8
:1015D000012B02BF0223D8B270474FEAB2020123A7
:1015E000032A80F83C3000F2E5802DE9F04142F614
:1015F000004CC4F2010CDFE802F0023870AA026865
:10160000146A136A624523F0010324F00204136292
:101610001346D2F8048053F8185F8F680E6844EAC6
:10162000070425F0730747EA060E0DD1D1F80CC068
:10163000D1E9055628F4407724F00C043D432CF002
:10164000040745EA06083C43C2F80480C2F818E0E3
:101650004F6857631462976947F008079761976965
:1016600027F00407976109699EE00268146A136A0B
:10167000624523F0100324F0200413621346D2F8CD
:1016800004E053F8185F8F680E6825F4E64544EAD5
:10169000071445EA062511D1D1F80CC0D1E9058718
:1016A0002EF4406646EA880646EA870E6FF04F063B
:1016B00006EA0C1724F0C00647EA0604C2F804E064
:1016C00095614F6897631462976947F40067976163
:1016D000976927F48067976164E00268146A136A67
:1016E000624523F4807324F4007413621346D2F825
:1016F00004E053F81C5F8F680E6825F0730544EA18
:10170000072445EA060512D1D1F80CC0D1E90587B6
:101710002EF4405646EA081646EA071E4FEA0C2702
:1017200040F2FF46B74324F4406647EA0604C2F895
:1017300004E0D5614F68D7631462D76947F00807A2
:10174000D761D76927F00407D76109692CE00268DF
:10175000176A136A624523F4805327F40057136213
:101760001346D2F8048053F81C4F8D680E6824F499
:10177000E64447EA053E44EA062402BF4F6928F4DE
:10178000804646EA8718C2F80480D4614F6817641F
:10179000C2F820E0D76947F40067D761D76927F41A
:1017A0008067D761096909021A681143196000232B
:1017B000BDE8F041002180F83C10D8B2704700002D
:1017C00010B50446002C04BF012010BD94F83D0064
:1017D00028B9002084F83C00204600F065F802207B
:1017E00040F2FF7342F6004C84F83D00C4F200035F
:1017F000C4F2010C20680268984205DCB0F1804F09
:101800000AD040F2004103E0604505D040F60001F7
:10181000C4F20001884203D122F07001A2680A4399
:10182000984205DCB0F1804F0AD040F2004103E05D
:10183000604505D040F60001C4F20001884203D1A2
:1018400022F4407122690A43A16922F080026045B6
:1018500041EA02010160E168C1626168816204BF1E
:101860006169CCF8301001214161026912F0010F69
:101870001EBF026922F001020261002084F84610B6
:1018800084F83E1084F83F1084F8401084F841102A
:1018900084F8421084F8431084F8441084F845100A
:1018A00084F83D1010BD00007047000039B10322DC
:1018B000082908BF0222042908BF012200E00022F3
:1018C000024492F83E20012A1CBF012070470222E8
:1018D00041B1082909D0042914BF80F8412080F8BB
:1018E0003F2004E080F83E2001E080F840200068BE
:1018F00001F01F01012202FA01F1026A8A43026229
:10190000026A1143016242F64441C4F20101A1F1AD
:101910004402904202BF0A6842F400420A6040F268
:10192000FF71C4F20001884205DCB0F1804F0ED097
:1019300040F2004107E042F60041C4F20101884252
:1019400005D040F60001C4F20001884206D181684A
:1019500001F00701062904BF00207047016841F02B
:1019600001010160002070477047000070470000CF
:10197000F0B581B0044620680168C268456901F08D
:101980002F0602F02003202E06D12BB1204601B0F5
:10199000BDE8F04000F01ABC5FEA017C08D005F019
:1019A000010E12F4907F8EF001055AD1002D58D00F
:1019B0001140CA06226B3ED5012A3CD1002100917C
:1019C00001680091416800910099416911F0400F50
:1019D00040F0D680A18DE28DE38D002B00F03E819A
:1019E000891A89B209B939E1206850E8030F2268E1
:1019F00020F4907042E80303002BF5D1206850E8F2
:101A0000050F226820F0010042E80503002BF5D104
:101A1000202084F842000020206300BF206850E8A6
:101A2000030F226820F0100042E80303002BF5D1D9
:101A300002206063E9E00A0640F1ED8094F841106D
:101A4000212940F00B81A168B1F5805F04BF2169B5
:101A5000002900F0F580216A4A1C22620978416061
:101A6000F5E0CE0706D012F480761EBF666C46F015
:101A70000106666401F00407012686EA97072F43F2
:101A800002BF676C47F00207676401F0020786EA4D
:101A90005706354302BF656C45F00405656453EA9B
:101AA0000E0318BF0123BCF1000F05D5012B02BFA7
:101AB000636C43F008036364636C002B00F0CE801A
:101AC0001140890603D5204600F080FB206841695B
:101AD000626C01F0400102F00802114307D1204678
:101AE000FFF744FF0020606401B0F0BD206850E8BB
:101AF000030F216820F4907041E80302002AF5D119
:101B0000206850E8050F216820F0010041E8050237
:101B1000002AF5D1206B01280AD100BF206850E8C7
:101B2000030F216820F0100041E80302002AF5D1DC
:101B3000202084F84200002020632068416911F0D1
:101B4000400F02D176E000BF206850E8050F216801
:101B500020F0400041E80502002AF5D1E06B0028A2
:101B600068D042F2C111C0F600014163FEF7A6FD44
:101B7000002873D0E06B416B01B0BDE8F04008472E
:101B8000E26B11684B689EB2002E67D0A18D8E4229
:101B900064D2E3859269202A01D131E0206850E8BF
:101BA000030F216820F4807041E80302002AF5D178
:101BB000206850E8050F216820F0010041E8050287
:101BC000002AF5D1206850E8050F216820F0400078
:101BD00041E80502002AF5D1202084F842000020C7
:101BE000206300BF206850E8030F216820F0100038
:101BF00041E80302002AF5D1E06BFEF73FFDA18D1D
:101C000002206063E08D081A81B2204601B0BDE871
:101C1000F040FFF7A9BE490620D5C16821F0400178
:101C2000C160202084F84100204601B0BDE8F040AA
:101C300000F0ECB9204601B0BDE8F040FFF796BED9
:101C4000216A31F8022B6FF35F2242602162E18C3E
:101C50004FF6FF7201391142E18401D001B0F0BDAD
:101C6000C16821F08001C160C16841F04001C160DC
:101C700001B0F0BD10B50446002C04BF012010BD1A
:101C800094F8410028B9002084F84000204600F074
:101C900061F8242084F841002068C16821F40051D3
:101CA000C1600169E26821F44051114341F20C62C4
:101CB0000161D4F808C0D4E904E3C16891434EEA55
:101CC0000C021A431143C1604169A26921F44071B9
:101CD0001143416143F60001C4F20101884202D080
:101CE000FFF722F801E0FFF733F8192148F21F5CF3
:101CF0004843D4E90012C5F2EB1C9200B0FBF2F0AD
:101D0000A0FB0C3252096FF0630302FB0300322385
:101D100003EB0010A0FB0C03F02000EA531000EBD3
:101D20000210C3F3431210438860086920F4904006
:101D30000861486920F02A004861C86840F40050F2
:101D4000C86000202021606484F8411084F84210AB
:101D5000606310BD70B586B0002640F60044CDE942
:101D60000466CDE90266C4F201040068A4F54441AA
:101D7000884201D006B070BD41F2180002ADC4F235
:101D80000200416841F480214160416801F48021F2
:101D900001910199016841F008010160294600683C
:101DA00000F00800019001984FF48060029002203A
:101DB0000390032005902046FEF710FD4FF40060CD
:101DC0002946CDE9020620460496FEF707FD2720A6
:101DD00000210022FEF78CFE2720FEF779FE06B0D8
:101DE00070BD000090F84230202B1EBF0223D8B2F5
:101DF000704700294FF0010318BF002A19D00023B3
:101E00000363816222218285C2854364002380F8B6
:101E100042100168006900281EBFC86840F4807045
:101E2000C860486940F001004861C86840F020007F
:101E3000C860D8B27047000040F20E30C2F2000015
:101E4000007840280BD140F20C310022C2F2000190
:101E50000A8040F2B9210122C2F200010A7040F268
:101E6000B921C2F20001097801290BD140F20C31ED
:101E7000C2F200010A88531C0B8040F2B811C2F272
:101E80000001885423284FF0010201BF40F2CC200A
:101E9000C2F200000121017040F2701040F20E31D8
:101EA000C2F20000C2F20001FFF79CBF2DE9F0432F
:101EB00081B00446994616460F4694F84100202802
:101EC0001AD1002F4FF0010018BF002E00F09880AB
:101ED00000252120656484F84100FEF791FDA68469
:101EE000E6848046A068B0F5805F07D12669002EA1
:101EF0000CBF3D463E4602E0022081E03E46E28CB9
:101F0000206801688AB319F1010217D0B9F1000FF6
:101F10004CD100BF09066DD516B116F8011B04E0BF
:101F200035F8021B00266FF35F214160E18C013917
:101F3000E184E28C0168002AECD116E0090603D4A2
:101F4000016811F0800FFBD016B116F8011B04E0F8
:101F500035F8021B00266FF35F214160E18C0139E7
:101F6000E184E28C0168002AE8D1490618D4B9F16D
:101F7000000F3BD019F1010106D100BF016811F03B
:101F8000400FFBD00CE000BFFEF73AFDA0EB0800CD
:101F9000484539D82068C168006810F0400FF3D078
:101FA0000020202184F841102AE000BF09060BD44C
:101FB000FEF726FDA0EB080048451DD82068C16843
:101FC000016811F0800FF3D016B116F8011B04E080
:101FD00035F8021B00266FF35F214160E18C013967
:101FE000E184E28C0168002AE0D1BEE7FEF708FD3B
:101FF0000320D6E7FEF704FD202084F841000320EB
:10200000C0B201B0BDE8F0830320CAE7704700000A
:10201000FEE70000FEE70000FEE70000704700005A
:102020007047000010B592B040F2BC200DF10B04D7
:10203000C2F20000D0E90013D0E9022000F2DC5027
:1020400002F2DC5203F2DC53CDE9002001F2DC5253
:1020500004A12046FEF7BCF8204600F099F812B023
:1020600010BD00BF2330303150253034645430303F
:102070003030212330303250253034645430303009
:1020800030212330303350253034645430303030F8
:1020900021233030345025303464543030303021F6
:1020A0000000000070B540F2E82C4DF249604FF49A
:1020B000FA6E40F6C413C2F2000CCFF2B920BCF89D
:1020C000001001FB0EF2B1F5877F40F6C411A2FBB0
:1020D00000244FF4FA7238BF02EB142140F280045E
:1020E000C2F200042468A163BCF8041001FB0EF4E2
:1020F000B1F5877F40F6C411A4FB004540F2D0043F
:1021000038BF02EB1521C2F2000424686163BCF8F9
:10211000081001FB0EF4B1F5877F40F6C411A4FB53
:10212000004540F2201438BF02EB1521C2F2000432
:1021300024686163BCF80C1001FB0EF5B1F5877FD4
:1021400040F6C411A5FB005638BF02EB1621A1636F
:10215000BCF8101001FB0EF5B1F5877F40F6C411F5
:10216000A5FB005638BF02EB1621E163BCF8141042
:1021700001FB0EF6B1F5877FA6FB000638BF02EB28
:102180001623236470BD0000FEF740BC70470000BA
:102190000146002908BF7047002000BF82B201300D
:1021A0008B5C002BFAD180B540F270104FF0FF33FA
:1021B000C2F20000FFF77AFEBDE8804070470000E1
:1021C000406A0021C185C184FFF7D0BB90F842105E
:1021D000222918BF70478368B3F5805F06D1026972
:1021E00000F12801A2B1D1F800C008E00146002B9F
:1021F00051F828CF01D103690BB17F2300E0FF2301
:10220000026852681A4001238CF800200A6806E030
:102210000368826A5B686FF35F23138002231A44AA
:102220000A604FF6FF72C18D01391142C18500D09D
:1022300070470168CA6822F02002CA60CA6822F4A6
:102240008072CA604A6922F001024A61202280F845
:10225000422000224263036B012B18BFFFF7ECBD45
:10226000026300BF51E8031F026821F0100142E839
:1022700003130168002BF5D10A6812F0100F08D083
:1022800081B0002200920A6800924968009100998A
:1022900001B0818DFFF768BB40F27010C2F2000000
:1022A000FFF766BBFEE70000F0B593B0FEF7B8FBA2
:1022B000002401204FF480310225CDE90B44CDE903
:1022C00009440594CDE90344CDE901440690CDE9E4
:1022D00007140A904FF4E010CDE90D510F9006A8B5
:1022E000FEF74AFD18B1EFF3108072B6FEE70F203B
:1022F0000221CDE901054FF480600394CDE9040487
:1023000001A8FEF737FC20B1EFF3108072B600BFD2
:10231000FEE741F21800002540F200440995C4F29E
:102320000200C4F20004016841F02001016001686C
:1023300001F0200101910199016841F0080101605B
:10234000016801F0080101910199016841F004015F
:10235000016006A9006800F00400019001984FF4A4
:10236000807006900020C1F22100CDE9070504F538
:102370008230FEF733FA172000210022FEF7B8FB67
:102380001720FEF7A5FB40F2701004F588414FF4CA
:10239000E1320C23C2F2000080E82600C0E90355B8
:1023A000C0E90535C561FFF765FC20B1EFF310808A
:1023B00072B600BFFEE740F280004FF08041472236
:1023C00044F61F63CDE90355CDE90155CDE910551C
:1023D0000C95CDE90A55CDE90855CDE90655C2F26F
:1023E000000080E82600C0E903358561FEF706FF9E
:1023F00018B1EFF3108072B6FEE74FF4805001A9D8
:10240000019040F28000C2F20000FEF7A1FF20B16F
:10241000EFF3108072B600BFFEE740F28000C2F218
:102420000000FFF7CDF920B1EFF3108072B600BFC6
:10243000FEE740F28000002510A9C2F20000CDE9BD
:102440001055FEF79FFE20B1EFF3108072B600BF6B
:10245000FEE7602006A90422CDE9060540F28000CF
:1024600008950A95C2F20000FFF7B0F818B1EFF333
:10247000108072B6FEE740F28000C2F20000FFF763
:1024800037F840F2D0000021472244F61F63C2F221
:102490000000CDE90311CDE90111CDE910110C9136
:1024A000CDE90A11CDE90811CDE90611C0E90042D4
:1024B000C0E9021301618161FEF7A0FE18B1EFF3DC
:1024C000108072B6FEE74FF4805001A9019040F2EF
:1024D000D000C2F20000FEF73BFF20B1EFF3108006
:1024E00072B600BFFEE740F2D000C2F20000FFF774
:1024F00067F918B1EFF3108072B6FEE740F2D00032
:10250000002510A9C2F20000CDE91055FEF73AFEF1
:1025100018B1EFF3108072B6FEE7602006A9002222
:10252000CDE9060540F2D00008950A95C2F20000F8
:10253000FFF74CF818B1EFF3108072B6FEE740F2E7
:10254000D000C2F20000FEF7D3FF40F220100021BD
:1025500004F58062472344F61F67C2F20000CDE90C
:102560000311CDE90111CDE910110C91CDE90A114A
:10257000CDE90811CDE90611C0E90023C0E9021731
:1025800001618161FEF73AFE18B1EFF3108072B677
:10259000FEE74FF4805001A9019040F22010C2F2F2
:1025A0000000FEF7D5FE18B1EFF3108072B6FEE71B
:1025B00040F22010C2F20000FFF702F918B1EFF369
:1025C000108072B6FEE740F22010002410A9C2F27B
:1025D0000000CDE91044FEF7D5FD18B1EFF31080EF
:1025E00072B6FEE7602006A90022CDE9060440F29B
:1025F000201008940A94C2F20000FEF7E7FF18B119
:10260000EFF3108072B6FEE740F2201006A9042214
:10261000C2F20000FEF7DAFF18B1EFF3108072B6D5
:10262000FEE740F2201006A90822C2F20000FEF7E1
:10263000CDFF18B1EFF3108072B6FEE740F2201024
:1026400006A90C22C2F20000FEF7C0FF18B1EFF39A
:10265000108072B6FEE740F22010C2F20000FEF7D2
:1026600047FF00F069FA00F033FA40F2CC2540F25F
:10267000B81440F2B9270026C2F20005C2F20004E5
:10268000C2F200070CE0204600F0D4F800F00CF88D
:10269000FFF7C8FC00F090F9FFF704FD2E703E70C4
:1026A00028780128FCD1EEE72DE9F04F83B040F205
:1026B00000304DF249654FF47A7640F2BC2BC2F2FD
:1026C0000000CFF2B925C2F2000B90E8160002EB31
:1026D000010808460292A8EB0401019001FB06FEE6
:1026E0008EFB053701FB06710B1203EBD171131A38
:1026F0001F19CBF8001007FB06FA8AFB05201AF514
:10270000877F07FB06004FEA202202EBD072A3EB83
:10271000040000FB06FCCBF804208CFB053900FB11
:1027200006904FEA202303EBD07308EB040000FB74
:1027300006F8CBF8083088FB057500FB06504FEA19
:10274000202505EBD070CBF80C00D8BF52421EF507
:10275000877FD8BF49429142B8BF11461CF5877F99
:10276000D8BF5B429942A8BF0B4618F5877FD8BFF8
:1027700040428342A8BF184600F0C4FE804601983C
:102780000299404301FB010004FB040000F0BEFB82
:1027900000F00BFA48F200030022C4F2560300F0E6
:1027A0005DFA00F029FA4FF07E51054600F070FD09
:1027B000002840F2000118BF4FF07E55C4F27A4164
:1027C000284600F01FFF414600F08AFD0446DBF872
:1027D000000000F097FE0146204600F013FF00F0D5
:1027E00075FECBF80000DBF8040000F08BFE01461C
:1027F000204600F007FF00F069FECBF80400DBF88C
:10280000080000F07FFE0146204600F0FBFE00F0CD
:102810005DFECBF80800DBF80C0000F073FE01460B
:10282000204600F0EFFE00F051FECBF80C0003B0A4
:10283000BDE8F08F70B50379C278417990F802C095
:102840004FF0640E02FB0EF203EB8303BCF12D0F7D
:1028500040F2003C02EB430241F2D043C2F2000CD2
:102860001144A1EB030408BF5C1ACCF80040027AC3
:10287000457A867AC17902FB0EF205EB85052D2992
:1028800002EB45021644A6EB030208BF9A1B514215
:10289000CCF8041004F11401282906D802F114011F
:1028A00028299CBF0021CCE90011417FA1F1300211
:1028B000D1B202299FBF51B23CA252F82110CCF8EC
:1028C00008104FF0640C827CC37C067D02FB0CF286
:1028D00003EB830302EB430241F2D0433244D61AA6
:1028E00040F2D022C2F20002166090F8245090F814
:1028F000254090F8261090F8236005FB0CF504EBBA
:1029000084042D2E05EB44052944A1EB030508BFE3
:102910005D1A556090F8296090F82A5090F82B4085
:1029200090F8281006FB0CF605EB85052D2906EB23
:1029300045062644A6EB030508BF9D1B956090F84D
:102940002E6090F82F5090F8304090F82D1006FB34
:102950000CF605EB85052D2906EB45062644A6EB6E
:10296000030508BF9D1BD560C17D067E457E01FB2A
:102970000CF106EB860601EB46012944C91A1161E8
:10298000C17ED0311175C17F90F8202090F82100D0
:1029900001FB0CF102EB820201EB4201084440F220
:1029A000B8213030C2F20001087070BD0000000094
:1029B000C4FFFFFF3C000000F0B581B00520FDF72B
:1029C000D7FE40F2D026C2F2000630681F2802D29D
:1029D0004FF0404004E03D381D280BD84FF08040B8
:1029E00040F21005C2F20005296800F0E1FB044640
:1029F0002C6004E040F21000C2F2000004680025E0
:102A00002046C4F28735294600F042FC28B920460A
:102A10000021002500F043FC28B940F210002C46AC
:102A2000C2F200000560204600F050FD40F2E827A9
:102A3000C2F2000738600520FDF79AFE30691F28B2
:102A400002D24FF0804004E03D381D280BD84FF0F3
:102A5000404040F21405C2F20005296800F0A8FBCE
:102A600004462C6004E040F21400C2F20000046846
:102A700000252046C4F26135294600F009FC38B92A
:102A800000252046C4F23425294600F008FC28B968
:102A900040F214002C46C2F200000560204600F00F
:102AA00015FD3861307D012802D018B9442000E0BE
:102AB0008C20786170682D307860B068C0F1E100DA
:102AC000B860F068C0F1E100F86001B0F0BD00004E
:102AD00070B540F280040421C2F200042046FEF7E3
:102AE000E5FE40F2D0050021C2F200052846FEF7BF
:102AF000DDFE40F220160021C2F200063046FEF74D
:102B0000D5FE30460421FEF7D1FE30460821FEF7FF
:102B1000CDFE30460C21FEF7C9FE206840F2DC51A4
:102B2000816328684163306841638163C16340F217
:102B3000CC71016470BD000080B540F2B81009A1ED
:102B40003522C2F20000FDF757FC40F2701040F24F
:102B50000E310122C2F20000C2F20001BDE8804045
:102B6000FFF740B9402C2B3030302C2B3030302C3C
:102B70002B3030302C3034352C3034352C302C3058
:102B80002C3038382C2B3030302C2B3030302C2B54
:102B90003030302C63732C230000000030380A28BA
:102BA00001D201207047002070472DE9F041064610
:102BB0000F4600F017FA041E0D4618BF01202843E7
:102BC00020F00040C0F17F6000F1E040C00F0ED067
:102BD000301C18BF0120384320F00040C0F17F6056
:102BE00000F1E040C00F04BF0120FDF752FC204679
:102BF0002946BDE8F081000021F0004201F00043C9
:102C0000A2F16052B2F5801F28BFD2F17F6C0BD9C0
:102C10005FEA001C43EAC20242EB507018BF7047E3
:102C200028BF20F001007047B2F5801FBCBF1846D6
:102C300070474FEA410C1CF5001F02D2084600F015
:102C4000A8BD70B500F079F900000089FFF7F6BF64
:102C50004FF00040A0F58000704700002DE9C04112
:102C600030B4DFF8A0C23CEA111418BF3CEA1314D8
:102C700000F0EC801CEA111481EA030544EAD574E3
:102C800018BF1CEA131500F0C780A4EB050404F17B
:102C90007F7404F500344FF0004545EAC12145EA50
:102CA000C32341EA505143EA52534FEAC0204FEA4E
:102CB000C222994208BF904200F09C804FEA1365FF
:102CC0000FF24016765D4FEA134506FB05F7C7F194
:102CD000807706FB07F74FEAD737A7FB03687642F2
:102CE000A7FB06CEC8F5803838BFA8F1010807FB5E
:102CF00008E6A6FB028C4FF0000EE6FB03CEDCF1EB
:102D0000000CCEF1004E38BFAEF1010EA6FB0C5800
:102D10004FF00007E6FB0E87A1FB08C6A0FB07CE1D
:102D200016EB0E064FF0000545F10005E1FB0765C7
:102D300015F1E04E7EBFA4F580345FEA46066D4192
:102D400016F1800745F100054FEA172747EA0567A6
:102D50004FEA15254FEA0666A6F1DE46B6F1805F1A
:102D60001FD9384605EBC47124F0010C01EB0C119E
:102D7000BCF1FE6F02D8F0BCBDE8008124425CBF0C
:102D800001F5801E9EEAC47F02D4F0BCBDE800813C
:102D9000244238D4A1F1C041F0BCBDE8004100F0AC
:102DA0001AB94FEAD02040EA41504FEAD1214FEA08
:102DB000D22242EA43524FEAD323A7FB028607FB03
:102DC000036605FB02661EEA0E0F58BFA6EB00560F
:102DD000B6EB00564FEA520E4EEAC37E18EB0E0ECB
:102DE00056EB530EBDD518EB02085E417F1C55F122
:102DF0000005B6E74FF480154FF000074FF00006CE
:102E00004FF00008ADE701F1C04101F000414FF083
:102E10000000F0BCBDE800810CEA131511EA0C1F9C
:102E200000D00CE013EA0C1F00F025804FF00000EA
:102E300081EA030101F00041F0BCBDE80081F0BC73
:102E4000BDE8004181EA030100F0C5B8F0BCBDE86F
:102E5000004170B500F071F8097EFC3E00F007B843
:102E60004FF0000081EA030101F00041704781EA60
:102E7000030100F0B0B8F0BCBDE8004122494FF0BA
:102E800000007047FFFDFBF9F7F5F4F2F0EEEDEB13
:102E9000E9E8E6E4E3E1E0DEDDDBDAD8D7D5D4D358
:102EA000D1D0CFCDCCCBCAC8C7C6C5C4C2C1C0BFA4
:102EB000BEBDBCBBBAB9B8B7B6B5B4B3B2B1B0AFAA
:102EC000AEADACABAAA9A8A8A7A6A5A4A3A3A2A18E
:102ED000A09F9F9E9D9C9C9B9A9999989797969549
:102EE00095949393929191908F8F8E8E8D8C8C8BE5
:102EF0008B8A89898888878786858584848383826D
:102F0000828181800000FF070000F87F10F00042FE
:102F100048BF4042B0FA80F310FA03F10AD0C3F17F
:102F20001D0303F5806302EB03524FEA415002EBAD
:102F3000D12170474FF0000070470EF1020E2EF0C5
:102F4000030E5EF8046B364205D4012A43EB0305F9
:102F500015F5001F12D8012841EB010C1CF5001FCC
:102F60000CD80ED14FEAD17C0CEB4C0C0CF1020CBE
:102F700015F5001F08BF4CEBD37C04E04FF0080CA4
:102F800001E04FEAD37C0CEB4C0526FA05F606F07F
:102F90000706B6F1040C06D20EEB860CBDE87040B5
:102FA0004CF0010C6047DFE80CF0090B02024FF017
:102FB0000041A1F500214FF0000070BD19461046F8
:102FC000012851EB010418BFD4F5001484BF002080
:102FD00001F0004170BD0808A0F500114FEA310171
:102FE000704700002DE9F04101F5801CBCF5001F81
:102FF000C0F2C3804FEA115C21EA0C5141F4801108
:103000000CF1FD0C5FEA5C0C0CF5C07C01D34000B8
:103010004941890241EA905187023BA48E0EA45D8A
:103020000A0C04FB04F602FB06F6C6F14046A4FBBC
:103030000662F60D46EA422606FB06F4A4FB0123CF
:103040005242C3F1404338BF5B1EA6FB024200243C
:10305000E6FB0324D20B42EA4446A6FB0623A1FB6F
:1030600002E2A3FB07E4A4184FF0000252F10002B1
:10307000E3FB01426442C2F1404E38BFAEF1010EA3
:10308000A6FB04234FF00002E6FB0E32A2FB034630
:10309000B6194FF0000454F10004E2FB0264A1FBF6
:1030A00006E6A4FB07E816EB08064FF0000858F107
:1030B0000008E4FB01687642C8F1405838BFA8F127
:1030C0000108A2FB06E4A3FB08E52D194FF000045C
:1030D00054F10004E2FB0854A1FB05E6A7FB04E859
:1030E00018EB06084FF0000656F10006E1FB0486D7
:1030F00018F1200556F10006A80940EA8660B109DA
:10310000A8F11B0808F03F08B8F10A0F1CD901EB21
:103110000C51BDE8F08100BFFCF5EEE8E2DDD8D34C
:10312000CFCBC7C3C0BDB9B6B4B1AEACA9A7A5A338
:10313000A19F9D9B9A9896959392908F8D8C8B8949
:103140008887868584838281A0FB006800FB01F26A
:1031500008EB4208B8EB872807D5341858EB010470
:10316000D5D5401C51F10001D1E7341A78EB0104A8
:10317000CDD4401E71F10001C9E75FEA4C0C5FEA53
:103180009C5C0DD105D301F000414FF00000BDE87B
:10319000F081BDE8F04170B5FFF7CFFE6DDBFFBEFB
:1031A000BDE8F04101494FF0000070470000F87F92
:1031B00090EA010F48BF81F0004100F1F682421A07
:1031C0003CBF801A89184FEAD052A2EBD1534FF07E
:1031D0007F4C1CEA410F18BF9CEA026F00F03B8055
:1031E0004FF0004C4CEA00204CEA012121FA03FC8C
:1031F00010EB0C0C1ED202F1FF325FEA1C2040EBF8
:10320000C25038BF70471CF07F0F4FEA400C18BF08
:10321000BCF17F4F38BF7047C3F12003994008BF0E
:1032200020F00100BCF17F4F38BF7047A0F1C040D3
:1032300000F0AFBA4FEA3C00000A40EBC25028BF92
:103240001CF0FF0F4FEA400CE6D018BFBCF17F4FD7
:1032500038BF7047EAE79CEA026F05D010EA5C0FBE
:1032600008BF00F00040704710B500F04CFA00BFF6
:1032700064FBBE3E10B500F0F5F80CBF0120002045
:1032800010BD10B500F0EEF814BF0120002010BDF5
:1032900010B500F04FF98CBF0120002010BD10B513
:1032A00000F048F92CBF0120002010BD10B500F03F
:1032B00075F994BF0120002010BD10B500F06EF923
:1032C00034BF0120002010BD401058BFC0F1404065
:1032D000491058BFC1F140418142EFF3008070476F
:1032E0004FF47F0C1CEAD0121EBF1CEAD11392EAE5
:1032F0000C0F93EA0C0F00F0858090EA010F48BF95
:1033000042F4807240F4000C41F400002CF07F4144
:1033100020F07F4000B5A2EB030281420FF2081CAF
:10332000ACEB504E9EF800E0C0F100004FEA4E0EAC
:1033300000FB0EFC38BF49004FEA2C1C0CFB0EF3BF
:103340004FEACE1E0EEB635E4FEA112C0EFB0CFC17
:103350004FEAC1214FEA1C5300FB031102F5FA02A8
:103360004FEA112C0EFB0CFC4FEA01314FEADC4C0A
:1033700000FB0C1142EB2242C14228BF09184CEB62
:1033800003335DF804EB10EB410143EBC250B2F59F
:103390007C0F38BF704729D512F0F00F1CBF00F129
:1033A000C04000F00040704700818283848586879A
:1033B00088898B8C8D8E8F919293959697999A9CF4
:1033C0009D9FA0A2A3A5A7A8AAACAEB0B2B3B5B763
:1033D000B9BCBEC0C2C5C7C9CCCED1D4D7D9DCDF39
:1033E000E2E6E9ECF0F3F7FAFE0000004FEA400CE9
:1033F0000CF1807CBCF17E4F28BF7047B0F1C0401B
:1034000000F0C7B90CEAD11390EA010F48BF42F4AB
:103410008072624538BF634507D213F47F0F16D020
:1034200080EA010000F00040704710B500F06BF931
:10343000097EFC3E00F005B880EA010000F0004083
:10344000704780EA010000F0004000F0A2B912F4D9
:103450007F0F04BF0248704780EA010000F099B96D
:103460000000C07F50EA010C00F113801CF5000F32
:1034700058BFBCF5000F01D48842704707D710F53C
:10348000000F58BF11F5000F15D4884270478942CC
:1034900070471CF5000F04D5BCF5000FF7D581422D
:1034A00070474FF0807C1CEB400F38BF1CEB410F86
:1034B00001D28142704710B500F025F992244900ED
:1034C0004FF000504FF08051FFF7FEBE41000B0E51
:1034D000D3F19E0208D950F400034FEA032323FAE4
:1034E00002F048BF4042704710B500F00CF900BF31
:1034F00049922480002070476FF0004282EA200049
:103500007047000010F0004148BF4042B0FA80F31D
:1035100010FA03F2C3F19D030BD051EAC35101EB42
:103520001220530638BF704700F1010008BF20F099
:103530000100704750EA010C00F113801CF5000FE8
:1035400058BFBCF5000F01D48842704707D710F56B
:10355000000F58BF11F5000F15D4884270478942FB
:1035600070471CF5000F04D5BCF5000FF7D581425C
:1035700070474FF0807C1CEB400F38BF1CEB410FB5
:1035800001D28142704710B500F0BDF89224490085
:103590004FF080504FF00051FFF796BE50EA010CFB
:1035A00000F113801CF5000F58BFBCF5000F01D4CB
:1035B0008842704707D710F5000F58BF11F5000F6C
:1035C00015D488427047894270471CF5000F04D516
:1035D000BCF5000FF7D5814270474FF0807C1CEBA3
:1035E000400F38BF1CEB410F01D28142704710B52C
:1035F00000F089F8922449004FF000504FF08051BC
:10360000FFF762BE4FF47F0C1CEAD0121EBF1CEA0B
:10361000D11392EA0C0F93EA0C0F00F0478090EA66
:10362000010F48BF42F480724FF0004C4CEA00207A
:103630004CEA012102EB0302A0FB0113A2F50002F8
:10364000002918BF43F001035B0028BF4FEA330392
:1036500042EB22425FEA132C4CEBC2502EBFBCEB74
:10366000436FB2F57C0F70474FEA036CBCF1004F1B
:1036700008BF20F00100B2F57C0F38BF70470BD5B2
:1036800082F0FF0212F5803FC8BF704700F1C040D2
:10369000D8BF00F00040704700F5000C5FEA4C0C0A
:1036A00048BF7047B0F1C04000F073B80CEAD113C6
:1036B00090EA010F48BF42F48072624538BF63450B
:1036C00004D280EA010000F00040704710B500F01D
:1036D0001AF800BF8900013E00F007B800F009B8F1
:1036E0005FEA410C5FEA1C6C08D080EA010000F040
:1036F00050B85FEA400C5FEA1C6CF6D14FF0004016
:10370000A0F5800070470EF1020E2EF0030E5EF859
:10371000044B244204D44FEA4102B2F17F4F11D846
:103720004FEA4003B3F17F4F0CD80ED14FEAD07C63
:103730000CEB4C0C0CF1020CB2F17F4F08BF4CEBC0
:10374000D17C04E04FF0080C01E04FEAD17C0CEB97
:103750004C0324FA03F404F00704B4F1040C06D279
:103760000EEB840CBDE810404CF0010C6047DFE824
:103770000CF0070802024FF00040A0F5800010BDD9
:103780000846420018BFD2F1807288BF00F00040A6
:1037900010BDFF2141EAD050C005704790EA010FEB
:1037A00048BF81F000413FF50AAD421A04D882F0CB
:1037B0000042A0EB020011444FEAD052A2EBD153D9
:1037C0004FF07F4C1CEA410F18BF9CEA026F4AD0B1
:1037D0004FF0004C4CEA00204CEA012121FA03FC96
:1037E000B0EB0C0C0FD412F0FE0F36D05FEA4C0099
:1037F0001DD5001240EBC25038BF70471CF03F0F80
:1038000018BF70470BE05FEA1C20A2F1010240EBF9
:10381000C25038BF70471CF07F0F18BF7047C3F10C
:103820002003994014BF401E20F0010070474FEA6A
:103830001223800808BF7047B0FA80FCA2EB0C028C
:10384000CCF1280C60FA0CF093EA122F04BF00EBC5
:10385000C25070474FEAC3707047130A5FEADC102A
:1038600008BF7047F6E79CEA026F04D010EA5C0FCD
:1038700008BF0020704710B5FFF745FF40DFF63E58
:1038800081F00040704704000008000000000000C4
:103890000002000100001000000000000000000114
:1038A00002030406070809000000000102030402E5
:1038B000030405060708090A0B0C0D0E0F10100073
:1038C000E038000800000020200000002801000867
:1038D0000039000820000020F00800004401000822
:1038E00001000000100000000000000000127A003B
:1038F0000000074300000743000000000000000034
:04000005080000ED02
:00000001FF
