:020000040800F2
:100000004848002005020008353C0008B93B0008BC
:10001000BD3B000895150008D9400008000000000D
:100020000000000000000000000000005D3D00082E
:100030009915000800000000393C0008253E000822
:100040001F0200081F0200081F0200081F0200080C
:100050001F0200081F0200089D1500081F0200086B
:100060001F0200081F0200081F0200081F020008EC
:100070001F0200081F0200081F0200081F020008DC
:100080001F0200081F0200081F0200081F020008CC
:100090001F0200081F0200081F020008A515000823
:1000A0001F0200081F0200081F0200081F020008AC
:1000B0001F0200081F0200081F0200081F0200089C
:1000C0001F0200081F0200081F0200081F0200088C
:1000D0001F0200081F0200081F020008813F0008DD
:1000E0001F0200081F0200081F02000800F002F8AB
:1000F00000F078F814A696E8000CB244B344DA4550
:1001000001D100F06FF8BAE80F000FA696E83000B2
:10011000A5EB040504EB0607AAEB0704A7F101070A
:100120004FEA15154FEA3414A4F10104AC4201D38F
:1001300000F058F813F0010F18BFFB1A43F0010349
:1001400000F001F8DBE71847246400004464000075
:10015000103A24BF78C878C1FAD8520724BF30C8F3
:1001600030C144BF04680C60704700007047000055
:100170000023002400250026103A28BF78C1FBD8B0
:10018000520728BF30C148BF0B607047692900F093
:10019000CF80642900F0CC80752900F0C9806F29D8
:1001A00000F06081782900F087810368DB0928BFAF
:1001B00041F08001632900F0B483732900F0B98312
:1001C000E32900F0C483002070471FB500F07AFCDB
:1001D00004000020002105F0E1FA401C60601FBD12
:1001E00010B510BD00F048FC1146FFF7EEFF04F01B
:1001F000A5F800F06BFC03B4FFF7F2FF03BC00F0BE
:10020000AFFC00000948804709480047FEE7FEE7C9
:10021000FEE7FEE7FEE7FEE7FEE7FEE7FEE7FEE7B6
:1002200004480549054A064B70470000293E00086E
:10023000ED000008484200204848002048440020C3
:10024000484400200FB41CB5074B06AA7B446946FE
:100250000090059800F043FB0020694600F052FB37
:100260001CBC5DF814FB0000B506000070B5044628
:1002700085690068C10601D5302600E02026C00748
:1002800007D070BDD4E9012130469047206A401C58
:1002900020626D1EF6D570BD70B504468569007884
:1002A000C00707D170BDD4E9012120209047206A02
:1002B000401C20626D1EF6D570BD09684A0501D547
:1002C00040B27047C905FCD500B2704709684A05BD
:1002D00001D5C0B27047C905FCD580B2704770B572
:1002E0000C460546012A05D02878800600D5EA6923
:1002F000002302E0012305E05B1C934202D2E05C94
:100300000028F9D1A869E618C01AA861286A18441B
:1003100028622846FFF7AAFF04E0D5E9012114F876
:10032000010B9047B442F8D32846FFF7B5FF70BDE4
:100330002DE9F0410646002410687529314616A5BE
:1003400010D0FFF7BAFF002802DA404213A507E0F9
:1003500031688A0701D512A502E0490704D511A525
:10036000012401E0FFF7B2FF00210A2206F1240771
:1003700009E0B0FBF2FCB0FBF2F302FB1C003030F2
:1003800078541846491C0028F3D123462A463046A3
:10039000BDE8F04100F044BA000000002D0000006C
:1003A0002B000000200000002DE9FF5F15468A4663
:1003B0000446DFF8AC80F8440027D8E900103E4638
:1003C000CDE9001010E03AF816106A4602A800F0D5
:1003D000CAFA411C07D02178890603D5E269391889
:1003E00091420DD80744761C2078800602D5E0693A
:1003F000B84205DDAE42E6DB3AF816000028E2D14D
:10040000A069C01BA0612046FFF730FFD8E90010AB
:10041000CDE90010002017E03AF818106A4602A84B
:1004200000F0A1FAB0F1FF3F81460BD000250DF19D
:10043000080B05E0D4E901211BF8050090476D1C6D
:100440004D45F7D308F10100B0428046E4DB206A55
:10045000384420622046FFF71FFFBDE8FF9F0000E1
:10046000CE60000070B5044621461068FFF72EFFED
:10047000002104F1240505E000F007023032C00835
:100480006A54491C0028F7D12068002308A20507F8
:1004900008D500F02000084304D0E069012305A23C
:1004A000401EE0612046BDE8704000F0B9B9000090
:1004B000000000003000000070B504460D462146E3
:1004C0001068FFF703FF2188090502D50F4A7A4417
:1004D00002E00E4A7A440E32002104F1240305E0C2
:1004E00000F00F060009965D5E54491C0028F7D104
:1004F00020780023000704D5702D02D009B1022313
:1005000011322046BDE8704000F08AB9BE5F00009D
:100510002DE9F05F894604464FF0000ADFF874B118
:10052000FB44C0F820A02046E1688847002874D02A
:10053000252806D0D4E901219047206A401C20627A
:10054000F1E700265F462046E168884720280546F7
:1005500007DB312D05D2781910F8200C08B10643BD
:10056000F1E7B00701D526F00406C4F81CA0002767
:10057000C4F818A02A2D09D0284605F0E1F838B3B0
:1005800004EB8708303DC8F8185019E059F8041BEF
:10059000204604EB87029161E1688847012F0546F8
:1005A00018D1E069002820DA26F020061DE0D8F8EE
:1005B000180000EB800005EB40003038C8F8180048
:1005C0002046E1688847054605F0BAF80028EED1D4
:1005D000012F0AD02E2D08D12046E16888477F1CC4
:1005E0000546022F46F02006C4DBA069002803DA86
:1005F000404246F00106A061F00701D026F0100647
:100600006C2D0BD0682D09D04C2D39D06A2D35D0EA
:10061000742D35D07A2D33D016E038E0E1682F46BE
:1006200020468847B842054609D16C2F26D04FF4A2
:100630008060E168064320468847054604E06C2F49
:100640001AD04FF4807006430DB3A5F1410019286C
:1006500002D8203546F400664A46294620462660E0
:100660004E46FFF793FD80B101280BD0F61D26F012
:10067000070000F1080956E74020E4E78020D8E7AA
:100680000020D6E706F104094DE7284652E7206A24
:10069000BDE8F09F945F000010B5431C02E010F825
:1006A000011B71B18107FAD14FF0013202C88C1AD7
:1006B0008C4314EAC211F9D0C01A0A0603D0C01E36
:1006C00010BDC01A10BD0A0401D0801E10BD090261
:1006D000FCD0401E10BD032A40F2308010F0030C05
:1006E00000F0158011F8013BBCF1020F624498BF85
:1006F00011F801CB00F8013B38BF11F8013BA2F122
:10070000040298BF00F801CB38BF00F8013B11F09C
:10071000030300F04C81083AC0F0088051F8043B14
:10072000083A51F804CBA0E80810F5E7121D5CBFA9
:1007300051F8043B40F8043BAFF30080D20724BFDC
:1007400011F8013B11F801CB48BF11F8012B24BF70
:1007500000F8013B00F801CB48BF00F8012B7047BF
:100760004FF0000200B5134694469646203922BF4A
:10077000A0E80C50A0E80C50B1F12001BFF4F7AF95
:10078000090728BFA0E80C5048BF0CC05DF804EB77
:10079000890028BF40F8042B08BF704748BF20F8E5
:1007A000022B11F0804F18BF00F8012B704710B5D5
:1007B000044610F0030F08BF11F0030F40F015803E
:1007C0004FF0013E121FC0F20E8051F8043BA3EB24
:1007D0000E0C2CEA030C1CEACE1C08BF40F8043BAC
:1007E000F0D0A1F1040102F10402521E08DB11F85D
:1007F000013B00F8013B002BF7D1114600F009F94D
:10080000204610BD70477047704710B500F02CF9B6
:10081000006810BD10B5044600F026F9046010BD54
:100820002DE9F0470D4699469246044600F124080A
:100830000168880604D5E06921F01001216000E01C
:100840000120A84201DD471B00E00027A1697A19B9
:1008500002EB0900081AA0612078C00602D42046E5
:10086000FFF704FD002608E0D4E901211AF806008C
:100870009047206A401C761C20624E45F4DB2078AD
:10088000C0060AD52046FFF7F1FC06E0D4E90121B5
:1008900030209047206A401C2062381EA7F10107D3
:1008A000F4DC07E0D4E9012118F805009047206A3C
:1008B000401C2062281EA5F10105F3DC2046FFF74D
:1008C000EBFC2078000602D50220BDE8F08701206D
:1008D000FBE7000001694A1C02610878704700B517
:1008E0008FB0CDE901310021059105497944CDE969
:1008F000031011466846FFF70BFE0FB000BD000065
:10090000E5FFFFFF0A6802F8010B0A60704710B5A7
:10091000436913B1AFF3008001E0FFF7E0FC012071
:1009200010BD127800F124010A7000224A700122E1
:10093000EDE711684FF0FF32E9E710B5436913B1F5
:10094000AFF3008001E0FFF72FFD012010BD1288FA
:1009500000F1240182840022C2840122EDE71168A3
:100960004FF0FF32E9E72DE9F04116460C46054607
:1009700000F072F8036893F80101012807D0FF2CFA
:1009800012D8185D80B101202C70BDE8F081D3F839
:1009900007013246214603F20713C7182846BC4612
:1009A000BDE8F041002360474FF0FF30EDE710B5A0
:1009B000203AC0F00B80B1E81850A0E81850B1E818
:1009C0001850A0E81850203ABFF4F5AF5FEA027C57
:1009D00024BFB1E81850A0E8185044BF18C918C087
:1009E000BDE810405FEA827C24BF51F8043B40F828
:1009F000043B08BF7047D20728BF31F8023B48BF0D
:100A000011F8012B28BF20F8023B48BF00F8012B4A
:100A100070474FF000020429C0F0128010F0030C60
:100A20003FF4A0AECCF1040CBCF1020F18BF00F8EB
:100A3000012BA8BF20F8022BA1EB0C01FFF792BEFF
:100A40005FEAC17C24BF00F8012B00F8012B48BFEE
:100A500000F8012B7047000010B500F033F8001DBE
:100A600010BD00BF394D000000487047180000203D
:100A700000487047180000207546FFF7F9FFAE46A2
:100A800005006946534620F00700854618B020B59A
:100A9000FFF7C6FBBDE820404FF000064FF000070F
:100AA0004FF000084FF0000BAC46ACE8C009ACE8D2
:100AB000C009ACE8C009ACE8C00921F007018D46C7
:100AC00070470000004870473800002010B5044609
:100AD000AFF300802046BDE81040FFF78CBB00005C
:100AE0004FF0013C50F8042B51F8043B9A4221D1BD
:100AF000A2EB0C03934313EACC1317D150F8042B49
:100B000051F8043B9A4215D1A2EB0C03934313EA2C
:100B1000CC130BD150F8042B51F8043B9A4209D165
:100B2000A2EB0C03934313EACC13DBD04FF000008D
:100B3000704700BFD01A01BAB1FA81F101F0180173
:100B400022FA01F0CB40DBB2C0B2C01AC1F12001E1
:100B50002CFA01F3D11A914311EAC311E6D170477F
:100B600001491820ABBEFEE72600020070470000D6
:100B700044F22820C2F200000068704744F22820A6
:100B8000C2F20000808870472DE9F04F91B04EF21C
:100B9000000BC0F27F0B05A95846102203F09EFA05
:100BA0000BF5805801A94046102203F097FA9DF8F2
:100BB00014109DF815209DF816309DF817701144FB
:100BC00019449DF8182039449DF8193011449DF8B6
:100BD0001A2019449DF81B3011449DF81C2019441B
:100BE0009DF81D3011449DF81E2019449DF81F30BA
:100BF000089811441944884208D10598584505D8E9
:100C00006FF31F3010B9079802E000BF4FF0FF30BC
:100C10009DF804209DF805309DF806709DF807604A
:100C20001A443A449DF8083032449DF809701A4439
:100C30009DF80A303A449DF80B701A449DF80C3028
:100C40003A449DF80D701A449DF80E303A449DF8D0
:100C50000F7004991A443A4491420BD101995945B5
:100C600008D86FF31F3129B90399B0F1FF3F06DDB2
:100C700046E000BF4FF0FF31B0F1FF3F40DC0029FC
:100C80003ED544F22829C2F20009002701200DF1C7
:100C900042040DF1400A0DF126060025C9F8007046
:100CA000A9F8040003E000BF07445F4536D2384688
:100CB0002146022203F012FA9DF842009DF84310EB
:100CC000FF2808BFFF2929D0AA284FF4805008BF69
:100CD0005529E9D147F002005146022203F0FEF9FE
:100CE000BDF84000ADB2A84288BF0546384631463F
:100CF0001A2203F0F3F9304600F0B6FB0003D3E705
:100D000088423DDC81423BDD44F22820C2F20000F3
:100D100001AF8ECF8EC011B0BDE8F08F0122C9F8AF
:100D20000820FAB2C7F3072302EB1762681CC7F367
:100D300007461A4481B2A9F80400C0B2324499F8B7
:100D40000650104499F8074000EB11202844204435
:100D50000130C9F80C005846C9F8007003F0F2F9E8
:100D600058464946102203F073FA404603F0EAF968
:100D700040464946102203F06BFA11B0BDE8F08FEF
:100D800044F22820C2F2000005AF8ECF8EC011B011
:100D9000BDE8F08F2DE9F04744F22824C2F20004A8
:100DA000A268C3B20132D6B2A260C2F30727C2F36F
:100DB000074506EB12621A443A44C0F3072A2A4454
:100DC000C0F3074C5244624420605FFA81FE02EB9C
:100DD000106094F80680704494F8079000EB11209E
:100DE00040444EF200054844C0F27F05E0602846CA
:100DF000A18003F0A7F928462146102203F028FA23
:100E000005F58055284603F09DF928462146102215
:100E1000BDE8F04703F01CBA2DE9F04F91B0FFF7A1
:100E2000A7FE002800F0B48004460AA843F2282553
:100E300000F1040901264FF0000A0DF14207C2F249
:100E400000054FF0000B019405E000BF0AF5805A41
:100E5000A24580F0A08050463946022203F03EF9B8
:100E60009DF84200AA28F1D19DF843005528EDD104
:100E700050460AA91A2203F031F9BDF83C0041F2AC
:100E8000190101EB001499E88F000DF1100CBDF869
:100E900028808CE88F00B9F81400DA45ADF82400FA
:100EA000CDE9024622D1BDF82A00B1B288425ED017
:100EB000504629464FF4805203F010F9039804AFCE
:100EC00068808FCF05F1040C8CE80F00BDF824007A
:100ED000A5F80080288350466F6103F033F950462F
:100EE00029464FF4805203F0B3F940E050462946BA
:100EF0004FF48052240B03F0F1F804AF8FCF05F1CB
:100F0000040C8CE80F00BDF82400A5F800802883AD
:100F100058466E806F6103F015F9584629464FF424
:100F2000805203F095F9504603F00CF9012C1ED0C5
:100F300020460AF580540BF5805647422046294644
:100F40004FF4805203F0CAF8304603F0FBF8304605
:100F500029464FF4805203F07BF9204603F0F2F863
:100F6000013704F58054781C06F58056E6D14FF21F
:100F700000000299C0F21F00039E0840019C8244B9
:100F8000834401360DF14207A245FFF464AF02E04D
:100F90004FF0000B0126B1B25846FFF7FBFE11B02F
:100FA000BDE8F08F2DE9F04788B00546FFF7E0FD7A
:100FB00078B34FF2000A064600240DF11E070DF12A
:100FC000040841F21909C0F21F0A03E004F5805435
:100FD000B4421ED220463946022203F07FF89DF823
:100FE0001E00AA28F2D19DF81F005528EED12046F8
:100FF00041461A2203F072F8BDF80600A8420DD04F
:10100000BDF8180009EB001000EA0A000444B442DD
:10101000E0D3002008B0BDE8F08700BF01A920465A
:101020001A2203F05BF8BDF8180041F2190101EB38
:101030000010050B204603F085F8013D04F58054AF
:10104000F8D1FFF7E9FE012008B0BDE8F087000005
:101050002DE9F04F87B088460546FFF789FD70B34C
:101060004FF2000B064600270DF11A04E94641F243
:10107000190AC0F21F0B03E007F58057B7421ED2D2
:1010800038462146022203F029F89DF81A00AA28C2
:10109000F2D19DF81B005528EED1384649461A2258
:1010A00003F01CF8BDF80200A8420DD0BDF81400F2
:1010B0000AEB001000EA0B000744B742E0D300201F
:1010C00007B0BDE8F08F00BFC8F80070012007B07E
:1010D000BDE8F08F80B5FFF757FD40F27800C2F20F
:1010E00000000021416080BD40F27800C2F20000A3
:1010F000406870472DE9F04F93B0FFF739FD0028A5
:1011000070D04FF2000B04460026C0F21F0B08AD52
:10111000E84641F21909002703E000BF0744A7424F
:101120001CD238462946022202F0D8FF9DF8200042
:10113000AA284FF48050F1D19DF821105529EDD106
:10114000384641461A22013602F0C8FFBDF81400A5
:1011500009EB001000EA0B00E0E700BFB2B246F274
:1011600059510FAEC0F600013046FFF76BF830461C
:1011700002F05CFE002C41D005F1040800270DF1BF
:101180003A0A6E4641F2190903E000BF0744A7423C
:1011900034D238465146022202F0A0FF9DF83A00B0
:1011A000AA284FF48050F1D19DF83B105529EDD17C
:1011B000384629461A2202F091FFBDF8222046F255
:1011C00050513046C0F600014346FFF73BF8304629
:1011D00002F02CFEBDF8340009EB001000EA0B0011
:1011E000D4E700BF46F259510FACC0F600012046CB
:1011F0000022FFF727F8204602F018FE46F24E5074
:10120000C0F6000002F012FE13B0BDE8F08F00003F
:101210002DE9F04F93B0FFF7ABFC002870D04FF2F0
:10122000000B04460026C0F21F0B08ADE84641F251
:101230001909002703E000BF0744A7421CD2384623
:101240002946022202F04AFF9DF82000AA284FF406
:101250008050F1D19DF821105529EDD138464146F5
:101260001A22013602F03AFFBDF8140009EB001013
:1012700000EA0B00E0E700BFB2B246F261510FAEE8
:10128000C0F600013046FEF7DDFF304602F0CEFD2D
:10129000002C41D005F1040800270DF13A0A6E46F2
:1012A00041F2190903E000BF0744A74234D238468F
:1012B0005146022202F012FF9DF83A00AA284FF48C
:1012C0008050F1D19DF83B105529EDD13846294683
:1012D0001A2202F003FFBDF8222046F25051304698
:1012E000C0F600014346FEF7ADFF304602F09EFD1A
:1012F000BDF8340009EB001000EA0B00D4E700BF92
:1013000046F261510FACC0F6000120460022FEF704
:1013100099FF204602F08AFD46F24E50C0F60000CA
:1013200002F084FD13B0BDE8F08F00002DE9F04F0E
:1013300089B040F2AC18C2F200088B4641461A222E
:10134000064602F0CBFE98F80000AA2853D198F880
:10135000010055284FD105AD284603F0B1FD2846C0
:1013600002F02EFC584604F0A3F9584602F0F8FCAF
:10137000B8F8140090B31A3600270DF1040906E0FE
:10138000B8F814000137874206F1100626D200F0A3
:10139000BDFA824630464946102202F09FFEBDF952
:1013A0000800BDF91240BDF90A10BDF90C20BDF9C5
:1013B0000E30BDF910508BE82F005846CBF8144082
:1013C00002F0CEFC00F0A2FA0199A0EB0A008142E3
:1013D000D6D9081A00F06AF9D2E700BF05AD284651
:1013E00003F06EFD284602F0EBFB584604F060F96E
:1013F000584602F0B5FC09B0BDE8F08F2DE9F04188
:1014000040F27804C2F200046168002908BFBDE818
:10141000F081618840F2EE22914203D3BDE8F041B1
:1014200000F06AB8618840F24438C2F2000808EB64
:1014300001120E0190E8AA00D3809180D0E9041037
:10144000158157819181D08100F060FA2169206176
:10145000411A48F80610608801306080A06808448E
:10146000A060BDE8F0810000808A41F2190101EB23
:101470000010000B70470000F0B581B040F2780515
:10148000C2F200056A681AB14FF0FF3001B0F0BD3A
:1014900041F6FF7704460E46CFF68077FFF768FBEC
:1014A000C11901F54051B94208D2FFF7B5FCFFF769
:1014B0005FFB391801F54051B942E5D3E860FFF709
:1014C0005DFB28800027284640F8147F32462146DD
:1014D000C5E906772F620F2E28BF0F22FFF7FBF812
:1014E0006F80AF6000F012FA0146296101210020EF
:1014F000696001B0F0BD00002DE9F04188B040F214
:101500007806C2F200067068002840D00025756099
:10151000748841F219004FF2000100EB0410C0F290
:101520001F014FEA041800EA010700BFF0682844D1
:1015300002F008FE05F58055AF42F7D1318845F23B
:10154000AA500DF10605ADF80600ADF80810281DEB
:1015500006F114011022FFF72AF9ADF81A40B1681C
:10156000F068079129461A2202F072FE44B1F06831
:1015700040F244311A30C2F20001424602F068FEE5
:101580003188F0680131384489B2FFF703FC08B0B4
:10159000BDE8F081FEE7000070470000012000F088
:1015A0009BB800004FF4807000F096B8014690F8A8
:1015B0002100022816D10868D1E90FC3026822F081
:1015C0000E020260026822F001020260012000FAAD
:1015D00003F2CCF8042081F821000020002281F8D9
:1015E00020207047042088630120002281F82020F9
:1015F0007047000090F82110022923D1026840F2C0
:10160000040C1168C4F2020C21F00E011160136881
:101610002F21C4F202018A4223F00103136015DD79
:101620003023C4F202039A421CD04423C4F20203C2
:101630009A421BD05823C4F202039A421CD14FF4A1
:10164000803321E004218163012070470823C4F224
:1016500002039A420ED01C23C4F202039A420BD119
:10166000102311E04FF480730EE000BF4FF480535D
:101670000AE000BF012307E00CF168014FF080731E
:101680008A4208BF4FF480130121CCF8003080F863
:101690002110416B0022002980F8202004BF002087
:1016A000704780B58847002080BD0000B0B5044673
:1016B00000F02CF9054640F20000C2F2000000786C
:1016C000611C18BF044400BF00F020F9401BA04279
:1016D000FAD3B0BD7047000040F21441C4F20101DA
:1016E0000A68024214BF08607047FFF7F3BF0000AA
:1016F0002DE9F04F82B00E68002E00F0FD8041F21F
:101700000042C4F20102042340F2004E904208BF9E
:1017100003234FF6FF7CC4F2010E00930024012343
:10172000C1F2100C4FF0000A4FF000094BE000BF6F
:1017300041F20002C4F20102009F904208BF02275A
:1017400004F00C030F229A402BEA020207FA03F37B
:101750004FEA9A051A4346F825204E6840F20C4598
:10176000F202DEF8082054BF22EA080242EA080228
:10177000C4F20105CEF808202A68B30254BF22EA59
:10178000080242EA08022A60B303DEF8042054BFCC
:1017900022EA080242EA0802F303CEF80420DEF847
:1017A00000204FF0010354BF22EA080242EA080277
:1017B000CEF800200E680AF1010A36FA0AF204F1A6
:1017C000040400F0998003FA0AFB16EA0B08F1D032
:1017D0004E68664512DC122E56D8DFE806F0350B4F
:1017E0004D495555555555555555555555555545CD
:1017F000510000BFD1F80C9046E000BF4FF6FF72D9
:10180000C1F2210296420FDC0022C1F2110296427F
:101810001AD00022C1F21202964215D00022C1F263
:101820002102964210D02FE00022C1F222029642FD
:101830000AD00022C1F23102964205D00022C1F244
:101840003202964220D100BF8A684AB1012A14BFF1
:10185000C0F814B0C0F810B04FF0080914E000BF91
:101860004FF0040910E000BFCA6802F104090BE060
:101870004FF0000908E000BFCA6802F1080903E060
:10188000CA6802F10C0900BF02462646B8F5807FFF
:1018900024BF0432203E17680F25B54027EA05050E
:1018A00009FA06F635431560CA79D2067FF582AF8C
:1018B00041F21803C4F202031A68AEF57E7642F0D4
:1018C00001021A601A6802F001020192019A2AF0DC
:1018D000030256F802B040F60002C4F20102904240
:1018E00008D040F60042C4F2010290427FF420AFDB
:1018F000012725E7002723E702B0BDE8F08F0000AD
:10190000002A08BF090401617047000044F23C202E
:10191000C2F200000068704740F2000044F23C212F
:10192000C2F20000C2F2000100780A6810440860A8
:101930007047000080B542F20000C4F20200016866
:1019400041F010010160032000F08CF80F2000F03E
:1019500005F800F027F8002080BD000070B540F2C7
:101960000006C2F2000640F208013278C2F200011D
:101970004FF47A730968B3FBF2F20446B1FBF2F15B
:10198000084600F081FF0F2C4FF0010508D838B948
:101990004FF0FF3021460022002500F037F8746038
:1019A000284670BD82B041F21800C4F202000168FE
:1019B000022241F001010160016801F00101019181
:1019C0000199416841F080514160406800F08050C9
:1019D000009000980420C4F20100016862F31A61CB
:1019E000016002B070470000002848BF704700F057
:1019F0001F01012202FA01F11C2202EAD0004EF27C
:101A00000012CEF2000281507047000010B54EF671
:101A10000C5CCEF2000CDCF80030C3F3022E8EF02A
:101A20000704042C28BF0424BEF103034FF0FF3E3B
:101A30000EFA04F438BF0023A14399400EFA03F3D1
:101A40009A43114300F00F0200F160430901043A88
:101A500003F564436244002848BF02F10C03197087
:101A600010BD00004EF60C51CEF200010A684FF690
:101A7000FF031A4060F30A2242F0806040F0FD70DC
:101A800008607047002804BF012070472DE9F0432B
:101A900081B042F20008C4F202080446D8F80000FF
:101AA0000D4600F0070088420CD2D8F8000020F064
:101AB00007002843C8F80000D8F8000000F007002D
:101AC000A8426CD1206841F204098107C4F20209DE
:101AD00017D5410705D5D9F8001041F4E061C9F8E0
:101AE0000010010705D5D9F8001041F46051C9F87C
:101AF0000010D9F80010A26821F0F0011143C9F8D4
:101B00000010C00742D1D8F8000000F00700A8423A
:101B10000CD9D8F8000020F007002843C8F80000CE
:101B2000D8F8000000F00700A84238D1206841072B
:101B300007D5D9F80010E26821F4E0611143C9F833
:101B40000010000708D5D9F80000216920F4605082
:101B500040EAC100C9F80000D9F8002002F00C00EA
:101B6000082841F20020C0F27A004DD146F2F2433B
:101B7000C2F38341C0F60003595CD20338D440F667
:101B80000010C0F23D0048433EE000BF606859F8D5
:101B9000041C022808D0012826D1890306D401207C
:101BA00001B0BDE8F08300BF8901F8D5D9F8001075
:101BB00021F003010843C9F80000FFF7A7FE06461D
:101BC00041F28837D9F80000616800F00C00B0EBF2
:101BD000810F98D0FFF79AFE801BB842F2D90320FC
:101BE00001B0BDE8F08300BF8907D8D5DEE700BFAC
:101BF000D9F8002046F2F043C2F34042C0F6000399
:101C00009A5C4843B0FBF2F0D9F8001046F2D84293
:101C1000C1F30311C0F60002515C40F2080220FA41
:101C200001F140F20400C2F200000068C2F20002BA
:101C30001160FFF793FE002001B0BDE8F0830000C3
:101C400040F2080041F20401C2F20000C4F20201B5
:101C50000068096846F2E842C1F30221C0F60002BA
:101C6000515CC8407047000040F2080041F2040196
:101C7000C2F20000C4F202010068096846F2E842BC
:101C8000C1F3C221C0F60002515CC8407047000099
:101C9000002804BF012070472DE9F04182B00446BE
:101CA000007841F20006C007C4F202060CD070684A
:101CB00000F00C00042840F081803068800303D5D8
:101CC0006068002800F04681207880071BD5706886
:101CD00010F00C0F09D0706800F00C00082840F0DC
:101CE00087807068C00300F183803068800703D567
:101CF0002069012840F02E813068616920F0F800E9
:101D000040EAC10030602078000713D420784007F3
:101D10002CD4E569002D00F01881706800F00C00EB
:101D2000082840F0A780012D40F00481012002B076
:101D3000BDE8F081A069002800F084800020C4F292
:101D400042200121C0F88014FFF7E0FD054600BFE6
:101D5000706A800700F1B280FFF7D8FD401B0228AF
:101D6000F6D9032002B0BDE8F08100BFF0695FEA58
:101D7000C00808D4F06940F08050F061F06900F0CC
:101D800080500090009847F20007C4F200073868BE
:101D9000C00549D4386840F480703860FFF7B6FD5C
:101DA000054600BF3868C0053ED4FFF7AFFD401BB5
:101DB0006428F7D9032002B0BDE8F081706800F014
:101DC0000C00082803D17068C0033FF576AF616846
:101DD0003068002900F00C81B1F5A02F00F00081DF
:101DE000B1F5803F40F01A8140F480301CE100BF23
:101DF0002069002840F20000C4F2422000F08880F0
:101E000001210160FFF782FD054600BF30688007B1
:101E10003FF572AFFFF77AFD401B0228F6D9032089
:101E200002B0BDE8F08100BFE168306A002900F02F
:101E30009D80052900F09280012940F0AF8040F09C
:101E40000100B1E00020C4F242200021C0F880145B
:101E5000FFF75CFD054600BF706A80077FF556AF4F
:101E6000FFF754FD401B0228F6D9032002B0BDE85D
:101E7000F08100BF0027C4F2422700203866FFF738
:101E800045FD022D05460DD13068800140F1DE8010
:101E9000FFF73CFD401B02284FF00300F4D902B0CD
:101EA000BDE8F081306880014FD5FFF72FFD401B62
:101EB00002284FF00300F5D9F1E700BF40F2080017
:101EC000C2F20000006844F6D351C1F26201A0FBE7
:101ED0000101480A019000BF00BF0198411E00287F
:101EE00001913FF413AF00BF0198411E00280191FA
:101EF0003FF40CAF00BF0198411E002801913FF450
:101F000005AF00BF0198411E00280191E4D1FDE614
:101F100000210160FFF7FAFC054600BF306880072A
:101F20007FF5F1AEFFF7F2FC401B02284FF00300F3
:101F3000F4D9B4E77068216A00F480328A4209D18A
:101F4000616A00F47010884204D1002002B0BDE83C
:101F5000F08100BF012002B0BDE8F08140F0040034
:101F60003062306A40F001001EE000BF20F0010046
:101F70003062306A20F004003062FFF7C7FC05468B
:101F800041F28837306A800720D5FFF7BFFC401B3D
:101F9000B8424FF00300F5D981E700BF20F00100FF
:101FA0003062306A20F004003062FFF7AFFC054673
:101FB00041F28837306A800708D4FFF7A7FC401B3E
:101FC000B842F7D9032002B0BDE8F081B8F1000FA4
:101FD0003FF59FAEF06920F08050F06199E600BFB8
:101FE00040F480203060306840F480301CE000BF56
:101FF00020F480303060306820F480203060FFF7BB
:1020000085FC0546306880037FF55EAEFFF77EFCF9
:10201000401B64284FF00300F4D940E720F48030DF
:102020003060306820F480203060FFF76FFC054698
:10203000306880033FF548AEFFF768FC401B64281A
:10204000F6D9032002B0BDE8F08100BF206AB0F5E8
:10205000803F05D17168A26821F40031114371609D
:102060007168626A21F474111143084370600120A1
:102070003866FFF74BFC0446306880013FF565AFDA
:10208000FFF744FC001B02284FF00300F4D906E7D9
:1020900070B528B1416A29B100210161142106E01F
:1020A000012070BD4168B1F5827F02D01C21002261
:1020B00042500026866290F8511029B980F850608D
:1020C000054600F039F82846022180F8511090E8C2
:1020D0002E0002F482720C6803F4044324F04004DE
:1020E0000C601A4405F4006305691A4405F0020304
:1020F00045691A4405F001038569C4691A4405F469
:1021000000731A4404F03803046A1A4404F080038C
:10211000846A1A4304F400531A430A60042202EA50
:1021200015424A60CA6922F40062CA61012146650B
:1021300080F85110304670BD70B586B040F600444E
:10214000C4F201040068A4F55441002688420596B3
:10215000CDE90366029601D006B070BD41F21800C9
:10216000C4F20200416802AD41F48041416041681F
:1021700001F4804101910199016841F00801016079
:102180000068294600F00800019001984FF42040B3
:10219000029002200390032005902046FFF7A8FA42
:1021A0004FF48040CDE90206204629460496FFF709
:1021B0009FFA06B070BD00002DE9F04182B00446E0
:1021C00090F85100012819D160681D4617460E4647
:1021D000B0F5827F01D1A068A0B1FFF797FB8046E0
:1021E000002E4FF0010018BF002F03D102B0BDE850
:1021F000F08100BF94F85000012811D1022002B0F4
:10220000BDE8F081042084F8510020463146324672
:102210003B46009500F0CEF902B0BDE8F08100BF6A
:10222000012084F850000420002184F851006165E9
:10223000A663A787E7872163A186E186A268206855
:10224000B2F5004F2164616438D00168490640D579
:10225000E168E08F002944D000287BD0681C0CD1B5
:102260001BE000BFC068A16B21F8020BA163E08FE7
:102270000138E087E08F00286CD020688168C907AA
:10228000F0D1FFF743FBA0EB0800A842F2D342E0F5
:10229000FFF73CFBE08F00285CD020688168C9070D
:1022A000F6D0C068A16B21F8020BA163E08F013862
:1022B000E087E08F0028F0D14CE000BF016821F0FA
:1022C00040010160016821F4804101600168490614
:1022D000BED4016841F040010160E168E08F00294F
:1022E000BAD1B8B3681C0CD124E000BF007BA16B4D
:1022F0000870A06B0130A063E08F0138E087E08FA9
:1023000040B320688168C907F0D1FFF7FFFAA0EB5E
:102310000800A842F3D3012084F85100002084F87B
:102320005000032002B0BDE8F08100BFFFF7EEFAD5
:10233000E08F78B120688168C907F7D0007BA16B76
:102340000870A06B0130A063E08F0138E087E08F58
:102350000028EFD16068B0F5827F11D1A068B0F598
:10236000004F02D0B0F5806F0AD12168B0F5806FC0
:102370000A6822F040020A6002D12046012101E0F1
:102380002046802100222B46CDF8008001F056FC2B
:1023900028B1606D40F0200060652020606501205C
:1023A00084F85100002084F85000606D002818BFA8
:1023B000012002B0BDE8F0812DE9F04182B01D4658
:1023C00016460F460446FFF7A1FA94F8511001296A
:1023D0000ED18046002F4FF0010018BF002E03D110
:1023E00002B0BDE8F08100BF94F85000012803D18D
:1023F000022002B0BDE8F081012084F850000320E3
:10240000002184F8510061652763A686E686A163F2
:10241000A187E187A0682164B0F5004F206861645E
:1024200007D1016821F040010160016841F4804159
:1024300001600168490603D4016841F04001016070
:102440006168731EE268B1FA81F1B3FA83F3490956
:102450005B09B2F5006F41EA030139D131B137F8B8
:10246000021BC1602763E08E0138E086E08E002801
:1024700070D0681C0BD11AE0216B31F8022BC260BE
:102480002163E08E0138E086E08E002862D020686B
:1024900081688907F0D4FFF739FAA0EB0800A84259
:1024A000F2D338E0FFF732FAE08E002852D02068ED
:1024B00081688907F6D5216B31F8022BC260216350
:1024C000E08E0138E086E08E0028F0D142E000BFC7
:1024D00039B139780173206B01302063E08E013807
:1024E000E086E08EB0B3681C0BD123E0216B097845
:1024F0000173206B01302063E08E0138E086E08EAE
:1025000040B3206881688907F0D4FFF7FFF9A0EB9A
:102510000800A842F3D3012084F85100002084F879
:102520005000032002B0BDE8F08100BFFFF7EEF9D4
:10253000E08E78B1206881688907F7D5216B09782A
:102540000173206B01302063E08E0138E086E08E5D
:102550000028EFD12046022101222B46CDF8008031
:1025600001F06CFB40B92046802100222B46CDF8BB
:10257000008001F063FB28B1606D40F020006065D1
:1025800020206065A06838B9002001902068C168EB
:102590000191806801900198012084F85100002089
:1025A00084F85000606D002818BF012002B0BDE81B
:1025B000F08100002DE9F04383B01E4615460F461A
:1025C0000446FFF7A3F994F851108146012909D177
:1025D000002F4FF0010018BF002D0FD103B0BDE850
:1025E000F08300BF6068B0F5827F0DD104294FF001
:1025F0000200F3D1A1680029EAD0EFE7002EEDD068
:1026000094F85000012803D1022003B0BDE8F08304
:10261000012084F8500094F85100002104281CBFC8
:10262000052084F851006165A563E687A6872763C6
:10263000E6862068A686216461640168490603D4A1
:10264000016841F0400101606168731EE268B1FAFF
:1026500081F1B3FA83F3DDF8288049095B09B2F50B
:10266000006F41EA030165D131B137F8021BC16047
:102670002763E08E0138E086012518F1010032D190
:1026800002E000BFFFF742F9E08E18B9E08F0028A2
:1026900000F0B8802068816889070CD5E18E51B1BF
:1026A000012D08D1216B002531F8022BC260216376
:1026B000E18E0139E1868168C907E3D0E18F002905
:1026C000E0D0C068A16B012521F8020BA163E08F67
:1026D0000138E087D6E700BFFFF718F9A0EB090043
:1026E000404580F0AF80E08E18B9E08F002800F000
:1026F00089802068816889070CD5E18E51B1012D50
:1027000008D1216B002531F8022BC2602163E18ED4
:102710000139E1868168C907DED0E18F0029DBD06D
:10272000C068A16B012521F8020BA163E08F01387D
:10273000E087D1E739B139780173206B013020632C
:10274000E08E0138E086012518F1010032D101E068
:10275000FFF7DCF8E08E10B9E08F002852D0206837
:10276000816889070ED5E18E61B1012D0AD1216BF7
:10277000002509780173216B206801312163E18E06
:102780000139E1868168C907E2D0E18F0029DFD0F5
:10279000C068A16B01250870A06B0130A063E08FB9
:1027A0000138E087D4E700BFFFF7B0F8A0EB0900DD
:1027B000404547D2E08E08B9E08F18B320688168A1
:1027C00089070ED5E18E61B1012D0AD1216B00255B
:1027D00009780173216B206801312163E18E013991
:1027E000E1868168C907DFD0E18F0029DCD0C068AD
:1027F000A16B01250870A06B0130A063E08F013848
:10280000E087D1E72046022101224346CDF800901F
:1028100001F014FA40B92046802100224346CDF849
:10282000009001F00BFAB8B1606D40F020006065D7
:1028300020206065002084F85000012003B0BDE82E
:10284000F08300BF012084F85100002084F850007C
:10285000032003B0BDE8F083A06838B900200290DF
:102860002068C1680291806802900298012084F873
:102870005100002084F85000606D002818BF01202E
:1028800003B0BDE8F0830000411E0020B0EB116FE3
:102890001CBF012070474EF21002CEF200025160C0
:1028A0004EF62351CEF20001F0230B700721906009
:1028B0001160704790F83C20012A4FF0020236D098
:1028C00010B580F83D200268D2F804E0D2F808C0C4
:1028D0000C682EF07003234340F2FF74C4F200042E
:1028E000A24253600ADCB2F1804F13D040F20043A1
:1028F000C4F200039A420DD011E000BF42F600433B
:10290000C4F201039A4205D040F60003C4F200036A
:102910009A4204D149682CF0800319439160012147
:10292000002280F83D1080F83C20BDE810401046A1
:1029300070470000002804BF0120704710B590F8D0
:102940003D1031B9002180F83C10044600F070F8C9
:102950002046022180F83D10016840F2FF740B68A8
:10296000C4F2000442F6004CA142C4F2010C15DC92
:10297000B1F1804F1AD040F20042C4F200029142FD
:1029800014D0A14218DCB1F1804F1DD040F20042BA
:10299000C4F20002914217D01AE000BF614505D091
:1029A00040F60002C4F200029142EAD1826823F0AC
:1029B00070031343A142E6DD614505D040F60002F5
:1029C000C4F20002914203D1026923F4407313431D
:1029D000846923F08002D0F804E0C3682243614593
:1029E0000A60CB62C1F828E002D14269CCF83020FD
:1029F00001224A610B69DB0703D00B6923F0010355
:102A00000B6180F8462080F83E2080F83F2080F857
:102A1000402080F8412080F8422080F8432080F850
:102A2000442080F8452080F83D20002010BD0000A3
:102A300083B0006840F60001C4F20001884227D04C
:102A400040F20041C4F20001884211D0B0F1804F41
:102A50002BD141F21C00C4F20200016841F00101D7
:102A60000160006800F001000290029803B0704716
:102A700041F21C00C4F20200016841F00201016051
:102A8000006800F002000190019803B0704700BF99
:102A900041F21C00C4F20200016841F0040101602F
:102AA000006800F004000090009803B07047000038
:102AB00090F83C20012A4FF002026CD080B580F8DB
:102AC0003D20D0F800C04FF67772DCF8083023EADA
:102AD0000202CCF808200B684F2B29DC1F2B45DDA8
:102AE000202B46D0302B44D0402B40F0AF80D1F883
:102AF00004E0C968DCF82030DCF8202022F0010274
:102B0000CCF82020DCF8182022F0F00242EA011173
:102B100023F00A0242EA0E02CCF81810CCF820206A
:102B2000DCF8081041F0470121F0300128E000BF37
:102B30006F2B33DDB3F5005F74D0B3F5805F21D028
:102B4000702B40F08380D1E901E3C968DCF80820EC
:102B500043EA0E0322F47F4243EA01211143CCF8F9
:102B60000810DCF8081041F0770109E00BB1102BD8
:102B70006CD1DCF8081021F07001194341F0070115
:102B8000CCF808100022012180F83D10002180F8C7
:102B90003C10BDE880401046704700BF502B21D04C
:102BA000602B53D1D1F804E0C968DCF82030DCF8A0
:102BB000202022F01002CCF82020DCF8182022F48B
:102BC000704242EA013123F0A00242EA0E12CCF830
:102BD0001810CCF82020DCF8081041F0670121F033
:102BE0001001CDE7D1F804E0C968DCF82030DCF84A
:102BF000202022F00102CCF82020DCF8182022F05E
:102C0000F00242EA011123F00A0242EA0E02CCF875
:102C10001810CCF82020DCF8081041F0570121F002
:102C20002001ADE7D1E901E3C968DCF8082043EAF7
:102C30000E0322F47F4243EA01211143CCF808102D
:102C4000DCF8081041F480419AE700BF01229AE7BE
:102C500031B3042908D0082919BF4FF0450C41238E
:102C60004FF0440C402302E04FF0430C3F23C25C82
:102C700010F80C30012A4FF0010208BF012B5FD180
:102C80000222082922D0042950D180F83F2080F860
:102C900043204FEAB103032B4FF0010220D94FE04C
:102CA00090F83E2090F84230012A4FF0010208BF10
:102CB000012B45D1022280F83E2080F842204FEAC5
:102CC000B103032B4FF001020AD939E080F840200C
:102CD00080F844204FEAB103032B4FF001022FD8B4
:102CE00046F2045C0068C0F6000C5CF823C0C368C0
:102CF00001F01F0143EA0C03C360036A02FA01F109
:102D000023EA01020262026A114340F2FF72C4F236
:102D100000029042016215DCB0F1804F1ED040F2FB
:102D20000041C4F20001884218D01EE080F8412022
:102D300080F845204FEAB103032B4FF00102CFD9B1
:102D40001046704742F60041C4F20101884205D0A6
:102D500040F60001C4F20001884206D1816801F00A
:102D60000701062904BF00207047016841F00101F6
:102D7000016000207047000080B586B0006840F612
:102D80000001C4F2000188424FF00001CDE90411B6
:102D9000CDE9021160D040F20041C4F20001884246
:102DA0002ED0B0F1804F71D141F21800C4F2020070
:102DB000016841F008010160006802A900F0080004
:102DC000019001980820029002200390059040F69F
:102DD0000040C4F20100FEF78BFC0420C4F20100A5
:102DE0004FF2FF320168CFF6FF0202F51062114088
:102DF00041F0E06141F48071016006B080BD00BF28
:102E000041F21800C4F20200016841F008010160BB
:102E1000006802A900F008000190019810200290BB
:102E200002200390059040F60040C4F20100FEF736
:102E30005FFC0420C4F2010001684FF2FF32CFF6BC
:102E4000FF02114001F1E06101F5807101F5E061DF
:102E5000016006B080BD00BF41F21800C4F202005C
:102E6000016841F008010160006802A900F0080053
:102E7000019001984FF47070029002200390059029
:102E800040F60040C4F20100FEF732FC06B080BDFF
:102E900090F83C30012B04BF022070474FEAB20289
:102EA000032A00F2F1802DE9F043DFE802F003A5E8
:102EB0003B7500BF036842F600461D6A1A6AC4F2F9
:102EC000010622F001021A621A465C6852F818CF15
:102ED000B3428E68D1F800E025F0020545EA060508
:102EE0000CD1CE68D1E9057824F4407425F00C05A6
:102EF00026F004063C43354344EA08042CF07307EB
:102F000047EA0E075C609F614F6809695F631D6255
:102F10009F6947F008079F619F6927F004079F6139
:102F2000A6E000BF036842F600461D6A1A6AC4F2B2
:102F3000010622F480721A621A46D3F804C052F8CD
:102F40001CEFB3428E680C6825F4007545EA06252F
:102F50000FD1CE68D1E90598360240F2FF4725F43B
:102F60004065BE4335432CF4405748EA090647EA1A
:102F7000061C2EF073072743C3F804C0DF614F68B7
:102F80000969DF631D62DF6947F00807DF61DF69F8
:102F900027F00407DF616BE0036842F60047D3F8CF
:102FA00020C01A6AC4F2010722F480521A621A463B
:102FB0005C6852F81C5FD1F800E08E68BB4204D117
:102FC0004F6924F4804444EA87142CF4005747EAFC
:102FD000063725F4E64646EA0E265C60DE614E685A
:102FE00009691E641F62DF6947F40067DF61DF69FA
:102FF00027F48067DF613AE0036842F600461D6A05
:103000001A6AC4F2010622F010021A621A46D3F8B4
:1030100004C052F8184FB3428E68D1F800E025F092
:10302000200545EA06150FD1CE68D1E905986FF065
:10303000400725F0C00507EA061635432CF4406723
:1030400048EA090647EA860C24F4E64444EA0E27D7
:10305000C3F804C09F614F6809699F631D629F693F
:1030600047F400679F619F6927F480679F610902A9
:103070001368194311600021BDE8F043002280F875
:103080003C200846704700BF0121002280F83C2008
:1030900008467047002804BF0120704710B590F81B
:1030A0003D1031B9002180F83C10044600F070F862
:1030B0002046022180F83D10016840F2FF740B6841
:1030C000C4F2000442F6004CA142C4F2010C15DC2B
:1030D000B1F1804F1AD040F20042C4F20002914296
:1030E00014D0A14218DCB1F1804F1DD040F2004253
:1030F000C4F20002914217D01AE000BF614505D02A
:1031000040F60002C4F200029142EAD1826823F044
:1031100070031343A142E6DD614505D040F600028D
:10312000C4F20002914203D1026923F440731343B5
:10313000846923F08002D0F804E0C368224361452B
:103140000A60CB62C1F828E002D14269CCF8302095
:1031500001224A610B69DB0703D00B6923F00103ED
:103160000B6180F8462080F83E2080F83F2080F8F0
:10317000402080F8412080F8422080F8432080F8E9
:10318000442080F8452080F83D20002010BD00003C
:1031900070470000C1B1042908D0082914BF41229A
:1031A0004022825C012A05D016E000BF3F22825CEB
:1031B000012A11D10222082910D0042914BF80F855
:1031C000412080F83F200BE090F83E20012A03D1F7
:1031D000022280F83E2003E00120704780F8402062
:1031E000006801F01F010122036A8A4023EA0201FC
:1031F0000162036A42F64441C4F201011A43A1F19B
:103200004403984202620FD040F2FF71C4F2000101
:10321000884213DCB0F1804F1CD040F20041C4F270
:103220000001884216D01CE00A6842F400420A609D
:1032300040F2FF71C4F200018842EBDD42F600412A
:10324000C4F20101884205D040F60001C4F2000139
:10325000884206D1816801F00701062904BF0020D9
:103260007047016841F001010160002070470000D3
:103270007047000070470000B0B582B001680A686E
:10328000CC684B6902F02F05202D04F0200505D1F4
:1032900025B102B0BDE8B04000F0F2BD5FEA027CAB
:1032A0001EBF03F0010E04F4907313EB0E0341D123
:1032B000036BD50618D5012B16D114F0100313D0CB
:1032C000002201920A6801924A680192019A4969B2
:1032D00049064BD4818DC28DC38D002B18BF9142FE
:1032E00040F0F48102B0B0BD13062DD514F0800378
:1032F0002AD090F84120212AF4D18268B2F5805F6B
:1033000003D10269002A00F06782026A531C03623B
:1033100012784A60C28C013A1304C284E2D1C868B0
:1033200020F08000C860C86840F04000C86002B06B
:10333000B0BD00BFD30718BF14F4807340F0D08035
:10334000530700F1D380D8E05206CBD514F04002E9
:10335000C8D0CA6822F04002CA60202180F841101B
:1033600002B0BDE8B04000F025BC00BFC16B0A68E8
:10337000526893B2002BB5D0858DAB42B2D2C285D4
:103380008969202900F0A180016851E8031F0268C3
:1033900021F4807142E80313DBB1016851E8031F97
:1033A000026821F4807142E8031393B1016851E887
:1033B000031F026821F4807142E803134BB10168D6
:1033C00051E8031F026821F4807142E80313002BC7
:1033D000DAD1016851E8051F026821F0010142E8D5
:1033E0000513C3B3016851E8051F026821F001010C
:1033F00042E805137BB3016851E8051F026821F01C
:10340000010142E8051333B3016851E8051F026862
:1034100021F0010142E80513002BDAD11BE000BFC7
:10342000016851E8051F026821F0400142E80513D8
:10343000DBB1016851E8051F026821F0400142E854
:10344000051393B1016851E8051F026821F040019E
:1034500042E805134BB1016851E8051F026821F0ED
:10346000400142E80513002BDAD1202180F84210F8
:1034700000210163016851E8031F026821F0100177
:1034800042E80313DBB1016851E8031F026821F031
:10349000100142E8031393B1016851E8031F026869
:1034A00021F0100142E803134BB1016851E8031FFA
:1034B000026821F0100142E80313002BDAD1C16B3E
:1034C00004460846FEF772F8204602214163818DCA
:1034D000C28D891A89B202B0BDE8B040FFF7C8BEFC
:1034E000436C43F001034364530706D5BEF1000F5C
:1034F00003D0436C43F002034364930706D5BEF147
:10350000000F03D0436C43F004034364BCF1000F8D
:1035100006D55EEA050303D0436C43F00803436419
:10352000436C002B3FF4DEAE920605D525B1044670
:1035300000F0A6FC216820464969426C01F0400178
:1035400002F00802891800F0B98000BF016851E854
:10355000031F026821F4907142E80313BBB30168B2
:1035600051E8031F026821F4907142E8031373B31A
:10357000016851E8031F026821F4907142E80313C7
:103580002BB3016851E8031F026821F4907142E8EF
:103590000313002BDAD11AE0016851E8051F026815
:1035A00021F0010142E80513DBB1016851E8051F74
:1035B000026821F0010142E8051393B1016851E866
:1035C000051F026821F0010142E805134BB10168B3
:1035D00051E8051F026821F0010142E80513002BA4
:1035E000DAD1016B012924D1016851E8031F026877
:1035F00021F0100142E80313DBB1016851E8031F19
:10360000026821F0100142E8031393B1016851E808
:10361000031F026821F0100142E803134BB1016857
:1036200051E8031F026821F0100142E80313002B48
:10363000DAD1202180F84210002101630168496934
:10364000490640F1C380016851E8051F026821F076
:10365000400142E80513DBB1016851E8051F02682B
:1036600021F0400142E8051393B1016851E8051FBC
:10367000026821F0400142E805134BB1016851E8AE
:10368000051F026821F0400142E80513002BDAD142
:10369000C16B002900F09A8043F67562C0F6000203
:1036A000044608464A63FDF7A5FF00283FF41AAE1A
:1036B000E06B416B02B0BDE8B04008470446FFF73D
:1036C000D9FD0020606402B0B0BD00BF891A00BF00
:1036D000026852E8032F036822F4907243E803253E
:1036E000BDB3026852E8032F036822F4907243E8E6
:1036F000032575B3026852E8032F036822F4907221
:1037000043E803252DB3026852E8032F036822F42F
:10371000907243E80325002DDAD11AE0026852E8DE
:10372000052F036822F0010243E80525DDB1026898
:1037300052E8052F036822F0010243E8052595B100
:10374000026852E8052F036822F0010243E80525CC
:103750004DB1026852E8052F036822F0010243E8E8
:103760000525002DDAD1202280F8422000220263B4
:10377000026852E8032F036822F0100243E8032591
:10378000DDB1026852E8032F036822F0100243E81B
:10379000032595B1026852E8032F036822F0100256
:1037A00043E803254DB1026852E8032F036822F075
:1037B000100243E80325002DDAD1022289B24263C8
:1037C00002B0BDE8B040FFF753BD00BF02B0BDE896
:1037D000B040FFF74FBD00BF026A32F8023B6FF303
:1037E0005F234B60026295E5002804BF012070470B
:1037F00010B5044690F8410028B9002084F8400034
:10380000204600F063F8242084F841002068D4E9C1
:103810000212C36823F40053C360036923F44053C6
:103820001A430261D4E904231143C268194341F2E7
:103830000C639A431143C1604169A26921F440714C
:10384000114343F60002C4F201029042416103D0E9
:10385000FEF7F6F902E000BFFEF706FAD4E900230E
:10386000192148439900B0FBF1F048F21F5CC5F202
:10387000EB1CA0FB0C314FF69C734909C0F6FF739B
:1038800001FB0300322303EB0010A0FB0C03F0202C
:1038900000EA531000EB0110C3F343110844906099
:1038A0001069202120F490401061506920F02A0016
:1038B0005061D06840F40050D0600020606484F80B
:1038C000411084F84210606310BD000070B586B0EE
:1038D00040F60044C4F201040068A4F54441002607
:1038E00088420596CDE90366029601D006B070BD08
:1038F00041F21800C4F20200416802AD41F4802197
:103900004160416801F4802101910199016841F011
:10391000080101600068294600F008000190019844
:103920004FF480600290022003900320059020460F
:10393000FDF7DEFE4FF40060CDE902062046294681
:103940000496FDF7D5FE272000210022FEF75EF841
:103950002720FEF749F806B070BD000090F842300D
:10396000202B07D100294FF0010318BF002A05D1F1
:103970001846704702231846704700BF00230363B0
:10398000816222218285C285436480F842100169E8
:10399000006819B1C16841F48071C160416941F0AA
:1039A00001014161C16841F02001C16018467047C2
:1039B00044F24020C2F20000007844F2382140F284
:1039C00040324028C2F20001C2F2000216D0127842
:1039D000012A1AD0232805D143F22420C2F2000084
:1039E0000121017040F2F82044F24021C2F20000AF
:1039F000C2F200010122FFF7B1BF00BF00230B801C
:103A0000012313701278012AE4D10A88531C0B8019
:103A100040F2AC01C2F2000188542328DCD0E1E777
:103A20002DE9F04381B0044690F84100202809D1E7
:103A300000294FF0010018BF002A07D101B0BDE8EE
:103A4000F08300BF022001B0BDE8F0830020606475
:103A500021201D460E4684F841001746FDF756FF0B
:103A6000A784E784A1688146B1F5805F02D120690F
:103A700000285DD037460020E28C2168002A5DD006
:103A80006A1C24D0002D4AD0804600BF086800067A
:103A900008D4FDF73BFFA0EB0900A8427AD82168C3
:103AA000C868F3E717B117F8010B04E038F8020B08
:103AB00000276FF35F204860E08C0138E084E08CE1
:103AC0000028E3D13AE000BF0A68120609D40A6868
:103AD000120606D40A6812065CBF0A685FEA026230
:103AE000F2D51FB117F8012B05E000BF30F8022B0B
:103AF00000276FF35F224A60E28C013AE284E28C95
:103B0000002AE4D11AE000BF30F8022B00276FF33F
:103B10005F224A60E28C013AE284E28C72B10A6868
:103B2000120635D5002FEFD017F8012BF1E700BFB3
:103B300000273046E28C2168002AA1D1086840069F
:103B40001ED42DB3681C14D1086840062AD4086816
:103B5000400627D40868400624D4086840064FF081
:103B60000000F1D50DE000BF2068C1680068400684
:103B700018D4FDF7CBFEA0EB0900A842F4D909E068
:103B80000020202184F8411001B0BDE8F08300BF7F
:103B9000FDF7BCFE0320202184F8411001B0BDE8F0
:103BA000F08300BF0020202184F8411001B0BDE85F
:103BB000F083000070470000FEE70000FEE7000011
:103BC00070B592B090E81A00C0680DF10B0601F2D2
:103BD000DC5203F2DC5304F2DC5400F2DC5505A1A4
:103BE0003046CDE90045FCF72DFB304600F01EF9CC
:103BF00012B070BD23303031502530346454303031
:103C0000303021233030325025303464543030305D
:103C1000302123303033502530346454303030304C
:103C2000212330303450253034645430303030214A
:103C300000000000FEE70000704700002DE9F0439F
:103C400081B0089C984615460E468146FDF75EFEFB
:103C5000201A00EB0804FDF759FE40F20801C2F2F9
:103C600000010968C1F3CB3161430091D9F800101C
:103C70008A683240921BB2FA82F25209AA423DD0BF
:103C8000074618F1010031D0FDF740FEC01BA042ED
:103C900038D2009800990028A1F101010091D9F8CB
:103CA0000010896808BF044601EA0600801BB0FACC
:103CB00080F04009A842E7D120E000BF886830408A
:103CC000801BB0FA80F04009A84217D088683040C5
:103CD000801BB0FA80F04009A8420FD088683040BD
:103CE000801BB0FA80F04009A84207D088683040B5
:103CF000801BB0FA80F04009A842DFD1002001B05B
:103D0000BDE8F083D9E900014268B1F5827F22F075
:103D1000E00242600BD1D9F80810B1F5004F02D093
:103D2000B1F5806F03D1016821F040010160D9F83D
:103D30002810B1F5005F07D1016821F4005101603E
:103D4000016841F400510160012089F85100002010
:103D500089F85000032001B0BDE8F08370470000EF
:103D600010B503884FF4FA6C4BF6D71E4FF48771E9
:103D7000B3F5877F28BF0B4603FB0CF2C0F2F20EAF
:103D8000A2FB0E2340F22022C2F20002126803F5C9
:103D9000FA7393638288B2F5877F28BF0A4602FBD5
:103DA0000CF2A2FB0E2340F26822C2F2000212685B
:103DB00003F5FA7353630289B2F5877F28BF0A4679
:103DC00002FB0CF2A2FB0E2340F2B022C2F2000270
:103DD000126803F5FA7353638389B3F5877F28BFAD
:103DE0000B4603FB0CF3A3FB0E3404F5FA73936349
:103DF000038AB3F5877F28BF0B4603FB0CF3A3FBB5
:103E00000E3404F5FA73D363808AB0F5877F38BF28
:103E1000014601FB0CF0A0FB0E0101F5FA701064E5
:103E200010BD0000FDF778BD70470000002808BFF6
:103E300070470146002000BF82B28A5C8AB140F020
:103E4000010293B2CB5C5BB140F0020293B2CB5C57
:103E500033B140F0030293B2CB5C0430002BEBD1C2
:103E6000104682B240F2F820C2F200004FF0FF3359
:103E7000FFF7D6BD406A0021C185C184FFF7FAB9BA
:103E800081B090F84210222921D183680246B3F50F
:103E9000805F09D152F8281F52F8183C002B63D0DC
:103EA00003685B680AE000BF52F8281F13B9036972
:103EB000002BF5D003685B6803F07F030B7011687B
:103EC00001311160C18D01390A04C18502D001B0F0
:103ED000704700BF0168CA6822F02002CA60CA6841
:103EE00022F48072CA604A6922F001024A612021EC
:103EF00080F8421000214163026B012A3CD101632A
:103F0000016851E8031F026821F0100142E8031321
:103F1000DBB1016851E8031F026821F0100142E89B
:103F2000031393B1016851E8031F026821F01001E7
:103F300042E803134BB1016851E8031F026821F006
:103F4000100142E80313002BDAD101680A68D20697
:103F500006D5002200920A680092496800910099F3
:103F6000818D01B0FFF784B9026852686FF35F2258
:103F700021F8022B8162A5E701B0FFF719BD00000F
:103F800040F2F820C2F20000FFF776B940F21400C8
:103F9000C2F200000068704710B54EF6FC50CEF239
:103FA0000000016840F2B02441F08071016041F2EC
:103FB0000000CEF20000002141600168C2F200045E
:103FC00041F00101016020460021FEF741FE20463C
:103FD0000421FEF73DFE40F60040C4F201008021BE
:103FE0000022BDE81040FDF78BBC000070B540F228
:103FF0009C05C2F20005AA68821A8A4238D340F6AC
:104000000044C4F2010441F20406A8602046802165
:104010000122CEF20006FDF773FC40F20801C2F265
:104020000001306809684DF68362C4F21B32A1FBBF
:104030000212910C01EB4101890000BF3268121A93
:104040008A420BD23268121A8A4207D23268121A96
:104050008A4203D23268121A8A42EFD32046802164
:1040600000220024FDF74CFCFDF750FC68602C702A
:104070002878F8B100202870E86847F2315148F6F6
:10408000D022411ACFF6FF7291421CD302F03EF8C3
:1040900043F23331C4F26B2101F00EFF4FF07C513B
:1040A00001F072FE01F0FEFFB0F5C87FC8BF4FF00F
:1040B000FF300AE0686868B1FDF728FC6968401ABB
:1040C0001F2838BF70BD4FF0FF3040F21401C2F21C
:1040D0000001086070BD0000FEE70000F0B581B08F
:1040E0000C4603218DF80010010C40F600468DF8B7
:1040F0000110010AC4F2010615468DF802108DF870
:10410000030030464FF480510022FDF7F9FB40F2E6
:10411000C817C2F200076946384604224FF0FF3341
:10412000FEF74AF9AAB2384621464FF0FF33FEF7B0
:1041300043F830464FF480510122FDF7E1FB01B016
:10414000F0BD0000B0B582B020218DF80310010C45
:1041500040F600448DF80410010AC4F201048DF801
:1041600005108DF8060020464FF480510022FDF71F
:10417000C7FB40F2C8150620C2F200058DF8070003
:104180000DF10701284601224FF0FF33FEF714F925
:1041900020464FF480510122FDF7B2FB20464FF438
:1041A00080510022FDF7ACFB0DF1030128460422EB
:1041B0004FF0FF33FEF700F920464FF48051012203
:1041C000FDF79EFB4FF47A7000F002F802B0B0BD2C
:1041D0002DE9F04F81B040F6004B0446C4F2010BCC
:1041E000FDF794FB40F2C81706464FF0050AC2F2ED
:1041F00000070DF102080DF1030900BF58464FF406
:1042000080510022FDF77CFB3846414601224FF0E9
:10421000FF338DF802A0FEF7CFF838464946012259
:104220004FF0FF33FDF7C8FF9DF8035058464FF499
:1042300080510122FDF764FBFDF768FB801BA04263
:1042400002D215F00100D9D101B0BDE8F08F000015
:10425000002A08BF7047F0B581B014460D460646E7
:10426000F0B2C0F58077A74228BF274630462946DE
:104270003A4600F009F83D44E41B3E44F0D101B059
:10428000BDE8F04070470000002A08BF70472DE9E4
:10429000F04182B040F60045B2F5807F28BF4FF470
:1042A0008072C4F201050C46074628464FF480513F
:1042B00090460022FDF724FB40F2C8160620C2F209
:1042C00000068DF807000DF10701304601224FF07E
:1042D000FF33FEF771F828464FF480510122FDF7B5
:1042E0000FFB02208DF80300380C8DF80400380A0B
:1042F0008DF8050028464FF4805100228DF8067095
:10430000FDF7FEFA0DF10301304604224FF0FF33B2
:10431000FEF752F83046214642464FF0FF33FEF793
:104320004BF828464FF480510122FDF7E9FA64204A
:10433000FFF74EFF02B0BDE8F041704792B0FDF7C5
:10434000F9FA00240120CDE90B44CDE90944069097
:104350000A904FF4E0104FF4803102250F9006A828
:10436000CDE90714CDE90D51FDF792FC20B1EFF333
:10437000108072B6FEE700BF0F20CDE901054FF4B3
:104380008060CDE9040401A802210394FDF77AFBC3
:1043900020B1EFF3108072B6FEE700BF002741F2B4
:1043A0001800CDE90877CDE90677C4F2020001686C
:1043B00040F6000841F0200101600168C4F20108E4
:1043C00001F02001019101990168002241F00401EE
:1043D00001600168042401F0040101910199016860
:1043E00041F0080101600068042100F0080001901C
:1043F00001984046FDF784FA08F5806528464FF499
:10440000805100224FF48059FDF77AFA032006AE5E
:10441000CDE90607404631460897FDF769F906944D
:1044200001244FF0020A40463146CDE90747CDF856
:1044300024A0FDF75DF940F2000BC1F2210B0BF552
:104440008010CDE90707284631460694FDF750F95C
:1044500028463146CDE90694CDE9087AFDF748F9BA
:104460004FF48070CDE9060B404631460897FDF7C2
:104470003FF9062005210022FDF7C8FA0620FDF7C6
:10448000B3FA172000210022FDF7C0FA1720FDF72C
:10449000ABFA40F2F820A8F54041C2F200000C232C
:1044A0004FF4E13280E88600C0E90377C0E90537C0
:1044B000C761FFF799F928B1EFF3108072B600BF1A
:1044C000FEE700BF40F22020C2F200004FF0804122
:1044D00044F61F630497CDE90277CDE91077CDE963
:1044E0000B77CDE90977472280E88600C0E90337DA
:1044F0008761FEF71FFA28B1EFF3108072B600BF94
:10450000FEE700BF4FF48050019040F22020C2F23D
:10451000000001A9FEF7CCFA20B1EFF3108072B6CB
:10452000FEE700BF40F22020C2F20000FEF7B2FD1D
:1045300020B1EFF3108072B6FEE700BF40F22020FA
:10454000C2F2000010A9FEF7B5F928B1EFF3108010
:1045500072B600BFFEE700BF6020069040F2202048
:104560000025C2F2000006A90422CDE907550A95EC
:10457000FEF78EFC20B1EFF3108072B6FEE700BFAD
:1045800040F22020C2F20000FEF7F6FB40F2682065
:10459000A8F58231C2F2000044F61F630495CDE90C
:1045A0000255CDE91055CDE90B55CDE90955472206
:1045B00080E82600C0E903358561FEF7BBF928B124
:1045C000EFF3108072B600BFFEE700BF4FF48050DB
:1045D000019040F26820C2F2000001A9FEF768FADB
:1045E00020B1EFF3108072B6FEE700BF40F2682002
:1045F000C2F20000FEF74EFD20B1EFF3108072B65C
:10460000FEE700BF40F26820C2F2000010A9FEF7EA
:1046100051F918B1EFF3108072B6FEE760200690F2
:1046200040F268200025C2F2000006A90022CDE970
:1046300007550A95FEF72CFC20B1EFF3108072B6F7
:10464000FEE700BF40F26820C2F20000FEF794FBD4
:1046500040F2B020A8F58031C2F2000044F61F639A
:104660000495CDE90255CDE91055CDE90B55CDE9BD
:104670000955472280E82600C0E903358561FEF729
:1046800059F918B1EFF3108072B6FEE74FF480507D
:10469000019040F2B020C2F2000001A9FEF708FA32
:1046A00020B1EFF3108072B6FEE700BF40F2B020F9
:1046B000C2F20000FEF7EEFC20B1EFF3108072B6FC
:1046C000FEE700BF40F2B020C2F2000010A9FEF7E2
:1046D000F1F818B1EFF3108072B6FEE76020069093
:1046E0000020CDE907000A9040F2B020C2F200009D
:1046F00006A90022FEF7CCFB20B1EFF3108072B6C2
:10470000FEE700BF40F2B020C2F2000006A904227A
:10471000FEF7BEFB20B1EFF3108072B6FEE700BFDC
:1047200040F2B020C2F2000006A90822FEF7B0FB5A
:1047300020B1EFF3108072B6FEE700BF40F2B02068
:10474000C2F2000006A90C22FEF7A2FB20B1EFF393
:10475000108072B6FEE700BF40F2B020C2F2000047
:10476000FEF70AFB40F2C810A8F55041C2F2000063
:104770004FF4827200254FF4007380E826000A216E
:10478000C0E90355C0E90553C561C0E90855C0E952
:104790000A51FDF77DFC18B1EFF3108072B6FEE709
:1047A00000F09CFF00F050FFFCF794FCFFF7F4FBD7
:1047B00043F2242640F2AC0440F24037C2F2000635
:1047C000C2F20004C2F2000730780128FCD1204672
:1047D00000F0ACFE0138032835703D70F4D8DFE8F6
:1047E00000F0070B0F0300BF00F00CFAECE700BF6E
:1047F00000F00AF8E8E700BF00F076F8E4E700BF51
:1048000000F04CF9E0E700002DE9F04F95B00025ED
:1048100033A0ADF80450FFF709FB01A843F22426AA
:1048200040F2AC0940F2403800F1040A00F1100BEC
:1048300087205A21C2F20006C2F20009C2F2000823
:1048400011AC0BAFCDE9025504950590CDE90611E9
:10485000CDE908108DF828500EE000BF20465146E3
:1048600000F07CFA3846594600F070FE2046FFF70B
:10487000A7F93846FFF774FA3078012806D101A865
:10488000494600F023FB357088F800509DF804007D
:1048900001280DD09DF805000128DFD00028EBD1BC
:1048A000204600F00DFB384600F002FFDEE700BFB7
:1048B00046F24850C0F60000FFF7B8FA11AC2046A7
:1048C00000F0FEFA0BAD284600F0F2FE2046FFF79E
:1048D00077F92846FFF744FA15B0BDE8F08F00BF1E
:1048E0004041434B4D3123002DE9F04FB1B000253D
:1048F00063A0ADF88C50FFF799FA23AC201D03900C
:1049000004F11000029087205A212790CDE92A1047
:1049100004F1280043F2242640F2AC0740F2403A6A
:104920000190C2F20006C2F20007C2F2000A0DF1C5
:104930007C0B0DF164080020CDE924552695CDE9C6
:1049400028118DF8B05004903078012806D1204607
:10495000394600F093FB35708AF800509DF88C00C2
:1049600001286FD09DF88D0001281BD00028EBD1C5
:10497000FCF7BAFB012836D1584600F0A1FA4046B0
:1049800000F096FE5846FFF71BF94046FFF7E8F99E
:10499000FCF7B2FD3EA0FFF749FA9DF88D00012813
:1049A000D2D124E0FCF7A0FBE8B90DF1540901993C
:1049B00048461022FBF7FBFE8DF86350FBF76CFEB8
:1049C000C1B24846FCF758FD90B3D8460DF1140B20
:1049D00058462DA14A46FBF735FC5846C3460DF113
:1049E0006408FFF723FA9DF88D000128ACD1FCF78D
:1049F0007BFB0128A8D10399584600F0AFF9029932
:104A0000404600F0A3FD5846FFF7DAF84046FFF7AE
:104A1000A7F9FCF77BFF81460498A9EB0000322838
:104A200092D34046FCF7EAFCCDF810908CE700BF2B
:104A3000FCF76CFF04909DF88D0001287FF484AF93
:104A4000D5E700BF46F24850C0F60000FFF7EEF988
:104A50001FAC204600F034FA19AD284600F028FEBD
:104A60002046FFF7ADF82846FFF77AF9FCF73CFB44
:104A7000012808BFFCF740FD31B0BDE8F08F00BF52
:104A80004041434B4D3223004661696C2025730041
:104A90004041434B4D325354230000002DE9F04F69
:104AA0009FB04EA0FFF7C2F91DAC43F2242840F29C
:104AB000AC0A0026651C04F1020B201DC2F200089E
:104AC000C2F2000A4FF0010902AF8DF87A608DF84A
:104AD0007460019008E000BF8DF87A90FCF70AFB43
:104AE000284606708DF87A6030BF98F800000128DB
:104AF0000DD120465146CDF877601D9600F0AEFBF3
:104B000040F24030C2F2000088F8006006709DF864
:104B1000740001284AD09DF875109DF87A0001298B
:104B200008BF0028D8D09DF87610012908BF0028BA
:104B300014D09DF87810012908BF0028D4D19DF821
:104B4000790012A9FCF784FA9DF8792010B3104679
:104B5000FCF728FA9DF8792022A11FE09DF8770044
:104B600012A98DF87A90FCF773FA28B1129813A95C
:104B7000FCF7DCFB1FA103E046F23451C0F6000154
:104B80009DF877203846FBF75DFB3846FFF74EF976
:104B90005846A6E746F23451C0F600013846FBF706
:104BA00051FB3846FFF742F901989AE746F2485020
:104BB000C0F60000FFF73AF919AC204600F080F982
:104BC00013AD284600F074FD2046FEF7F9FF284695
:104BD000FFF7C6F81FB0BDE8F08F00BF4041434B60
:104BE0004D3323004041434B4D3344253033642340
:104BF000000000004041434B4D33422530336423D5
:104C0000000000002DE9F04F97B04DA0FFF70EF91E
:104C10000DA82821051D00F11006FBF7A1FD43F2A8
:104C2000242A2D205A210024C2F2000A0DF1240961
:104C300003AF4FF0000B1190CDE91211CDE9141024
:104C400011E000BF9DF83600B0B34846294600F099
:104C500085F83846314600F079FC4846FEF7B0FF4B
:104C60003846FFF77DF8FCF751FE32218046FFF70A
:104C7000BDF9A8EB0B00322808D29AF800000128F1
:104C80002AD09DF83400012838D141E0FFF77EF9A1
:104C9000002819D4024642F20E7034462E466D4664
:104CA0008242A8BF0246284629A1FBF7CBFA284634
:104CB00035462646002408E0484600F001F938460B
:104CC00000F0F6FCC9E700BF1FA0FFF7AFF8C3462E
:104CD0009AF800000128D4D140F2AC010DA8C2F22C
:104CE000000100F019FB40F24030C2F200008AF8E7
:104CF000004004709DF83400012809D09DF835006B
:104D000001289FD1FCF784FA8DF835409AE700BF5F
:104D100046F24850C0F60000FFF788F809AC20467C
:104D200000F0CEF803AD284600F0C2FC2046FEF7A6
:104D300047FF2846FFF714F817B0BDE8F08F00BF13
:104D40004041434B4D342300404439393939230025
:104D500040442530346C6423000000002DE9F04FFE
:104D600081B0D1E900C8D1F808A008EB0C07A7EB87
:104D70000A024FF47A764DF2496402FB06F5CFF24F
:104D8000B92485FB0451A8EB0C05554405FB06F33B
:104D900083FB04390CEB0A03A8EB0303009103FB2C
:104DA00006F181FB041B07EB0A0101FB06F787FBF9
:104DB000044E009C03FB06B302FB0642044610129D
:104DC00000EBD27205FB069001FB06E1051205EB34
:104DD000D0701D1205EBD3770B1203EBD175002AAF
:104DE00022606060A760E56048BF5242002848BF6B
:104DF00040428242C8BF1046002F48BF7F42B8429F
:104E0000C8BF07460CFB0CF008FB0800002D0AFB8E
:104E10000A0048BF6D42AF42C8BF3D4600F062FE87
:104E200000F095FC48F20003C4F25603002200F0A3
:104E3000FDFC00F0C9FC4FF07E51064601F014F86D
:104E40000021002818BF4FF07E56C4F27A41304648
:104E500001F0D8F90646284601F040F901463046EF
:104E600001F02AF8054694E8C10101F037F901463E
:104E7000284601F0C7F901F015F92060304601F02D
:104E80002DF90146284601F0BDF901F00BF96060EB
:104E9000384601F023F90146284601F0B3F901F044
:104EA00001F9A060404601F019F90146284601F0D9
:104EB000A9F901F0F7F8E06001B0BDE8F08F00005B
:104EC0000021C0E90011C0E9021170474A78532A55
:104ED00005D18A78542A02BF012101707047CA782F
:104EE0002C2A1BD0532A0DD0412A40F0B9800979D1
:104EF000432940F0B58001225DA1034608465A705F
:104F0000FEF794BF0979542918BF7047002255A1B4
:104F1000034608465A70FEF789BF00BF2DE9F041ED
:104F20004B798A794FF0640891F807E003FB08F3A6
:104F300002EB820203EB420291F804C0724441F298
:104F4000D043D41ABCF12D0F08BF9C1A44608A7A52
:104F5000CE7A0F7B02FB08F206EB860602EB4602D6
:104F60004D7A1744FA1A2D2D08BFDA1B04F11407E5
:104F70005342282F836007D812F1140F04DB142A40
:104F8000DCBF0022C0E90122CA7F303AD2B2022A35
:104F900006D846F2CC43C0F6000353F82220C26084
:104FA0000A7D4E7D64238D7D5A4306EB860602EB17
:104FB0004602CF7C561941F2D042B51A2D2F08BFB8
:104FC000951B056191F8226091F8235091F82440D7
:104FD0005E4305EB850506EB450691F821702644F6
:104FE000B51A2D2F08BF951B456191F8276091F8E0
:104FF000285091F829405E4305EB850506EB4506F0
:1050000091F826702644B51A2D2F08BF951B85618F
:1050100091F82C6091F82D5091F82E405E4305EBED
:10502000850506EB450691F82B702644B51A2D2F01
:1050300008BF951BC5614E7E8D7ECC7E734305EB0C
:10504000850603EB46030F7E23449E1A2D2F08BFCF
:10505000D61A0662497F303980F82410BDE8F04145
:10506000704700BF4041434B4D3153542300000073
:105070004041434B4D3141432300000070B586B0A1
:105080004A78532A06D18A78542A03D10121017023
:1050900006B070BDCA782C2A2CD0532A1CD0412AC5
:1050A00040F0C9800A79432A40F0C580012242704D
:1050B0008A7902AD80F82820CB7980F829300C7AE3
:1050C00061A180F82A4028460094FBF7BBF82846E7
:1050D000FEF7ACFE06B070BD0979542940F0AB80F4
:1050E000002256A1034608465A7006B0BDE870403B
:1050F000FEF79CBE4B798D794FF0640CCC7903FBA5
:105100000CF305EB850503EB45030A79234441F2D3
:10511000D0455C1B2D2A08BFEC1A44608A7ACB7AF2
:105120000E7B02FB0CF203EB830391F809E002EB28
:10513000430293195A1BBEF12D0F04F1140608BF48
:10514000EA1A5342282E836007D812F1140F04DBA9
:10515000142ADCBF0022C0E90122CA7F303AD2B251
:10516000022A06D846F2CC43C0F6000353F82220A8
:10517000C2600A7D4D7D8C7D02FB0CF205EB85053E
:1051800002EB4502CE7C151941F2D042AC1A2D2E0D
:1051900008BF541B046191F8225091F8234091F804
:1051A000243005FB0CF504EB840405EB440591F871
:1051B00021602B449D1A2D2E08BFD51A456191F808
:1051C000276091F8285091F8294006FB0CF605EB72
:1051D000850506EB450691F826302644B51A2D2B99
:1051E00008BF951B856191F82C6091F82D5091F8BE
:1051F0002E4006FB0CF605EB850506EB450691F8FF
:105200002B302644B51A2D2B08BF951BC5614E7E49
:105210008D7ECC7E06FB0CF605EB850506EB450680
:105220000B7E2644B51A2D2B08BF951B0562497FBE
:10523000303980F8241006B070BD00BF4041434BA8
:105240004D325354230000004041434B4D32414303
:10525000222563256325632223000000B0B586B0B4
:105260004A78532A06D18A78542A03D10121017041
:1052700006B0B0BDCA78422A22D0442A08D0522AA9
:1052800039D10979452936D10121417006B0B0BD27
:10529000012202710A794B79642589796A4303EB0B
:1052A000830302EB4302114441F2D042891A02AC5B
:1052B0004171CAB211A12046FAF7C4FF204618E096
:1052C000012282700A794B79642491F806C0624306
:1052D00003EB830302EB430262443032C2700A796B
:1052E0004B798C7902AD08A128460094FAF7AAFF01
:1052F0002846FEF79BFD06B0B0BD00BF4041434BC2
:105300004D334425642300004041434B4D33422537
:1053100063256325632300004A78532A05D18A78E0
:10532000542A02BF012101707047CA782C3A272AFB
:1053300000F2D480DFE812F02800D200D200D200C0
:10534000D200D200D200D200D200D200D200D200CD
:10535000D200D200D200D200D200D200D200D200BD
:10536000D200D400D200D200D200D200D200D200AB
:10537000D200D200D200D200D200D200D200D2009D
:10538000D200D200CC00E2002DE9F0414B798A79BD
:105390004FF0640891F807E003FB08F302EB820288
:1053A00003EB420291F804C0724441F2D043D41A94
:1053B000BCF12D0F08BF9C1A44608A7ACE7A0F7B0D
:1053C00002FB08F206EB860602EB46024D7A174412
:1053D000FA1A2D2D08BFDA1B04F114075342282FA7
:1053E000836007D812F1140F04DB142ADCBF0022FB
:1053F000C0E90122CA7F303AD2B2022A06D846F268
:10540000CC43C0F6000353F82220C2600A7D4E7DD3
:1054100064238D7D5A4306EB860602EB4602CF7C61
:10542000561941F2D042B51A2D2F08BF951B0561C0
:105430004E7E8D7ECC7E5E4305EB850506EB4506F4
:105440000F7E2644B51A2D2F08BF951B05624F7F8E
:10545000303F80F8247091F8226091F8235091F841
:1054600024405E4305EB850506EB450691F8217067
:105470002644B51A2D2F08BF951B456191F827606A
:1054800091F8285091F829405E4305EB850506EB1D
:10549000450691F826702644B51A2D2F08BF951B96
:1054A000856191F82C6091F82D5091F82B7091F84E
:1054B0002E10734305EB850603EB460319448B1A44
:1054C0002D2F08BF531AC361BDE8F041704700BFDC
:1054D0000979452902BF012141707047704700BF1B
:1054E0000A79432AFAD149794C29F7D001220CA133
:1054F000034608469A70FEF799BC00BF0979542903
:1055000018BF7047002203A1034608469A70FEF7B1
:105510008DBC00BF4041434B4D3453542300000029
:105520004041434B4D3441432300000041784D2915
:105530004FF0000107D18078A0F13102D2B2042AE5
:1055400038BFA0F13001C8B2704700002DE9F0412A
:10555000044605200D46FCF7A9F8286840F20C081F
:105560001E28C2F2000805D8D8F800004FF04041CC
:1055700008E000BF3D38D8F800601D2807D8304645
:105580004FF0804100F000FC0646C8F800000027FC
:10559000C4F287373046394600F066FC28B93046F9
:1055A0000021002700F067FC10B93E46C8F80070E3
:1055B000304600F077FD20600520FCF777F8286979
:1055C00040F210081E28C2F2000805D8D8F80000E2
:1055D0004FF0804108E000BF3D38D8F800601D283A
:1055E00007D830464FF0404100F0CEFB0646C8F8E1
:1055F00000000027C4F261373046394600F034FC21
:1056000038B90027C4F234273046394600F033FC5D
:1056100010B93E46C8F80070304600F043FD297DC1
:105620002061012902D019B9442000E08C2060617A
:105630002A1D07CA231D2D30C1F1E101C2F1E1028B
:1056400007C3BDE8F081000070B540F22024C2F22B
:10565000000420460421FDF79DFD40F26825C2F2BA
:10566000000528460021FDF795FD40F2B026C2F264
:10567000000630460021FDF78DFD30460421FDF780
:1056800089FD30460821FDF785FD30460C21FDF7E8
:1056900081FD206840F2DC518163286841633068F5
:1056A00041638163C16340F2CC71016470BD00004D
:1056B0008721CA22C0E90011C0E90211C0E9041221
:1056C00040F20C000021C2F20000C4F20731016078
:1056D00040F21000C2F200000160704780B540F255
:1056E000AC00C2F2000008A13522FAF7F4FF40F244
:1056F000F82044F24021C2F20000C2F2000101226F
:10570000BDE88040FEF72AB9402C2B3030302C2BDE
:105710003030302C2B3030302C3034352C30343588
:105720002C302C302C3038382C2B3030302C2B3087
:1057300030302C2B3030302C63732C2300000000D1
:1057400030380A2801D201207047002070472DE927
:10575000F04106460F4600F031FA041E0D4618BF10
:105760000120284320F00040C0F17F6000F1E040BC
:10577000C00F0ED0301C18BF0120384320F000406D
:10578000C0F17F6000F1E040C00F04BF0120FBF7D3
:1057900041F820462946BDE8F081000010B50029F7
:1057A0000AD00878002807D005487844FBF798F914
:1057B000002801D0002010BD0248784410BD000030
:1057C000E20D0000DA0D000021F0004201F000437C
:1057D000A2F16052B2F5801F28BFD2F17F6C0BD9C5
:1057E0005FEA001C43EAC20242EB507018BF7047E8
:1057F00028BF20F001007047B2F5801FBCBF1846DB
:1058000070474FEA410C1CF5001F02D2084600F019
:10581000C0BD70B500F07DF900000089FFF7F6BF4C
:105820004FF00040A0F58000704700002DE9C04116
:1058300030B4DFF8A8C23CEA111418BF3CEA1314D4
:1058400000F0F0801CEA111481EA030544EAD574E3
:1058500018BF1CEA131500F0CB80A4EB050404F17B
:105860007F7404F500344FF0004545EAC12145EA54
:10587000C32341EA505143EA52534FEAC0204FEA52
:10588000C222994208BF904200F0A0804FEA1365FF
:105890000FF24816765D4FEA134506FB05F7C7F190
:1058A000807706FB07F74FEAD737A7FB03687642F6
:1058B000A7FB06CEC8F5803838BFA8F1010807FB62
:1058C00008E6A6FB028C4FF0000EE6FB03CED8F1F3
:1058D00000086FEA0C0C5CF1000C6FEA0E0E4EF142
:1058E000004EA6FB0C584FF00007E6FB0E87A1FB0D
:1058F00008C6A0FB07CE16EB0E064FF0000545F1DB
:105900000005E1FB076515F1E04E7EBFA4F580348C
:105910005FEA46066D4116F1800745F100054FEA42
:10592000172747EA05674FEA15254FEA0666A6F1ED
:10593000DE46B6F1805F20D9384605EBC47124F00D
:10594000010C01EB0C11BCF1FE6F02D8F0BCBDE8FC
:10595000008124425CBF01F5801E9EEAC47F02D410
:10596000F0BCBDE80081244200F13980A1F1C041C2
:10597000F0BCBDE8004100F01AB94FEAD02040EA7F
:1059800041504FEAD1214FEAD22242EA43524FEA34
:10599000D323A7FB028607FB036605FB02661EEA0C
:1059A0000E0F58BFA6EB0056B6EB00564FEA520E4C
:1059B0004EEAC37E18EB0E0E56EB530EBCD518EB19
:1059C00002085E417F1C55F10005B5E74FF48015D4
:1059D0004FF000074FF000064FF00008ACE701F170
:1059E000C04101F000414FF00000F0BCBDE8008173
:1059F0000CEA131511EA0C1F00D00CE013EA0C1F7F
:105A000000F025804FF0000081EA030101F0004121
:105A1000F0BCBDE80081F0BCBDE8004181EA0301B3
:105A200000F0C5B8F0BCBDE8004170B500F071F8F9
:105A3000097EFC3E00F007B84FF0000081EA030148
:105A400001F00041704781EA030100F0B0B8F0BCFA
:105A5000BDE8004122494FF000007047FFFDFBF90F
:105A6000F7F5F4F2F0EEEDEBE9E8E6E4E3E1E0DE91
:105A7000DDDBDAD8D7D5D4D3D1D0CFCDCCCBCAC803
:105A8000C7C6C5C4C2C1C0BFBEBDBCBBBAB9B8B72A
:105A9000B6B5B4B3B2B1B0AFAEADACABAAA9A8A81D
:105AA000A7A6A5A4A3A3A2A1A09F9F9E9D9C9C9BEB
:105AB0009A99999897979695959493939291919096
:105AC0008F8F8E8E8D8C8C8B8B8A89898888878727
:105AD0008685858484838382828181800000FF079C
