:020000040800F2
:10000000E0070020910100083F1300083B1300089F
:100010003D130008CB050008D116000800000000C1
:100020000000000000000000000000004313000872
:10003000CD0500080000000041130008BD130008B2
:10004000AB010008AB010008AB010008AB010008E0
:10005000AB010008AB010008AB010008AB010008D0
:10006000AB010008AB010008AB010008AB010008C0
:10007000AB010008AB010008AB010008AB010008B0
:10008000AB010008AB010008AB010008AB010008A0
:10009000AB010008AB010008AB010008AB01000890
:1000A000AB010008AB010008AB010008AB01000880
:1000B000AB010008AB010008AB010008AB01000870
:1000C000AB010008AB010008AB010008AB01000860
:1000D000AB010008AB010008AB010008C516000821
:1000E000AB010008AB010008AB01000800F002F80A
:1000F00000F03FF80AA090E8000C82448344AAF183
:100100000107DA4501D100F034F8AFF2090EBAE880
:100110000F0013F0010F18BFFB1A43F0010318473B
:100120000022000020220000103A24BF78C878C1C5
:10013000FAD8520724BF30C830C144BF04680C60ED
:10014000704700000023002400250026103A28BF35
:1001500078C1FBD8520728BF30C148BF0B60704739
:10016000642900F07180002070471FB51FBD10B5D5
:1001700010BD00F0F5F91146FFF7F7FF01F0C0FAE6
:1001800000F013FA03B4FFF7F2FF03BC00F016FA15
:100190000948804709480047FEE7FEE7FEE7FEE71B
:1001A000FEE7FEE7FEE7FEE7FEE7FEE70448054957
:1001B000054A064B704700001F140008ED000008B8
:1001C000E0010020E0070020E0030020E003002021
:1001D0000FB41CB5074B06AA7B44694600900598EE
:1001E00000F09DF90020694600F0ACF91CBC5DF8F8
:1001F00014FB00006903000070B5044685690068BF
:10020000C10601D5302600E02026C00707D070BD0A
:10021000D4E9012130469047206A401C20626D1EBF
:10022000F6D570BD70B5044685690078C00707D162
:1002300070BDD4E9012120209047206A401C206233
:100240006D1EF6D570BD00002DE9F0410646002474
:1002500010687529314616A510D0AFF3008000282C
:1002600002DA404213A507E031688A0701D512A5DA
:1002700002E0490704D511A5012401E0AFF3008095
:1002800000210A2206F1240709E0B0FBF2FCB0FBD2
:10029000F2F302FB1C00303078541846491C002849
:1002A000F3D123462A463046BDE8F04100F0D9B8E4
:1002B000000000002D0000002B00000020000000C6
:1002C0002DE9F05F894604464FF0000ADFF824B1BB
:1002D000FB44C0F820A02046E168884700287DD074
:1002E000252806D0D4E901219047206A401C2062CD
:1002F000F1E700255F462046E1688847202806464A
:1003000007DB312E05D2B81910F8200C08B10543CF
:10031000F1E7A80701D525F00405C4F81CA00027C3
:10032000C4F818A02A2E09D0304601F0E2F938B3FB
:1003300004EB8708303EC8F8186019E059F8041B30
:10034000204604EB87029161E1688847012F064649
:1003500018D1E069002820DA25F020051DE0D8F842
:10036000180000EB800006EB40003038C8F8180099
:100370002046E1688847064601F0BBF90028EED127
:10038000012F0AD02E2E08D12046E16888477F1C15
:100390000646022F45F02005C4DBA069002803DAD9
:1003A000404245F00105A061E80701D025F01005A5
:1003B000A6B1A6F14100192802D8203645F40065FF
:1003C0004A463146204625604D46FFF7C9FE60B1DA
:1003D000012807D0ED1D25F0070000E007E000F13F
:1003E000080978E705F1040975E730467AE7206ADD
:1003F000BDE8F09F3A2000004FF0000200B5134620
:1004000094469646203922BFA0E80C50A0E80C5034
:10041000B1F12001BFF4F7AF090728BFA0E80C50E5
:1004200048BF0CC05DF804EB890028BF40F8042BDE
:1004300008BF704748BF20F8022B11F0804F18BF4B
:1004400000F8012B704770477047704710B500F0F7
:100450007FF8006810BD10B5044600F079F804601C
:1004600010BD2DE9F0470D4699469246044600F12D
:1004700024080168880604D5E06921F01001216094
:1004800000E00120A84201DD471B00E00027A16930
:100490007A1902EB0900081AA0612078C00602D47C
:1004A0002046FFF7A9FE002608E0D4E901211AF84A
:1004B00006009047206A401C761C20624E45F4DB03
:1004C0002078C0060AD52046FFF796FE06E0D4E95C
:1004D000012130209047206A401C2062381EA7F17D
:1004E0000107F4DC07E0D4E9012118F80500904782
:1004F000206A401C2062281EA5F10105F3DC20467D
:10050000FFF790FE2078000602D50220BDE8F087B4
:100510000120FBE701694A1C02610878704700B5B9
:100520008FB0CDE901310021059105497944CDE92C
:10053000031011466846FFF7C3FE0FB000BD000070
:10054000E5FFFFFF0A6802F8010B0A607047000030
:10055000004870477C010020004870477C01002063
:100560007546FFF7F9FFAE4605006946534620F091
:100570000700854618B020B5FFF718FEBDE82040FB
:100580004FF000064FF000074FF000084FF0000B4F
:1005900021F00701AC46ACE8C009ACE8C009ACE802
:1005A000C009ACE8C0098D46704710B50446AFF3EA
:1005B00000802046BDE81040FFF7E4BD0149182047
:1005C000ABBEFEE7260002007047FEE7704710B59D
:1005D00090F821100022022905D00421816380F8BF
:1005E0002020012010BD01680B6823F00E030B6072
:1005F00001680B6823F001030B6090F84030C46B76
:10060000012101FA03F3636080F8211080F82020B3
:10061000104610BD10B590F821100024022903D017
:100620000421816301243DE001680A6822F00E0282
:100630000A6001680A6822F001020A601A4A016829
:10064000914201D1012121E0174A1432914201D196
:1006500010211BE0144A2832914201D1891515E07E
:10066000114A3C32914201D189140FE00E4A5032B6
:10067000914202D14FF4803108E00B4A643291423A
:1006800002D14FF4801101E04FF08071064A083A20
:100690005160012180F82110002180F82010416B69
:1006A00001B18847204610BD080002402DE9F84FEF
:1006B000DFF8B8910024A9F1040B23460F2709F1B4
:1006C000040AABF1040EC9E00125A5402A40AA4264
:1006D0007DD1674ED1F804C0ACEB0608B44532D0EA
:1006E00014DCBCF1030F3AD009DCBCF1000F2AD0B6
:1006F000BCF1010F1CD0BCF1020F31D11DE0BCF1E7
:10070000110F17D0BCF1120F2AD119E0B8F5881FCC
:1007100019D006DCB8F5803F15D0B8F5801F1FD181
:1007200011E0B8F5001F0ED0B8F5041F18D10AE08B
:10073000CB6815E0CB681B1D12E0CB6808330FE0D7
:10074000CB680C330CE08B682BB1012B4FF0080306
:1007500003D0456104E0042302E0056100E00023CA
:10076000FF2A01D8064601E000F104064FEA84059D
:1007700001D9A5F12005D6F8008007FA05FC28EA82
:100780000C0803FA05F548EA0508C6F800804D682C
:10079000ED0062D5374DAE6946F00106AE61AD6938
:1007A00024F0030605F001050095334D06EB050C1A
:1007B000DCF80850A607360F07FA06F825EA080500
:1007C000DFF8B880404503D14FF0000817E044E05F
:1007D000DFF8AC80404502D14FF001080FE0DFF8B0
:1007E000A480404502D14FF0020808E0DFF898806D
:1007F000404502D14FF0030801E04FF0040808FA29
:1008000006F848EA0508CCF808804D68D9F8006079
:10081000ED024D4601D5164300E096432E604D682B
:10082000DAF80060AD02554601D5164300E0964364
:100830002E604D68DBF80060AD035D4601D51643C0
:1008400000E096432E604D68DEF80060ED037546CB
:1008500001D5164300E096432E60641C0D682A46BD
:10086000E5407FF431AFBDE8F88F00000804014097
:10087000000011100010024000000140000801407B
:10088000000C014000100140001401408068084045
:1008900000D00120704700000148806870470000C8
:1008A000000000200248816802781144816070478E
:1008B00000000020074810B5016841F010010160F8
:1008C000032000F075F80F2000F006F800F024F87F
:1008D000002010BD0020024070B50D4D04464FF4BD
:1008E0007A712878B1FBF0F00A490968B1FBF0F0A1
:1008F00000F0DCFA48B9102C07D200222146501E25
:1009000000F036F800206C6070BD012070BD000062
:10091000000000200C0000200C4808B5816941F05F
:1009200001018161816901F001010091C16941F01A
:100930008051C161C06900F0805000900448416856
:1009400021F0E06141F00071416008BD00100240FB
:1009500000000140002809DB00F01F020121914046
:100960004009800000F1E020C0F80011704700004D
:10097000F0B40E4B1B680C46C3F30223C3F107050A
:10098000042D00D90425191D072901D2002300E0F8
:10099000DB1E012606FA05F1491E214099409E40C2
:1009A000761E16403143F0BC00F093BE0CED00E023
:1009B000064900F0070208684FF6FF03184040EAB6
:1009C0000220034A10430860704700000CED00E06D
:1009D0000000FA052DE9F0470F46050061D0434EAF
:1009E000306800F00700B84209D2306820F00700F4
:1009F00038433060306800F00700B84251D12868B1
:100A00003B4C810712D5400703D5606840F4E06095
:100A100060602878000703D5606840F4605060602B
:100A20006068A96820F0F000084360602878C0077B
:100A300028D06868012810D02168022810D08907C2
:100A400000292EDA616821F0030101436160FFF79C
:100A500023FF804641F288390DE021688903EFE7E2
:100A60008901EDE7FFF718FFA0EB0801494502D91E
:100A70000320BDE8F0876068696800F00C00B0EB07
:100A8000810FEFD1306800F00700B8420BD9306811
:100A900020F0070038433060306800F00700B842AB
:100AA00001D00120E5E72878400705D56068E968AE
:100AB00020F4E060084360602878000706D560688D
:100AC000296920F4605040EAC100606000F038F805
:100AD0006168084AC1F30311515CC84006490860C7
:100AE00006480068FFF7F8FE0020C2E70020024039
:100AF00000100240F62200080C0000200400002034
:100B00000448054900684968044AC1F30221515C60
:100B1000C84070470C000020001002400623000867
:100B20000448054900684968044AC1F3C221515C80
:100B3000C84070470C000020001002400623000847
:100B40000E4A51680E4801F00C03042B11D0082BFB
:100B50000FD10C48C1F38343C903C05C0AD5516867
:100B6000084AC1F34041921E515C054A5043B0FB14
:100B7000F1F07047044948437047000000100240FC
:100B800000127A00E622000800093D002DE9F84F26
:100B9000040070D02078C04DC00749D06868C0F309
:100BA0008100012807D06868C0F38100022809D1BC
:100BB0006868C00306D52868800339D560680028B6
:100BC000E7D035E06068B0F5803F0BD010B1B0F5EC
:100BD000A02F11D0286820F480302860286820F4E5
:100BE000802002E0286840F480302860606890B17E
:100BF000FFF752FE06460AE0286840F4802028608D
:100C0000F0E700BFFFF748FE801B642873D8286810
:100C10008003F7D50CE0FFF73FFE064605E000BF76
:100C2000FFF73AFE801B6428F0D828688003F7D4C9
:100C300020789A4E80074FF001094FF0000839D50F
:100C4000686810F00C0F07D06868C0F381000228B4
:100C500009D16868C00306D42868800714D52069C4
:100C6000012808D110E02069B0B1C6F80090FFF764
:100C700013FE074605E00AE1FFF70EFEC01B02283F
:100C8000C4D828688007F7D52868616920F0F80083
:100C900040EAC10028600DE0C6F80080FFF7FCFDC7
:100CA000074604E0FFF7F8FDC01B022823D8286898
:100CB0008007F7D4207800072CD57948A169D9B1ED
:100CC000C0F80090FFF7E8FD074604E0FFF7E4FDF9
:100CD000C01B02280FD8686A8007F7D571484FF407
:100CE000FA510068B0FBF1F0009000BF0098411E7F
:100CF0000091FAD20EE080E0C0F80080FFF7CCFD52
:100D0000074604E0FFF7C8FDC01B022875D8686AD3
:100D10008007F7D42078400760D5E8690027C00035
:100D200008D4E86940F08050E861E869012700F0E4
:100D3000805000905C480168C90513D4016883465F
:100D400041F480710160FFF7A7FD824606E000BF15
:100D5000FFF7A2FDA0EB0A0064284ED8DBF80000E4
:100D6000C005F5D5E06801280AD008B1052813D0E0
:100D7000286A20F001002862286A20F0040002E0BE
:100D8000286A40F001002862E06841F2883B98B18F
:100D9000FFF782FD82460BE0286A40F004002862DB
:100DA000EEE700BFFFF778FDA0EB0A0159455AD8DE
:100DB000286A8007F6D50CE0FFF76EFD824605E055
:100DC000FFF76AFDA0EB0A0159454CD8286A800755
:100DD000F6D41FB1E86920F08050E861E06988B37B
:100DE0006968C1F38101022944D00228C6F86080F5
:100DF00004D0FFF751FD044638E034E0FFF74CFD26
:100E0000074604E0FFF748FDC01B02282BD82868DE
:100E10008001F7D4206AB0F5803F05D16868A168E9
:100E200020F4003008436860D4E908010843696889
:100E300021F4741108436860C6F86090FFF72CFD38
:100E4000044606E025E000BFFFF726FD001B022850
:100E500009D828688001F7D51BE000BFFFF71CFD0B
:100E6000001B022802D90320BDE8F88F2868800102
:100E7000F4D40EE00128F7D06868226A00F48031CB
:100E8000914204D1616A00F47010884201D00120BF
:100E9000EAE70020E8E700000010024000004242BC
:100EA000800442420C0000200070004010B5401E3B
:100EB000B0F1807F01D3012010BD4FF0E0246061CC
:100EC0000F21601700F005FC0020A06107202061C1
:100ED000002010BD70477047F8B5016804460868E7
:100EE000CA684B6910F00F0F4FF0000559D003F09E
:100EF000010602F49077374365D0C10705D0D105CC
:100F000003D5616C41F001016164410705D5D90742
:100F100003D0616C41F002016164810705D5D907F6
:100F200003D0616C41F004016164010707D502F050
:100F30002001314303D0616C41F008016164616CB0
:100F400000293AD0800604D5900602D5204600F04C
:100F5000A8FA20684069616CC0F38010090700D4CA
:100F600060B3204600F076FA20684069400621D53B
:100F70002068143050E8001F21F0400140E80012C2
:100F8000002AF5D1E06BA8B16D494163E06BFFF732
:100F900041FB002811D0E06B416B01B0BDE8F0408F
:100FA000084783060FD593060DD52046BDE8F840C7
:100FB00000F077BA2046FFF78EFFF8BD2046FFF716
:100FC0008AFF6564F8BD266B2023012E7CD1C606FE
:100FD0007AD5D60678D508684868009048694FF0F9
:100FE0000206400640D5E16B086840680004000C2A
:100FF000E8D0A28D8242E5D9E085886920282DD0ED
:1010000020680C3050E8001F21F4807140E8001285
:10101000002AF5D12068143050E8001F21F00101AA
:1010200040E80012002AF5D12068143050E8001F73
:1010300021F0400140E80012002AF5D184F8423046
:10104000256320680C3050E8001F21F0100140E8B3
:101050000012002AF5D1E06BFFF7B9FA6663A08DA4
:10106000E18D401A81B22AE0A08DE18D401A81B253
:10107000E08D0028A6D00029A4D022680C3252E8C6
:10108000000F20F4907042E80007002FF5D120688F
:10109000143050E8002F22F0010240E80027002F12
:1010A000F5D184F84230256320680C3050E8002FD9
:1010B00022F0100240E80023002BF5D166632046A1
:1010C000FFF708FFF8BDFFE705062BD5150629D564
:1010D00094F841002128F5D1A068B0F5805F01D1D6
:1010E0002069B0B1206A411C216221680078486003
:1010F000E08C401E0004000CE084E3D12068C1684D
:1011000021F08001C1602068C16841F04001C160E8
:10111000D8E7206A0088C0F308004860206A801C75
:101120002062E5E74006CDD55006CBD5CA682046FB
:1011300022F04002CA6084F8413000F0FDF8C1E7B7
:101140004514000870B5040004D094F8410000254F
:1011500010B106E0012070BD84F84050204600F038
:1011600023F8242084F841002068C16821F400514C
:10117000C160204600F0F6F92068016921F4904131
:1011800001612068416921F02A0141612068C1683C
:1011900041F40051C1606564202084F8410084F866
:1011A00042006563002070BD30B585B00024009416
:1011B0000194029403940068184988422CD118487D
:1011C000C16941F48021C161C16901F480210491A8
:1011D000816941F0080181618069124D00F00800C9
:1011E00004904FF48060009002200190032003904F
:1011F00069462846FFF75AFAE814CDE90004694623
:1012000028460294FFF752FA002211462720FFF7E2
:10121000AFFB2720FFF79EFB05B030BD0048004024
:1012200000100240000C014090F84230202B01D009
:101230000220704721B11AB10023036300F0EEB918
:10124000012070470E4830B402780E4901230E4841
:10125000402A02D100240C8003700078012805D1B7
:1012600008880A4C0444401C08802270232A01D1BB
:101270000748037030BC012201490648FFF7D4BF7C
:101280001100002012000020140000206000002047
:1012900010000020180000202DE9F843044690F8C3
:1012A0004100984616460D46202802D00220BDE88F
:1012B000F88385B17EB100206064212084F841006C
:1012C000FFF7EAFAA6848146E684A0682027B0F5F5
:1012D000805F02D003E00120E9E7206910B12E46CB
:1012E00000250EE000260CE08021204600F0B1F938
:1012F000A8B9C6B116F8010B21684860E08C401E01
:10130000E084E08C4B464FF00002CDF800800028CE
:10131000EAD14FF04001204600F09BF940B184F83B
:1013200041700320C3E735F8020BC0F30800E3E780
:1013300084F841700020BAE77047FEE7FEE7FEE759
:101340007047704700B50C4893B0D0E90023D0E94E
:10135000021000F2DC5001F2DC51CDE9001007A1CF
:1013600002A802F2DC5203F2DC53FEF731FF02A8BE
:1013700000F056F813B000BD6C010020233030316E
:1013800050253034645430303030212330303250E6
:101390002530346454303030302123303033502500
:1013A00030346454303030302123303034502530E4
:1013B000346454303030302100000000FFF772BA3E
:1013C00030B58FB028216846FFF716F814210AA817
:1013D000FFF712F801210804CDE90010002402945F
:1013E00002250491CDE907504FF4E01009906846BA
:1013F000FFF7CCFB08B172B6FEE70F20CDE90A0576
:101400004FF48060CDE90C4002210AA80E94FFF74A
:10141000E1FA002801D072B6FEE70FB030BD704788
:1014200000280BD0002201E0521C92B2815C0029FE
:10143000FAD14B1E01460248FFF72EBF704700004D
:101440001800002010B5406A0021C185C184FFF753
:1014500042FD10BD01680C3151E8002F22F490725A
:1014600041E80023002BF5D10168143151E8002F29
:1014700022F0010241E80023002BF5D1016B012984
:1014800009D101680C3151E8002F22F0100241E827
:101490000023002BF5D1202180F8421000210163A8
:1014A000704708B590F84210222901D0022008BDEB
:1014B00082684FF480539A4201D1016921B1816A57
:1014C0009A421BD04AB10AE00268816A5268C2F3AC
:1014D00008020A80816A891C08E0026972B1026808
:1014E000526802F07F020A70816A491C8162C18DD4
:1014F000491E0904090CC18503D01BE0026852682B
:10150000F1E70168CA6822F02002CA600168CA686F
:1015100022F48072CA6001684A6922F001024A61BD
:10152000202180F8421000214163026B012A03D080
:10153000FFF788FE002008BD016301680C3151E807
:10154000002F22F0100241E80023002BF5D10168A2
:101550000A68D20602D50A6849680091818DFFF7B2
:10156000B9FCE7E770B5044600680169E26821F458
:101570004051114301612169A06808436169084332
:101580002168CA6841F20C639A430243CA6020682A
:101590004169A26921F44071114341611E492068EB
:1015A000884202D1FFF7BCFA01E0FFF7A9FA00EB8D
:1015B000C00101EB0012606864218000B2FBF0F30F
:1015C000B3FBF1F36FF018067343B2FBF0F5B2FB17
:1015D000F0F605EB8305322303EB0515B5FBF1F5BA
:1015E000B6FBF1F605F0F00505EB0615B2FBF0F6DB
:1015F000B2FBF0F0B0FBF1F06FF01802504306EBD5
:10160000800003EB0010B0FBF1F0216800F00F0048
:101610002844886070BD00000038014081628285E6
:10162000C28500214164222180F84210016921B164
:101630000168CA6842F48072CA6001684A6942F06F
:1016400001024A610068C16841F02001C1600020C8
:1016500070472DE9F843984617460D460446089E04
:1016600024E0701C22D0FFF717F9A0EB0800B0426D
:101670001AD8CEB12068C168490717D5802D15D07A
:10168000402D13D00168C94309070FD40168002514
:10169000406800902046FFF7DDFE0820606484F873
:1016A00040500120BDE8F8830320FBE72068006874
:1016B00035EA000004D00020B842D2D00020F1E783
:1016C0000120F9E70148FFF707BC000018000020DF
:1016D000FEE70907090E002804DB00F1E02080F88E
:1016E0000014704700F00F0000F1E02080F8141D96
:1016F000704730380A2801D2012070470020704717
:1017000008B5FFF7D7F8FFF75BFE2248816941F083
:1017100020018161816901F020010091816941F01E
:1017200008018161816901F008010091816941F03E
:10173000040181618069184900F004000090174895
:10174000002401604FF4E131C0E901140C21C460B0
:10175000C0E904418461C461FFF7F4FC104D08B195
:1017600072B6FEE7DFF83C800F4F4FF480763146CB
:101770004046FFF78BF80128F9D128780128F6D1E7
:101780000A4800F0A7F800F013F8FFF7DBFD2C7013
:101790003C70ECE7001002400048004018000020B8
:1017A000100000200008014014000020600000200C
:1017B0002DE9FF4143484FF47A734FF47A7ED0E924
:1017C0000021806857183C1A5C434FF4877394FBE0
:1017D000F3F6A1EB020C0CEB0004ACEB000C04FBE9
:1017E0000EF40CFB0EFC94FBF3F49CFBF3FC07449F
:1017F000354D07FB0EF797FBF3F3C5E9014C2E605F
:10180000EB60CDE90064CDE902C3341E00DA744216
:1018100001266F4657F82630002B9C4601DACCF1A2
:10182000000CA44503DD002B00DA5B421C46761C4D
:10183000042EEFDB524301FB012100FB001000F0FE
:101840003DFA00F08BF80022204B00F0DFF800F0AA
:10185000ABF806464FF07E50864200DD0646204635
:1018600000F05CFC04461A49304600F06FFC21464B
:1018700000F076FB0446286800F050FC214600F09A
:1018800065FC00F02FFC2860686800F047FC2146EA
:1018900000F05CFC00F026FC6860A86800F03EFCEC
:1018A000214600F053FC00F01DFCA860E86800F041
:1018B00035FC214600F04AFC00F014FCE860BDE86D
:1018C000FF810000600100206C0100200080564074
:1018D00000007A4438B505460D20034600900C22DE
:1018E0000B21284600F026F8114C13231222206009
:1018F000142000901121284600F01CF8414261603C
:10190000226800201432282A04D81431282901D84A
:1019100020606060E97D302904D0312904D032296B
:1019200001D15A20A06038BD6FF05900FAE70000DD
:101930006001002030B5445C815CC25C039D64237F
:101940003039405D303A594302EB8202303801EBC6
:10195000420108442D2C00D1404230BD2DE9F04118
:1019600006460F4600F016FA041E0D4618BF012069
:10197000284320F00040C0F17F6000F1E040C00F3C
:101980000ED0301C18BF0120384320F00040C0F1B9
:101990007F6000F1E040C00F04BF0120FEF75BFD57
:1019A00020462946BDE8F08121F00042A2F16052B4
:1019B000B2F5801F01F0004328BFD2F17F6C0BD934
:1019C0005FEA001C43EAC20242EB507018BF704746
:1019D00028BF20F001007047B2F5801FBCBF184639
:1019E00070474FEA410C1CF5001F02D2084600F078
:1019F00074BC70B500F079F900000089FFF7F6BFFC
:101A00004FF00040A0F58000704700002DE9C04174
:101A100030B4DFF8A0C23CEA111418BF3CEA13143A
:101A200000F0EC8081EA03051CEA111444EAD57445
:101A300018BF1CEA131500F0C780A4EB05044FF093
:101A4000004545EAC12145EAC32341EA505143EA32
:101A5000525304F17F74994204F500344FEAC020D8
:101A60004FEAC22208BF904200F09C804FEA136503
:101A70000FF24016765D4FEA134506FB05F7C7F1F6
:101A8000807706FB07F74FEAD737A7FB0368764254
:101A9000C8F58038A7FB06CE38BFA8F1010807FBC0
:101AA00008E64FF0000EA6FB028CE6FB03CEDCF14D
:101AB000000CCEF1004E38BFAEF1010EA6FB0C5863
:101AC0004FF000074FF00005E6FB0E87A1FB08C6AC
:101AD000A0FB07CE16EB0E0645F10005E1FB0765FE
:101AE00015F1E04E7EBFA4F580345FEA46066D41F5
:101AF00016F1800745F100054FEA17274FEA066601
:101B000047EA0567A6F1DE46B6F1805F4FEA152584
:101B10001FD9384624F0010C05EBC471BCF1FE6FEF
:101B200001EB0C1102D8F0BCBDE8008124425CBF7F
:101B300001F5801E9EEAC47F02D4F0BCBDE800819E
:101B4000244238D4F0BCA1F1C041BDE8004100F00E
:101B50001AB94FEAD22242EA43524FEAD323A7FBF3
:101B600002864FEAD02040EA415007FB03661EEA96
:101B70000E0F4FEAD12105FB026658BFA6EB0056B7
:101B8000B6EB00564FEA520E4EEAC37E18EB0E0E2D
:101B900056EB530EBDD518EB02085E417F1C55F184
:101BA0000005B6E74FF480154FF000074FF0000630
:101BB0004FF00008ADE7F0BC4FF0000001F1C0416C
:101BC00001F00041BDE8008111EA0C1F0CEA131579
:101BD00000D00CE013EA0C1F00F025804FF000004D
:101BE000F0BC81EA030101F00041BDE80081F0BCD6
:101BF000BDE8004181EA030100F0C5B8F0BCBDE8D2
:101C0000004170B500F071F8097EFC3E00F007B8A5
:101C100081EA03014FF0000001F00041704781EAC2
:101C2000030100F0B0B8F0BCBDE800414FF0000087
:101C300021497047FFFDFBF9F7F5F4F2F0EEEDEB0B
:101C4000E9E8E6E4E3E1E0DEDDDBDAD8D7D5D4D3BA
:101C5000D1D0CFCDCCCBCAC8C7C6C5C4C2C1C0BF06
:101C6000BEBDBCBBBAB9B8B7B6B5B4B3B2B1B0AF0C
:101C7000AEADACABAAA9A8A8A7A6A5A4A3A3A2A1F0
:101C8000A09F9F9E9D9C9C9B9A99999897979695AB
:101C900095949393929191908F8F8E8E8D8C8C8B47
:101CA0008B8A8989888887878685858484838382CF
:101CB000828181800000FF070000F87F10F0004261
:101CC00048BF4042B0FA80F310FA03F10AD0C3F1E2
:101CD0001D0303F580634FEA415002EB035202EB10
:101CE000D12170474FF0000070470EF1020E2EF028
:101CF000030E5EF8046B364205D4012A43EB03055C
:101D000015F5001F12D8012841EB010C1CF5001F2E
:101D10000CD80ED14FEAD17C15F5001F0CEB4C0C02
:101D20000CF1020C08BF4CEBD37C04E04FF0080C24
:101D300001E04FEAD37C0CEB4C0526FA05F606F0E1
:101D40000706B6F1040C06D20EEB860CBDE8704017
:101D50004CF0010C6047DFE80CF0090B02024FF079
:101D600000414FF00000A1F5002170BD194610465A
:101D7000012851EB010418BFD4F5001484BF0020E2
:101D800001F0004170BD0808A0F500114FEA3101D3
:101D9000704700002DE9F04101F5801CBCF5001FE3
:101DA000C0F2C3804FEA115C21EA0C510CF1FD0C2A
:101DB00041F480115FEA5C0C0CF5C07C01D340005B
:101DC00049413DA4890241EA905187028E0E0A0CD6
:101DD000A45D04FB04F602FB06F6C6F14046A4FB34
:101DE0000662F60D46EA422606FB06F4A4FB012332
:101DF0005242C3F1404338BF5B1EA6FB024200249F
:101E0000E6FB0324D20B42EA4446A6FB0623A1FBD1
:101E100002E2A3FB07E4A4184FF0000252F1000213
:101E2000E3FB01426442C2F1404E38BFAEF1010E05
:101E3000A6FB04234FF00002E6FB0E32A2FB034692
:101E40004FF00004B61954F10004E2FB0264A1FB58
:101E500006E6A4FB07E816EB08064FF0000858F169
:101E60000008E4FB01687642C8F1405838BFA8F189
:101E70000108A2FB06E4A3FB08E52D194FF00004BE
:101E800054F10004E2FB0854A1FB05E6A7FB04E8BB
:101E900018EB06084FF0000656F10006E1FB048639
:101EA00018F1200556F10006A809A8F11B08B10990
:101EB00008F03F08B8F10A0F40EA86601CD901EB30
:101EC0000C51BDE8F08100BFFCF5EEE8E2DDD8D3AF
:101ED000CFCBC7C3C0BDB9B6B4B1AEACA9A7A5A39B
:101EE000A19F9D9B9A9896959392908F8D8C8B89AC
:101EF0008887868584838281A0FB006800FB01F2CD
:101F000008EB4208B8EB872807D5341858EB0104D2
:101F1000D5D5401C51F10001D1E7341A78EB01040A
:101F2000CDD4401E71F10001C9E75FEA4C0C5FEAB5
:101F30009C5C0DD105D34FF0000001F00041BDE8DD
:101F4000F081BDE8F04170B5FFF7CFFE6DDBFFBE5D
:101F5000BDE8F0414FF00000004970470000F87FF5
:101F60004FF47F0C1CEAD0121EBF1CEAD11392EA78
:101F70000C0F93EA0C0F00F0858090EA010F48BF28
:101F800042F4807240F4000C41F400002CF07F41D8
:101F900020F07F4000B58142A2EB03020FF2081C43
:101FA000ACEB504EC0F100009EF800E04FEA4E0E40
:101FB00000FB0EFC38BF49004FEA2C1C02F5FA0268
:101FC0000CFB0EF34FEACE1E4FEA112C4FEAC12153
:101FD0000EEB635E42EB22420EFB0CFC4FEA1C53FD
:101FE00000FB03114FEA112C4FEA01310EFB0CFCF0
:101FF0004FEADC4C00FB0C11C14228BF09184CEB26
:1020000003335DF804EB10EB410143EBC250B2F532
:102010007C0F38BF704729D512F0F00F1CBF00F1BC
:10202000C04000F00040704700818283848586872D
:1020300088898B8C8D8E8F919293959697999A9C87
:102040009D9FA0A2A3A5A7A8AAACAEB0B2B3B5B7F6
:10205000B9BCBEC0C2C5C7C9CCCED1D4D7D9DCDFCC
:10206000E2E6E9ECF0F3F7FAFE0000004FEA400C7C
:102070000CF1807CBCF17E4F28BF7047B0F1C040AE
:1020800000F02BB990EA010F0CEAD11348BF42F4DB
:102090008072624538BF634507D213F47F0F16D0B4
:1020A00080EA010000F00040704710B500F0CFF862
:1020B000097EFC3E00F005B880EA010000F0004017
:1020C000704780EA010000F0004000F006B912F409
:1020D0007F0F04BF0248704780EA010000F0FDB89E
:1020E0000000C07F41000B0ED3F19E0208D950F4CE
:1020F00000034FEA032323FA02F048BF404270472F
:1021000010B500F0A4F800BF499224800020704769
:102110006FF0004282EA20007047000010F000419A
:1021200048BF4042B0FA80F310FA03F2C3F19D03B6
:102130000BD051EAC35101EB1220530638BF704750
:1021400000F1010008BF20F0010070474FF47F0C40
:102150001CEAD0121EBF1CEAD11392EA0C0F93EABC
:102160000C0F00F0478090EA010F48BF42F48072E4
:102170004FF0004C4CEA00204CEA012102EB030234
:10218000A0FB0113A2F50002002918BF43F00103D0
:102190005B0028BF4FEA330342EB22425FEA132C75
:1021A0004CEBC2502EBFBCEB436FB2F57C0F7047B7
:1021B0004FEA036CBCF1004F08BF20F00100B2F5FC
:1021C0007C0F38BF70470BD582F0FF0212F5803FBD
:1021D000C8BF704700F1C040D8BF00F00040704752
:1021E00000F5000C5FEA4C0C48BF7047B0F1C040EE
:1021F00000F073B890EA010F0CEAD11348BF42F423
:102200008072624538BF634504D280EA010000F065
:102210000040704710B500F01AF800BF8900013E79
:1022200000F007B800F009B85FEA410C5FEA1C6CE7
:1022300008D080EA010000F050B85FEA400C5FEA85
:102240001C6CF6D14FF00040A0F5800070470EF1F5
:10225000020E2EF0030E5EF8044B244204D44FEA23
:102260004102B2F17F4F11D84FEA4003B3F17F4FE3
:102270000CD80ED14FEAD07CB2F17F4F0CEB4C0C56
:102280000CF1020C08BF4CEBD17C04E04FF0080CC1
:1022900001E04FEAD17C0CEB4C0324FA03F404F088
:1022A0000704B4F1040C06D20EEB840CBDE8104018
:1022B0004CF0010C6047DFE80CF0070802024FF019
:1022C0000040A0F5800010BD0846420018BFD2F1C2
:1022D000807288BF00F0004010BDFF2141EAD0505D
:1022E000C0057047010202030405060708090A0B2E
:1022F0000C0D0E0F10100000000000000000010285
:10230000030406070809000000000102030404009A
:1023100000080000000000000002000100001000A2
:1023200040230008000000201800000028010008D9
:102330005823000818000020C807000044010008C6
:1023400001000000100000000000000000127A00F0
:08235000000000000000000085
:04000005080000ED02
:00000001FF
