:020000040800F2
:1000000000090020BD0100086D23000865230008D9
:100010006923000899060008352600080000000042
:100020000000000000000000000000007523000830
:100030009D0600080000000071230008CD24000880
:10004000D7010008D7010008D7010008D701000830
:10005000D7010008D7010008D7010008D701000820
:10006000D7010008D7010008D7010008D701000810
:10007000D7010008D7010008D7010008D701000800
:10008000D7010008D7010008D7010008D7010008F0
:10009000D7010008D7010008D7010008D7010008E0
:1000A000D7010008D7010008D7010008D7010008D0
:1000B000D7010008D7010008D7010008D7010008C0
:1000C000D7010008D7010008D7010008D7010008B0
:1000D000D7010008D7010008D70100082926000829
:1000E000D7010008D7010008D701000800F002F886
:1000F00000F055F814A696E8000CB244B344DA4573
:1001000001D100F04CF8BAE80F000FA696E83000D5
:10011000A5EB040504EB0607AAEB0704A7F101070A
:100120004FEA15154FEA3414A4F10104AC4201D38F
:1001300000F035F813F0010F18BFFB1A43F001036C
:1001400000F001F8DBE71847D83A0000F83A000061
:10015000103A24BF78C878C1FAD8520724BF30C8F3
:1001600030C144BF04680C60704700007047000055
:100170000023002400250026103A28BF78C1FBD8B0
:10018000520728BF30C148BF0B607047642900F098
:100190007180002070471FB51FBD10B510BD00F065
:1001A00045FA1146FFF7F7FF02F046FA00F063FA4E
:1001B00003B4FFF7F2FF03BC00F066FA094880477A
:1001C00009480047FEE7FEE7FEE7FEE7FEE7FEE739
:1001D000FEE7FEE7FEE7FEE704480549054A064B51
:1001E00070470000D1240008ED0000080003002043
:1001F0000009002000050020000500200FB41CB5F8
:10020000074B06AA7B4469460090059800F0BBF9AD
:100210000020694600F0CAF91CBC5DF814FB000020
:10022000A503000070B5044685690068C10601D5C4
:10023000302600E02026C00707D070BDD4E9012198
:1002400030469047206A401C20626D1EF6D570BD76
:1002500070B5044685690078C00707D170BDD4E940
:10026000012120209047206A401C20626D1EF6D597
:1002700070BD00002DE9F041064600241068752984
:10028000314616A510D0AFF30080002802DA4042B4
:1002900013A507E031688A0701D512A502E04907D6
:1002A00004D511A5012401E0AFF3008000210A224A
:1002B00006F1240709E0B0FBF2FCB0FBF2F302FB0D
:1002C0001C00303078541846491C0028F3D12346CE
:1002D0002A463046BDE8F04100F0F7B800000000C3
:1002E0002D0000002B000000200000002DE9F05F31
:1002F000894604464FF0000ADFF824B1FB44C0F8F9
:1003000020A02046E168884700287DD0252806D017
:10031000D4E901219047206A401C2062F1E70025C2
:100320005F462046E16888472028064607DB312ED5
:1003300005D2B81910F8200C08B10543F1E7A80759
:1003400001D525F00405C4F81CA00027C4F818A0A6
:100350002A2E09D0304602F0BCFD38B304EB8708E2
:10036000303EC8F8186019E059F8041B204604EB29
:1003700087029161E1688847012F064618D1E0693C
:10038000002820DA25F020051DE0D8F8180000EB41
:10039000800006EB40003038C8F818002046E168BD
:1003A0008847064602F095FD0028EED1012F0AD0BD
:1003B0002E2E08D12046E16888477F1C0646022F72
:1003C00045F02005C4DBA069002803DA404245F06F
:1003D0000105A061E80701D025F01005A6B1A6F13E
:1003E0004100192802D8203645F400654A463146B6
:1003F000204625604D46FFF7C9FE60B1012807D0B1
:10040000ED1D25F0070000E007E000F1080978E79E
:1004100005F1040975E730467AE7206ABDE8F09FE8
:10042000E2380000032A40F2308010F0030C00F0A4
:10043000158011F8013BBCF1020F624498BF11F81E
:1004400001CB00F8013B38BF11F8013BA2F10402D7
:1004500098BF00F801CB38BF00F8013B11F003034F
:1004600000F0A980083AC0F0088051F8043B083A2F
:1004700051F804CBA0E80810F5E7121D5CBF51F855
:10048000043B40F8043BAFF30080D20724BF11F8CF
:10049000013B11F801CB48BF11F8012B24BF00F834
:1004A000013B00F801CB48BF00F8012B70477047B3
:1004B0007047704710B500F0B1F8006810BD10B576
:1004C000044600F0ABF8046010BD2DE9F0470D467E
:1004D00099469246044600F124080168880604D52E
:1004E000E06921F01001216000E00120A84201DD57
:1004F000471B00E00027A1697A1902EB0900081ADE
:10050000A0612078C00602D42046FFF78BFE0026AB
:1005100008E0D4E901211AF806009047206A401C3F
:10052000761C20624E45F4DB2078C0060AD52046B2
:10053000FFF778FE06E0D4E9012130209047206AD9
:10054000401C2062381EA7F10107F4DC07E0D4E963
:10055000012118F805009047206A401C2062281EDF
:10056000A5F10105F3DC2046FFF772FE20780006B6
:1005700002D50220BDE8F0870120FBE701694A1C93
:1005800002610878704700B58FB0CDE901310021D4
:10059000059105497944CDE9031011466846FFF7F6
:1005A000A5FE0FB000BD0000E5FFFFFF0A6802F8DE
:1005B000010B0A60704710B5203AC0F00B80B1E81B
:1005C0001850A0E81850B1E81850A0E81850203A88
:1005D000BFF4F5AF5FEA027C24BFB1E81850A0E891
:1005E000185044BF18C918C0BDE810405FEA827CAB
:1005F00024BF51F8043B40F8043B08BF7047D207C2
:1006000028BF31F8023B48BF11F8012B28BF20F862
:10061000023B48BF00F8012B7047000000487047BC
:100620001800002000487047180000207546FFF7AA
:10063000F9FFAE4605006946534620F0070085469F
:1006400018B020B5FFF7C8FDBDE820404FF0000608
:100650004FF000074FF000084FF0000BAC46ACE83D
:10066000C009ACE8C009ACE8C009ACE8C00921F099
:1006700007018D46704710B50446AFF30080204651
:10068000BDE81040FFF794BD01491820ABBEFEE75E
:100690002600020070470000FEE7000070470000DF
:1006A000014690F82100022816D10868D1E90FC34D
:1006B000026822F00E020260026822F0010202606B
:1006C000012000FA03F2CCF8042081F82100002078
:1006D000002281F820207047042088630120002236
:1006E00081F820207047000090F82110022923D1C2
:1006F000026840F2040C1168C4F2020C21F00E01F1
:10070000116013682F21C4F202018A4223F0010311
:10071000136015DD3023C4F202039A421CD0442337
:10072000C4F202039A421BD05823C4F202039A4235
:100730001CD14FF4803321E00421816301207047F4
:100740000823C4F202039A420ED01C23C4F202030F
:100750009A420BD1102311E04FF480730EE000BFDA
:100760004FF480530AE000BF012307E00CF1680159
:100770004FF080738A4208BF4FF480130121CCF8F8
:10078000003080F82110416B0022002980F82020E1
:1007900004BF0020704780B58847002080BD00005E
:1007A000B0B5044600F018F9054640F20000C2F268
:1007B00000000078611C18BF044400BF00F00CF971
:1007C000401BA042FAD3B0BD2DE9F04F82B00E68B5
:1007D000002E00F0FD8041F20042C4F20102042329
:1007E00040F2004E904208BF03234FF6FF7CC4F254
:1007F000010E009300240123C1F2100C4FF0000AF7
:100800004FF000094BE000BF41F20002C4F20102C8
:10081000009F904208BF022704F00C030F229A4069
:100820002BEA020207FA03F34FEA9A051A4346F845
:1008300025204E6840F20C45F202DEF8082054BF35
:1008400022EA080242EA0802C4F20105CEF80820B2
:100850002A68B30254BF22EA080242EA08022A6068
:10086000B303DEF8042054BF22EA080242EA080279
:10087000F303CEF80420DEF800204FF0010354BF4C
:1008800022EA080242EA0802CEF800200E680AF1C5
:10089000010A36FA0AF204F1040400F0998003FA1E
:1008A0000AFB16EA0B08F1D04E68664512DC122EE0
:1008B00056D8DFE806F0350B4D4955555555555579
:1008C0005555555555555545510000BFD1F80C901B
:1008D00046E000BF4FF6FF72C1F2210296420FDCE4
:1008E0000022C1F2110296421AD00022C1F2120275
:1008F000964215D00022C1F22102964210D02FE07C
:100900000022C1F2220296420AD00022C1F2310234
:10091000964205D00022C1F23202964220D100BF99
:100920008A684AB1012A14BFC0F814B0C0F810B0E8
:100930004FF0080914E000BF4FF0040910E000BFB9
:10094000CA6802F104090BE04FF0000908E000BF9B
:10095000CA6802F1080903E0CA6802F10C0900BF85
:1009600002462646B8F5807F24BF0432203E176831
:100970000F25B54027EA050509FA06F63543156047
:10098000CA79D2067FF582AF41F21803C4F202039E
:100990001A68AEF57E7642F001021A601A6802F01B
:1009A00001020192019A2AF0030256F802B040F6C1
:1009B0000002C4F20102904208D040F60042C4F2A4
:1009C000010290427FF420AF012725E7002723E7AB
:1009D00002B0BDE8F08F000040F2F420C2F2000047
:1009E0000068704740F2000040F2F421C2F20000BB
:1009F000C2F2000100780A681044086070470000E5
:100A000080B542F20000C4F20200016841F010011A
:100A10000160032000F08CF80F2000F005F800F0D2
:100A200027F8002080BD000070B540F20006C2F239
:100A3000000640F208013278C2F200014FF47A73E6
:100A40000968B3FBF2F20446B1FBF2F1084600F08C
:100A500085FB0F2C4FF0010508D838B94FF0FF3057
:100A600021460022002500F037F87460284670BD4A
:100A700082B041F21800C4F202000168022241F083
:100A800001010160016801F00101019101994168D2
:100A900041F080514160406800F080500090009823
:100AA0000420C4F20100016862F31A61016002B01F
:100AB00070470000002848BF704700F01F01012266
:100AC00002FA01F11C2202EAD0004EF20012CEF22C
:100AD000000281507047000010B54EF60C5CCEF25B
:100AE000000CDCF80030C3F3022E8EF00704042C57
:100AF00028BF0424BEF103034FF0FF3E0EFA04F4B6
:100B000038BF0023A14399400EFA03F39A431143DF
:100B100000F00F0200F160430901043A03F5644359
:100B20006244002848BF02F10C03197010BD000098
:100B30004EF60C51CEF200010A684FF6FF031A4040
:100B400060F30A2242F0806040F0FD700860704758
:100B5000002804BF012070472DE9F04381B042F224
:100B60000008C4F202080446D8F800000D4600F060
:100B7000070081420CD9D8F8000020F00700284374
:100B8000C8F80000D8F8000000F00700A8426CD1B7
:100B9000206841F204098107C4F2020917D5410710
:100BA00005D5D9F8001041F4E061C9F8001001073B
:100BB00005D5D9F8001041F46051C9F80010D9F8F2
:100BC0000010A26821F0F0011143C9F80010C0071D
:100BD00042D1D8F8000000F0070085420CD2D8F8C6
:100BE000000020F007002843C8F80000D8F80000F3
:100BF00000F00700A84238D12068410707D5D9F88E
:100C00000010E26821F4E0611143C9F80010000708
:100C100008D5D9F80000216920F4605040EAC100ED
:100C2000C9F80000D9F8002002F00C00082841F2B1
:100C30000020C0F27A004DD143F60D43C2F3834148
:100C4000C0F60003595CD20338D440F60010C0F25D
:100C50003D0048433EE000BF606859F8041C02288C
:100C600008D0012826D1890306D4012001B0BDE8AF
:100C7000F08300BF8901F8D5D9F8001021F00301F5
:100C80000843C9F80000FFF7A7FE064641F288377F
:100C9000D9F80000616800F00C00B0EB810F98D02B
:100CA000FFF79AFE801BB842F2D9032001B0BDE8DD
:100CB000F08300BF8907D8D5DEE700BFD9F8002050
:100CC00043F60B43C2F34042C0F600039A5C48432C
:100CD000B0FBF2F0D9F8001043F6F332C1F3031180
:100CE000C0F60002515C40F2080220FA01F140F225
:100CF0000400C2F200000068C2F200021160FFF7B7
:100D000093FE002001B0BDE8F083000040F208002F
:100D100041F20401C2F20000C4F202010068096855
:100D200043F60342C1F30221C0F60002515CC84001
:100D30007047000040F2080041F20401C2F20000D6
:100D4000C4F202010068096843F60342C1F3C221FC
:100D5000C0F60002515CC84070470000002804BF84
:100D6000012070472DE9F04182B00446007841F23D
:100D70000006C007C4F202060CD0706800F00C0038
:100D8000042840F081803068800303D56068002823
:100D900000F04681207880071BD5706810F00C0F9A
:100DA00009D0706800F00C00082840F08780706857
:100DB000C00300F183803068800703D520690128D3
:100DC00040F02E813068616920F0F80040EAC100EF
:100DD00030602078000713D4207840072CD4E569D0
:100DE000002D00F01881706800F00C00082840F019
:100DF000A780012D40F00481012002B0BDE8F08100
:100E0000A069002800F084800020C4F24220012163
:100E1000C0F88014FFF7E0FD054600BF706A800748
:100E200000F1B280FFF7D8FD401B0228F6D903205D
:100E300002B0BDE8F08100BFF0695FEAC00808D4E5
:100E4000F06940F08050F061F06900F0805000904F
:100E5000009847F20007C4F200073868C00549D47B
:100E6000386840F480703860FFF7B6FD054600BF73
:100E70003868C0053ED4FFF7AFFD401B6428F7D9A2
:100E8000032002B0BDE8F081706800F00C00082873
:100E900003D17068C0033FF576AF61683068002900
:100EA00000F00C81B1F5A02F00F00081B1F5803F7A
:100EB00040F01A8140F480301CE100BF2069002816
:100EC00040F20000C4F2422000F08880012101605D
:100ED000FFF782FD054600BF306880073FF572AF1F
:100EE000FFF77AFD401B0228F6D9032002B0BDE8C7
:100EF000F08100BFE168306A002900F09D8005297B
:100F000000F09280012940F0AF8040F00100B1E094
:100F10000020C4F242200021C0F88014FFF75CFDDD
:100F2000054600BF706A80077FF556AFFFF754FD96
:100F3000401B0228F6D9032002B0BDE8F08100BFB3
:100F40000027C4F2422700203866FFF745FD022D36
:100F500005460DD13068800140F1DE80FFF73CFD91
:100F6000401B02284FF00300F4D902B0BDE8F08125
:100F7000306880014FD5FFF72FFD401B02284FF04E
:100F80000300F5D9F1E700BF40F20800C2F200000B
:100F9000006844F6D351C1F26201A0FB0101480A86
:100FA000019000BF00BF0198411E002801913FF44D
:100FB00013AF00BF0198411E002801913FF40CAF10
:100FC00000BF0198411E002801913FF405AF00BF0A
:100FD0000198411E00280191E4D1FDE60021016045
:100FE000FFF7FAFC054600BF306880077FF5F1AED9
:100FF000FFF7F2FC401B02284FF00300F4D9B4E7DE
:101000007068216A00F480328A4209D1616A00F472
:101010007010884204D1002002B0BDE8F08100BF0A
:10102000012002B0BDE8F08140F004003062306A77
:1010300040F001001EE000BF20F001003062306A85
:1010400020F004003062FFF7C7FC054641F2883704
:10105000306A800720D5FFF7BFFC401BB8424FF035
:101060000300F5D981E700BF20F001003062306A4B
:1010700020F004003062FFF7AFFC054641F28837EC
:10108000306A800708D4FFF7A7FC401BB842F7D9A5
:10109000032002B0BDE8F081B8F1000F3FF59FAE2C
:1010A000F06920F08050F06199E600BF40F48020A4
:1010B0003060306840F480301CE000BF20F48030A5
:1010C0003060306820F480203060FFF785FC0546F2
:1010D000306880037FF55EAEFFF77EFC401B64281E
:1010E0004FF00300F4D940E720F4803030603068DE
:1010F00020F480203060FFF76FFC054630688003E5
:101100003FF548AEFFF768FC401B6428F6D9032082
:1011100002B0BDE8F08100BF206AB0F5803F05D184
:101120007168A26821F40031114371607168626ACC
:1011300021F4741111430843706001203866FFF7F1
:101140004BFC0446306880013FF565AFFFF744FC77
:10115000001B02284FF00300F4D906E7411E0020CF
:10116000B0EB116F1CBF012070474EF21002CEF29F
:10117000000251604EF62351CEF20001F0230B70B5
:10118000072190601160704790F83C20012A4FF0D1
:10119000020236D010B580F83D200268D2F804E093
:1011A000D2F808C00C682EF07003234340F2FF749D
:1011B000C4F20004A24253600ADCB2F1804F13D0A3
:1011C00040F20043C4F200039A420DD011E000BF88
:1011D00042F60043C4F201039A4205D040F60003F0
:1011E000C4F200039A4204D149682CF080031943E9
:1011F00091600121002280F83D1080F83C20BDE87C
:101200001040104670470000002804BF01207047BE
:1012100010B590F83D1031B9002180F83C1004461B
:1012200000F070F82046022180F83D10016840F27D
:10123000FF740B68C4F2000442F6004CA142C4F2F1
:10124000010C15DCB1F1804F1AD040F20042C4F21B
:101250000002914214D0A14218DCB1F1804F1DD0A0
:1012600040F20042C4F20002914217D01AE000BFDF
:10127000614505D040F60002C4F200029142EAD175
:10128000826823F070031343A142E6DD614505D077
:1012900040F60002C4F20002914203D1026923F435
:1012A00040731343846923F08002D0F804E0C368DC
:1012B000224361450A60CB62C1F828E002D142694D
:1012C000CCF8302001224A610B69DB0703D00B699F
:1012D00023F001030B6180F8462080F83E2080F85F
:1012E0003F2080F8402080F8412080F8422080F89C
:1012F000432080F8442080F8452080F83D200020DD
:1013000010BD000083B0006840F60001C4F2000187
:10131000884227D040F20041C4F20001884211D037
:10132000B0F1804F2BD141F21C00C4F202000168E1
:1013300041F001010160006800F001000290029894
:1013400003B0704741F21C00C4F20200016841F092
:1013500002010160006800F002000190019803B0F2
:10136000704700BF41F21C00C4F20200016841F066
:1013700004010160006800F004000090009803B0D0
:101380007047000090F83C20012A4FF002026CD018
:1013900080B580F83D20D0F800C04FF67772DCF8B9
:1013A000083023EA0202CCF808200B684F2B29DC16
:1013B0001F2B45DD202B46D0302B44D0402B40F056
:1013C000AF80D1F804E0C968DCF82030DCF82020D8
:1013D00022F00102CCF82020DCF8182022F0F002E4
:1013E00042EA011123F00A0242EA0E02CCF8181078
:1013F000CCF82020DCF8081041F0470121F0300142
:1014000028E000BF6F2B33DDB3F5005F74D0B3F578
:10141000805F21D0702B40F08380D1E901E3C9685F
:10142000DCF8082043EA0E0322F47F4243EA01215C
:101430001143CCF80810DCF8081041F0770109E0FE
:101440000BB1102B6CD1DCF8081021F0700119439E
:1014500041F00701CCF808100022012180F83D106E
:10146000002180F83C10BDE880401046704700BF66
:10147000502B21D0602B53D1D1F804E0C968DCF89F
:101480002030DCF8202022F01002CCF82020DCF8FC
:10149000182022F4704242EA013123F0A00242EA0D
:1014A0000E12CCF81810CCF82020DCF8081041F00F
:1014B000670121F01001CDE7D1F804E0C968DCF83C
:1014C0002030DCF8202022F00102CCF82020DCF8CB
:1014D000182022F0F00242EA011123F00A0242EA47
:1014E0000E02CCF81810CCF82020DCF8081041F0DF
:1014F000570121F02001ADE7D1E901E3C968DCF82B
:10150000082043EA0E0322F47F4243EA01211143FB
:10151000CCF80810DCF8081041F480419AE700BFCD
:1015200001229AE780B586B0006840F60001C4F257
:10153000000188424FF00001CDE90411CDE902110C
:1015400060D040F20041C4F2000188422ED0B0F1D8
:10155000804F71D141F21800C4F20200016841F0DD
:1015600008010160006802A900F0080001900198DC
:101570000820029002200390059040F60040C4F23B
:101580000100FFF721F90420C4F201004FF2FF32FD
:101590000168CFF6FF0202F51062114041F0E061F0
:1015A00041F48071016006B080BD00BF41F21800B7
:1015B000C4F20200016841F008010160006802A95C
:1015C00000F0080001900198102002900220039082
:1015D000059040F60040C4F20100FFF7F5F8042042
:1015E000C4F2010001684FF2FF32CFF6FF02114052
:1015F00001F1E06101F5807101F5E061016006B083
:1016000080BD00BF41F21800C4F20200016841F041
:1016100008010160006802A900F00800019001982B
:101620004FF47070029002200390059040F6004045
:10163000C4F20100FFF7C8F806B080BD90F83C3056
:10164000012B04BF022070474FEAB202032A00F2C6
:10165000F1802DE9F043DFE802F003A53B7500BF00
:10166000036842F600461D6A1A6AC4F2010622F0B7
:1016700001021A621A465C6852F818CFB3428E68AB
:10168000D1F800E025F0020545EA06050CD1CE6848
:10169000D1E9057824F4407425F00C0526F0040601
:1016A0003C43354344EA08042CF0730747EA0E072D
:1016B0005C609F614F6809695F631D629F6947F0C5
:1016C00008079F619F6927F004079F61A6E000BF9C
:1016D000036842F600461D6A1A6AC4F2010622F443
:1016E00080721A621A46D3F804C052F81CEFB34253
:1016F0008E680C6825F4007545EA06250FD1CE6882
:10170000D1E90598360240F2FF4725F44065BE4313
:1017100035432CF4405748EA090647EA061C2EF0E8
:1017200073072743C3F804C0DF614F680969DF63AB
:101730001D62DF6947F00807DF61DF6927F00407F2
:10174000DF616BE0036842F60047D3F820C01A6AF5
:10175000C4F2010722F480521A621A465C6852F8F9
:101760001C5FD1F800E08E68BB4204D14F6924F4BD
:10177000804444EA87142CF4005747EA063725F4DE
:10178000E64646EA0E265C60DE614E6809691E6424
:101790001F62DF6947F40067DF61DF6927F4806754
:1017A000DF613AE0036842F600461D6A1A6AC4F235
:1017B000010622F010021A621A46D3F804C052F849
:1017C000184FB3428E68D1F800E025F0200545EAB5
:1017D00006150FD1CE68D1E905986FF0400725F0C6
:1017E000C00507EA061635432CF4406748EA0906A7
:1017F00047EA860C24F4E64444EA0E27C3F804C002
:101800009F614F6809699F631D629F6947F4006784
:101810009F619F6927F480679F61090213681943DC
:1018200011600021BDE8F043002280F83C2008460A
:10183000704700BF0121002280F83C200846704715
:10184000002804BF0120704710B590F83D1031B951
:10185000002180F83C10044600F070F82046022178
:1018600080F83D10016840F2FF740B68C4F2000478
:1018700042F6004CA142C4F2010C15DCB1F1804FDC
:101880001AD040F20042C4F20002914214D0A142A8
:1018900018DCB1F1804F1DD040F20042C4F20002CA
:1018A000914217D01AE000BF614505D040F6000212
:1018B000C4F200029142EAD1826823F0700313431C
:1018C000A142E6DD614505D040F60002C4F2000207
:1018D000914203D1026923F440731343846923F0D6
:1018E0008002D0F804E0C368224361450A60CB62FD
:1018F000C1F828E002D14269CCF8302001224A61C7
:101900000B69DB0703D00B6923F001030B6180F83F
:10191000462080F83E2080F83F2080F8402080F864
:10192000412080F8422080F8432080F8442080F84D
:10193000452080F83D20002010BD000070470000C9
:10194000C1B1042908D0082914BF41224022825C79
:10195000012A05D016E000BF3F22825C012A11D186
:101960000222082910D0042914BF80F8412080F8F1
:101970003F200BE090F83E20012A03D1022280F89C
:101980003E2003E00120704780F84020006801F00D
:101990001F010122036A8A4023EA02010162036AED
:1019A00042F64441C4F201011A43A1F144039842B2
:1019B00002620FD040F2FF71C4F20001884213DCD2
:1019C000B0F1804F1CD040F20041C4F200018842C7
:1019D00016D01CE00A6842F400420A6040F2FF712F
:1019E000C4F200018842EBDD42F60041C4F201017D
:1019F000884205D040F60001C4F20001884206D1B9
:101A0000816801F00701062904BF002070470168C2
:101A100041F00101016000207047000070470000A4
:101A200070470000B0B582B001680A68CC684B69A5
:101A300002F02F05202D04F0200505D125B102B0BC
:101A4000BDE8B04000F070BD5FEA027C1EBF03F04D
:101A5000010E04F4907313EB0E0341D1036BD50612
:101A600018D5012B16D114F0100313D000220192C7
:101A70000A6801924A680192019A496949064BD461
:101A8000818DC28DC38D002B18BF914240F0F4812F
:101A900002B0B0BD13062DD514F080032AD090F803
:101AA0004120212AF4D18268B2F5805F03D1026916
:101AB000002A00F06782026A531C036212784A60AF
:101AC000C28C013A1304C284E2D1C86820F08000BD
:101AD000C860C86840F04000C86002B0B0BD00BF38
:101AE000D30718BF14F4807340F0D080530700F17F
:101AF000D380D8E05206CBD514F04002C8D0CA68D3
:101B000022F04002CA60202180F8411002B0BDE8F6
:101B1000B04000F025BC00BFC16B0A68526893B2A8
:101B2000002BB5D0858DAB42B2D2C2858969202900
:101B300000F0A180016851E8031F026821F4807160
:101B400042E80313DBB1016851E8031F026821F486
:101B5000807142E8031393B1016851E8031F0268E2
:101B600021F4807142E803134BB1016851E8031F6F
:101B7000026821F4807142E80313002BDAD1016876
:101B800051E8051F026821F0010142E80513C3B3C3
:101B9000016851E8051F026821F0010142E80513C0
:101BA0007BB3016851E8051F026821F0010142E89A
:101BB000051333B3016851E8051F026821F00101E4
:101BC00042E80513002BDAD11BE000BF016851E8A1
:101BD000051F026821F0400142E80513DBB10168EE
:101BE00051E8051F026821F0400142E8051393B156
:101BF000016851E8051F026821F0400142E8051321
:101C00004BB1016851E8051F026821F0400142E82C
:101C10000513002BDAD1202180F842100021016346
:101C2000016851E8031F026821F0100142E8031324
:101C3000DBB1016851E8031F026821F0100142E89E
:101C4000031393B1016851E8031F026821F01001EA
:101C500042E803134BB1016851E8031F026821F009
:101C6000100142E80313002BDAD1C16B0446084689
:101C7000FEF716FD204602214163818DC28D891A2F
:101C800089B202B0BDE8B040FFF7C8BE436C43F074
:101C900001034364530706D5BEF1000F03D0436C24
:101CA00043F002034364930706D5BEF1000F03D04F
:101CB000436C43F004034364BCF1000F06D55EEAB5
:101CC000050303D0436C43F008034364436C002BCB
:101CD0003FF4DEAE920605D525B1044600F024FCA3
:101CE000216820464969426C01F0400102F0080277
:101CF000891800F0B98000BF016851E8031F02682D
:101D000021F4907142E80313BBB3016851E8031F4B
:101D1000026821F4907142E8031373B3016851E83B
:101D2000031F026821F4907142E803132BB301688A
:101D300051E8031F026821F4907142E80313002B5D
:101D4000DAD11AE0016851E8051F026821F00101AB
:101D500042E80513DBB1016851E8051F026821F074
:101D6000010142E8051393B1016851E8051F0268BB
:101D700021F0010142E805134BB1016851E8051F4C
:101D8000026821F0010142E80513002BDAD1016B52
:101D9000012924D1016851E8031F026821F01001D4
:101DA00042E80313DBB1016851E8031F026821F028
:101DB000100142E8031393B1016851E8031F026860
:101DC00021F0100142E803134BB1016851E8031FF1
:101DD000026821F0100142E80313002BDAD1202120
:101DE00080F842100021016301684969490640F109
:101DF000C380016851E8051F026821F0400142E8F4
:101E00000513DBB1016851E8051F026821F04001AC
:101E100042E8051393B1016851E8051F026821F0FB
:101E2000400142E805134BB1016851E8051F026803
:101E300021F0400142E80513002BDAD1C16B0029E3
:101E400000F09A8042F21D52C0F600020446084695
:101E50004A63FEF749FC00283FF41AAEE06B416B81
:101E600002B0BDE8B04008470446FFF7D9FD0020A6
:101E7000606402B0B0BD00BF891A00BF026852E8BA
:101E8000032F036822F4907243E80325BDB3026870
:101E900052E8032F036822F4907243E8032575B3D8
:101EA000026852E8032F036822F4907243E8032586
:101EB0002DB3026852E8032F036822F4907243E8BE
:101EC0000325002DDAD11AE0026852E8052F0368D5
:101ED00022F0010243E80525DDB1026852E8052F32
:101EE000036822F0010243E8052595B1026852E833
:101EF000052F036822F0010243E805254DB1026871
:101F000052E8052F036822F0010243E80525002D61
:101F1000DAD1202280F8422000220263026852E8CF
:101F2000032F036822F0100243E80325DDB10268A5
:101F300052E8032F036822F0100243E8032595B10D
:101F4000026852E8032F036822F0100243E80325D9
:101F50004DB1026852E8032F036822F0100243E8F3
:101F60000325002DDAD1022289B2426302B0BDE816
:101F7000B040FFF753BD00BF02B0BDE8B040FFF76F
:101F80004FBD00BF026A32F8023B6FF35F234B6024
:101F9000026295E5002804BF0120704710B5044691
:101FA00090F8410028B9002084F84000204600F055
:101FB00063F8242084F841002068D4E90212C36841
:101FC00023F40053C360036923F440531A430261AE
:101FD000D4E904231143C268194341F20C639A43C4
:101FE0001143C1604169A26921F44071114343F674
:101FF0000002C4F201029042416103D0FEF786FE66
:1020000002E000BFFEF796FED4E900231921484301
:102010009900B0FBF1F048F21F5CC5F2EB1CA0FB8D
:102020000C314FF69C734909C0F6FF7301FB0300A6
:10203000322303EB0010A0FB0C03F02000EA531046
:1020400000EB0110C3F34311084490601069202194
:1020500020F490401061506920F02A005061D0684F
:1020600040F40050D0600020606484F8411084F88F
:102070004210606310BD000070B586B040F60044A9
:10208000C4F201040068A4F5444100268842059684
:10209000CDE90366029601D006B070BD41F218008A
:1020A000C4F20200416802AD41F480214160416800
:1020B00001F4802101910199016841F0080101605A
:1020C0000068294600F00800019001984FF48060F4
:1020D000029002200390032005902046FEF774FB37
:1020E0004FF40060CDE90206204629460496FEF72B
:1020F0006BFB272000210022FEF7EEFC2720FEF7D5
:10210000D9FC06B070BD000090F84230202B07D1FA
:1021100000294FF0010318BF002A05D11846704767
:1021200002231846704700BF002303638162222107
:102130008285C285436480F842100169006819B144
:10214000C16841F48071C160416941F001014161A0
:10215000C16841F02001C1601846704740F2F82084
:10216000C2F20000007840F2F02140F29C224028A8
:10217000C2F20001C2F2000216D01278012A1AD06F
:10218000232805D140F2B020C2F2000001210170E5
:1021900040F2542040F2F821C2F20000C2F20001E5
:1021A0000122FFF7B1BF00BF00230B800123137092
:1021B0001278012AE4D10A88531C0B8040F278017E
:1021C000C2F2000188542328DCD0E1E72DE9F04376
:1021D00081B0044690F84100202809D100294FF031
:1021E000010018BF002A07D101B0BDE8F08300BF8D
:1021F000022001B0BDE8F0830020606421201D466C
:102200000E4684F841001746FEF7E6FBA784E784F4
:10221000A1688146B1F5805F02D1206900285DD0B8
:1022200037460020E28C2168002A5DD06A1C24D049
:10223000002D4AD0804600BF0868000608D4FEF78B
:10224000CBFBA0EB0900A8427AD82168C868F3E765
:1022500017B117F8010B04E038F8020B00276FF3F1
:102260005F204860E08C0138E084E08C0028E3D1F6
:102270003AE000BF0A68120609D40A68120606D4BA
:102280000A6812065CBF0A685FEA0262F2D51FB1F3
:1022900017F8012B05E000BF30F8022B00276FF381
:1022A0005F224A60E28C013AE284E28C002AE4D1A7
:1022B0001AE000BF30F8022B00276FF35F224A605C
:1022C000E28C013AE284E28C72B10A68120635D5DA
:1022D000002FEFD017F8012BF1E700BF00273046A1
:1022E000E28C2168002AA1D1086840061ED42DB3D3
:1022F000681C14D1086840062AD40868400627D410
:102300000868400624D4086840064FF00000F1D564
:102310000DE000BF2068C1680068400618D4FEF7D1
:102320005BFBA0EB0900A842F4D909E000202021C2
:1023300084F8411001B0BDE8F08300BFFEF74CFB0C
:102340000320202184F8411001B0BDE8F08300BFD4
:102350000020202184F8411001B0BDE8F083000086
:1023600070470000FEE70000FEE70000FEE7000007
:10237000704700007047000070B592B040F2A02096
:10238000C2F2000090E81A00C0680DF10B0601F2DD
:10239000DC5203F2DC5304F2DC5400F2DC5505A1FC
:1023A0003046CDE90045FDF729FF304600F092F8B0
:1023B00012B070BD23303031502530346454303089
:1023C00030302123303032502530346454303030B6
:1023D00030212330303350253034645430303030A5
:1023E00021233030345025303464543030303021A3
:1023F0000000000010B540F2CC2CC2F2000CBCF87A
:1024000000304FF48770B3F5877F28BF03464FF441
:10241000FA6E03FB0EF14BF6D713C0F2F203A1FBE9
:10242000031240F27C11C2F20001096802F5FA724F
:102430008A63BCF80410B1F5877F28BF014601FB11
:102440000EF1A1FB031240F2C411C2F200010968AF
:1024500002F5FA724A63BCF80810B1F5877F28BF0D
:10246000014601FB0EF1A1FB031240F20C21C2F266
:102470000001096802F5FA724A63BCF80C20B2F553
:10248000877F28BF024602FB0EF2A2FB032404F55D
:10249000FA728A63BCF81020B2F5877F28BF024623
:1024A00002FB0EF2A2FB032404F5FA72CA63BCF825
:1024B0001420B2F5877F38BF104600FB0EF0A0FB5A
:1024C000030202F5FA70086410BD0000FEF78ABA34
:1024D00070470000002808BF70470146002000BF79
:1024E00082B28A5C8AB140F0010293B2CB5C5BB1EC
:1024F00040F0020293B2CB5C33B140F0030293B2DE
:10250000CB5C0430002BEBD1104682B240F2542059
:10251000C2F200004FF0FF33FFF758BE406A0021BF
:10252000C185C184FFF77CBA81B090F8421022299E
:1025300021D183680246B3F5805F09D152F8281F84
:1025400052F8183C002B63D003685B680AE000BFB8
:1025500052F8281F13B90369002BF5D003685B6894
:1025600003F07F030B70116801311160C18D0139D7
:102570000A04C18502D001B0704700BF0168CA6873
:1025800022F02002CA60CA6822F48072CA604A69D6
:1025900022F001024A61202180F8421000214163AB
:1025A000026B012A3CD10163016851E8031F0268F4
:1025B00021F0100142E80313DBB1016851E8031F69
:1025C000026821F0100142E8031393B1016851E859
:1025D000031F026821F0100142E803134BB10168A8
:1025E00051E8031F026821F0100142E80313002B99
:1025F000DAD101680A68D20606D5002200920A687C
:102600000092496800910099818D01B0FFF706BAE8
:10261000026852686FF35F2221F8022B8162A5E7FE
:1026200001B0FFF79BBD000040F25420C2F2000051
:10263000FFF7F8B9FEE7000092B040F27800C2F26E
:1026400000000FF2DC313522FDF7ECFEFEF7D8F981
:1026500000240120CDE90B44CDE9094406900A90FD
:102660004FF4E0104FF4803102250F9006A8CDE919
:102670000714CDE90D51FEF771FB28B1EFF310807F
:1026800072B600BFFEE700BF0F20CDE901054FF491
:102690008060CDE9040401A802210394FEF758FAF2
:1026A00020B1EFF3108072B6FEE700BF002541F2C3
:1026B0001800CDE90855CDE90655C4F202000168BD
:1026C00040F2004441F0200101600168C4F20004BE
:1026D00001F0200101910199016841F008010160B8
:1026E000016801F0080101910199016841F00401BC
:1026F0000160006806A900F00400019001984FF401
:102700008070CDE9060504F582300895FEF75CF887
:1027100040F2542004F58841C2F200000C234FF42B
:10272000E13280E82600C0E90355C0E90535C561FE
:10273000FFF730FC20B1EFF3108072B6FEE700BF68
:1027400040F27C10C2F200004FF0804144F61F635B
:102750000495CDE90255CDE91055CDE90B55CDE9EC
:102760000955472280E82600C0E903358561FEF758
:102770004BFD28B1EFF3108072B600BFFEE700BF3B
:102780004FF48050019040F27C10C2F2000001A989
:10279000FEF7F8FD20B1EFF3108072B6FEE700BF40
:1027A00040F27C10C2F20000FFF74AF820B1EFF3CC
:1027B000108072B6FEE700BF40F27C10C2F200004B
:1027C00010A9FEF7E1FC28B1EFF3108072B600BF4C
:1027D000FEE700BF6020069040F27C100025C2F2A8
:1027E000000006A90422CDE907550A95FEF726FF49
:1027F00020B1EFF3108072B6FEE700BF40F27C100C
:10280000C2F20000FEF78EFE40F2C410C2F20000D9
:10281000472144F61F620495CDE90255CDE91055D4
:10282000CDE90B55CDE90955C0E90041C0E9025297
:1028300005618561FEF7E8FC20B1EFF3108072B608
:10284000FEE700BF4FF48050019040F2C410C2F286
:10285000000001A9FEF796FD20B1EFF3108072B6DB
:10286000FEE700BF40F2C410C2F20000FEF7E8FF2E
:1028700020B1EFF3108072B6FEE700BF40F2C41043
:10288000C2F2000010A9FEF77FFC18B1EFF3108030
:1028900072B6FEE76020069040F2C4100025C2F236
:1028A000000006A90022CDE907550A95FEF7C6FEED
:1028B00020B1EFF3108072B6FEE700BF40F2C41003
:1028C000C2F20000FEF72EFE40F20C2004F58061FB
:1028D000C2F2000044F61F630495CDE90255CDE92C
:1028E0001055CDE90B55CDE90955472280E8260062
:1028F000C0E903358561FEF787FC18B1EFF310805E
:1029000072B6FEE74FF48050019040F20C20C2F204
:10291000000001A9FEF736FD20B1EFF3108072B67A
:10292000FEE700BF40F20C20C2F20000FEF788FF75
:1029300020B1EFF3108072B6FEE700BF40F20C202A
:10294000C2F2000010A9FEF71FFC18B1EFF31080CF
:1029500072B6FEE7602006900020CDE907000A90DD
:1029600040F20C20C2F2000006A90022FEF766FE2B
:1029700020B1EFF3108072B6FEE700BF40F20C20EA
:10298000C2F2000006A90422FEF758FE20B1EFF3C0
:10299000108072B6FEE700BF40F20C20C2F20000C9
:1029A00006A90822FEF74AFE20B1EFF3108072B6A6
:1029B000FEE700BF40F20C20C2F2000006A90C2284
:1029C000FEF73CFE20B1EFF3108072B6FEE700BFC9
:1029D00040F20C20C2F20000FEF7A4FD00F06EFAF7
:1029E00000F038FA40F2B02540F2780440F29C271B
:1029F000C2F20005C2F200040026C2F200072878E5
:102A00000128FCD1204600F0EBF800F025F8FFF794
:102A1000B3FC00F0A1F9FFF7EDFC2E703E70EEE77D
:102A2000402C2B3030302C2B3030302C2B303030B1
:102A30002C3034352C3034352C302C302C30383888
:102A40002C2B3030302C2B3030302C2B3030302CA5
:102A500063732C23000000002DE9F04F81B040F299
:102A6000E420C2F20000D0E9001ED0F808C00EEB4E
:102A70000103A3EB0C074FF47A764DF2496A07FB8A
:102A800006F5CFF2B92A85FB0A58AEEB010505EB36
:102A90000C0202FB06F585FB0A5901EB0C050091BF
:102AA000AEEB050101FB06F585FB0A5B03EB0C04AD
:102AB00007FB068504FB06F383FB0A3002FB069244
:102AC0002B1201FB06B103EBD575131204FB0600B4
:102AD00003EBD2770A1240F2A02802EBD173011265
:102AE000C2F2000801EBD074002DC8F80050C8F8FD
:102AF0000470C8F80830C8F80C4048BF6D42002F79
:102B000048BF7F42BD4288BF2F46002B48BF5B4273
:102B10009F4288BF3B46002C48BF64420098A342B6
:102B200000FB00F00EFB0E0088BF1C460CFB0C00E7
:102B300000F08AFB00F0D4F948F20003C4F2560317
:102B4000002200F025FA00F0F1F94FF07E51054621
:102B500000F038FD0021002818BF4FF07E55C4F268
:102B60007A41284600F0FCFE0546204600F07CFE37
:102B70000146284600F04EFD0446D8E90007D8E992
:102B8000026500F059FE0146204600F0E9FE00F023
:102B900037FEC8F80000384600F04EFE01462046D9
:102BA00000F0DEFE00F02CFEC8F80400304600F015
:102BB00043FE0146204600F0D3FE00F021FEC8F897
:102BC0000800284600F038FE0146204600F0C8FE06
:102BD00000F016FEC8F80C0001B0BDE8F08F000050
:102BE00070B5C27803794FF0640E417902FB0EF2A2
:102BF00003EB830302EB430290F802C0114441F25D
:102C0000D043CC1ABCF12D0F08BF5C1A027A457A6A
:102C1000867A02FB0EF205EB850502EB450240F2D7
:102C2000E42CC1791644C2F2000CF21ACCF8004030
:102C30002D2908BF9A1B04F114035142282BCCF80C
:102C4000041006D802F1140128299CBF0021CCE908
:102C50000011417F3039CAB2022A04D83BA151F891
:102C60002210CCF80810827CC37C4FF0640C067DE7
:102C700002FB0CF203EB830302EB4302324441F20A
:102C8000D043D61A40F2B422C2F20002166090F885
:102C9000246090F8254090F8261006FB0CF604EB13
:102CA000840406EB440690F823503144CE1A2D2DAF
:102CB00008BF5E1A566090F8296090F82A5090F884
:102CC0002B4006FB0CF605EB850506EB450690F858
:102CD00028102644F51A2D2908BF9D1B956090F8F1
:102CE0002E6090F82F5090F8304006FB0CF605EB64
:102CF000850506EB450690F82D102644F51A2D297A
:102D000008BF9D1BC17D067ED560457E01FB0CF191
:102D100006EB860601EB4601C47E2944C91A1161FF
:102D2000A4F130011175C17F90F8202090F82100A6
:102D300001FB0CF102EB820201EB4201084440F27C
:102D400078113030C2F20001087070BD0000000040
:102D5000C4FFFFFF3C0000002DE9F0410520FDF716
:102D60001FFD40F2B428C2F20008D8F8000040F27B
:102D70000C071E28C2F2000704D838684FF0404103
:102D800007E000BF3D383C681D2806D820464FF0BC
:102D9000804100F0A7FB044638600025C4F2873567
:102DA0002046294600F00EFC28B9204600210025C7
:102DB00000F00FFC08B92C463D60204600F020FDD5
:102DC00040F2CC27C2F2000738600520FDF7E8FC8E
:102DD000D8F8100040F210061E28C2F2000603D8F0
:102DE00030684FF0804106E03D3834681D2806D831
:102DF00020464FF0404100F075FB0446306000254E
:102E0000C4F261352046294600F0DCFB38B90025C4
:102E1000C4F234252046294600F0DBFB08B92C46D5
:102E20003560204600F0ECFC98F814103861012958
:102E300002D019B9442000E08C20786108F1040226
:102E400007CA3B1D2D30C1F1E101C2F1E10207C308
:102E5000BDE8F08170B540F27C14C2F20004204657
:102E60000421FEF76DFD40F2C415C2F200052846AC
:102E70000021FEF765FD40F20C26C2F20006304646
:102E80000021FEF75DFD30460421FEF759FD304676
:102E90000821FEF755FD30460C21FEF751FD206854
:102EA00040F2DC518163286841633068416381638B
:102EB000C16340F2CC71016470BD000040F2542047
:102EC00040F2F821C2F20000C2F200010122FFF735
:102ED0001BB930380A2801D2012070470020704702
:102EE0002DE9F04106460F4600F016FA041E0D4685
:102EF00018BF0120284320F00040C0F17F6000F19E
:102F0000E040C00F0ED0301C18BF0120384320F025
:102F10000040C0F17F6000F1E040C00F04BF01201D
:102F2000FDF7CDFA20462946BDE8F08121F00042A8
:102F300001F00043A2F16052B2F5801F28BFD2F128
:102F40007F6C0BD95FEA001C43EAC20242EB50706F
:102F500018BF704728BF20F001007047B2F5801FEE
:102F6000BCBF184670474FEA410C1CF5001F02D247
:102F7000084600F0BCBD70B500F079F9000000898A
:102F8000FFF7F6BF4FF00040A0F58000704700004B
:102F90002DE9C04130B4DFF8A8C23CEA111418BFD3
:102FA0003CEA131400F0F0801CEA111481EA0305D6
:102FB00044EAD57418BF1CEA131500F0CB80A4EBCB
:102FC000050404F17F7404F500344FF0004545EA30
:102FD000C12145EAC32341EA505143EA52534FEA23
:102FE000C0204FEAC222994208BF904200F0A08060
:102FF0004FEA13650FF24816765D4FEA134506FB5C
:1030000005F7C7F1807706FB07F74FEAD737A7FB2D
:1030100003687642A7FB06CEC8F5803838BFA8F112
:10302000010807FB08E6A6FB028C4FF0000EE6FB4A
:1030300003CED8F100086FEA0C0C5CF1000C6FEACB
:103040000E0E4EF1004EA6FB0C584FF00007E6FBAB
:103050000E87A1FB08C6A0FB07CE16EB0E064FF0AD
:10306000000545F10005E1FB076515F1E04E7EBF67
:10307000A4F580345FEA46066D4116F1800745F1FC
:1030800000054FEA172747EA05674FEA15254FEA7B
:103090000666A6F1DE46B6F1805F20D9384605EB1C
:1030A000C47124F0010C01EB0C11BCF1FE6F02D8CD
:1030B000F0BCBDE8008124425CBF01F5801E9EEAA1
:1030C000C47F02D4F0BCBDE80081244200F1398005
:1030D000A1F1C041F0BCBDE8004100F016B94FEAD3
:1030E000D02040EA41504FEAD1214FEAD22242EAB1
:1030F00043524FEAD323A7FB028607FB036605FB77
:1031000002661EEA0E0F58BFA6EB0056B6EB00563D
:103110004FEA520E4EEAC37E18EB0E0E56EB530EDC
:10312000BCD518EB02085E417F1C55F10005B5E7E0
:103130004FF480154FF000074FF000064FF00008E5
:10314000ACE701F1C04101F000414FF00000F0BCDC
:10315000BDE800810CEA131511EA0C1F00D00CE049
:1031600013EA0C1F00F025804FF0000081EA0301F4
:1031700001F00041F0BCBDE80081F0BCBDE80041B9
:1031800081EA030100F0C1B8F0BCBDE8004170B5B0
:1031900000F06DF8097EFC3E00F007B84FF000002B
:1031A00081EA030101F00041704781EA030100F068
:1031B000ACB8F0BCBDE8004122494FF000007047B8
:1031C000FFFDFBF9F7F5F4F2F0EEEDEBE9E8E6E4EC
:1031D000E3E1E0DEDDDBDAD8D7D5D4D3D1D0CFCD73
:1031E000CCCBCAC8C7C6C5C4C2C1C0BFBEBDBCBBAC
:1031F000BAB9B8B7B6B5B4B3B2B1B0AFAEADACABA7
:10320000AAA9A8A8A7A6A5A4A3A3A2A1A09F9F9E80
:103210009D9C9C9B9A999998979796959594939332
:10322000929191908F8F8E8E8D8C8C8B8B8A8989C9
:10323000888887878685858484838382828181804C
:103240000000FF070000F87FB0FA80F310FA03F1E6
:103250000AD0C3F11D0303F580634FEA03524FEA1E
:10326000415002EBD12170474FF0000070470EF142
:10327000020E2EF0030E5EF8046B364205D4012ACE
:1032800043EB030515F5001F12D8012841EB010C93
:103290001CF5001F0CD80ED14FEAD17C0CEB4C0C66
:1032A0000CF1020C15F5001F08BF4CEBD37C04E0B9
:1032B0004FF0080C01E04FEAD37C0CEB4C0526FAEA
:1032C00005F606F00706B6F1040C06D20EEB860CE6
:1032D000BDE870404CF0010C6047DFE80CF0090BD2
:1032E00002024FF00041A1F500214FF0000070BD37
:1032F00019461046012851EB010418BFD4F50014FB
:1033000084BF002001F0004170BD0808A0F5001145
:103310004FEA3101704700002DE9F04101F5801CB2
:10332000BCF5001FC0F2C3804FEA115C21EA0C51CA
:1033300041F480110CF1FD0C5FEA5C0C0CF5C07CD3
:1033400001D340004941890241EA905187023BA4E0
:103350008E0EA45D0A0C04FB04F602FB06F6C6F111
:103360004046A4FB0662F60D46EA422606FB06F43A
:10337000A4FB01235242C3F1404338BF5B1EA6FBAE
:1033800002420024E6FB0324D20B42EA4446A6FB99
:103390000623A1FB02E2A3FB07E4A4184FF00002FE
:1033A00052F10002E3FB01426442C2F1404E38BFD9
:1033B000AEF1010EA6FB04234FF00002E6FB0E3235
:1033C000A2FB0346B6194FF0000454F10004E2FBDF
:1033D0000264A1FB06E6A4FB07E816EB08064FF023
:1033E000000858F10008E4FB01687642C8F1405833
:1033F00038BFA8F10108A2FB06E4A3FB08E52D19DC
:103400004FF0000454F10004E2FB0854A1FB05E670
:10341000A7FB04E818EB06084FF0000656F100067B
:10342000E1FB048618F1200556F10006A80940EAE0
:103430008660B109A8F11B0808F03F08B8F10A0F2F
:103440001CD901EB0C51BDE8F08100BFFCF5EEE8A2
:10345000E2DDD8D3CFCBC7C3C0BDB9B6B4B1AEAC33
:10346000A9A7A5A3A19F9D9B9A9896959392908FAB
:103470008D8C8B898887868584838281A0FB0068F8
:1034800000FB01F208EB4208B8EB872807D5341897
:1034900058EB0104D5D5401C51F10001D1E7341A95
:1034A00078EB0104CDD4401E71F10001C9E75FEA59
:1034B0004C0C5FEA9C5C0DD105D301F000414FF04C
:1034C0000000BDE8F081BDE8F04170B5FFF7CFFE28
:1034D0006DDBFFBEBDE8F04101494FF000007047D1
:1034E0000000F87F90EA010F48BF81F0004100F131
:1034F0000A83421A3CBF801A89184FEAD052A2EBC5
:10350000D1534FF07F4C1CEA410F18BF9CEA026F69
:1035100000F03B804FF0004C4CEA00204CEA0121C7
:1035200021FA03FC10EB0C0C1ED202F1FF325FEA11
:103530001C2040EBC25038BF70471CF07F0F4FEA91
:10354000400C18BFBCF17F4F38BF7047C3F1200358
:10355000994008BF20F00100BCF17F4F38BF704791
:10356000A0F1C04000F0C3BA4FEA3C00000A40EBB3
:10357000C25028BF1CF0FF0F4FEA400CE6D018BF26
:10358000BCF17F4F38BF7047EAE79CEA026F05D075
:1035900010EA5C0F08BF00F00040704710B500F063
:1035A00060FA00BF64FBBE3E10B500F0F5F80CBF3A
:1035B0000120002010BD10B500F0EEF814BF01206E
:1035C000002010BD10B500F063F98CBF0120002071
:1035D00010BD10B500F05CF92CBF0120002010BD1B
:1035E00010B500F089F994BF0120002010BD10B57E
:1035F00000F082F934BF0120002010BD401058BFF8
:10360000C0F14040491058BFC1F140418142EFF341
:10361000008070474FF47F0C1CEAD0121EBF1CEADA
:10362000D11392EA0C0F93EA0C0F00F0858090EA18
:10363000010F48BF42F4807240F4000C41F40000D6
:103640002CF07F4120F07F4000B5A2EB03028142C5
:103650000FF2081CACEB504E9EF800E0C0F10000E9
:103660004FEA4E0E00FB0EFC38BF49004FEA2C1CFF
:103670000CFB0EF34FEACE1E0EEB635E4FEA112CED
:103680000EFB0CFC4FEAC1214FEA1C5300FB031157
:1036900002F5FA024FEA112C0EFB0CFC4FEA013145
:1036A0004FEADC4C00FB0C1142EB2242C14228BF26
:1036B00009184CEB03335DF804EB10EB410143EBCD
:1036C000C250B2F57C0F38BF704729D512F0F00F09
:1036D0001CBF00F1C04000F00040704700818283B1
:1036E0008485868788898B8C8D8E8F919293959611
:1036F00097999A9C9D9FA0A2A3A5A7A8AAACAEB09B
:10370000B2B3B5B7B9BCBEC0C2C5C7C9CCCED1D49F
:10371000D7D9DCDFE2E6E9ECF0F3F7FAFE000000CF
:103720004FEA400C0CF1807CBCF17E4F28BF704703
:10373000B0F1C04000F0DBB90CEAD11390EA010F00
:1037400048BF42F48072624538BF634507D213F424
:103750007F0F16D080EA010000F00040704710B5DE
:1037600000F07FF9097EFC3E00F005B880EA010018
:1037700000F00040704780EA010000F0004000F0D7
:10378000B6B912F47F0F04BF0248704780EA010007
:1037900000F0ADB90000C07F50EA010C00F11380C9
:1037A0001CF5000F58BFBCF5000F01D488427047CC
:1037B00007D710F5000F58BF11F5000F15D4884238
:1037C0007047894270471CF5000F04D5BCF5000F07
:1037D000F7D5814270474FF0807C1CEB400F38BF1B
:1037E0001CEB410F01D28142704710B500F039F94E
:1037F000922449004FF000504FF08051FFF7FEBE79
:1038000041000B0ED3F19E0208D950F400034FEA99
:10381000032323FA02F048BF4042704710B500F07E
:1038200020F900BF49922480002070476FF00042C9
:1038300082EA20007047000010F0004148BF40427B
:10384000B0FA80F310FA03F2C3F19D030BD051EAF2
:10385000C35101EB1220530638BF704700F101003D
:1038600008BF20F001007047B0FA80F310FA03F2AD
:10387000C3F19D030AD0D90501EB1220530638BFCE
:10388000704700F1010008BF20F001007047000000
:1038900050EA010C00F113801CF5000F58BFBCF575
:1038A000000F01D48842704707D710F5000F58BFAA
:1038B00011F5000F15D488427047894270471CF5F6
:1038C000000F04D5BCF5000FF7D5814270474FF0CB
:1038D000807C1CEB400F38BF1CEB410F01D28142B2
:1038E000704710B500F0BDF8922449004FF08050A9
:1038F0004FF00051FFF782BE50EA010C00F1138037
:103900001CF5000F58BFBCF5000F01D4884270476A
:1039100007D710F5000F58BF11F5000F15D48842D6
:103920007047894270471CF5000F04D5BCF5000FA5
:10393000F7D5814270474FF0807C1CEB400F38BFB9
:103940001CEB410F01D28142704710B500F089F89D
:10395000922449004FF000504FF08051FFF74EBEC7
:103960004FF47F0C1CEAD0121EBF1CEAD11392EA5E
:103970000C0F93EA0C0F00F0478090EA010F48BF4C
:1039800042F480724FF0004C4CEA00204CEA0121D6
:1039900002EB0302A0FB0113A2F50002002918BFED
:1039A00043F001035B0028BF4FEA330342EB22429E
:1039B0005FEA132C4CEBC2502EBFBCEB436FB2F549
:1039C0007C0F70474FEA036CBCF1004F08BF20F03A
:1039D0000100B2F57C0F38BF70470BD582F0FF02B3
:1039E00012F5803FC8BF704700F1C040D8BF00F05B
:1039F0000040704700F5000C5FEA4C0C48BF704770
:103A0000B0F1C04000F073B80CEAD11390EA010F96
:103A100048BF42F48072624538BF634504D280EAF1
:103A2000010000F00040704710B500F01AF800BF28
:103A30008900013E00F007B800F009B85FEA410CC8
:103A40005FEA1C6C08D080EA010000F050B85FEA21
:103A5000400C5FEA1C6CF6D14FF00040A0F58000EE
:103A600070470EF1020E2EF0030E5EF8044B244256
:103A700004D44FEA4102B2F17F4F11D84FEA40031C
:103A8000B3F17F4F0CD80ED14FEAD07C0CEB4C0C2D
:103A90000CF1020CB2F17F4F08BF4CEBD17C04E07B
:103AA0004FF0080C01E04FEAD17C0CEB4C0324FAF8
:103AB00003F404F00704B4F1040C06D20EEB840CFA
:103AC000BDE810404CF0010C6047DFE80CF007083F
:103AD00002024FF00040A0F5800010BD08464200F1
:103AE00018BFD2F1807288BF00F0004010BDFF21E6
:103AF00041EAD050C005704790EA010F48BF81F0FD
:103B000000413FF5F6AC421A04D882F00042A0EB27
:103B1000020011444FEAD052A2EBD1534FF07F4C38
:103B20001CEA410F18BF9CEA026F4AD04FF0004CCC
:103B30004CEA00204CEA012121FA03FCB0EB0C0C0A
:103B40000FD412F0FE0F36D05FEA4C001DD50012E4
:103B500040EBC25038BF70471CF03F0F18BF704792
:103B60000BE05FEA1C20A2F1010240EBC25038BF1B
:103B700070471CF07F0F18BF7047C3F120039940B6
:103B800014BF401E20F0010070474FEA1223800846
:103B900008BF7047B0FA80FCA2EB0C02CCF1280CF5
:103BA00060FA0CF093EA122F04BF00EBC25070478A
:103BB0004FEAC3707047130A5FEADC1008BF704712
:103BC000F6E79CEA026F04D010EA5C0F08BF002001
:103BD000704710B5FFF745FF40DFF63E81F000402B
:103BE000704704000008000000000000000200010F
:103BF00000001000000000000000000102030406A5
:103C00000708090000000001020304010202030486
:103C100005060708090A0B0C0D0E0F101000000016
:103C2000403C00080000002018000000500100087F
:103C3000583C000818000020E80800007001000847
:103C4000010000001000000000127A00000007438D
:083C5000000007430000000022
:04000005080000ED02
:00000001FF
